:020000040800F2
:100000004018002049020008A7200008B51F00087A
:10001000A5200008A10E0008E3240008000000004D
:10002000000000000000000000000000692200083D
:10003000A30E000800000000A92000086B220008A1
:1000400063020008630200086302000863020008FC
:1000500063020008630200086302000863020008EC
:1000600063020008630200086302000863020008DC
:1000700063020008630200086302000863020008CC
:1000800063020008630200086302000863020008BC
:1000900063020008630200086302000863020008AC
:1000A000630200086302000863020008630200089C
:1000B000630200086302000863020008630200088C
:1000C000630200086302000863020008630200087C
:1000D000630200086302000863020008630200086C
:1000E000630200086302000863020008630200085C
:1000F000630200086302000863020008630200084C
:10010000630200086302000863020008630200083B
:10011000630200086302000863020008630200082B
:10012000630200086302000863020008630200081B
:10013000630200086302000863020008630200080B
:1001400063020008630200086302000863020008FB
:1001500063020008630200086302000863020008EB
:1001600063020008630200086302000863020008DB
:100170006302000863020008630200080000000038
:10018000630200086302000800F002F800F04CF877
:100190000AA090E8000C82448344AAF10107DA45E2
:1001A00001D100F041F8AFF2090EBAE80F0013F0E8
:1001B000010F18BFFB1A43F0010318473427000052
:1001C00054270000103A24BF78C878C1FAD85207E3
:1001D00024BF30C830C144BF04680C6070470000C1
:1001E0000023002400250026103A28BF78C1FBD840
:1001F000520728BF30C148BF0B607047642900F028
:10020000FB80782900F03481002070471FB502F090
:1002100037FB9DE8030000F015FC00F007FA1FBD56
:1002200010B500F06CFA10BD00F0CFFA1146FFF7E0
:10023000EDFF02F0D1FA00F0D3FB03B4FFF7F0FFBB
:1002400003BC00F091FD00000948804709480047C1
:10025000FEE7FEE7FEE7FEE7FEE7FEE7FEE7FEE776
:10026000FEE7FEE704480549054A064B70470000D3
:1002700005230008890100084012002040180020D2
:10028000401400204014002053EA020C00F0698062
:100290002DE9F04B4FF00006002B1FBFB3FA83F59A
:1002A00003FA05F424FA05F65E4012BF1643B2FACB
:1002B00082F502FA05F4C5F120051EBF22FA05FCFD
:1002C00044EA0C04203556EA044C4FEA144418BFA3
:1002D000641C4FF000084FF00009904271EB030CD2
:1002E00039D3002919BFB1FA81F701FA07F6B0FA3C
:1002F00080F700FA07F6C7F120071EBF20FA07FCB7
:1003000046EA0C062037B6FBF4FCA7EB0507103FC6
:1003100007F01F0BCBF120060CFA0BFB2CFA06F6AC
:1003200044BFB3460026202FA4BF5E464FF0000B0B
:100330005BEA060C08BF4FF0010B19EB0B09ABFB96
:10034000027C48EB0608C01B06FB02CC0BFB03CC6F
:1003500071EB0C01C1E70B46024641464846BDE839
:10036000F08B13B54FF000004FF00001AFF30080A9
:10037000BDE81C40704700000FB4044910B503AA43
:10038000029800F025F910BC5DF814FB381100202C
:100390002DE9F0410E460446002020622046E16827
:1003A000884730B3252805D0D4E901219047206A39
:1003B000401CF2E7E168204600278847050018D076
:1003C000A5F14100192802D820354FF400673246C4
:1003D000294620462760FFF711FF40B1012804D0CD
:1003E000F61D26F007060836D8E7361DD6E728465C
:1003F000DAE7206ABDE8F0812DE9F04106460024E5
:1004000010687529314616A510D0AFF3008000287A
:1004100002DA404213A507E031688A0701D512A528
:1004200002E0490704D511A5012401E0AFF30080E3
:1004300000210A2206F1240709E0B0FBF2FCB0FB20
:10044000F2F302FB1C00303078541846491C002897
:10045000F3D123462A463046BDE8F04100F05EB8AD
:10046000000000002D0000002B0000002000000014
:1004700070B504460D4621461068AFF30080218810
:10048000090502D50F4A7A4402E00E4A7A440E3238
:10049000002104F1240305E000F00F060009965D39
:1004A0005E54491C0028F7D120780023000704D5AA
:1004B000702D02D009B1022311322046BDE87040F0
:1004C00000F02CB8322400004FF0000200B51346B3
:1004D00094469646203922BFA0E80C50A0E80C5064
:1004E000B1F12001BFF4F7AF090728BFA0E80C5015
:1004F00048BF0CC05DF804EB890028BF40F8042B0E
:1005000008BF704748BF20F8022B11F0804F18BF7A
:1005100000F8012B70477047704770472DE9F0478E
:100520000D4699469246044600F124080168880663
:1005300004D5E06921F01001216000E00120A8420B
:1005400001DD471B00E00027A1697A1902EB0900D1
:10055000081AA0612078C00602D42046AFF30080BC
:10056000002608E0D4E901211AF806009047206A25
:10057000401C761C20624E45F4DB2078C0060AD56C
:100580002046AFF3008006E0D4E9012130209047F7
:10059000206A401C2062381EA7F10107F4DC07E046
:1005A000D4E9012118F805009047206A401C206218
:1005B000281EA5F10105F3DC2046AFF3008020786A
:1005C000000602D50220BDE8F0870120FBE700000D
:1005D000074B70B50D467B4400F011F804462846E1
:1005E00000F020F810B14FF0FF3070BD204670BD14
:1005F000E721000001694A1C02610878704700B5D4
:100600008FB0CDE901310021059105497944CDE94B
:10061000031011466846FFF7BBFE0FB000BD000097
:10062000E5FFFFFF007B00F08000704710B54248F7
:100630005421FFF749FF41485421FFF745FF404847
:100640005421FFF741FF3F493B483C4A3F4B08607C
:100650003D490A603A491960531C0365481C1065FE
:10066000012008653B48344A39A1784400F01CF960
:1006700020B9384878440A3800F0BBF937482F4A87
:1006800035A1784400F010F920B9344878440A388C
:1006900000F0AFF932482A4A2FA1784400F004F95B
:1006A00020B92F4878440A3800F0A3F940232248A3
:1006B000DC000021224600F0D4F820B1254878441F
:1006C000543800F096F91D4822464023002100F0DE
:1006D000C8F820B121487844543800F08AF9184805
:1006E00022461023002100F0BCF8002806D01C4848
:1006F0007844BDE81040563800F07BB910BD104872
:1007000070B5006D20F001040B4800F043F90B4870
:1007100000F040F90A4800F03DF909E0206D20F0B2
:100720000105204600F036F9204600F073F82C460B
:10073000002CF3D170BD0000E4100020381100201F
:100740008C1100201C00002020000020240000202C
:100750007200000076220000770000006222000094
:100760004E2200000EB5CDE9000100F0DDFA029046
:1007700069460120ABBE0EBD08B569460090022057
:10078000ABBE08BD1FB58DE8070069460520ABBEAE
:1007900004B010BD1FB58DE80F0069460620ABBE42
:1007A000F6E708B5694600900920ABBE08BD1CB548
:1007B000CDE9000169460A20ABBE1CBD704708B5F3
:1007C000694600900C20ABBE08BD754600F018F9D4
:1007D000AE4605006946534620F00700854618B02E
:1007E00020B5FFF73FFDBDE820404FF000064FF079
:1007F00000074FF000084FF0000B21F00701AC4656
:10080000ACE8C009ACE8C009ACE8C009ACE8C00974
:100810008D46704770B50446051F00F0F7F8006874
:10082000002C14BF446870BD002C18BFAC423CBF04
:1008300020466468F8D301680A18AA4218BF4560C8
:1008400003D12A6805461144016028684119A14274
:100850001CBF6C6070BD61686960216808442860D5
:1008600070BD70B5C468A50713D0650211D4B2F588
:10087000807F09D0B2F5007F06D0B2F5806F08D135
:10088000012300F1240106E05D1E6FF07F46B542B2
:1008900001D3012070BD0161C361416024F4706126
:1008A0001143C160002070BD2DE9F0410C460746A0
:1008B0001646104600F06EF82078611C61280AD0B8
:1008C000722802D077283CD102E00125002405E0FF
:1008D0000225042402E0082448F2020511F8010B65
:1008E0002B2806D0622809D011F8010C74280AD0F0
:1008F0000BE045F0030544F00204EFE745F0040582
:1009000044F00104EAE744F0100438462146FFF7BA
:1009100029FF411C15D00021316171604FF4007135
:10092000F560F1617061200704D530460222002194
:1009300000F0E6F8306D40F0010030653046BDE86B
:10094000F0810020FBE72DE9F0410D460646104CF2
:10095000206DC10704D0410804D020F00104F7E75E
:1009600022460EE0542000F09CF807000ED0206DC7
:1009700047F001010843542120653846FFF7A4FDE4
:100980003A4629463046BDE8F0418DE70020D6E7DB
:10099000E41000202DE9F04704464FF000094FF025
:1009A000FF37C568D4E90486A80707D0204600F0C1
:1009B00057F93046FFF7E0FE002802DA3846BDE876
:1009C000F087280502D54046FFF724FF4C2120463A
:1009D000FFF77AFD206D20F0010020654846EEE724
:1009E00010B50446AFF300802046BDE81040FFF785
:1009F00024BC10B500F07EF9BDE8104000F074B9D9
:100A000000487047E0110020704700000048704720
:100A1000E8110020704770477047704738B50446AA
:100A20000A4600206946AFF30080002808BF38BDA1
:100A300002460099204600F0A4F9012038BD0120AB
:100A400000F0F3B9F8B5AFF30080054600200C467E
:100A5000102000BF0646A819A0420DD932466946AB
:100A60000020AFF30080070008BF00F0DEF9009817
:100A7000A04218BF0546C419FFF7C8FF0560074626
:100A8000F01D20F007004619284600F073F9B44223
:100A900008BFF8BDA21B31463868BDE8F84000F039
:100AA00070B970B50646FFF7B1FF056806F10B0097
:100AB00020F00704B4429CBF002070BD2B466A683A
:100AC000BAB11068A04210D304F1080188423CBFBB
:100AD0005068586007D35168101941601168091BAC
:100AE000016058601460101D70BD13465268002AE2
:100AF000E7D121462846FFF791FF0028DED170BDDF
:100B00002DE9F041044616460D464769007B8007F3
:100B10002ED03846FFF745FE50BB3EB3012E02D023
:100B2000022E25D104E0204600F045F905441DE0E1
:100B30003846FFF744FEE168002841F01001E1600B
:100B400005DA204600F058F80120BDE8F081C9031D
:100B50000BD56268E16A914200D81146A26911443E
:100B60002269891A814200DD08460544002D01DA18
:100B70000220EAE7E16A6068E268814206D29103F6
:100B8000E06203D522F4003141F01002A66900278B
:100B9000AE4213DCE16A814201D90B4600E0034614
:100BA00003EB060C2369ACEB030CAC4506DD81427C
:100BB00001D98C4600E084469C4505D1A76027609A
:100BC00042F02000A5620DE0AD1BE669AE1B81423C
:100BD000A66000D90846C01A281A2060581960601B
:100BE00022F0200003490840E060002084F84870AB
:100BF000ABE70000BFCFD7FFC16821F4001141F07F
:100C00008001C16000218160016070472DE9F047DB
:100C1000814614460E464FF0FF383248D568576972
:100C2000054209D03846A169FFF7C1FD002811DB54
:100C30002C48C0430540E5602B46324649463846BD
:100C4000FFF7A0FDA16920F00042B21A114400286C
:100C5000A16103D02046FFF7CFFF4046BDE8F087F3
:100C600070B504460569C06A6168884200D80846C4
:100C7000E16821F42011E160C90312D5A84208D02F
:100C80002246411B2846FFF7C1FF10B14FF0FF304D
:100C900070BD0020E562C4E90150E06820F48030B6
:100CA000E060002070BD10B50446C06820F0200050
:100CB000E060A16AA06988420DD02046FFF7D0FF0E
:100CC000E06820F4405040F01000E060A06AA061AD
:100CD0002069E062606044F24001E0688843E060BF
:100CE00010BD000010000200002801D000F03CB848
:100CF0007047000010B5014602A000F07DF8012009
:100D000010BD000053494752545245443A205265A1
:100D10006469726563743A2063616E2774206F7032
:100D2000656E3A200000000010B5431C02E010F888
:100D3000011B71B18107FAD14FF0013202C88C1A40
:100D40008C4314EAC211F9D0C01A0A0603D0C01E9F
:100D500010BDC01A10BD0A0401D0801E10BD0902CA
:100D6000FCD0401E10BD000001491820ABBEFEE7BC
:100D70002600020000210160C0E901107047102028
:100D80007047034640688C46002818BF88423CBF25
:100D900003464068F8D318681844884207D00CF11D
:100DA000030020F00700001D411A521A0146081DD9
:100DB0000A60FFF72FBD10B50146C268900703D047
:100DC000900607D5886A0AE000F03EF8012101602C
:100DD000881E10BD8B69486818440B69C01A91F8C9
:100DE00048301BB191F84910401A10BD1103FCD5D1
:100DF0000028FADD401E10BD70B505460C460A20DD
:100E000000E06D1C00F018F835B128780028F8D102
:100E100002E0641C00F010F814B120780028F8D12A
:100E2000BDE870400A2000F007B810B500F010F8D7
:100E3000BDE81040FFF758BF08B569468DF80000BF
:100E40000320ABBE08BD000000487047E011002041
:100E500010B5012805D0002103A0FFF7CDFF012028
:100E600010BD09A1F8E7000053494752544D454DC4
:100E70003A204F7574206F662068656170206D653B
:100E80006D6F7279000000003A2048656170206D36
:100E9000656D6F727920636F72727570746564002E
:100EA000FEE7704772B6FEE710B5174C012804D074
:100EB000022813D0014615A021E018A0FFF75CFA24
:100EC0001AA0FFF759FA61681A221F48643901F025
:100ED000B5FBBDE810401DA0FFF74EBA22A0FFF7FA
:100EE0004BFA25A0FFF748FA61681A2229486439AD
:100EF00001F032FB28A0FFF73FFA26492DA0BDE8FC
:100F00001040FFF739BA0000000000204B6579203F
:100F100076616C75653A2025640A00004B6579207E
:100F200076616C75653A20310D0A00005374617268
:100F30007420577269746520573235513132382E1A
:100F40002E2E2E0D0A0000008A2800085732355137
:100F50003132382057726974652046696E6973684A
:100F60006564210D0A0000004B65792076616C757F
:100F7000653A20320D0A0000537461727420526584
:100F8000616420573235513132382E2E2E2E0D0A03
:100F9000000000002800002054686520446174614E
:100FA0002052656164656420497320656E64202069
:100FB00020000000646174613A25640D0A2000007D
:100FC00070B5044600F00CF90546601C02D00448D8
:100FD0000078044400F004F9401BA042FAD370BD2D
:100FE0000C0000202DE9F84FDFF8BCA100220125FC
:100FF00003264FF00F090AF1040BAAF1040E00BFFB
:101000000B6805FA02F42340A34270D10F7907F070
:101010000307012F01D0022F16D187684FEA42083B
:1010200006FA08FC27EA0C07D1F80CC00CFA08FCF9
:101030004CEA070CC0F808C04768A7430C79C4F312
:10104000001494403C4344600C79E443A4070AD064
:10105000C4684FEA420C06FA0CF7BC438F6807FAE3
:101060000CF72743C7600C7904F00304022C12D15B
:10107000D40800EB840CDCF820405707FF0E09FA77
:1010800007F824EA0804D1F8108008FA07F848EABB
:101090000408CCF8208004684FEA420C06FA0CF7EA
:1010A000BC430F7907F0030707FA0CF727430760E3
:1010B0004C6814F4403F70D03C4C276847F480479C
:1010C0002760246822F0030704F480440094384C1D
:1010D00007EB040CDCF8084897074FEA177809FA81
:1010E00008F7BC43334FB84202D1002724E054E054
:1010F000314FB84201D101271EE0304FB84201D133
:10110000022719E02E4FB84201D1032714E02D4FDA
:10111000B84201D104270FE02B4FB84201D1052777
:101120000AE02A4FB84201D1062705E0284FB8420D
:1011300001D1072700E0082707FA08F72743CCF872
:101140000878DAF800405746D1F804C09C435FEABB
:10115000CC2C00D51C433C60DBF800405F46D1F846
:1011600004C09C435FEA8C2C00D51C433C60DEF835
:1011700000407746D1F804C09C435FEA8C3C00D520
:101180001C433C60084F083F3C68D1F804C09C43B6
:101190005FEACC3C00D51C433C60521C102AFFF493
:1011A0002FAFBDE8F88F0000083C014044380240F2
:1011B00000300140000002400004024000080240EC
:1011C000000C0240001002400014024000180240CF
:1011D000001C02400AB1816170470904FBE700006E
:1011E00001488068704700000C00002002488168B8
:1011F00002781144816070470C0000200B4810B544
:10120000016841F400710160016841F4806101608E
:10121000016841F480710160032000F061F80F2043
:1012200000F006F800F024F8002010BD003C024059
:1012300070B50D4D04464FF47A712878B1FBF0F08B
:101240000A490968B1FBF0F000F0E7FD48B9102C3D
:1012500007D200222146501E00F022F800206C60C8
:1012600070BD012070BD00000C000020180000209F
:101270000A4808B5016841F480410160006800F443
:10128000804000900548001F016841F080510160D6
:10129000006800F08050009008BD00004438024013
:1012A000F0B40E4B1B680C46C3F30223C3F10705D1
:1012B000042D00D90425191D072901D2002300E0BF
:1012C000DB1E012606FA05F1491E214099409E4089
:1012D000761E16403143F0BC01F062BA0CED00E01E
:1012E000064900F0070208684FF6FF03184040EA7D
:1012F0000220034A10430860704700000CED00E034
:101300000000FA052DE9F0470E46050065D0DFF82C
:101310001481D8F80000F7B200F00700B04207D2FD
:1013200088F80070D8F8000000F00700B04254D1EF
:1013300028683D4C810712D5400703D5206840F44A
:10134000E05020602878000703D5206840F4604012
:1013500020602068A96820F0F00008432060287809
:10136000C0072DD0304968680839012812D00228FA
:1013700013D0032811D00968890700292DDA2168C4
:1013800021F0030101432160FFF72AFF814641F26A
:10139000883A0EE009688903EFE709688901ECE7FC
:1013A000FFF71EFFA0EB0901514502D90320BDE85C
:1013B000F0872068696800F00C00B0EB810FEFD176
:1013C000D8F80010404601F00701B14207D9077074
:1013D000006800F00700B04201D00120E7E728785C
:1013E000400705D52068E96820F4E05008432060F4
:1013F0002878000706D52068296920F4604040EA73
:10140000C100206000F038F82168084AC1F30311D8
:10141000515CC8400649086006480068FFF708FFAD
:101420000020C4E7003C024008380240A42800081D
:1014300018000020100000200448054900680968D1
:10144000044AC1F38221515CC84070471800002053
:1014500008380240B42800080448054900680968B3
:10146000044AC1F34231515CC84070471800002063
:1014700008380240B4280008154810B5006810F07C
:101480000C02144813D04110042A0FD0082A0ED1A0
:101490000F4C241F2268236802F03F025B0207D52D
:1014A0002068C0F38810A0FB010106E0084610BDCB
:1014B0002168C1F38811A1FB00010023FEF7E4FEBF
:1014C0002168C1F30141491C4900B0FBF1F010BD96
:1014D000083802400024F4002DE9F84F04006ED0D3
:1014E0002078DFF84C93C007A9F104054AD009F130
:1014F00004000168C1F38101012908D00068C0F32C
:10150000810002280AD1D9F80000400206D52868D7
:10151000800337D560680028E1D033E06068B0F51B
:10152000803F10D0B0F5A02F286810D020F4803074
:101530002860286820F4802028606068A8B1FFF740
:101540004FFE06460DE0286840F48030F4E740F492
:1015500080202860F7E700BFFFF742FE801B642869
:1015600073D828688003F7D50CE0FFF739FE0646EC
:1015700005E000BFFFF734FE801B6428F0D8286820
:101580008003F7D42078DFF8AC8280074FF0000AA0
:101590003ED5A748001D016811F00C0F08D0006867
:1015A000C0F3810002280BD1D9F80000400207D413
:1015B0002868800716D5E068012800D112E033E1E1
:1015C000E068B8B10120C8F80000FFF709FE064640
:1015D00005E000BFFFF704FE801B0228C0D8286882
:1015E0008007F7D52868216920F0F80040EAC1009B
:1015F00028600DE0C8F800A0FFF7F2FD064604E001
:10160000FFF7EEFD801B02281FD828688007F7D45B
:101610002078000722D5864F87486169703771B1FD
:1016200001210160FFF7DCFD064604E0FFF7D8FD6D
:10163000801B022809D838688007F7D50EE0C0F86B
:1016400000A0FFF7CDFD064605E082E0FFF7C8FDEC
:10165000801B02287DD838688007F7D4207840079F
:1016600068D5DFF8CCB100270BF13C0BDBF80000AC
:10167000C0000BD4DBF8001041F08051CBF8001013
:10168000DBF80000012700F0805000906B4E3068BE
:10169000C00510D4306840F480703060FFF7A0FDC2
:1016A000009005E0FFF79CFD0099401A022850D8F1
:1016B0003068C005F6D55E4EA0686C3601280FD0A4
:1016C0000528306810D020F001003060306820F02C
:1016D00004003060A068B8B1FFF782FD00900FE011
:1016E000306840F00100F4E740F004003060F7E7B4
:1016F000FFF776FD0099411A41F28830814266D8A1
:1017000030688007F4D50EE0FFF76AFD009007E02F
:10171000FFF766FD0099411A41F28830814256D8A0
:1017200030688007F4D42FB1DBF8001021F080512D
:10173000CBF80010A069C8B33D49091D0968C1F381
:10174000810102294AD00228504607D0C8F860001B
:1017500000E03CE0FFF744FD04463BE04746C8F8A4
:101760006000FFF73DFD064605E000BFFFF738FDCE
:10177000801B02282BD828688001F7D4D4E9070100
:101780000843A16A2E4A490802EB0141626A41EA14
:101790008211084394F82C1040EA0161C9F8001046
:1017A00001203866FFF71CFD044606E03EE000BF5E
:1017B000FFF716FD001B022809D828688001F7D51D
:1017C00034E000BFFFF70CFD001B022802D9032004
:1017D000BDE8F88F28688001F4D427E00128F7D00D
:1017E000D9F80000E26900F4800191421CD1226A1C
:1017F00000F03F01914217D147F6C071626A014083
:10180000B1EB821F10D1A26A4FF0FF3300F44031D8
:1018100003EB5202B1EB024F06D194F82C1000F00A
:101820007060B0EB016F01D00120D1E70020CFE75D
:101830000438024000004742800E474200700040DA
:101840000000FFFF70B5040009D0606A002540B1B8
:1018500025616561A56294F8510040B10CE001205A
:1018600070BD6068B0F5827FF4D0E561F2E784F87E
:101870005050204600F044F8022084F851002068BF
:10188000016821F040010160A088218900F4827084
:1018900001F404410843A18901F400610843217C5B
:1018A00001F002010843217D01F001010843218B71
:1018B00001F400710843217F01F03801084394F8D6
:1018C000201001F080010843218D01F400510843EC
:1018D00021680860A069042101EA104094F82410EE
:1018E00001F010010843216848602068C16921F4B3
:1018F0000061C1616565012084F85100002070BD60
:1019000010B586B0044614216846FEF7DDFD134984
:101910002068884220D112480021026842F4805297
:101920000260006800F4805005900D481438026889
:1019300042F001020260006800F001000590E02022
:1019400000900220CDE901010320039005200490BE
:1019500069460448FFF746FB06B010BD0030014061
:1019600044380240000002402DE9F84F044690F848
:101970005100984616460F460025012801D0022541
:1019800098E060684FF0040BB0F5827F01D1A06849
:10199000F8B194F85000012826D04FF0010984F8DE
:1019A0005090FFF71DFC8246002F7FD0002E7DD087
:1019B00084F851B000206065A763A687E68720639E
:1019C000A086E08620646064A068B0F5004F0DD06A
:1019D00016E084F851B013460A462046CDF8008040
:1019E00000F024F9BDE8F88F0220FBE720680168C9
:1019F00021F0400101602068016821F4804101600C
:101A000020680168490603D4016841F04001016083
:101A1000E068D8B13BE020688168C90709D0007B45
:101A2000A16B0870A06B401CA063E08F401EE08794
:101A30000CE0FFF7D5FBA0EB0A01414503D3B8F159
:101A4000FF3F03D006E0B8F1000F03D0E08F00287D
:101A5000E1D11FE003252BE020688168C90709D088
:101A6000C068A16B0880A06B801CA063E08F401E43
:101A7000E0870CE0FFF7B4FBA0EB0A01414503D37C
:101A8000B8F1FF3F03D0E5E7B8F1000FE2D0E08FF7
:101A90000028E1D152464146204600F025FB08B11E
:101AA00020206065606D00E000E008B1012501E0E4
:101AB00084F85190002084F85000284692E72DE9E0
:101AC000F84F044690F850000026984615468A467E
:101AD00001280CD0012784F85070FFF781FB814664
:101AE00094F85100B346012804D002269AE002205F
:101AF000BDE8F88FBAF1000F6FD0002D6DD0032034
:101B000084F85100C4F854B0C4F830A0A586E58626
:101B1000C4F838B0A4F83CB0A4F83EB0C4F844B05F
:101B2000C4F840B0A068B0F5004F09D12068016842
:101B300021F0400101602068016841F480410160AA
:101B400020680168490603D4016841F04001016042
:101B5000E068B0F5006F606803D058B3012D29D05C
:101B600049E008B1012D1FD1206B21680088C860B1
:101B700006E020688168890709D5216B0988C16062
:101B8000206B801C2063E08E401EE0860CE0FFF797
:101B900027FBA0EB0901414503D3B8F1FF3F03D078
:101BA00006E0B8F1000F03D0E08E0028E1D125E077
:101BB000032635E0206B21680078087306E0206872
:101BC000816889070AD5216B09780173206B401C55
:101BD0002063E08E401EE0860DE01FE0FFF700FB73
:101BE000A0EB0901414503D3B8F1FF3F03D0DFE784
:101BF000B8F1000FDCD0E08E0028E0D14A46414623
:101C0000204600F09FFA08B120206065A06818B94E
:101C10002068C16880680090606D08B1012601E00D
:101C200084F8517084F850B0304661E72DE9FF4FD9
:101C300081B0044690F8500000260E9F1D46934642
:101C40004FF0010901280FD04FF0010A84F850A08D
:101C5000FFF7C6FA804694F85100616801280DD05C
:101C6000B1F5827F08D103E0022005B0BDE8F08F16
:101C7000A16809B9042801D00226C9E00298002809
:101C800065D0BBF1000FFBD0002DF9D094F85100C6
:101C9000042802D0052084F8510000206065C4F8B3
:101CA00038B0E587A58702992163E586A58620647B
:101CB000606420680168490603D4016841F040016E
:101CC0000160E068B0F5006F606803D0F0B3012DEB
:101CD00047D081E008B1012D3CD1206B21680088FC
:101CE000C860206B801C2063E08E401EE08631E0DF
:101CF0002068816889070FD5E18E69B1B9F1010FBC
:101D00000AD1216B0988C160206B801C2063E08EA2
:101D1000401EE0864FF0000920688168C9070CD09A
:101D2000E18F51B1C068A16B0880A06B801CA063DB
:101D3000E08F401EE0874FF00109FFF751FAA0EB5A
:101D40000800B84206D3781C04D001E009E05BE04B
:101D500003265BE0E08E0028CAD1E08F0028C7D1BF
:101D600040E0206B216800780873206B401C2063E2
:101D7000E08E401EE0862FE02068816889070FD53D
:101D8000E18E69B1B9F1010F0AD1216B09780173B4
:101D9000206B401C2063E08E401EE0864FF000095F
:101DA00020688168C9070CD0E18F51B1C068A16B70
:101DB0000870A06B401CA063E08F401EE0874FF0CE
:101DC0000109FFF70DFAA0EB0800B84202D3781C16
:101DD00002D0BAE7002FB8D0E08E0028CCD1E08F37
:101DE0000028C9D142463946204600F0ABF918B167
:101DF0000126202060650BE0A06818B92068C16842
:101E000080680090606D08B1012601E084F851A05F
:101E1000002084F85000304627E710B5401EB0F18E
:101E2000807F01D3012010BD4FF0E02460610F21BD
:101E3000601700F0B5FC0020A061072020610020A1
:101E400010BD70B5040004D094F84100002510B115
:101E500006E0012070BD84F84050204600F024F8D0
:101E6000242084F841002068C16821F40051C16039
:101E7000204600F077FA2068016921F49041016161
:101E80002068416921F02A0141612068C16841F45C
:101E90000051C1606564202084F8410084F842004C
:101EA0006563002070BD000010B586B004461421A3
:101EB0006846FEF709FB14492068884221D113487F
:101EC0000021026842F010020260006800F0100079
:101ED00005900E481438026842F001020260006862
:101EE00000F0010005904FF4C06000900220CDE9A1
:101EF0000101032003900720049069460448FFF77E
:101F000071F806B010BD00000010014044380240D6
:101F1000000002402DE9F843044690F8410098463D
:101F200016460D46202802D00220BDE8F88385B170
:101F30007EB100206064212084F84100FFF750F951
:101F4000A6848146E684A0682027B0F5805F02D091
:101F500003E00120E9E7206910B12E4600250EE0DC
:101F600000260CE08021204600F082FAA8B9C6B114
:101F700016F8010B21684860E08C401EE084E08C7C
:101F80004B464FF00002CDF800800028EAD14FF018
:101F90004001204600F06CFA40B184F84170032003
:101FA000C3E735F8020BC0F30800E3E784F841709B
:101FB0000020BAE7FEE7000070B586B0142168463D
:101FC000FEF782FA15480024016841F080010160A3
:101FD000016801F080010591016841F00101016093
:101FE00000680F4E00F001000590012210213046DC
:101FF000FFF7F0F80125CDE9005469463046029418
:10200000FEF7F0FF1020CDE900050220CDE90240E7
:1020100069463046FEF7E6FF06B070BD3038024034
:1020200000000240104810B50E4901604FF4827163
:10203000416000218160C1604FF400720161C0E91C
:1020400005120822C0E90721416281620A21C162AA
:10205000FFF7F8FB002803D0BDE81040FEF722BFD1
:1020600010BD000000300140440000200C4810B5B5
:102070000A4901604FF4E1314160002181600C2286
:10208000C160C0E904128161C161FFF7DAFE002876
:1020900003D0BDE81040FEF705BF10BD00100140A1
:1020A0009C000020FEE7FEE77047000031B50D4CB4
:1020B00020688168C9438907FBD44FF47A752B46A1
:1020C000012269460748FFF7FAFC20688168C94386
:1020D000C907FBD12B46012269460248FFF744FCA1
:1020E00038BD000044000020F8B5044640684FF4B5
:1020F0008273984221D1A0684FF48065B0F5004FFB
:1021000001D0A8420AD12068066826F04006066081
:102110006068984211D1A068A8420ED000920B4688
:1021200000228021204600F043F8002804D0606D92
:1021300040F0200060650320F8BD00920B460022AD
:102140000121EFE7F8B515460E460B46009204460E
:102150000122022100F02CF8A0B9134813490068AD
:10216000B0FBF1F04FF47A71484300906068B0F52D
:10217000827F0DD13346002280212046009500F059
:1021800017F870B1606D40F0200060650320F8BD65
:10219000009830B1401E009020688068C04300065F
:1021A000F6D50020F8BD00001800002000366E01B2
:1021B0002DE9F8431E46914688460446089DFFF7E0
:1021C0000FF8401B351AFFF70BF807462548006843
:1021D000C0F3CB30684338E0701C37D0FFF700F80D
:1021E000C01BA84203D215B1009860B32CE0206850
:1021F000416821F0E00141606068B0F5827F0BD159
:10220000A068B0F5004F02D0B0F5806F04D120680F
:10221000016821F040010160A06AB0F5005F09D1BA
:102220002068016821F4005101602068016841F4D0
:1022300000510160012084F85100002084F8500012
:102240000320BDE8F8830025401E009020688168C7
:1022500038EA010004D000214945BDD10020F0E753
:102260000121F9E7180000207047FEF7BFBF00000A
:1022700030B593B030216846FEF726F914210CA83A
:10228000FEF722F91D480025016841F080510160E8
:10229000006800F0805011901948016841F48041B5
:1022A00001600068022400F4804011900120009039
:1022B000000401908001CDE9064008AA0420A8216D
:1022C00082E813000B906846FFF706F908B172B672
:1022D000FEE70CA90F2081E831004FF4A0500F90C9
:1022E0004FF48050109005210CA8FFF70BF8002840
:1022F00001D072B6FEE713B030BD00004038024096
:10230000007000400248016841F4700101607047AC
:1023100088ED00E001680C3151E8002F22F4907242
:1023200041E80023002BF5D10168143151E8002F5A
:1023300022F0010241E80023002BF5D1016B0129B5
:1023400009D101680C3151E8002F22F0100241E858
:102350000023002BF5D1202180F8421000210163D9
:102360007047000070B5044600680169E26821F416
:102370004051114301612169A068E2690843616924
:10238000114308432168CA6849F20C639A43024327
:10239000CA6020684169A26921F44071114341611A
:1023A00031492068884202D03049884202D1FFF783
:1023B00053F801E0FFF740F8E26900231921642592
:1023C0003226B2F5004F626828D0A0FB0101930FBE
:1023D0009200FDF759FF0146B0FBF5F06FF01802CF
:1023E000504301EB800006EB0010B0FBF5F000F06D
:1023F000F002B1FBF5F002EB0012B1FBF5F06FF06B
:102400001803584301EB800006EB0010B0FBF5F019
:1024100000F00F0021681044886070BDA0FB01012E
:1024200092185B41FDF730FF0146B0FBF5F0020169
:10243000B1FBF5F06FF01803584301EB800006EB99
:10244000C000B0FBF5F000F0F80002EB4002B1FB79
:10245000F5F0584301EB800006EBC000B0FBF5F04F
:1024600000F00700D6E70000001001400014014012
:102470002DE9F843984617460D460446089E24E089
:10248000701C22D0FEF7ACFEA0EB0800B0421AD8B8
:10249000CEB12068C168490717D5802D15D0402DD1
:1024A00013D00168C94309070FD4016800254068AB
:1024B00000902046FFF72EFF0820606484F840500B
:1024C0000120BDE8F8830320FBE72068006835EAB7
:1024D000000004D00020B842D2D00020F1E7012053
:1024E000F9E7FEE770B50446014612A0FDF744FF88
:1024F000240300F0F1F800F099F8104D00221021AB
:102500002846FEF767FE2020FFF7D0FDC4F3074002
:10251000FFF7CCFDC4F30720FFF7C8FDE0B2FFF7DB
:10252000C5FD012210212846FEF754FEBDE870408B
:1025300000F07CB866653A25780D0A00000002407C
:1025400010B5FFF739FDFFF76DFD00F031F80149D7
:10255000088010BD080000202DE9F041134F1546FA
:102560000C460646002210213846FEF733FE0320B3
:10257000FFF79CFDC4F30740FFF798FDC4F3072065
:10258000FFF794FDE0B2FFF791FD002405E0FF2086
:10259000FFF78CFD3055641CA4B2AC42F7D338462B
:1025A000BDE8F04101221021FEF714BE00000240F8
:1025B00070B5114D0024224610212846FEF70AFE70
:1025C0009020FFF773FD0020FFF770FD0020FFF75C
:1025D0006DFD0020FFF76AFDFF20FFF767FD44EA6D
:1025E0000024FF20FFF762FD04430122102128464A
:1025F000FEF7F0FD204670BD0000024070B50A4DA8
:10260000002210212846FEF7E5FD0520FFF74EFDCC
:10261000FF20FFF74BFD0446012210212846FEF75C
:10262000D9FD204670BD0000000002402DE9104099
:10263000FFF7E4FFC007FBD110BD00002DE9F05FFC
:10264000C1F30B06DFF88C800F0BC6F5805489466A
:1026500082461546A24200D8144639038B464FF4F1
:1026600080524046FFF778FF002006E0321818F845
:102670000210FF2903D1401C80B2A042F6D3A04231
:1026800022D23846FFF72EFF002006E01AF800207D
:102690008319401C08F8032080B2A042F6D35946A3
:1026A0004FF480524FEA080000F02AF8A5420FD0FC
:1026B000281BA244A144002685B24FF480547F1CFD
:1026C000A542CAD82C46C8E7224649465046EBE701
:1026D000BDE8F09FE400002010B5084C0022102156
:1026E0002046FEF777FD0620FFF7E0FC204601229A
:1026F000BDE810401021FEF76DBD00000000024053
:102700002DE9F0410746C8B2C0F580740E46154663
:10271000A24200D814464FF480782246314638460B
:1027200000F00EF8A54208D0281B2744264485B2A5
:102730004446A542F1D82C46EFE7BDE8F081000001
:102740002DE9F04115460C460646FFF7C5FF134F2D
:10275000002210213846FEF73DFD0220FFF7A6FCBF
:10276000C4F30740FFF7A2FCC4F30720FFF79EFC69
:10277000E0B2FFF79BFC002404E0305DFFF796FC1D
:10278000641CA4B2AC42F8D3012210213846FEF7F3
:1027900021FDBDE8F041FFF749BF00000000024005
:1027A0000907090E002804DB00F1E02080F800147E
:1027B000704700F00F0000F1E02080F8141D704712
:1027C00013B54FF6FF73012269460248FFF7A2FBDB
:1027D00000981CBD9C000020FEF710FDFFF748FD8F
:1027E000FFF7EAFBFFF71EFCFFF740FCFFF7A8FE30
:1027F0004FF4FA744EF617750BE010A0FDF7BCFD10
:102800002046FEF7DDFB13A0FDF7B6FD2046FEF7E0
:10281000D7FBFFF7CDFEA842EFD113A0FDF7ACFD2B
:10282000164C4FF080700025606060780128FCD164
:1028300065702078FEF738FBF7E700005732355116
:1028400031323820436865636B204661696C65648A
:10285000210D0A00506C6561736520436865636BE8
:10286000210D0A2020000000573235513132382026
:102870005265616479210D0A00000000000000200B
:102880004FF04070E1EE100A70474578706C6F723F
:1028900065722053544D33324634205350492054EE
:1028A0004553540000000000000000000102030432
:1028B000060708090000000001020304303132332A
:1028C0003435363738394142434445464030580064
:1028D0003031323334353637383961626364656696
:1028E000403078003A7474003A7474003A7474009A
:1028F000102900080000002028000000C401000882
:10290000382900082800002018180000E0010008FD
:10291000000000000000000017EF000001000000B0
:1029200010000000000000000024F400000000007F
:0829300000000000000000009F
:040000050800018965
:00000001FF
