:020000040800F2
:1000000090180020A1010008F72F0008EF2C00082D
:10001000F52F0008E30300084D4B00080000000026
:100020000000000000000000000000001141000876
:10003000A104000800000000CD31000813410008B1
:10004000BB010008BB010008BB010008BB010008A0
:10005000BB010008BB010008BB010008BB01000890
:10006000BB010008BB010008BB010008BB01000880
:10007000BB010008BB010008BB010008BB01000870
:10008000BB010008BB010008BB010008BB01000860
:10009000BB010008BB010008BB010008BB01000850
:1000A000BB010008BB010008BB010008BB01000840
:1000B000BB010008BD410008BB010008BB010008EE
:1000C000BB010008BB010008BB010008BB01000820
:1000D000BB010008BB010008BB010008BB01000810
:1000E000A5040008BB010008BB010008BB01000813
:1000F000BB010008BB010008BB010008BB010008F0
:10010000BB01000809320008BB010008BB01000860
:10011000BB010008BB010008BB010008BB010008CF
:10012000BB010008BB010008BB010008E503000893
:10013000BB010008BB010008BB010008BB010008AF
:10014000BB010008BB010008BB010008F92F000833
:10015000BB010008F1030008BB010008BB01000857
:10016000BB010008BB010008BB010008BB0100087F
:10017000BB010008BB010008BB0100080000000033
:10018000BB010008BB010008DFF810D000F092F8B6
:1001900000480047095D0008AFF300809018002078
:1001A0000648804706480047FEE7FEE7FEE7FEE711
:1001B000FEE7FEE7FEE7FEE7FEE7FEE7AD410008EB
:1001C000890100082DE9F05F0546002092469B4614
:1001D00088460646814640241BE02846414647465D
:1001E000224600F057F853465A46C01A914110D3A0
:1001F00011461846224600F03EF82D1A67EB01081A
:100200004F4622460120002100F035F817EB000987
:100210004E41201EA4F10104DFDC484631462A4647
:100220004346BDE8F09FD2B201E000F8012B491E21
:10023000FBD270470022F6E710B513460A46044683
:100240001946FFF7F0FF204610BD30B50B460146BA
:1002500000202022012409E021FA02F59D4205D365
:1002600003FA02F5491B04FA02F52844151EA2F10F
:100270000102F1DC30BD202A04DB203A00FA02F151
:10028000002070479140C2F1200320FA03F3194384
:1002900090407047202A04DB203A21FA02F0002126
:1002A000704721FA02F3D040C2F120029140084386
:1002B00019467047064C074D06E0E06840F0010320
:1002C00094E8070098471034AC42F6D3FFF760FF7C
:1002D000CC630008EC63000830B58C1810F8012BD3
:1002E00012F00F0301D110F8013B120906D110F8EA
:1002F000012B03E010F8015B01F8015B5B1EF9D1F3
:1003000001E001F8013B521EFBD1A142E6D30020DF
:1003100030BD000010B501240821034800F09EFB09
:1003200000B10024204610BD000C024070470000C0
:100330000146014801F0CABB500D002010B5044829
:1003400001F0D6FB042801D0012010BD002010BD13
:10035000500D002010B500F015F8012801D0012043
:1003600010BD074801F0BEFC044634B94FF40061EB
:10037000034801F055FA00B10124204610BD0000E9
:10038000500D002008B501200090FFF7C3FF08B909
:10039000002000909DF8000008BD000038B5002442
:1003A000009313460A460146034801F0B9FD00B127
:1003B0000124204638BD0000500D00207047000089
:1003C00038B50024009313460A460146034801F05D
:1003D000C3FE00B10124204638BD0000500D0020AE
:1003E0007047FEE7014800F0C9B80000D40D0020B6
:1003F000014800F0C3B80000340E00200168CAB202
:10040000103A1823B2FBF3F2064B9B5CC3656FF303
:100410000901032A02D9091D816500E08165806D0B
:1004200070470000FA62000810B5014600208A6A91
:100430008B694FF0C074002B0ED0B3F5005F1AD05B
:1004400062B3012A2AD0022A28D0032A03D1C96A1A
:10045000C90100D5012010BD1AB1012A06D0022A17
:10046000F9D1C96AC901F6D5012010BDC96AA142F6
:10047000FBD1012010BD52B1012A0AD0022A06D0B8
:10048000032AF7D1C96AA142F4D1012010BD01208D
:1004900010BDC96AC901FBD5012010BD012010BDE6
:1004A000704700002DE9F041154D28684FF40046D3
:1004B00000040FD5134C2278022A0AD212484FF4B6
:1004C000805862B10022414600F0CFFA2178491CE1
:1004D00021702E603046BDE8F04100F0CBB900221B
:1004E0000421074600F0C1FA01220421384600F039
:1004F000BCFA01224146384600F0B7FAE6E70000B0
:10050000143C0140040800200000024072B6FEE7DF
:10051000002200F001B8000030B5044601200D4B68
:100520005D7A002D14D1587A1D54587A03EB80005F
:1005300044605C7A03F108002254587A421C5A72D3
:10054000303008703A2048702F208870CD7000201D
:1005500030BD00008014002090F83510022903D02F
:100560008021416501207047052180F83510006821
:10057000016821F001010160002070472DE9F84376
:1005800004464FF00009CDF800906F484FF4165123
:100590000068B0FBF1F7A56D2E6894F85C000822A6
:1005A00002FA00F1314210D02068016849070CD5E9
:1005B000016821F00401016094F85C0002FA00F186
:1005C000A960606D40F00100606594F85C104FF028
:1005D000010808FA01F0304208D02168496909068B
:1005E00004D5A860606D40F00200606594F85C106E
:1005F00004208840304208D021680968890704D562
:10060000A860606D40F00400606594F85C101020F4
:100610008840304220D02168096809071CD5A860AD
:100620002068016849030CD50068000304D4216CDC
:1006300091B1204688470FE0A16C69B120468847F8
:100640000AE00168C90503D4016821F008010160CE
:10065000216C09B12046884794F85C10202088401E
:1006600030424CD021680968C90648D5A86094F882
:10067000350005280BD020680168490330D5006893
:10068000000328D4616C51B32046884737E02068C6
:10069000016821F0160101602068416921F08001A4
:1006A0004161206C08B9A06C20B12068016821F07C
:1006B0000801016094F85C103F208840A86084F82D
:1006C000358084F83490216D00293BD001B020465C
:1006D000BDE8F0430847E16B09B1204688470EE0CA
:1006E0000168C90507D4016821F01001016084F890
:1006F000358084F83490E16B09B120468847606DFD
:1007000000281FD0606DC00714D0052084F8350084
:100710002068016821F0010101600098401C0090F0
:10072000B84203D820680068C007F6D184F8358045
:1007300084F83490E16C002904D001B02046BDE873
:10074000F0430847BDE8F883140800202DE9F04184
:10075000044600F091F905465CB1022084F83500AA
:10076000002684F834602068016821F001010160EE
:100770000DE00120BDE8F08100F07EF9401B052866
:1007800005D920206065032084F83500F2E7206851
:100790000068C007F0D121680A6820480240D4E907
:1007A00001031843D4E903352B4318436369184305
:1007B000A3691843E3691843236A18431043626A24
:1007C000042A03D1D4E90B231A431043086020689C
:1007D000406920F00700656A29460543012704297E
:1007E0000DD1A06A0543E06A48B12046FFF71CFE20
:1007F00028B14020606584F835700120BAE7206890
:1008000045612046FFF7FAFD94F85C203F219140B6
:100810008160666584F835700020ABE73F8010F09A
:1008200070B5044600F028F90546601C02D0044863
:100830000078044400F020F9401BA042FAD370BDB8
:100840000808002010B501280ED13220FFF7E8FF7C
:100850000121064800F002F9012805D10448017879
:10086000491C01700121417010BD000000000240D0
:100870000000002010B504490A68024202D0086056
:10088000FFF7E0FF10BD0000143C01402DE9F84FD8
:100890000022DFF89C914FF0010803274FF00F0C66
:1008A00009F1040AA9F1040B08FA02F50B682B40C0
:1008B000AB426ED10C7904F00304012C01D0022C60
:1008C00015D18668540007FA04FE26EA0E06D1F810
:1008D0000CE00EFA04FE4EEA060EC0F808E044688A
:1008E000AC430D79C5F300159540254345600C795F
:1008F000E443A40708D0C568540007FA04F6B543DA
:100900008E68A6402E43C6600C7904F00304022CC6
:1009100011D1D40800EB8406356A5407E40E0CFAB2
:1009200004FE25EA0E05D1F810E00EFA04FE4EEAA8
:10093000050EC6F820E00568540007FA04F6B54332
:100940000E7906F00306A6402E4306604C6814F4A8
:10095000403F67D0374C256845F4804525602468C2
:1009600004F480440094344C22F003052E19D6F888
:10097000085894074FEA147E0CFA0EF4A5432F4C46
:10098000A04201D1002424E02D4CA04202D1012438
:100990001FE047E02B4CA04201D1022419E02A4C71
:1009A000A04201D1032414E0284CA04201D1042428
:1009B0000FE0274CA04201D105240AE0254CA042BB
:1009C00001D1062405E0244CA04201D1072400E017
:1009D000082404FA0EF42C43C6F80848D9F800405D
:1009E0009C434D68ED0200D51C43C9F80040DAF87D
:1009F00000409C434D68AD0200D51C43CAF800403E
:100A0000DBF800409C434D68AD0300D51C43CBF898
:100A10000040074D083D2C689C434E68F60300D506
:100A20001C432C60521C102AFFF43EAFBDE8F88F27
:100A3000083C0140443802400030014000000240C0
:100A40000004024000080240000C02400010024076
:100A50000014024000180240001C024000690842D5
:100A600001D00120704700207047002A01D0816129
:100A70007047090481617047014880687047000031
:100A8000080800200248816802781144816070479C
:100A90000808002010B50B48016841F4007101609E
:100AA000016841F480610160016841F48071016076
:100AB000032000F071F80F2000F006F800F026F88F
:100AC000002010BD003C024070B504460D4D4FF4AF
:100AD0007A712878B1FBF0F00B490968B1FBF0F0AE
:100AE00001F08DFE08B1012070BD102C07D200224C
:100AF0002146501E00F030F86C60002070BD0120CF
:100B000070BD0000080800201408002008B50A483D
:100B1000016841F480410160006800F48040009069
:100B20000548001F016841F080510160006800F035
:100B30008050009008BD000044380240002809DBC6
:100B400000F01F02012191404009800000F1E020E7
:100B5000C0F8001170470000F0B40D460D4B1B6843
:100B6000C3F30223C3F10704042C00D90424191D84
:100B7000072901D2002300E0DB1E012606FA04F15A
:100B8000491E294099409E40761E16403143F0BCD4
:100B900003F0EEBF0CED00E000F00701054A10681D
:100BA0004FF6FF03184040EA012003490843106054
:100BB000704700000CED00E00000FA057047704738
:100BC0007047704770470A0601F00F0101EBC10141
:100BD00000EB810101D5143101E001F515710068C8
:100BE00003F0FCBD2DE9F84F04462568284603F0C4
:100BF00099FE00287ED1206803F0C0FE002879D03D
:100C0000D5F80808C0F30D20C4F8D404206803F018
:100C1000B5FE800704D52068416901F002014161F9
:100C2000206803F0ABFEC10604F29C40009035D56D
:100C30002068816921F0100181612F6A07F00F009F
:100C400000EBC00004EB800606F51576C7F34340C1
:100C5000022802D0062812D01BE047F6F0700742A7
:100C600017D0C7F30A1217462846F16803F08AFE28
:100C7000F0683844F06070693844706109E0082217
:100C80002846009903F07EFE7069C7F30A110844F4
:100C900070612068816941F010018161206803F072
:100CA0006DFE00034FF0080B4FF000094FF00108F4
:100CB0005ED50026206803F040FE824655E05FEADC
:100CC000CA704FD0F1B2206803F050FE0746F80713
:100CD00007D005EB4610C0F8088B3146204602F0DD
:100CE000B5F9380709D505EB4610C0F808BB314601
:100CF000204600E0F8E102F085F9F80604D505EB9E
:100D000046101021C0F8081BB8071CD568690006FA
:100D100005D5D5F8040840F48061C5F8041806EB41
:100D2000C60004EB800000F51570C178012905D1DB
:100D300080F80390F1B2204600F0D9F905EB461196
:100D40000220C1F8080BB80604D505EB4610202197
:100D5000C0F8081BB80405D505EB46104FF4005148
:100D6000C0F8081B761C4FEA5A0ABAF1000FA6D148
:100D7000206803F003FE40036CD5206803F0D6FD25
:100D80008246002663E05FEACA705DD0F1B2206857
:100D900003F0DAFD0746F80723D006F00F0108FA42
:100DA00001F0D5F834188143C5F8341805EB461026
:100DB000C0F80889A07901280FD106EBC60004EB22
:100DC0008000D0E907211144016236B9606A20B978
:100DD00020680121009A03F0D7FCF1B22046FFF70A
:100DE000EFFE380703D505EB4610C0F808B9F80642
:100DF00004D505EB46101021C0F80819780604D573
:100E000005EB46104021C0F80819B80716D5314641
:100E1000284603F055FD06EBC60004EB80001430B5
:100E2000C178012905D180F80390F1B2204600F085
:100E30005DF905EB46110220C1F80809380603D513
:100E40003146204602F074F9761C4FEA5A0ABAF18C
:100E5000000F98D1206803F091FD002811DAD5F831
:100E6000040820F00101C5F8041894F8CC04012806
:100E700029D0204600F0EBF92068416901F00041DB
:100E80004161206803F07AFD00050BD5D5F808080C
:100E9000C00702D0204600F0DDF92068416901F466
:100EA00000614161206803F069FDC00461D5D5F897
:100EB000040820F00101C5F804181021206803F08F
:100EC000FFFC002120E084F8CC9400212046FFF7AD
:100ED00075FED1E705EB411000F510604FF67F324B
:100EE0008260036823F400130360C0F80822D0F87E
:100EF000002222F40012C0F80022D0F8002242F0B2
:100F00000062C0F80022491C20798842E2D8D5F856
:100F10001C0840F00111C5F81C18E07B60B1D5F841
:100F2000840840F00B01C5F88418D5F8440840F057
:100F30000B01C5F844180CE0D5F8140842F22B0157
:100F40000843C5F81408D5F8100840F00B01C5F89F
:100F50001018D5F8000820F4FE61C5F80018A17932
:100F60002068009A03F010FC2068416901F4805168
:100F70004161206803F002FD800415D5206803F06C
:100F8000C1FA206803F0BEFCE07100F00BFA0146E4
:100F9000E279206803F04CFD204600F057F9206804
:100FA000416901F400514161206803F0E7FC00074A
:100FB00007D5204600F04CF92068416901F008018E
:100FC0004161206803F0DAFC000615D5A86920F01D
:100FD0008001A96101260CE006EBC60004EB80004D
:100FE00090F85702012803D1F1B22046FFF7EBFD3C
:100FF000761C2079B042EFD8206803F0BFFCC00215
:101000001FD5012615E005EB4610D0F8001906EBB8
:10101000C60004EB8000027E012A09D1002907DA0C
:1010200080F81780F0B240F080012046FFF7CBFD3A
:10103000761C2079B042E6D82068416901F480111D
:101040004161206803F09AFC800230D5012026E03F
:1010500005EB4011D1F8001B00EBC00204EB82024B
:1010600092F85832012B19D1002917DA94F8D434A8
:1010700001F4803103F0010399420FD182F85782C5
:10108000A96941F08002AA616969090606D4D5F808
:10109000040840F40070C5F8040803E0401C2179FE
:1010A0008142D5D82068416901F40011416120686E
:1010B00003F064FC400007D52046FFF780FD206860
:1010C000416901F080414161206803F057FC40070D
:1010D0000AD520684568680702D52046FFF772FDEB
:1010E0002068416829434160BDE8F88F7047704728
:1010F000F8B50446002C05D0266894F89504002520
:1011000010B106E00120F8BD84F89454204600F0A8
:101110005BF8032084F89504B6F1A04F00D1A571C7
:10112000206803F02BFB207C8DF8000094E80F0072
:1011300003F0F6F9022618B184F895640120F8BD91
:101140000021206803F03DFC18B184F8956401206B
:10115000F8BD002101270CE001EBC10004EB800089
:1011600047750175C1850576C56105624562491CF3
:10117000C9B220798842EFD800210DE001EBC1000F
:1011800004EB800000F515704570017005718560F5
:10119000C5600561491CC9B220798842EED8207C1F
:1011A0008DF8000094E80F0003F02EFA18B184F8CF
:1011B00095640120F8BD657484F89574206803F087
:1011C00015FA0020F8BD000010B586B004461421C1
:1011D00001A8FFF72FF82068B0F1A04F2FD1002110
:1011E0001848026842F001020260006800F0010045
:1011F00000904FF4C0500190022002900391032010
:1012000004900A20059001A90F48FFF73FFB0D4805
:10121000001D016841F0800101600A481430016836
:1012200041F480410160006800F480400090002299
:1012300011464320FFF790FC4320FFF77FFC06B0E8
:1012400010BD000030380240000002407047704777
:1012500070477047704700002DE9F04704460D467F
:10126000002C13D0DFF82891D9F80000EFB200F07D
:101270000700A8420CD289F80070D9F8000000F0ED
:101280000700A84204D00120BDE8F0870120FBE759
:101290002068404E810712D5400703D5306840F4DE
:1012A000E05030602078000703D5306840F460409B
:1012B00030603068A16820F0F0000843306020788A
:1012C000C00731D0334960680839012808D00228A6
:1012D0000BD0032809D0096889070BD40120D3E774
:1012E0000968890306D40120CEE70968890101D481
:1012F0000120C9E7316821F0030101433160FFF7A4
:10130000BBFB804641F2883A07E0FFF7B5FBA0EB54
:101310000800504501D90320B6E73068616800F045
:101320000C00B0EB810FF0D1D9F8000000F00700FD
:10133000A84209D989F80070D9F8000000F0070028
:10134000A84201D001209FE72078400705D53068EA
:10135000E16820F4E050084330602078000706D5AB
:101360003068216920F4604040EAC100306000F03C
:101370003FF83168084AC1F30311515CC84007497E
:10138000086007480068FFF79FFB00207CE700002B
:10139000003C0240083802400263000814080020A4
:1013A0000C08002001480068704700001408002065
:1013B00000B5FFF7F7FF04490968044AC1F3822129
:1013C000515CC84000BD00000838024012630008AC
:1013D00000B5FFF7E7FF04490968044AC1F3423149
:1013E000515CC84000BD000008380240126300088C
:1013F00010B51748006810F00C01164816D04310BD
:10140000042912D0082911D1114C241F216801F0A0
:101410003F02216849020AD52068C0F38810A0FB6A
:1014200003010023FEF7CEFE09E0184610BD216837
:101430000023C1F38811A1FB0001FEF7C3FE216860
:10144000C1F30141491C4900B0FBF1F010BD00009F
:10145000083802400024F4002DE9F84F0446002C1F
:1014600013D02078DFF8A083C007A8F1040556D078
:1014700008F104000168C1F3810101290CD0006862
:10148000C0F38100022803D00DE00120BDE8F88FF1
:10149000D8F80000400206D5286880033FD5606870
:1014A00070BB0120F2E76068B0F5803F10D0B0F566
:1014B000A02F12D0286820F480302860286820F4FB
:1014C000802028606068E0B1FFF7D6FA064614E095
:1014D000286840F480302860F4E7286840F48020D1
:1014E0002860286840F480302860EBE7FFF7C4FAF2
:1014F000801B642801D90320C8E728688003F5D53C
:101500000DE0FFF7B9FA064606E0FFF7B5FA801BD3
:10151000642801D90320B9E728688003F5D420782E
:10152000BA4F80074FF0000948D5B748001D016841
:1015300011F00C0F08D00068C0F38100022813D10D
:10154000D8F8000040020FD42868800704D5E0686E
:10155000012801D0012099E72868216920F0F800CE
:1015600040EAC100286029E0E068B8B10120386095
:10157000FFF782FA064606E0FFF77EFA801B022894
:1015800001D9032082E728688007F5D528682169FA
:1015900020F0F80040EAC10028600FE0C7F8009092
:1015A000FFF76AFA064606E0FFF766FA801B022894
:1015B00001D903206AE728688007F5D4207800075E
:1015C00029D5DFF844A2924861690AF1700A89B10D
:1015D00001210160FFF750FA064606E0FFF74CFADA
:1015E000801B022801D9032050E7DAF800008007A9
:1015F000F4D510E0C0F80090FFF73EFA064606E08A
:10160000FFF73AFA801B022801D903203EE7DAF8F7
:1016100000008007F4D42078400778D54FF0000A06
:1016200079483C300068C0000BD477483C300168F2
:1016300041F080510160006800F0805000904FF050
:10164000010ADFF8D0B1DBF80000C00514D4DBF8E4
:10165000000040F48070CBF80000FFF70DFA06465A
:1016600006E0FFF709FA801B022801D903200DE7E5
:10167000DBF80000C005F4D5634EA0686C36012885
:101680000FD0052812D0306820F00100306030689B
:1016900020F004003060A068F8B1FFF7EDF9834650
:1016A00017E0306840F001003060F4E7306840F047
:1016B00004003060306840F001003060EBE7FFF775
:1016C000DBF9A0EB0B0141F28830814201D9032004
:1016D000DCE630688007F2D510E0FFF7CDF98346ED
:1016E00009E0FFF7C9F9A0EB0B0141F28830814214
:1016F00001D90320CAE630688007F2D4BAF1010F9D
:1017000005D141483C30016821F080510160A06959
:10171000C0B33D49091D09684FF0FF36C1F381018F
:10172000022946D0022805D0C7F86090FFF7A4F937
:1017300004463AE0C7F86090FFF79EF9814607E05B
:10174000FFF79AF9A0EB0900022801D903209DE6D2
:1017500028688001F4D4D4E907010843616AA26AC9
:10176000890106EB520241EA0241084394F82C1029
:1017700040EA0160C8F8000001203866FFF77CF9F4
:10178000044607E03DE0FFF777F9001B022801D986
:1017900003207BE628688001F5D532E0FFF76CF97D
:1017A000001B022801D9032070E628688001F5D4C7
:1017B00027E0012823D0D8F80000E26900F4800176
:1017C00091421AD1226A00F03F01914215D147F6A9
:1017D000C071626A0140B1EB821F0ED1A26A00F4AF
:1017E000403106EB5202B1EB024F06D194F82C10B7
:1017F00000F07060B0EB016F03D0012046E60120DD
:1018000044E6002042E6000004380240000047425F
:10181000800E47420070004010B5FEF787FD10BDF6
:101820002DE9F0418AB004460D460026032084F8D5
:101830003400606C03281ED0B5F5805F08D0B5F584
:10184000006F0AD085B1A06B40F00060A06316E085
:10185000A06B40F08050A06311E0204602F01BFA1C
:10186000A16B0143A1630AE0204602F0EBF9A16BF2
:101870000143A16303E0A06B40F08050A063A06B24
:10188000174F4FF0010828B12068876384F834802F
:10189000012613E060680490A0680590E068069057
:1018A000079560690890A069099007A807C88DE8A6
:1018B000070004A920680EC901F0ACFC4FF40071C8
:1018C000206801F00BFD28B121688F63A16B0143F3
:1018D000A163012684F834800AB03046BDE8F08167
:1018E000FF054000704750F8742F120E0A7002680E
:1018F000120A4A8002784368120642EA13224A60BA
:1019000002790A728268120E4A728268C3681202F1
:1019100042EA1362CA60C268C2F303520A74C26820
:10192000C2F30B224A82007BC0F3460008750120F7
:101930004875002070470000F0B550F8642F920FF2
:101940000A700268C2F383624A700268C2F30162DD
:101950008A700268120CCA700288120A0A71027830
:101960004A714268120DCA804268C2F303420A7289
:101970008288C2F3C0324A728288C2F380328A728D
:101980008288C2F34032CA728288C2F300320A737C
:1019900000264E7350F8203C643801244FF4007543
:1019A000002B0CD0012B3AD0026847499163816B20
:1019B00041F08051816380F834400120F0BDB0F8DF
:1019C0006820C36E9205120D42EA93720A61C26EDC
:1019D000C2F3C2620A75C26EC2F302624A75C26E77
:1019E000C2F342528A75C26EC2F38242CA75C26E97
:1019F000C2F3C2320A760B695B1C43650A7E02F0B1
:101A00000702921C934043650A7A02F00F0704FA1A
:101A100007F28265520A5343C36505660EE090F8EB
:101A20006820C36E9206920A42EA13420A610A696A
:101A3000521C93024365C3658565056630F86C2FBB
:101A4000C2F3803201F8192F0288C2F3C6124A701D
:101A5000027802F07F028A704268D20FCA70426830
:101A6000C2F341720A714268C2F382624A714268EB
:101A7000C2F383528A714268C2F34052CA710E7235
:101A80004268C2F300424A728288C2F3C0328A724C
:101A90008288C2F38032CA728288C2F340320A73EB
:101AA0008288C2F300324A738288C2F381228A7329
:101AB0008288C2F30122CA730079C0F34600087419
:101AC0004C740020F0BD0000FF054000426C0A602D
:101AD000826C4A60C26C8A60026DCA60426D0A61A3
:101AE000826D4A61C26D8A61006EC86100207047D4
:101AF00038B50446002000906946204602F08BF875
:101B000010B1A16B0143A1630098C0F3432038BD1D
:101B10002DE9F0410446256B2068416B090406D588
:101B2000290704D52046BDE8F04102F059B8416BC1
:101B30004FF00008C9054FF0010752D53902816303
:101B40002068C16B4CF23A329143C1632068C16A8C
:101B500021F00101C162280724D505F0020605F035
:101B60002000304309D0206801F0D6FC28B1A16BD9
:101B70000143A1632046FFF7B5FE216840F23A50C9
:101B8000886384F83470C4F8308005F00100304375
:101B900004D0204600F0D8FABDE8F081204600F0DD
:101BA000D7FAF9E72806F7D5A80609D5206801F085
:101BB000B3FC28B1A16B0143A1632046FFF792FE5D
:101BC00005F0010005F002010843E5D12068C16A73
:101BD00021F00801C16284F83470204600F0B8FAA0
:101BE000DAE7416B490406D5290704D52046BDE84C
:101BF000F04102F079B8416B40F23A221142CBD069
:101C0000416B890703D5A16B41F00201A163416BD0
:101C1000090703D5A16B41F00801A163416B890657
:101C200003D5A16B41F02001A163416BC90603D527
:101C3000A16B41F01001A163416B890503D5A16B34
:101C400041F00801A16340F23A7181632068C16BE1
:101C500040F23A329143C163206801F05DFCA16B10
:101C60000843A063280707D584F83470C4F830808F
:101C70002046FFF737FE8FE728068DD505F01000C8
:101C800005F0200108430CD0E16B14480865E06BB7
:101C9000FEF762FC002884D0E06BBDE8F04101F063
:101CA00021BE05F0010005F0020108430CD0216CB3
:101CB0000B480865206CFEF74FFC002890D0206C84
:101CC000BDE8F04101F0ECBDC4F8388084F8347010
:101CD000C4F830802046FFF79FFD5DE7E538000837
:101CE000A138000870B50446002C04D094F83400E4
:101CF000002510B105E0012070BD2577204600F0D9
:101D00005FF8032084F83400204600F00BF808B197
:101D1000012070BDA5632563012084F834000020F4
:101D200070BD000070B58AB00446002529460495B0
:101D30000591069107910891762009900091CDE9CF
:101D400001100B460A46206801F064FA10B1012028
:101D50000AB070BD184E3560206801F070FA012598
:101D600035600220FEF75CFD204601F0E3FE30B155
:101D700084F83450A16B0143A1630120E8E72046B9
:101D800001F062FE30B184F83450A16B0143A163CD
:101D90000120DDE74FF40071206801F09FFA48B19F
:101DA000226806499163A16B0143A16384F8345012
:101DB0000120CDE70020CBE7A0802542FF054000B1
:101DC0002DE9F04F87B00546142102A8FEF732FA3C
:101DD0004D49286888427DD14C4800684B4940F401
:101DE000006008600846006800F400600190474801
:101DF00014380068454940F004001439086008466A
:101E0000006800F0040001900846006840F00800F7
:101E100008600846006800F0080001904FF4F85090
:101E200002900220039000200490032605960C24C3
:101E3000069402A93648FEF729FD042702970220DE
:101E40000390002004900596069402A93148FEF7FD
:101E50001DFD324C30482060780660604020A06054
:101E60000020E060380220614FF48058C4F81480EC
:101E70000001A0612020E0614FF40039C4F82090F7
:101E80006762A6624FF4000AC4F82CA04FF4001B4E
:101E9000C4F830B02046FEF759FC08B1FEF736FB17
:101EA000EC63A5631C481D4C4830603420604FF043
:101EB000006060600020A060E0604FF480602061FE
:101EC000C4F814800001A0612020E061C4F82090D3
:101ED000676200E014E0A662C4F82CA0C4F830B039
:101EE0002046FEF733FC08B1FEF710FB2C64A56317
:101EF000002211463120FEF72FFE3120FEF71EFE94
:101F000007B0BDE8F08F0000002C014044380240CB
:101F100000080240000C024058640240D40D00202A
:101F20002DE9FF4F87B004460D461646DDF8508078
:101F3000FEF7A2FD82465DB194F8340001280DD071
:101F4000A06B40F00050A06301200BB0BDE8F08F03
:101F5000A06B40F00060A0630120F6E74FF0000B9B
:101F6000C4F838B00A98E16D3044884205D9A06BB6
:101F700040F00070A0630120E7E7032084F83400FC
:101F80002068C0F82CB0606C012800D076024FF0B9
:101F9000FF3001900A98400202909020039002279F
:101FA0000497CDF814B04FF00109CDF8189001A9AD
:101FB000206801F00CF90A98012805D927633146F9
:101FC000206801F0E9F905E0C4F830903146206856
:101FD00001F0FBF958B122685A499163A16B0143A2
:101FE000A16384F83490C4F830B00120ADE7029EBC
:101FF0001CE0406B000410D57EB10027206801F082
:1020000022F92870010A6970010CA970000EE870AD
:102010002D1D361F7F1C082FF0D3FEF72DFDA0EBE2
:102020000A00404521D2B8F1000F1ED02068416B54
:1020300040F22A321142DCD02168496BC90521D512
:102040000A9901291ED9616C03291BD001F064FA99
:10205000C0B122683B499163A16B0143A16384F83D
:102060003490C4F830B001206FE7216835488863A8
:10207000A06B40F00040A06384F83490C4F830B006
:10208000032062E72068416B090702D4416B890590
:102090000BD52C498163A06B40F00800A06384F845
:1020A0003490C4F830B001204FE7416B89070BD55D
:1020B00024498163A06B40F00200A06384F834904F
:1020C000C4F830B0012040E7416B89061FD51D4997
:1020D0008163A06B40F02000A06384F83490C4F8C2
:1020E00030B0012031E701F0AEF82870010A6970C4
:1020F000010CA970000EE8702D1D361FFEF7BCFC08
:10210000A0EB0A00404510D2B8F1000F0DD02068B6
:10211000416B890201D5002EE5D1216840F23A5089
:10212000886384F8349000200FE7216805488863AD
:10213000A06B40F00040A06384F83490C4F830B045
:10214000012002E7FF05400010B5FEF737F910BD8A
:1021500010B5FEF745F910BD2DE9F04F89B00446E2
:102160000E4615469B46FEF787FC02905EB194F83A
:10217000340001280DD0A06B40F00050A063012076
:1021800009B0BDE8F08FA06B40F00060A0630120B3
:10219000F6E74FF0000AC4F838A0E16D05EB0B003C
:1021A000884205D9A06B40F00070A0630120E7E7EA
:1021B000032084F834002068C0F82CA0606C01284B
:1021C00000D06D024FF0FF3003904FEA4B20049097
:1021D00090200590CDF818A0CDF81CA04FF0010973
:1021E000CDF8209003A9206800F0F1FFBBF1010FAA
:1021F00007D9202020632946206801F0A7F98046EE
:1022000006E0102020632946206801F0B8F98046D6
:10221000B8F1000F0CD021684B488863A06B40EAEE
:102220000800A06384F83490C4F830A00120A7E728
:10223000049F24E0406B400418D5BFB100253078DE
:102240000190717840EA01200190B17840EA0140A4
:102250000190F178361D40EA016001903F1F01A90D
:10226000206801F003F86D1C082DE8D3FEF704FC8C
:102270000299411A1298814220D21298F0B1206836
:10228000416B40F21A321142D4D02168496BC90522
:1022900021D5BBF1010F1ED9616C03291BD001F0C0
:1022A0003BF9C0B1226828499163A16B0143A16346
:1022B00084F83490C4F830A0012061E721682248F6
:1022C0008863A06B40EA0800A06384F83490C4F8E7
:1022D00030A0032054E72068416B090702D4416B0A
:1022E00089050BD518498163A06B40F00800A063F5
:1022F00084F83490C4F830A0012041E7416B89078D
:102300000BD511498163A06B40F00200A06384F8F3
:102310003490C4F830A0012032E7416BC9060BD5D8
:1023200009498163A06B40F01000A06384F83490E9
:10233000C4F830A0012023E740F23A51816384F8C9
:10234000349000201CE70000FF05400070B50446F3
:10235000002C09D0606A002540B125616561A56245
:1023600094F8510040B10CE0012070BD6068B0F5F8
:10237000827FF4D0E561F2E784F85050204600F007
:1023800045F8022084F851002068016821F04001DE
:102390000160A088218900F4827001F4044108439F
:1023A000A18901F400610843217C01F00201084386
:1023B000217D01F001010843218B01F400710843E4
:1023C000217F01F03801084394F8201001F08001CA
:1023D0000843218D01F40051084321680860A06979
:1023E000042101EA104094F8241001F01001084380
:1023F000216848602068C16921F40061C161656598
:10240000012084F85100002070BD000010B586B096
:102410000446142101A8FDF70DFF134920688842E6
:1024200020D100211148026842F480520260006805
:1024300000F4805000900D481438026842F0010208
:102440000260006800F001000090E020019002208E
:1024500002900391032004900520059001A90448EF
:10246000FEF714FA06B010BD0030014044380240B7
:10247000000002402DE9F84F04468B4692461D4667
:10248000002694F8500001280DD04FF0010884F880
:102490005080FEF7F1FA074694F85100B146012842
:1024A00004D00226ACE00220BDE8F88FBBF1000F9B
:1024B0001CD05FEA0A0019D0032084F85100C4F848
:1024C0005490C4F830B0A4F834A0A4F836A0C4F8EE
:1024D0003890A4F83C90A4F83E90C4F84490C4F816
:1024E0004090A068B0F5004F02D00BE0012687E0D5
:1024F0002068016821F0400101602068016841F412
:102500008041016020680168490603D4016841F0F8
:1025100040010160E068B0F5006F05D0606888B3E5
:10252000BAF1010F2FD04FE0606810B1BAF1010F7E
:1025300020D1206B21680088C860206B801C20633C
:10254000E08E401EE08615E020688168890709D585
:10255000216B0988C160206B801C2063E08E401EC7
:10256000E08607E0FEF788FAC01BA84201D3681C8A
:1025700004D11DB1E08E0028E6D128E0032684F8BE
:1025800051803DE0FFE7206B216800780873206BE5
:10259000401C2063E08E401EE08615E020688168C4
:1025A000890709D5216B09780173206B401C2063D2
:1025B000E08E401EE08607E0FEF75EFAC01BA842F0
:1025C00001D3681C0ED16DB1E08E0028E6D13A46E9
:1025D0002946204601F000FD08B120206065A06872
:1025E00020B107E0032684F8518009E02068C16823
:1025F00080680090606D08B1012601E084F8518088
:1026000084F8509030464FE72DE9FF4F81B00446E3
:102610000E9E8B4698460125002794F8500001280D
:102620000ED0AA4684F850A0FEF726FA814694F808
:102630005100616801280DD0B1F5827F08D103E017
:10264000022005B0BDE8F08FA16809B9042801D0C7
:102650000227CFE0BBF1000F2DD0039858B35FEAFB
:10266000080028D094F85100042802D0052084F8EE
:102670005100002060650399A163A4F83E80A4F88E
:102680003C80C4F830B0A4F83680A4F834802064CC
:10269000606420680168490603D4016841F0400184
:1026A0000160E068B0F5006F07D06068F0B3B8F182
:1026B000010F49D07EE001279CE0606810B1B8F1BD
:1026C000010F3AD1206B21680088C860206B801C04
:1026D0002063E08E401EE0862FE020688168890735
:1026E0000DD5E18E59B1012D09D1216B0988C16049
:1026F000206B801C2063E08E401EE0860025206851
:102700008168C9070BD0E18F49B1C068A16B08800F
:10271000A06B801CA063E08F401EE0870125FEF7C0
:10272000ABF9A0EB0900B04207D300E00CE0701C4D
:1027300003D0032784F851A05CE0E08E0028CCD1C0
:10274000E08F0028C9D13BE0206B21680078087336
:10275000206B401C2063E08E401EE0862AE020684B
:10276000816889070DD5E18E59B1012D09D1216B01
:1027700009780173206B401C2063E08E401EE086C8
:10278000002520688168C9070BD0E18F49B1C06876
:10279000A16B0870A06B401CA063E08F401EE08717
:1027A0000125FEF769F9A0EB0900B04201D3701CC6
:1027B00010D17EB1E08E0028D1D1E08F0028CED19B
:1027C0004A463146204601F007FC38B10127202057
:1027D00060650FE0032784F851A00BE0A06818B9EA
:1027E0002068C16880680090606D08B1012701E031
:1027F00084F851A0002084F85000384621E710B535
:10280000401EB0F1807F01D3012010BD4FF0E024C5
:1028100060610F21601702F0ABF90020A061072072
:102820002061002010BD70477047000070B590F81F
:102830003C20012A31D0012680F83C60022280F839
:102840003D2002685468936824F070050C682C439E
:102850005460134C0268A24214D0B2F1804F11D0E0
:10286000104CA2420ED0104CA2420BD00F4CA242F0
:1028700008D00F4CA24205D00E4CA24202D00E4C02
:10288000A24204D123F080034968194391603C308F
:10289000467000210170002070BD022070BD000054
:1028A000000001400004004000080040000C00400F
:1028B00000040140004001400018004010B50446EB
:1028C000002C03D094F83D0010B107E0012010BDAA
:1028D000002084F83C00204600F016F8022084F81E
:1028E0003D00211D206801F07FFC01203D34607215
:1028F0006070A070E07020716071A071E071207252
:102900002070002010BD000008B500680B49884207
:1029100012D10B48016841F002010160006800F02B
:1029200002000090002211461D20FEF715F9BDE8B7
:1029300008401D20FEF702B908BD00000004004059
:102940004038024070B50446002594F83C00012848
:1029500017D0012684F83C60022084F83D002068EE
:10296000826822F0770222F47F4282600868502851
:1029700038D00DDC202853D005DC90B3102811D1BD
:102980004EE0022070BD30284AD040280AD13DE0F8
:10299000602831D070280CD0B0F5805F03D0B0F53E
:1029A000005F12D001253C3466700020207028465C
:1029B00070BDCB68D1E90121206801F083FC20685B
:1029C000816841F077018160EDE7CB68D1E90121B1
:1029D000206801F077FC2068816841F480418160C3
:1029E000E1E71DE0CA684968206801F07DFC5021DC
:1029F000206801F071FCD6E7CA684968206801F0D8
:102A000084FC6021206801F067FCCCE7CA68496853
:102A1000206801F069FC4021206801F05DFCC2E7FC
:102A200022680146104601F057FCBCE770472DE9CB
:102A3000F04104462068C56806694FF00007B107F9
:102A400014D5A90712D5F91E01610120207720684D
:102A50008069800703D02046FFF7E8FF05E02046A5
:102A600000F081F8204600F07FF82777700717D52F
:102A7000680715D521686FF00400086102202077EF
:102A80002068806910F4407F03D02046FFF7CEFF16
:102A900005E0204600F067F8204600F065F827774B
:102AA000300716D5280714D521686FF00800086193
:102AB000042020772068C069800703D02046FFF7F4
:102AC000B5FF05E0204600F04EF8204600F04CF837
:102AD0002777F00617D5E80615D521686FF01000A6
:102AE0000861082020772068C06910F4407F03D077
:102AF0002046FFF79BFF05E0204600F034F8204613
:102B000000F032F82777F00708D0E80706D02168F0
:102B10006FF001000861204600F027F8300608D564
:102B2000280606D521686FF0800008612046FFF76F
:102B30007AFE700608D5680606D521686FF0400059
:102B40000861204600F012F8B0060AD5A80608D59C
:102B500021686FF0200008612046BDE8F041FFF7D2
:102B600063BEBDE8F081704770477047704770B52D
:102B70000446002C04D094F84100002510B106E072
:102B8000012070BD84F84050204600F023F8242036
:102B900084F841002068C16821F40051C1602046DA
:102BA00001F0ECFB2068016921F49041016120688B
:102BB000416921F02A0141612068C16841F4005156
:102BC000C1606564202084F8410084F84200656398
:102BD000002070BD10B586B00446142101A8FDF791
:102BE00029FB14492068884221D10021124802683B
:102BF00042F010020260006800F0100000900E48E1
:102C00001438026842F001020260006800F001001E
:102C100000904FF4C06001900220029003910320C5
:102C200004900720059001A90448FDF72FFE06B087
:102C300010BD000000100140443802400000024076
:102C40002DE9F84304460E4615461F4694F8410008
:102C5000202802D00220BDE8F8837EB175B10020A3
:102C60006064212084F84100FDF706FF8146A584B9
:102C7000E584A068B0F5805F02D003E00120EAE7B8
:102C8000206920B1354600264FF0200815E00025C8
:102C9000FAE74B46002280212046009701F0F8FB1E
:102CA00018B184F841800320D5E7ADB1216815F84B
:102CB000010B4860E08C401EE084E08C0028E8D1E5
:102CC0004B46002240212046009701F0E1FB50B125
:102CD00084F841800320BEE736F8020B2168C0F378
:102CE00008004860E6E784F841800020B3E7FEE78B
:102CF00008B50D48016841F480010160006800F4E6
:102D000080000090002211463B20FDF725FF3B206C
:102D1000FDF714FF002211464520FDF71DFFBDE819
:102D200008404520FDF70ABF3038024010B504497D
:102D30000448FDF7EDFB0249491E087010BD000074
:102D40001A0800201C6300082DE9F04786B0142102
:102D500001A8FDF76FFA00244F48016841F0800197
:102D60000160016801F080010091016841F00101FA
:102D70000160016801F001010091016841F0040166
:102D80000160016801F004010091016841F0020155
:102D90000160016801F002010091016841F0100139
:102DA0000160016801F010010091016841F0080123
:102DB0000160006800F008000090DFF8E080002269
:102DC0000E214046FDF751FE012210214046FDF73D
:102DD0004CFEDFF8CC90012230214846FDF745FE3D
:102DE000DFF8C0A04FF4C057002239465046FDF727
:102DF0003CFE012501950294039401A94046FDF78C
:102E000045FD0E200190029503940226049601A927
:102E10004046FDF73BFD10200190029503940320EE
:102E2000049001A94046FDF731FD302001901120AA
:102E300002900394049601A94846FDF727FDFF2060
:102E400001900294039401A91748FDF71FFD019713
:102E500002950394049401A95046FDF717FDE80379
:102E600001904FF488100290039401A95046FDF799
:102E70000DFD082001900294039401A90B48FDF771
:102E800005FD002202212820FDF766FE2820FDF71F
:102E900055FE06B0BDE8F087303802400000024021
:102EA000000802400010024000040240000C0240F2
:102EB000074806490160002141608160C1600161ED
:102EC00041610A21816103F0A5B80000002C014096
:102ED000500D002010B510480E4901604FF482716A
:102EE000416000218160C160016141614FF4007265
:102EF00082610822C2610162416281620A21C1626B
:102F0000FFF724FA002803D0BDE81040FDF7FEBA11
:102F100010BD000000300140940E002010B586B0B6
:102F2000002402940394049405940094019414489A
:102F30001249016041F61F414160846042F2107104
:102F4000C16004618461FFF7B9FC08B1FDF7DEFAE6
:102F50004FF48050029002A90948FFF7F3FC08B132
:102F6000FDF7D4FA0094019469460548FFF75EFC2A
:102F7000002801D0FDF7CAFA06B010BD00040040D9
:102F8000EC0E002010B50C480A4901604FF4E13105
:102F9000416000218160C16001610C224261816158
:102FA000C161FFF7E4FD002803D0BDE81040FDF744
:102FB000ADBA10BD00100140340F002010B50C4810
:102FC0004FF0A0410160042101710222C271002171
:102FD000817142728172C17201738173C173FEF794
:102FE00087F8002803D0BDE81040FDF78FBA10BD68
:102FF0007C0F0020FEE7FEE70148FDF7F3BD00006F
:103000007C0F002070B504462068056C00EB411071
:10301000D0F8081B0C4EB54205D9090403D54FF46E
:103020000041C0F8081B2046FEF713F9B54208D945
:10303000A079012805D104F29C420121206801F009
:10304000A3FB002070BD00000A30544F2DE9F04171
:1030500005460C462E68306C06EB4411D1F8083B4F
:1030600095F806804FF400474FF0200C05F29C4283
:10307000B8F1010F08D0DFF8B080404545D1180401
:103080003AD5C1F8087B4CE0284E5FEA037806D5B4
:10309000B04246D9180444D5C1F8087B41E05FEA44
:1030A000836802D5C1F808CB3BE013F0280F38D174
:1030B000B04204D9180402D5C1F8087B31E004EB12
:1030C000C40005EB800000F51570D1F8101B036AF1
:1030D000C1F31201591A416124B903693BB1C268B5
:1030E0001144C160E1B22846FDF76BFD19E00121F2
:1030F000286801F049FBF5E7980601D5C1F808CB2F
:10310000E1B22846FDF75DFD0BE034B9D5F8640265
:1031100018B90021304601F037FBE1B22846FDF72F
:1031200050FD0020BDE8F0810A31544F0A30544F61
:103130002DE9F84F80460E46D8F8007006EBC60021
:1031400008EB80041434D4E90410884202D9012029
:10315000BDE8F88F081AA168814200D20846C01C59
:103160004FEA900A07EB461916E0151AA268AA4220
:1031700000D21546E81C4FEA900A98F80600009025
:10318000ABB2F2B23846E16801F0CCFCE06828440A
:10319000E060606928446061D9F8180980B2504540
:1031A00005D3D4E90420904201D2002ADDD1D4E92C
:1031B0000401884208D806F00F0101208840D7F8A2
:1031C00034188143C7F834180020C1E770470A68F3
:1031D00042624A688262D1E902231A43D1E904318A
:1031E0000B431A43C16A21F0F7011143C162002069
:1031F00070470069C0B27047006800F00300704774
:1032000008444069704700000148FEF781BC000097
:10321000500D00200FB4DDE901121143DDE9032355
:103220001A431143059A1143069A1143426847F61F
:10323000FF639A430A434260002004B070470321B1
:10324000016000207047D0F8800070470A688260F3
:10325000D1E901231A43D1E903310B431A43C16871
:103260006FF30B011143C160002070470968C0F87B
:1032700080100020704710B585B0044600913721BA
:10328000019140210291002103914FF4806104914A
:1032900069462046FFF7DAFF41F28832372120469F
:1032A00000F09EF905B010BD10B585B004460A4A7D
:1032B00011430091292101914021029100210391A4
:1032C000510D049169462046FFF7C0FF204600F0EB
:1032D00043FA05B010BD00000000108010B585B0A5
:1032E0000446009110210191402102910021039197
:1032F0004FF48061049169462046FFF7A7FF41F231
:1033000088321021204600F06BF905B010BD10B5D1
:1033100085B00446009106210191402102910021CF
:1033200003914FF48061049169462046FFF78EFFB8
:1033300041F288320621204600F052F905B010BD56
:1033400010B586B0044600210191029103910491C9
:103350004FF48061059101A92046FFF777FF2046D1
:1033600000F026F906B010BD10B585B004464FF444
:10337000D571009108210191402102910021039112
:103380004FF48061049169462046FFF75FFF2046B5
:1033900000F04AFA05B010BD10B585B004460091A2
:1033A0001221019140210291002103914FF480618B
:1033B000049169462046FFF749FF41F28832122105
:1033C000204600F00DF905B010BD10B585B00446DB
:1033D00000911121019140210291002103914FF4AC
:1033E0008061049169462046FFF730FF41F2883240
:1033F0001121204600F0F4F805B010BD10B585B0DD
:10340000044600920721019140210291002103917D
:103410004FF48060049069462046FFF717FF41F2A1
:1034200088320721204600F0DBF805B010BD10B54A
:1034300085B004460021009102220192C02202922E
:1034400003914FF48061049169462046FFF7FEFE28
:10345000204600F057F905B010BD10B585B0044600
:10346000009109210191C0210291002103914FF4A3
:103470008061049169462046FFF7E8FE204600F08F
:1034800041F905B010BD10B585B00446002100918A
:103490003322019240220292039111010491694664
:1034A0002046FFF7D3FE41F288323321204600F058
:1034B00097F805B010BD10B585B0044600910D21F8
:1034C000019140210291002103914FF48061049108
:1034D00069462046FFF7BAFE41F288320D212046A8
:1034E00000F07EF805B010BD70B585B006460D46FB
:1034F00000230093032401944024029403932301A6
:10350000049369463046FFF7A1FE2A460321304660
:1035100000F044F905B070BD10B585B00446002137
:1035200000910C2201924022029203911101049118
:1035300069462046FFF78AFE034A0C21204600F028
:103540004FF805B010BD000000E1F50510B585B0DD
:10355000044600911921019140210291002103911B
:103560004FF48061049169462046FFF76FFE41F2F7
:1035700088321921204600F033F805B010BD10B58F
:1035800085B004460091182101914021029100214B
:1035900003914FF48061049169462046FFF756FE7F
:1035A00041F288321821204600F01AF805B010BD0B
:1035B0000A494FF4FA520968B1FBF2F141F288323C
:1035C0005143491E4A1C06D0426B1206F9D5C5214B
:1035D0008163002070474FF00040704714080020BE
:1035E00010B5034645484FF4FA540068B0FBF4F4B4
:1035F0005443641E601C0BD0586B10F0450FF8D07C
:103600000005F6D4586B400705D50420986310BD1B
:103610004FF0004010BD586BC00702D001209863E6
:1036200010BDC52098631846FFF7E3FD884201D01E
:10363000012010BD00211846FFF7E2FD3049084285
:1036400001D1002010BD002802DA4FF0007010BD3B
:10365000410001D5402010BD810001D5802010BD62
:10366000C10002D54FF4807010BD010102D54FF4A6
:10367000007010BD410102D54FF4806010BDC10142
:1036800002D54FF4006010BD010202D54FF4805006
:1036900010BD410202D54FF4005010BD810202D589
:1036A0004FF4804010BDC10202D54FF4004010BD60
:1036B000410302D54FF4003010BD810302D54FF411
:1036C000802010BDC10302D54FF4002010BD0104BD
:1036D00002D54FF4801010BD410402D54FF4001004
:1036E00010BD810402D54FF4800010BD000702D543
:1036F0004FF4000010BD4FF4803010BD14080020BE
:1037000008E0FFFD13494FF4FA520968B1FBF2F2E9
:1037100041F288314A43521E511C0CD0416B11F0CA
:10372000450FF8D00905F6D4416B490706D50421A9
:103730008163042070474FF000407047416BC90718
:1037400003D00121816301207047C52181630020DE
:1037500070470000140800200F494FF4FA5209681E
:10376000B1FBF2F241F288314A43521E511C0CD097
:10377000416B11F0450FF8D00905F6D4416B4907AC
:1037800006D504218163042070474FF00040704744
:10379000C5218163002070471408002030B503461E
:1037A00020484FF4FA540068B0FBF4F441F288303A
:1037B0004443641E601C0BD0586B10F0450FF8D0CA
:1037C0000005F6D4586B400705D50420986330BD3A
:1037D0004FF0004030BD586BC00702D00120986305
:1037E00030BD1846FFF705FD884201D0012030BDED
:1037F000C520986300211846FFF702FD10F4604FC2
:1038000004D0410406D54FF4005030BD000C1080A8
:10381000002030BD000402D54FF4805030BD4FF47D
:10382000803030BD1408002014494FF4FA52096862
:10383000B1FBF2F241F288314A43521E511C0CD0C6
:10384000416B11F0450FF8D00905F6D4416B4907DB
:1038500006D504218163042070474FF00040704773
:10386000416BC90703D00121816301207047416B7F
:10387000490601D5402181630020704714080020CB
:1038800010B5064C01202070FCF758FD18B92078BF
:1038900020F001002070207810BD000018080020E2
:1038A00010B5846B40F23A50216888632046FEF7D9
:1038B0001FF9012184F8341000212163062801D06A
:1038C000052805D12068FFF727FEA16B0843A063F8
:1038D000A06B18B12046FEF705F810BD2046FDF795
:1038E0009BFF10BD10B5846B40F23A50216888638D
:1038F0002046FEF7FDF8012184F8341000212163F1
:10390000062801D0052805D12068FFF705FEA16B28
:103910000843A063A06B18B12046FDF7E3FF10BD7C
:103920002046FDF779FF10BD2DE9F04788B0044629
:103930000E46FDF7A1F807460025AA46CDF800A0DF
:10394000CDF804A008212068FFF7C8FC002842D168
:10395000B4F8500001042068FFF78DFC00283AD12C
:10396000401E02904FF00808CDF80C8030200490E3
:103970004FF00209CDF81490CDF818A0012007905F
:1039800002A92068FFF723FC2068FFF77CFD0028D0
:1039900021D1EA4610E0416B890205D5FFF753FCBF
:1039A0004AF825006D1C02E0416B890409D5FDF73A
:1039B00063F8C01B401C11D02068416B11F02A0F26
:1039C000E9D02168496B090702D4416B890508D504
:1039D000C0F83880082008B0BDE8F0874FF00040FC
:1039E000F9E7416B890703D5C0F838900220F2E768
:1039F000416B890603D5202181632020EBE740F24B
:103A00003A51816301980199000601F47F4140EA2F
:103A10000120019901F47F0140EA1120019940EA57
:103A20001160306000980099000601F47F4140EA7F
:103A30000120009901F47F0140EA1120009940EA39
:103A4000116070600020C6E710B590B004460120F8
:103A500004902068FFF7D0FB002854D0606C032846
:103A600019D02068FFF7E3FC00284AD10021206824
:103A7000FFF7C6FB606704212068FFF7C1FBA06762
:103A800008212068FFF7BCFBE0670C212068FFF7E6
:103A9000B7FBC4F88000606C032805D004A9206837
:103AA000FFF722FD00282CD1606C03281CD0BDF844
:103AB0001000206501042068FFF7CFFC002820D10A
:103AC00000212068FFF79CFB606604212068FFF757
:103AD00097FBA06608212068FFF792FBE0660C21A7
:103AE0002068FFF78DFB206704212068FFF788FB23
:103AF000000DE06405A92046FDF71EFF30B14FF030
:103B0000805010B010BD4FF08060FAE7B4F850005C
:103B1000002302042068FFF771FC0028F1D1D4E9EA
:103B2000051220698DE807000FCCFFF773FB00201A
:103B3000E7E700002DE9F84F04460027009700262C
:103B400000252068FFF7FCFB002819D12068FFF74B
:103B50000BFC4FF0010930B1A7642068FFF7F0FBC0
:103B600000280DD101E0C4F84890A06C4FF0805AB5
:103B7000012807D100212068FFF77DFB10B15046D6
:103B8000BDE8F88F4FF6FF7815E000212068FFF7B9
:103B900072FB0028F4D111492068FFF785FB08B1BA
:103BA0005046EDE700212068FFF72AFB0646F50F97
:103BB0000098401C00900098404501D2002DE4D0B0
:103BC0000098404502D34FF08070D9E7700002D5CD
:103BD000C4F8449000E067640020D1E7000010C101
:103BE0002DE9F0410746BC6AFD6A002D11D0002680
:103BF0003868FFF728FB2070010A6170010CA17082
:103C0000000EE070241D2D1F761C082EF0D3BC6220
:103C1000FD62BDE8F08170B504460D46002D0ED062
:103C2000B4F8500001042068FFF745FC002805D1D6
:103C300000212068FFF7E4FA2860002070BD4FF0F3
:103C4000006070BD1CB5044600200090019000216A
:103C50002068FFF7D5FA800102D54FF400601CBD43
:103C600069462046FFF760FE0028F8D10198C0039E
:103C70000ED5B4F8500001042068FFF7FCFA0028C4
:103C8000EDD100212068FFF742FB0028E7D11CBDE1
:103C90004FF080601CBD1CB50446002000900190D0
:103CA00000212068FFF7ACFA800102D54FF40060D4
:103CB0001CBD69462046FFF737FE0028F8D1019861
:103CC00040030ED5B4F8500001042068FFF7D3FA82
:103CD0000028EDD102212068FFF719FB0028E7D169
:103CE0001CBD4FF080601CBDF8B507463C6A7D6A7C
:103CF000002D19D0002620780090617840EA01203C
:103D00000090A17840EA01400090E178241D40EA4B
:103D1000016000902D1F69463868FFF7A7FA761CEE
:103D2000082EE8D33C627D62F8BD000070B5054600
:103D3000054C01202070FCF70DFB18B92846FFF751
:103D40009FFD2070207870BD1808002010B588B045
:103D5000144614480078C00702D0032008B010BDF4
:103D600039B1012907D002290CD0032911D0042030
:103D7000F4E70020F2E76846FCF7DAFA06982060DC
:103D80000020EBE76846FCF7D3FA07982080002074
:103D9000E4E76846FCF7CCFA0798400A2060002068
:103DA000DCE7000018080020084610B511461A4646
:103DB0000124A31EFCF7F2FA20B9FCF7BFFA002891
:103DC000FBD10024204610BDFFF75ABD084610B5B0
:103DD00011461A460124A31EFCF7F2FA20B9FCF79B
:103DE000ADFA0028FBD10024204610BD10B50A46CC
:103DF000018A406889B2FCF738FE0020401C0A287E
:103E0000FCDB10BDFCF70CBD3EB5044641A00068CC
:103E10000290002500212046FFF7E8FF6420009073
:103E2000042301AA02A9204600F0B0F8E0B1012164
:103E30002046FFF7DBFF9DF8050020729DF8061075
:103E4000E1729DF80710617200228C2829D017DCDE
:103E5000372826D00DDC012823D0042821D01C28A7
:103E60001FD020281CD11CE001212046FFF7BEFFF7
:103E70004DE0622815D0852813D0892810D110E094
:103E8000C2280ED006DCA1280BD0AD2809D0BF284F
:103E900006D106E0C82804D0D52802D0EF2800D0EB
:103EA0002272113910292AD2DFE801F0080B0E1115
:103EB00014171A1D21292929292929250220E06101
:103EC0001EE00420E0611BE00820E06118E0102003
:103ED000E06115E02020E06112E04020E0610FE0A9
:103EE0008020E0610CE04FF48070E06108E04FF466
:103EF0000070E06104E04FF48060E06100E0627215
:103F0000E0690001A0610003000A60610125284604
:103F10003EBD00009FFFFFFF2DE9F04104460E4625
:103F2000174698460025002C23D016B30FB3A07A6D
:103F300001281ED020212046FCF77CF9266067600E
:103F4000C4F8108001212046FFF750FF02E0012055
:103F5000FFF758FFFCF790FD1428F8D3204600F037
:103F600021F830B12046FFF74FFF05460DB1012083
:103F7000A0722846BDE8F08110B5002492B2006816
:103F8000FEF778FA00B90124204610BD38B5049D2B
:103F9000002400959BB20068FEF736FB00B90124AF
:103FA000204638BD38B5054601240AA000680090B7
:103FB00000212846FFF71AFF64230122694628469C
:103FC000FFF7DAFF00B9002401212846FFF70EFFB2
:103FD000204638BD040000007CB504460E46154658
:103FE0003346012202212046009500F033F828B123
:103FF000606D40F02000606503207CBD13481449CB
:104000000068B0FBF1F04FF47A71484301906068AA
:10401000B0F5827F0DD133460022802120460095E5
:1040200000F018F878B1606D40F020006065032062
:104030007CBD019838B10198401E019020688068CD
:10404000C0430006F5D500207CBD00001408002008
:1040500000366E012DE9F84304460F4691461E4690
:10406000089DFCF709FD401B351AFCF705FD80464D
:1040700026480068C0F3CB30684300903AE0701CDB
:1040800038D0FCF7F9FCA0EB0800A84203D215B128
:10409000009858B32BE02068416821F0E0014160AE
:1040A0006068B0F5827F0BD1A068B0F5004F02D0F8
:1040B000B0F5806F04D12068016821F040010160F3
:1040C000A06AB0F5005F09D12068016821F40051B1
:1040D00001602068016841F4005101600120503402
:1040E0006070002020700320BDE8F8830025009850
:1040F000401E00902068806837EA000004D000204D
:104100004845BCD10020EFE70120F9E71408002062
:104110007047FCF7B7BC000030B593B0302107A85A
:10412000FCF788F8142102A8FCF784F800251D4844
:10413000016841F080510160006800F080500190FA
:104140001948016841F480410160006800F4804032
:104150000190012007900004089002240D94800132
:104160000E9004200F90A820109011940720129018
:1041700007A8FDF771F908B1FCF7C8F90F20029004
:10418000039404954FF4A05005904FF4805006908E
:10419000052102A8FDF760F8002801D0FCF7B6F968
:1041A00013B030BD40380240007000400248016842
:1041B00041F470010160704788ED00E00848006834
:1041C0000169C943C90708D1C168C943C90704D1F6
:1041D000891E01610349002008700148FEF727BCD1
:1041E000EC0E0020030800202DE9F04102682A4D62
:1041F0002A4E2B4FDFF8ACC02B4B4FF08048A84223
:1042000009D0404507D0B04205D0B84203D0604540
:1042100001D0984203D122F070044A682243A84298
:104220001BD0404519D0B04217D0B84215D06045D8
:1042300013D0984211D01D4CA0420ED01C4CA0426D
:104240000BD01C4CA04208D01B4CA04205D01B4CEC
:10425000A04202D01A4CA04203D122F44074CA6892
:1042600022434C6922F08002224302608A68C262C3
:104270000A688262A84201D0984201D109690163AB
:10428000012141610169C90703D0016921F00101E0
:104290000161BDE8F0810000000001400004004021
:1042A00000080040000C00400004014000400140B4
:1042B000004401400048014000180040001C00403C
:1042C0000020004010B5846824F47F4442EA0322B1
:1042D0000A432243826010BD826822F070020A43C2
:1042E00042F007018160704710B5036A046A24F048
:1042F00001040462846924F0F00444EA021423F007
:104300000A020A438461026210BD10B5036A046A9E
:1043100024F010040462846924F4704444EA0232F4
:1043200023F0A00343EA01118261016210BD01681C
:104330000C3151E8002F22F4907241E80023002B49
:10434000F5D10168143151E8002F22F0010241E853
:104350000023002BF5D1016B012909D101680C3133
:1043600051E8002F22F0100241E80023002BF5D184
:10437000202180F842100021016370472DE9F041AF
:10438000044620680169E26821F44051114301614B
:10439000A1682069E2690143606910430143206814
:1043A000C26849F20C639A430A43C26020684169BB
:1043B000A26921F440711143416133492068884268
:1043C00002D03249884202D1FDF702F801E0FCF741
:1043D000EFFFE1690023192764253226B1F5004F6C
:1043E00028D061688B0F8A00A0FB0701FBF7EAFE6B
:1043F0000146B0FBF5F07A42504301EB800006EB3A
:104400000010B0FBF5F000F0F002B1FBF5F002EBAC
:104410000012B1FBF5F07B42584301EB800006EB44
:104420000010B0FBF5F0216800F00F001044886028
:10443000BDE8F08161684A18A0FB07015B41FBF70A
:10444000C1FE0146B0FBF5F00201B1FBF5F06FF0E3
:104450001803584301EB800006EBC000B0FBF5F0F9
:1044600000F0F80002EB4002B1FBF5F0584301EB1D
:10447000800006EBC000B0FBF5F0216800F00700FB
:1044800010448860D4E7000000100140001401408F
:104490002DE9F84304460D4617469846089E25E048
:1044A000701C23D0FCF7E8FAA0EB0800B0421BD840
:1044B000D6B12068C168490718D5802D16D0402D87
:1044C00014D00168C943090710D400252168096880
:1044D000406800902046FFF72AFF0820606484F8B7
:1044E00040500120BDE8F8830320FBE72068006806
:1044F00035EA000004D00020B842D1D00020F1E716
:104500000120F9E7D0F800196FF30A01C0F800198B
:10451000D0F8041841F48071C0F8041800207047E6
:104520000FB410B504469DF8110001281CD0E068B6
:1045300040F04000E060204600F036F89DF815108D
:1045400051B3A16B21F48031A1639DF80E100129B4
:1045500007D1A16841F00601A160A16841F02001E6
:10456000A16010BC5DF814FBA06B20F48030A06348
:10457000E0680C490840E060E06820F44010E0602A
:104580009DF81800012803D1E06840F48010E06035
:10459000204600F009F8D8E7A16B41F48031A1630F
:1045A000D3E70000BFFFBDFF08B5002300934FF025
:1045B00070620099491C00910099914201D9032031
:1045C00008BD01690029F4DA0093016941F0010195
:1045D00001610099491C00910099914201D9032081
:1045E00008BD0169C907F4D1002008BDD0F8001E3C
:1045F00021F00301C0F8001ED0F8041841F00201B8
:10460000C0F80418002070470FB42DE9F0430446A9
:1046100000250020002704EB8001C1F80471401C34
:104620000F28F8D39DF82A6066B3A06B20F4001120
:10463000A163A06B40F40021A163C4F8007E9DF843
:104640002500012831D00321204600F0EAF910218D
:10465000204600F035F900B10125204600F010F9A0
:1046600000B10125C4F81078C4F81478C4F81C7897
:1046700000204FF000634FF0904C4FF67F389DF8CC
:10468000202034E0D4F8040840F00201C4F80418F3
:10469000A06B40F40011A163A06B20F40021A16382
:1046A000A06B20F48021A163C7E79DF8230020B10F
:1046B0000121204600F0B5F9C9E70021204600F0AD
:1046C000B0F9C4E704EB4011D1F80099B9F1000F3B
:1046D00006DA10B1C1F800C904E0C4F8003901E0FD
:1046E000C1F80079C1F81079C1F80889401C8242EC
:1046F000E8D8002014E004EB4011D1F8009BB9F198
:10470000000F06DA10B1C1F800CB04E0C4F8003B9A
:1047100001E0C1F8007BC1F8107BC1F8088B401C98
:104720008242E8D8D4F8100820F48071C4F8101838
:10473000A7616FF0804060619DF8220018B9A06900
:1047400040F01000A061A0690A490843A0619DF8EB
:10475000260018B1A06940F00800A061012E03D125
:10476000A06905490843A0612846BDE8F0035DF84B
:1047700014FB000000383C8004000040816821F0F8
:10478000010181600020704710B5036C124CA342F8
:1047900005D9D0F8003B002B01DA002010BD00F550
:1047A000316000230360036843F40023036003685F
:1047B00043F018030360036843F0C0430360A0F5AF
:1047C0003160012906D100F530604261016841F095
:1047D00080210160002010BD0A30544F38B50022FE
:1047E00000920B784D7800EB431442F21073012DC8
:1047F0001AD0D4F8005B002D40DAD4F8005B45F005
:104800000065C4F8005B0C7800EB4414D4F8005B3E
:1048100045F08045C4F8005B009C641C0094009C3B
:104820009C4224D9012229E0D4F80059002D25DA30
:10483000D4F8005945F00065C4F800590C7800EB35
:104840004414D4F8005945F08045C4F80059009C40
:10485000641C0094009C9C4201D901220EE00C785B
:1048600000EB4414D4F80049002CF0DB06E00C788F
:1048700000EB4414D4F8004B002CCDDB104638BDBF
:1048800008B5002300934FF070620099491C009115
:104890000099914201D9032008BD01690029F4DA89
:1048A0000093102101610099491C009100999142E7
:1048B00001D9032008BD0169C906F4D4002008BD50
:1048C00018B5002400944FF07063009A521C0092B7
:1048D000009A9A4201D9032018BD0269002AF4DA2D
:1048E0000094202242EA811101610099491C009143
:1048F0000099994201D9032018BD01698906F4D4B1
:10490000002018BDD0F8080800F00600002805D0E7
:10491000022805D0062803D00F20704700207047DA
:1049200002207047406900F001007047D0F8181865
:10493000D0F81C08084080B27047D0F81818D0F89A
:104940001C080840000C704710B5D0F81038D0F89B
:10495000342801F00F04E24002F0010243EAC212DF
:1049600000EB4110D0F80809104010BD00EB4111D8
:10497000D1F8081BD0F814080840704741698069D5
:104980000840704730B503460846940802F003011A
:10499000002203F5805303E01D6840F8045B521CBD
:1049A000A242F9D300290BD000221C68D50024FABA
:1049B00005F300F8013B521C491E89B20029F5D1CC
:1049C00030BD70B505460024E86820F0C040E860BE
:1049D000012902D089B1012070BDE86840F0005083
:1049E000E8600A20FBF71CFF0A342846FFF79AFF0D
:1049F000012810D0C82CF4D30DE0E86840F08040C6
:104A0000E8600A20FBF70CFF0A342846FFF78AFF0C
:104A100008B1C82CF5D3C82C01D0002070BD0120EE
:104A200070BDD0F800280A43C0F800280020704765
:104A3000022A0ED082B30921C26822F47052C260E9
:104A4000C2684FF4705303EA81210A43C260002018
:104A50007047224A224B0A449A4201D20F21EBE7C7
:104A6000204A214B0A449A4201D20E21E4E71F4A10
:104A70001F4B0A449A4201D20D21DDE71D4A1E4B0D
:104A80000A449A4201D20C21D6E71C4A1C4B0A4424
:104A90009A4202D20B21CFE71DE01A4A1A4B0A4470
:104AA0009A4201D20A21C7E7184A194B0A449A428E
:104AB00001D20921C0E7174A174B0A449A4201D292
:104AC0000821B9E7154A1144154A914201D207213C
:104AD000B2E70621B0E70921AEE70000405327FF07
:104AE00000350C00401E1BFF40420F0000DC0BFF96
:104AF000804F1200808CF9FE20D6130060B6E5FED0
:104B000060E3160000D3CEFE40771B00C05BB3FE0F
:104B1000C091210000CA91FE20753800E05459FE72
:104B2000E09C410010B5029C002C0DD1DB1C9C08C0
:104B3000002300EB023000F5805003E051F8042B15
:104B400002605B1CA342F9D3002010BDFEE7000009
:104B50000FB4054B10B503A9044A029800F028F8D9
:104B600010BC5DF814FB0000095B00082808002059
:104B70000907090E002804DB00F1E02080F800148A
:104B8000704700F00F0000F1E02080F8141D70471E
:104B900002E008C8121F08C1002AFAD17047704706
:104BA000002001E001C1121F002AFBD17047000064
:104BB0002DE9FF4F8BB09A460F460546002606E0CA
:104BC00025280BD052460D9990476D1C761C2878ED
:104BD0000028F5D10FB03046BDE8F08F0024A04684
:104BE0000122604900E0044315F8013F203B02FA2E
:104BF00003F00842F7D128782E2817D115F8010FB5
:104C000044F004042A280ED06FF02F022878A0F177
:104C1000300109290AD808EB880102EB410100EBB9
:104C200001086D1CF2E757F8048B6D1C2878692881
:104C30003ED006DC0028CDD063280BD0642804D1F8
:104C400036E0732810D075284BD052460D99904706
:104C5000761C85E017F8040B8DF8000000208DF815
:104C60000100E946012003E057F8049B4FF0FF30B4
:104C700061074FF0000401D40AE0641C44450DDADA
:104C80008442FADB19F804100029F6D106E0641C0E
:104C90008442FCDB19F804100029F8D1264404E012
:104CA00019F8010B52460D999047641EF8D257E04F
:104CB00001CF4FF00A0B002802DA40422D2102E01A
:104CC000210504D52B218DF82410012103E0E107F3
:104CD00005D02021F7E70DF1200908910CE0002113
:104CE000F9E701CF4FF00A0BF9E75946FBF7ADFAA8
:104CF00001F1300209F8012D0028F6D1ADEB0900D1
:104D000000F1200B600701D44FF00108D84502DD07
:104D1000A8EB0B0000E000208046002406E009A874
:104D20005246005D0D999047641C761C0898844299
:104D3000F5DB04E0302052460D999047761CB8F11F
:104D40000001A8F10108F5DC05E019F8010B524655
:104D50000D999047761CBBF10001ABF1010BF4DC1F
:104D60006D1C34E70928010010B504460020E070EE
:104D7000401EE062204601F020F808B1042010BD7A
:104D800004F22E2000F0BAFFA0F52A41553901D0D7
:104D9000032010BD94F83000E92805D0EB2816D187
:104DA00094F83200902812D104F1660000F09BFFC5
:104DB0000849B1EB002F01D1002010BD04F18200A1
:104DC00000F091FF0449884201D1002010BD02206B
:104DD00010BD0000004641544641543300E0401CE1
:104DE00002780AB18A42FAD100787047F0B5002201
:104DF0001546154E11E006EB02131C685CB10768FE
:104E0000BC4209D15C688768BC4205D19B68446993
:104E1000A34204D000E00125521C022AEBD3022A4F
:104E200001D079B906E01DB9022901D01220F0BDE8
:104E30000020F0BD06EB02108089B0F5807F01D024
:104E40000020F0BD1020F0BD6014002030B500211E
:104E5000054B002403EB01121568854200D1146054
:104E6000491C0229F6D330BD601400200368C26AD1
:104E7000121D480A5989B0FBF1F002CA21B18842DB
:104E800004D211680844704700207047401A121D70
:104E9000F3E7891E4269921E8A4201D800207047BA
:104EA000826A408901FB002070472DE9F04180466D
:104EB0000F46D8F80050002F08D03946404600F081
:104EC0002FFE022809D20120BDE8F081EE6816B15C
:104ED0006869B04207D8012605E0411CF4D0696931
:104EE0008142F1D83E463446641C6869A04204D829
:104EF0000224022E01D20020E6E72146404600F0BF
:104F00000FFE38B10128DFD0411CDDD0B442EBD117
:104F10000020D9E74FF0FF3632462146284600F000
:104F200066FF28B927B122463946284600F05FFFC0
:104F300020B101280FD001242046C5E7EC60D5E957
:104F40000401891E884201D8401E2861287940F05A
:104F500001002871F0E73446EEE700002DE9F04744
:104F60008A46DAF8009000F124080B2220214046FE
:104F700000F01DFF00252E46082728466D1C19F855
:104F80000040202C15D92F2C0DD05C2C0BD02E2CB2
:104F900001D0BE421AD30B2F01D02E2C13D00620E5
:104FA000BDE8F0876D1C19F805002F28FAD05C28A1
:104FB000F8D009EB0500CAF80000FEB198F800002F
:104FC000E5281DD01FE008260B27D6E7802C03D349
:104FD0001148204410F8804C10A02146FFF7FEFE37
:104FE00008B10620DCE7A4F16100192801D8203CB3
:104FF000E4B23046761C08F80040BEE70620CFE752
:10500000052088F80000202C01D8042000E00020B2
:1050100088F80B000020C3E730630008222A2B2CFD
:105020003A3B3C3D3E3F5B5D7C7F0000401E0228DA
:1050300010D2094901EB00118889B0F5807F00D1B9
:10504000002008B1401E80B2888108B900200860A5
:105050000020704702207047601400202DE9F041C5
:1050600005460E462F680021284600F0E9F888B969
:1050700000243846E96900F0A0FE58B9296A0A7888
:10508000E52A0CD05AB100240121284600F035F859
:105090000028EED0042800D10720BDE8F081641C70
:1050A000B442F7D0F0E770B50446266800212046E8
:1050B00000F0C6F800281DD13046E16900F07DFE01
:1050C0000546B5B9206A0178A9B1C17A01F03F015E
:1050D000A171C17A090705D40B2204F1240100F063
:1050E00051FE30B10021204600F007F80546002DA2
:1050F000E2D0284670BD0425FBE72DE9F0470546C0
:105100000F462C68D5F8148008F12008E8690028BB
:1051100002D0B8F5001F02D30420BDE8F0875FEA93
:10512000C85166D1401CE861A9694FF0000929B156
:105130006089401E10EA582F08D05AE02089B0EB51
:10514000581F56D8C5F81C900420E6E7284600F002
:10515000E7FC0646012E01D80220DEE7701C14D0C1
:105160006069B0423FD897B12846A969FFF79DFE14
:10517000064630000FD0012E0FD0701C0FD02046F5
:1051800001F076F868B10120C7E70120C5E7C5F84E
:105190001C900420C1E70720BFE70220BDE70120E3
:1051A000BBE74FF40072002104F1300000F0FFFD76
:1051B000002731462046FFF76CFEE0624FF0010900
:1051C0000BE084F80390204601F052F808B101206A
:1051D000A3E77F1CE06A401CE0626089B842F0D817
:1051E000E06AC01BE062AE6131462046FFF751FE27
:1051F000E861C5F81480C8F3080020443030286204
:1052000000208AE770B50446266801212046FFF792
:1052100025FF054695B93046E16900F0CEFD05460B
:1052200065B920220021206A00F0C1FD0B2204F1A3
:105230002401206A00F0B2FD0120F070284670BD04
:105240002DE9F04106460D463768B5F5001F01D23D
:10525000E80602D00220BDE8F0817561B4681CB98F
:105260003878032800D37C6A1CB178894FEA40283B
:105270001AE03889B0EB551F01D80220EBE7786AB5
:10528000F06118E02146304600F04AFC0446601CFC
:1052900006D0022C02D37869A04203D80220DAE7B4
:1052A0000120D8E7A5EB08054545EBD22146384655
:1052B000FFF7EFFDF061B461F06948B100EB5520F4
:1052C000F061C5F308003844303030620020C2E796
:1052D0000220C0E770B504460020084D295D002972
:1052E0000AD105EB840128194968007A09688847C2
:1052F000002801D10121295570BD00008014002033
:1053000030B4054B1C1803EB8000247A4068036915
:10531000204630BC184700008014002030B4054CF3
:10532000251804EB80002D7A406884682846A4463E
:1053300030BC60478014002004490A1801EB80004B
:10534000127A406841681046084700008014002027
:1053500030B4054C251804EB80002D7A4068C468F1
:105360002846A44630BC604780140020002008492D
:1053700000E0401C022804D201EB00121268002A4F
:10538000F7D1022801D001207047002070470000AB
:105390006014002038B50446204600F0F3F90028D8
:1053A0000CD16946204600F08DFF002806D1206907
:1053B000FFF73CFE002801D10021216038BD00002C
:1053C0002DE9F74181B0164602980090684600F03A
:1053D0000BFC0446002C03DA0B2004B0BDE8F0817E
:1053E0000E4F57F824504FF0000825B12846FFF71C
:1053F0002DFD85F800800198002801D080F80080FC
:1054000047F8240001D0012E01D00020E5E700225A
:1054100001A902A800F0FEF9DFE70000240800203F
:105420002DE9F7438EB00546002D0BD002F03F0664
:10543000324601A90FA800F0EDF904464FF000082C
:1054400024B1DFE0092011B0BDE8F083019802909B
:1054500002A80F9900F01CFB044620000ED19DF815
:105460003700000601D5062408E0700801D00121AC
:1054700000E0002102A8FFF7B9FC044616F01C0F5B
:1054800051D06CB1042C08D1FFF770FF20B102A8F5
:10549000FFF7B8FE044600E0122446F0080609E0D3
:1054A0009DF80E0010F0110F01D0072402E07007E4
:1054B00000D50824B4BB300741D500F093FB074664
:1054C0000A9839460E3000F083FE0A9839461630A5
:1054D00000F07EFE0A992020C8720A99019800F017
:1054E000EFFB074600220A99019800F05DFE0A983A
:1054F00000211C3000F06CFE01980121C1708FB1B9
:10550000D0F82C900022394602A800F0EDFC0446A9
:10551000200014D14946019800F04FFC0446019840
:105520007F1EC7600BE054B99DF80E00C10601D57F
:10553000042404E0B10702D5C00700D007249CB9B9
:10554000300701D546F040060198C06A68620A98A3
:10555000A862700801D0012100E0002102A800F03B
:105560006BFB286100B90224ECBB0A99019800F09A
:10557000A7FBA8600A981C3000F0B5FBE860C5F8EE
:105580002C80019828600198C088A8802E7585F825
:105590001580C5F82080C5F8188005F130004FF45B
:1055A00000720021814600F002FCB0062AD5EE68A8
:1055B000CEB1AE61019840894702A9680AE0284649
:1055C00000F0AEFA0146012900D80224481C00D19F
:1055D0000124F61B0CB9BE42F1D8E9611CB9F005F3
:1055E00010D0019800E00DE0FFF753FC78B100EB1C
:1055F00056222A620198012349464078FFF78EFE21
:1056000000B101240CB1C5F8008020461BE702243C
:10561000F8E72DE9FC5F04460F4616469846002041
:10562000C8F800006946204600F04CFE002812D160
:10563000607D00280FD1207DC0070BD0A169E068F4
:10564000401A864200D9064604F130004FF00109A5
:10565000019092E00720BDE8FC9FA169C80574D1C4
:1056600000984089401E00EA512ABAF1000F14D177
:1056700029B1E06A28B12046FFF7F8FB05E0A068F1
:1056800003E02046E16900F04BFA022802D2022032
:105690006075E0E7411C1CD0E061E1690098FFF70C
:1056A000F8FBD0B100EB0A0B750A55B300980AEB72
:1056B000050241898A4201D9A1EB0A0540782B46AF
:1056C0005A463946FFF72AFE50B184F8159001205A
:1056D000C1E784F815900120BDE702206075BAE7A4
:1056E000207D00060BD5206AA0EB0B00A84206D255
:1056F00007EB40204FF40072019900F04FFB6D0260
:1057000031E0226A5A451ED0207D00060ED5009851
:10571000012301994078FFF71BFE18B184F815901A
:10572000012098E7207D00F07F002075009801237C
:105730005A4640780199FFF7F1FD20B184F81590A1
:10574000012088E701E0C4F820B0208BC0F30800F6
:10575000C0F50075B54200D93546011930312A46E9
:10576000384600F01BFB2F44A0692844A061D8F8FC
:1057700000002844C8F80000761B002E7FF46DAFAF
:10578000002068E7F8B504466946204600F09AFD17
:1057900000280ED1217D4A060BD508060ED50098AB
:1057A000226A0123407804F13001FFF7D1FD08B1EE
:1057B0000120F8BD207D00F07F00207500F012FA76
:1057C0000646616A009800F0F8FA0028F1D1A56A4F
:1057D000E87A40F02000E8722946A268206800F0CC
:1057E000E3FC05F11C00E16800F0F2FC314605F134
:1057F000160000F0EDFC002105F1120000F0F0FCB5
:1058000000980121C17000F0EFFC217D01F0BF0183
:105810002175F8BD2DE9FF410E46904600273760FF
:1058200000F0E2F90546280003D50B2004B0BDE8DE
:10583000F081944850F8254094B1346008F0FE0699
:10584000207820B16078FFF777FDC1070AD0277074
:10585000E8B26070FFF73EFDC1070AD00320E5E71C
:105860000C20E3E71EB1400701D50A20DEE7002047
:10587000DCE71EB1400701D50A20D7E700252946FD
:105880002046FFF771FA02281FD1E84604EB051005
:1058900000F5F770017919B1083000F024FA00E042
:1058A000002048F825006D1C042DEFD3002658F881
:1058B000265025B129462046FFF756FA00E003207E
:1058C000022802D3761C042EF1D3042803D0022828
:1058D00003D30D20AAE70120A8E704F13B0000F064
:1058E0000DFAB0F5007F01D00D209FE704F14600CE
:1058F00000F004FA18B904F1540000F0F4F9A061C2
:1059000094F8408084F80280B8F1010F04D0B8F117
:10591000020F01D00D2089E708FB00F894F83D0044
:10592000608110B1411E084201D00D207EE704F1D4
:10593000410000F0E3F92081000701D00D2075E758
:1059400004F1430000F0DAF90646300004D104F116
:10595000500000F0C8F9064604F13E0000F0CEF910
:10596000014641B1238901EB080000EB1312964276
:1059700003D20D205AE70D2058E7B01A6689B0FB14
:10598000F6F030B303264FF6F57C604500D80226CA
:1059900040F6F57C604500D80126801C6061E56119
:1059A000294421622A44A262032E14D033B3414415
:1059B0006162022E24D000F0010100EB400001EBF7
:1059C0005000A16900F2FF10B1EB502F1AD20D2048
:1059D0002CE70D202AE704F15A0000F08FF908B1F6
:1059E0000D2023E7208908B10D201FE704F15C009A
:1059F00000F079F9606260698000E2E70D2015E748
:105A00004000DEE74FF0FF302061E0608020207131
:105A1000032E2BD104F1600000F070F9012825D18C
:105A2000691C204600F0C9F900BB277104F22E2042
:105A300000F064F9A0F52A41553917D104F130007E
:105A400000F051F91049884210D104F5057000F0BA
:105A50004AF90E49884209D104F5067000F043F96D
:105A6000206104F5077000F03EF9E06026700549FA
:105A7000091F0888401C0880E0802046FFF7E6F9EF
:105A80000020D3E624080020525261417272416125
:105A900073B50446256801E0491C01910199087815
:105AA0002F28F9D05C28F7D00021A1600198007858
:105AB000202806D2802084F82F002046FFF7C0FB64
:105AC0007CBD01A92046FFF749FA0028F8D12046FD
:105AD000FFF7E9FA94F82F1028B10428F0D149070C
