:020000040800F2
:10000000D8040020A10100088D1700087B16000805
:1000100089170008D9020008F12300080000000039
:10002000000000000000000000000000F91F0008B0
:10003000DD0200080000000091170008FB1F000807
:10004000BB010008BB010008BB010008BB010008A0
:10005000BB010008BB010008BB010008BB01000890
:10006000BB010008BB010008BB010008BB01000880
:10007000BB010008BB010008BB010008BB01000870
:10008000BB010008BB010008BB010008BB01000860
:10009000BB010008BB010008BB010008BB01000850
:1000A000BB010008BB010008BB010008BB01000840
:1000B000BB010008BB010008BB010008BB01000830
:1000C000BB010008BB010008BB010008BB01000820
:1000D000BB010008BB010008BB010008BB01000810
:1000E000BB010008BB010008BB010008BB01000800
:1000F000BB010008BB010008BB010008BB010008F0
:10010000BB010008BB010008BB010008BB010008DF
:10011000BB010008BB010008BB010008BB010008CF
:10012000BB010008BB010008BB010008BB010008BF
:10013000BB010008BB010008BB010008BB010008AF
:10014000BB010008BB010008BB010008BB0100089F
:10015000BB010008BB010008BB010008BB0100088F
:10016000BB010008BB010008BB010008BB0100087F
:10017000BB010008BB010008BB0100080000000033
:10018000BB010008BB010008DFF810D000F092F8B6
:1001900000480047DD250008AFF30080D8040020A8
:1001A0000648804706480047FEE7FEE7FEE7FEE711
:1001B000FEE7FEE7FEE7FEE7FEE7FEE7B920000800
:1001C000890100082DE9F05F0546002092469B4614
:1001D00088460646814640241BE02846414647465D
:1001E000224600F057F853465A46C01A914110D3A0
:1001F00011461846224600F03EF82D1A67EB01081A
:100200004F4622460120002100F035F817EB000987
:100210004E41201EA4F10104DFDC484631462A4647
:100220004346BDE8F09FD2B201E000F8012B491E21
:10023000FBD270470022F6E710B513460A46044683
:100240001946FFF7F0FF204610BD30B50B460146BA
:1002500000202022012409E021FA02F59D4205D365
:1002600003FA02F5491B04FA02F52844151EA2F10F
:100270000102F1DC30BD202A04DB203A00FA02F151
:10028000002070479140C2F1200320FA03F3194384
:1002900090407047202A04DB203A21FA02F0002126
:1002A000704721FA02F3D040C2F120029140084386
:1002B00019467047064C074D06E0E06840F0010320
:1002C00094E8070098471034AC42F6D3FFF760FF7C
:1002D000502700087027000800BFFEE7704772B67D
:1002E00000BFFEE770B5044600F010F9064625464B
:1002F000681C10B104480078054400BF00F006F9FE
:10030000801BA842FAD370BD08000020F8B5024651
:100310000B460025002400200021D6E0012606FA25
:1003200001F51E6806EA0504AC4274D11E7906F098
:100330000306012E04D01E7906F00306022E13D107
:1003400090684F000326BE40B0434F00DE68BE40B9
:1003500030439060506801268E40B0431E79C6F34A
:1003600000168E40304350601E7906F00306032EBF
:1003700009D0D0684F000326BE40B0434F009E68AE
:10038000BE403043D0601E7906F00306022E13D122
:10039000CF0802F1200656F827004E07F70E0F2669
:1003A000BE40B0434F07FF0E1E69BE403043CF082A
:1003B00002F1200646F8270010684F000326BE40D1
:1003C000B0431E7906F003064F00BE403043106074
:1003D0005E6806F44036002E76D000BF00260096F8
:1003E0003C4E366846F480463A4F3E603E4636689C
:1003F00006F48046009600BF00BF374E8F0856F8BF
:1004000027008E07370F0F26BE40B043334EB2424F
:1004100002D1002624E057E0314EB24201D101263C
:100420001EE0304EB24201D1022619E02E4EB242F9
:1004300001D1032614E02D4EB24201D104260FE073
:100440002B4EB24201D105260AE02A4EB24201D11A
:10045000062605E0284EB24201D1072600E0082614
:100460008F073F0FBE4030431B4E8F0846F82700D2
:10047000224E3068A0435E6806F4801606B1204321
:100480001E4E3060361D3068A0435E6806F40016CC
:1004900006B12043194E361D3060184E361F3068A5
:1004A000A0435E6806F4003606B12043134E361FA3
:1004B0003060361F3068A0435E6806F4803606B1AF
:1004C00020430E4E083E3060491C1029FFF426AF31
:1004D000F8BD0000443802400838014000000240E6
:1004E0000004024000080240000C024000100240DC
:1004F0000014024000180240001C0240083C014069
:100500000AB1816101E00B04836170470148006812
:100510007047000000000020034800680349097884
:1005200008440149086070470000002008000020CE
:1005300010B50D48006840F400700B49086008468B
:10054000006840F4806008600846006840F48070ED
:100550000860032000F092F80F2000F007F800F088
:100560002BF8002010BD0000003C024070B504468E
:100570000E4800784FF47A71B1FBF0F00C4909682D
:10058000B1FBF0F5284600F080FF08B1012070BDF6
:10059000102C07D200222146501E00F031F80548E9
:1005A000046001E00120F2E70020F0E708000020ED
:1005B0000C0000200400002008B500BF00200090BF
:1005C0000E48006840F480400C4908600846006806
:1005D00000F48040009000BF00BF00BF00200090EA
:1005E000081F006840F08050091F08600846006836
:1005F00000F08050009000BF00BF08BD44380240AA
:100600002DE9F05F80460D461646002701F002FFF7
:10061000074639462A46334601F00700C0F1070A6B
:10062000BAF1040F02D94FF0040A01E0C0F1070A41
:10063000D14600F1040ABAF1070F02D24FF0000AC6
:1006400001E0A0F1030AD4464FF0010A0AFA09FAC0
:10065000AAF1010A0AEA020A0AFA0CFA4FF0010B9F
:100660000BFA0CFBABF1010B0BEA030B4AEA0B0490
:100670002146404601F0D6FEBDE8F09F00BF00F0E5
:100680000702064B19684FF6FF031940044B0B4352
:1006900043EA0221014B196000BF70470CED00E0F6
:1006A0000000FA0570B504460D460CB9012070BD76
:1006B0005848006800F00700A84209D255490D705B
:1006C0000846006800F00700A84201D00120EEE7CC
:1006D000207800F0020002281DD1207800F00400EC
:1006E000042805D14C48006840F4E0504A490860AD
:1006F000207800F00800082805D14748006840F439
:100700006040454908604448006820F0F000A16856
:10071000084341490860207800F00100A8B36068F0
:10072000012807D13C4808380068C0F34040B8B9F8
:100730000120BCE76068022802D06068032807D166
:10074000354808380068C0F3406048B90120AEE77A
:10075000314808380068C0F3400008B90120A6E716
:100760002D48006820F00300616808432A490860AA
:10077000FFF7CCFE064609E0FFF7C8FE801B41F2FA
:100780008831884202D9032091E707E022480068B7
:1007900000F00C006168B0EB810FEDD11D480068DE
:1007A00000F00700A84209D91A490D7008460068F0
:1007B00000F00700A84201D0012078E7207800F07F
:1007C0000400042807D11448006820F4E050E168D0
:1007D000084311490860207800F00800082808D173
:1007E0000D48006820F46040216940EAC1000A49D0
:1007F000086000F03FF808490968C1F30311074A8F
:10080000515CC8400649086006480068FFF7AEFE24
:1008100000204CE7003C024008380240382700081E
:100820000C00002004000020014800687047000010
:100830000C00002000B5FFF7F7FF04490968C1F379
:100840008221034A515CC84000BD000008380240C4
:100850004827000800B5FFF7E7FF04490968C1F31E
:100860004231034A515CC84000BD000008380240D4
:10087000482700082DE9F047002400250026A1465E
:100880002548006800F00C0020B1042805D0082895
:100890003AD105E0DFF8849039E0DFF8849036E063
:1008A0001D48001F006800F03F041B48001F00683F
:1008B00000F4800078B11A481749091F0968C1F38C
:1008C0008811A0FB01700146224600233846FFF73D
:1008D00079FC05460EE011480F49091F0968C1F36C
:1008E0008811A0FB01700146224600233846FFF71D
:1008F00069FC05460848001F0068C0F30140401C21
:100900004600B5FBF6F902E0DFF8109000BF00BF2B
:100910004846BDE8F0870000083802400024F40093
:1009200000127A00F8B504460CB90120F8BD207811
:1009300000F00100002874D0F948006800F00C00B5
:1009400004280DD0F648006800F00C00082813D1E8
:10095000F348001F006800F48000B0F5800F0BD151
:10096000EF4808380068C0F34040002859D060685C
:10097000002856D10120D9E700BF6068B0F5803F5C
:1009800008D1E7480838006840F48030E449083965
:1009900008601EE06068B0F5A02F0DD1E04808386F
:1009A000006840F48020DE49083908600846006885
:1009B00040F4803008600CE0D9480838006820F422
:1009C0008030D749083908600846006820F4802044
:1009D000086000BF606890B1FFF798FD054606E02B
:1009E000FFF794FD401B642801D903209EE7CC4803
:1009F00008380068C0F340400028F1D011E0FFF74C
:100A000085FD054606E0FFF781FD401B642801D9FE
:100A100003208BE7C24808380068C0F34040002834
:100A2000F1D1207800F0020002285FD1BC480068B4
:100A300000F00C0058B1BA48006800F00C0008281B
:100A40001CD1B748001F006800F48000B0B9B4485A
:100A500008380068C0F3400020B1E068012801D0E8
:100A6000012063E7AE480838006820F0F8002169EB
:100A700040EAC100AA490839086037E0E06800B3DD
:100A80000120A8490860FFF741FD054606E0FFF791
:100A90003DFD401B022801D9032047E7A048083844
:100AA0000068C0F340000028F1D09D480838006875
:100AB00020F0F800216940EAC1009949083908602E
:100AC00014E0002097490860FFF720FD054606E086
:100AD000FFF71CFD401B022801D9032026E79048A0
:100AE00008380068C0F340000028F1D1207800F0F9
:100AF000080008282CD16069A8B101208A49086043
:100B0000FFF704FD054606E0FFF700FD401B022845
:100B100001D903200AE782486C300068C0F3400026
:100B20000028F1D014E000207F490860FFF7EEFCB8
:100B3000054606E0FFF7EAFC401B022801D9032026
:100B4000F4E677486C300068C0F340000028F1D12B
:100B5000207800F00400042870D100277048383055
:100B6000006800F0805090B900BF002000906C48F1
:100B70003830006840F080506949383108600846D4
:100B8000006800F08050009000BF00BF0127674858
:100B9000006800F48070B0B96448006840F4807068
:100BA00062490860FFF7B2FC054606E0FFF7AEFCBD
:100BB000401B022801D90320B8E65C48006800F415
:100BC00080700028F2D000BFA068012808D15448E6
:100BD0006830006840F001005149683108601DE04C
:100BE000A06805280DD14E486830006840F0040028
:100BF0004B49683108600846006840F00100086011
:100C00000CE047486830006820F001004449683132
:100C100008600846006820F00400086000BFA06873
:100C2000A8B1FFF773FC054609E0FFF76FFC401B16
:100C300041F28831884202D9032077E626E038481D
:100C400068300068C0F340000028EED013E0FFF7E2
:100C50005DFC054608E0FFF759FC401B41F2883176
:100C6000884201D9032061E62D4868300068C0F34E
:100C700040000028EFD1012F07D129483830006803
:100C800020F0805026493831086000BFA069002854
:100C900045D02348006800F00C0008285DD0A0690A
:100CA000022845D100201F490866FFF72FFC0546A2
:100CB00006E0FFF72BFC401B022801D9032035E694
:100CC000174808380068C0F340600028F1D1D4E923
:100CD00007010843616A40EA81110122A06AC2EB60
:100CE000500041EA00412C20005D41EA00600C49BF
:100CF000091F086001200B490866FFF707FC05463D
:100D000006E0FFF703FC401B022801D903200DE693
:100D1000034808380068C0F340600028F1D049E07B
:100D20000838024000004742800E474200700040F1
:100D3000002021490866FFF7E9FB054606E0FFF7BA
:100D4000E5FB401B022801D90320EFE51B480068A2
:100D5000C0F340600028F2D12CE0A069012800D146
:100D6000E4E51648001D0668A069012820D006F4B5
:100D70008001E06981421BD106F03F01206A814277
:100D800016D147F6C0703040616AB0EB811F0FD1B9
:100D900006F440310122A06AC2EB5000B1EB004FD3
:100DA00006D106F070612C20005DB1EB006F01D020
:100DB0000120BBE50020B9E50000474200380240B1
:100DC00010B504460CB9012010BD606A38B96068DE
:100DD000B0F5827F00D105E00021E16102E0002151
:100DE000216161610021A16294F8510028B90020BD
:100DF00084F85000204600F047F8022084F85100A3
:100E00002068006820F0400021680860A08800F495
:100E10008270218901F404410843A18901F4006131
:100E20000843217C01F002010843217D01F001010A
:100E30000843218B01F400710843217F01F0380140
:100E400008432021095D01F080010843218D01F450
:100E500000510843216808600421A06901EA10409C
:100E600094F8241001F010010843216848602068BC
:100E7000C06920F400602168C8610020606501201D
:100E800084F8510000209FE710B586B00446142175
:100E900001A8FFF7CFF91B49206888422FD100BF76
:100EA000002000901848006840F4805016490860FF
:100EB0000846006800F48050009000BF00BF00BFEB
:100EC0000020009010481438006840F001000E49DE
:100ED000143908600846006800F00100009000BF67
:100EE00000BFE02001900220029000200390032028
:100EF00004900520059001A90448FFF707FA06B001
:100F000010BD0000003001404438024000000240A3
:100F10002DE9F8430446884616461D464FF0000961
:100F200094F85100012802D04FF00209A8E060684F
:100F3000B0F5827F0DD1A06858B9042084F8510023
:100F40003346424641462046009500F07EF9BDE812
:100F5000F88300BF94F85000012801D10220F6E781
:100F6000012084F8500000BFFFF7D0FA0746B8F11F
:100F7000000F00D016B94FF0010981E0042084F879
:100F8000510000206065C4F83880A687E68720639A
:100F9000A086E08620646064A068B0F5004F0BD1A5
:100FA0002068006820F04000216808602068006820
:100FB00020F48040216808602068006800F040004C
:100FC000402805D02068006840F040002168086093
:100FD000E06810BB1DE02068806800F0010050B19F
:100FE0002068007BA16B0870A06B401CA063E08FA1
:100FF000401EE0870DE0FFF789FAC01BA84201D32D
:10100000681C00B92DB94FF00309012084F8510084
:1010100036E0E08F0028DED121E01DE02068806806
:1010200000F0010050B12068C068A16B0880A06B7F
:10103000801CA063E08F401EE0870DE0FFF766FA9A
:10104000C01BA84201D3681C00B92DB94FF0030999
:10105000012084F8510013E0E08F0028DED13A46E9
:101060002946204600F0CDFE08B120206065606D65
:1010700010B14FF0010902E0012084F8510000BFD7
:1010800000BF002084F8500000BF48465FE72DE90C
:10109000F84F0446884616461D464FF0000A00BF2A
:1010A00094F85000012802D10220BDE8F88F0120F9
:1010B00084F8500000BFFFF729FA0746B14694F8BC
:1010C0005100012802D04FF0020AB7E0B8F1000F3A
:1010D00000D016B94FF0010AB0E0032084F85100A7
:1010E00000206065C4F83080A686E686A063A087ED
:1010F000E08760642064A068B0F5004F0BD12068E1
:10110000006820F04000216808602068006840F412
:101110008040216808602068006800F04000402896
:1011200005D02068006840F0400021680860E06851
:10113000B0F5006F32D1606810B1B9F1010F09D17B
:10114000206B00882168C860206B801C2063E08EC3
:10115000401EE0861EE02068806800F00200022841
:101160000AD1206B00882168C860206B801C206336
:10117000E08E401EE0860DE0FFF7C8F9C01BA842D4
:1011800001D3681C00B92DB94FF0030A012084F87F
:10119000510053E0E08E0028DDD131E0606810B1ED
:1011A000B9F1010F09D1206B007821680873206B19
:1011B000401C2063E08E401EE0861EE020688068B0
:1011C00000F0020002280AD1206B00782168087321
:1011D000206B401C2063E08E401EE0860DE0FFF790
:1011E00095F9C01BA84201D3681C00B92DB94FF076
:1011F000030A012084F8510020E0E08E0028DDD1B0
:101200003A462946204600F047FE08B12020606596
:10121000A06850B900BF002000902068C06800900E
:1012200020688068009000BF00BF606D10B14FF073
:10123000010A02E0012084F8510000BF00BF002035
:1012400084F8500000BF50462FE72DE9FF5F0446A9
:10125000884691461D460E9E012002900020019076
:1012600000BF94F85000012803D1022004B0BDE86B
:10127000F09F012084F8500000BFFFF747F90746B0
:1012800094F851B060680390AA46BBF1010F0BD0EF
:101290000398B0F5827F04D1A06810B9BBF1040FA8
:1012A00002D002200190E9E0B8F1000F03D0B9F1BB
:1012B000000F00D015B901200190DFE094F8510033
:1012C000042802D0052084F8510000206065C4F88D
:1012D0003890E587A587C4F83080E586A586206428
:1012E00060642068006800F04000402805D0206855
:1012F000006840F0400021680860E068B0F5006FC9
:101300004DD1606810B1BAF1010F09D1206B00888E
:101310002168C860206B801C2063E08E401EE08640
:1013200036E02068806800F00200022810D1E08ECC
:1013300070B1029801280BD1206B00882168C86029
:10134000206B801C2063E08E401EE086002002900F
:101350002068806800F0010068B1E08F58B1206813
:10136000C068A16B0880A06B801CA063E08F401E4A
:10137000E08701200290FFF7C9F8C01BB04207D3F5
:10138000701C28B103200190012084F8510075E001
:10139000E08E0028C5D1E08F0028C2D14DE0606802
:1013A00010B1BAF1010F09D1206B007821680873E0
:1013B000206B401C2063E08E401EE08637E02068F2
:1013C000806800F00200022810D1E08E70B102980F
:1013D00001280BD1206B007821680873206B401C1A
:1013E0002063E08E401EE086002002902068806826
:1013F00000F0010068B1E08F58B12068C068A16BAF
:101400000870A06B401CA063E08F401EE0870120A5
:101410000290FFF77BF8C01BB04201D3701C00B9EB
:101420002EB903200190012084F8510026E0E08EBF
:101430000028C4D1E08F0028C1D13A463146204669
:1014400000F02AFD20B1012001902020606515E008
:10145000A06850B900BF002000902068C0680090CC
:1014600020688068009000BF00BF606D10B101204F
:10147000019002E0012084F8510000BF00BF00206D
:1014800084F8500000BF0198F0E670B50446254688
:10149000681EB0F1807F01D301200FE0681E4FF07D
:1014A000E02148610F214FF0FF3000F0BBFF00202A
:1014B0004FF0E021886107200861002070BD10B561
:1014C00004460CB9012010BDA06900B100E000BFC6
:1014D00094F8410028B9002084F84000204600F02C
:1014E00029F8242084F841002068C06820F40050C6
:1014F0002168C860204600F01FFE2068006920F4C3
:101500009040216808612068406920F02A00216825
:1015100048612068C06840F400502168C86000201D
:101520006064202084F8410084F842000020606359
:1015300000BFC8E710B586B00446142101A8FEF725
:1015400079FE1B492068884230D100BF00200090FE
:101550001848006840F01000164908600846006806
:1015600000F01000009000BF00BF00BF00200090FE
:1015700010481438006840F001000E491439086022
:101580000846006800F00100009000BF00BF4FF463
:10159000C06001900220029000200390032004907C
:1015A0000720059001A90448FEF7B0FE06B010BD63
:1015B0000010014044380240000002402DE9F84F7D
:1015C00004460E46174699464FF0000A94F841002B
:1015D000202850D106B117B90120BDE8F88F0020AE
:1015E0006064212084F84100FEF790FF8246A784C2
:1015F000E784A068B0F5805F04D1206910B90025A8
:10160000B04602E035464FF000081EE05346002287
:1016100080212046CDF8009000F0A4FE20B12020CB
:1016200084F841000320D8E745B9B8F80000C0F3BA
:1016300008002168486008F1020803E02878216862
:1016400048606D1CE08C401EE084E08C0028DDD1F9
:101650005346002240212046CDF8009000F082FE43
:1016600020B1202084F841000320B6E7202084F830
:1016700041000020B1E70220AFE700BFFEE7000015
:1016800000B587B0142102A8FEF7D4FD00BF0020EA
:1016900001901C48006840F080001A490860084624
:1016A000006800F08000019000BF00BF00BF002074
:1016B00001900846006840F0010008600846006894
:1016C00000F00100019000BF00BF012210210E4870
:1016D000FEF716FF0120029000200390049002A95B
:1016E0000948FEF713FE102002900120039000200D
:1016F00004900320059002A90348FEF707FE07B0F7
:1017000000BD0000303802400000024010B50E4815
:101710000E4908604FF48270486000210B488160D8
:10172000C160016141614FF4007181610821C161B3
:1017300000210162416281620A21C162FFF740FB20
:1017400008B1FEF7CCFD10BD003001403400002090
:1017500010B50B480B4908604FF4E1304860002198
:1017600008488160C16001610C21416100218161F3
:10177000C161FFF7A4FE08B1FEF7B1FD10BD000086
:10178000001001408C00002000BFFEE700BFFEE714
:10179000704770B504460D46228A91B22A466068A9
:1017A000FEF7AEFE002000E0401C0A28FCDB70BD06
:1017B00010B504462046FEF795FD10BD2DE9FC410D
:1017C00005460E46284600F035F90027340300BFD1
:1017D000A869B04200D84BE0284600F07DFA00B975
:1017E00046E000212846FFF7D4FFE869B0F5007F06
:1017F0001AD321208DF80000200E8DF80100200C56
:101800008DF80200200A8DF80300E0B28DF8040084
:10181000642305226946284600F0BEF9E0B901219B
:101820002846FFF7B6FF23E020208DF80000200CAB
:101830008DF80100200A8DF80200E0B28DF8030057
:10184000642304226946284600F0A6F920B9012144
:101850002846FFF79EFF0BE001212846FFF799FF7E
:101860004FF47A71284600F0C6F900B1012700BF95
:1018700000BF284600F016FA284600F0B9F93846AD
:10188000BDE8FC813EB504464EA0006802900025EC
:1018900000BF00212046FFF77CFF6420042301AA3B
:1018A00002A90090204600F08BF920B901212046C2
:1018B000FFF76FFF83E001212046FFF76AFF9DF8E5
:1018C000050020729DF80600E0729DF80700607226
:1018D000207A8C282DD012DC372826D008DC01286D
:1018E0001ED0042828D01C2827D0202827D118E073
:1018F000622820D0852821D0892820D11AE0C2284A
:1019000010D006DCA12813D0AD2810D0BF2816D1E6
:101910000CE0C82808D0D52805D0EF280FD111E059
:1019200010E00FE00EE00DE00CE00BE00AE009E053
:1019300008E007E006E005E004E003E002E0002044
:10194000207200BF00BF607A113810282AD2DFE869
:1019500000F0080B0E1114171A1D21292929292915
:1019600029250220E06120E00420E0611DE008203C
:10197000E0611AE01020E06117E02020E06114E04F
:101980004020E06111E08020E0610EE04FF48070C3
:10199000E0610AE04FF40070E06106E04FF480601F
:1019A000E06102E00020607200BF00BFE06900015A
:1019B000A061A0690003000A6061012500BF00BFAB
:1019C00028463EBD9FFFFFFF2DE9F04104460D462E
:1019D00016461F464FF0000800BF24B11DB116B1D6
:1019E000A07A012800D121E020212046FEF722FC28
:1019F00025606660276101212046FFF7CAFE02E0EC
:101A00000120FFF7D5FEFEF781FD1428F8D320460C
:101A100000F048F900B909E02046FFF733FF80469F
:101A2000B8F1000F01D00120A07200BF00BF4046F6
:101A3000BDE8F08110B5044602E00120FFF7B8FED2
:101A4000207B0028F9D10120207310BD2DE9F04141
:101A500004460D4616461F462046FFF7EBFF4FF0A3
:101A600000083B4632462946204600F007F88046EB
:101A7000204600F0BDF84046BDE8F0812DE9FC416C
:101A800005460C4616461F464FF0000800BF0021D1
:101A90002846FFF77EFEE869B0F5007F1AD31320D1
:101AA0008DF80000200E8DF80100200C8DF802004A
:101AB000200A8DF80300E0B28DF8040064230522AB
:101AC0006946284600F068F8E0B901212846FFF78A
:101AD00060FE2BE003208DF80000200C8DF8010043
:101AE000200A8DF80200E0B28DF80300642304227E
:101AF0006946284600F050F820B901212846FFF732
:101B000048FE13E04FF4FA633A463146284600F0A7
:101B10002FF820B901212846FFF73BFE06E00121FE
:101B20002846FFF736FE4FF0010800BF00BF4046D1
:101B3000BDE8FC813EB5044600250CA0006802907B
:101B400000212046FFF725FE6420022301AA02A9F6
:101B50000090204600F034F808B19DF805500121AE
:101B60002046FFF716FE28463EBD000005A50000F2
:101B70002DE9F04104460E4615461F464FF0000879
:101B8000AAB23B4631462068FFF7C2F908B94FF0C8
:101B900001084046BDE8F0812DE9F04104460E46BB
:101BA00015461F464FF00008AAB23B463146206852
:101BB000FFF76DFA08B94FF001084046BDE8F08123
:101BC0002DE9F84304460E4617461D46DDF82080F1
:101BD0004FF00009ABB2CDF800803A46314620689C
:101BE000FFF733FB08B94FF001094846BDE8F88319
:101BF0000021017370472DE9F04105460C4600268F
:101C0000FEF784FC074610E00120FFF7D1FDFEF748
:101C10007DFCC01BA04200D308E02846FFF78AFFE6
:101C200000F0010008B9012600E0EDE700BF3046F2
:101C3000BDE8F0812DE9FF4F85B0894692469B466D
:101C40000598FFF7F7FE0020049002904E465C4690
:101C500000BF300A0390F7B2C7F58078444501D839
:101C6000254600E04546009702980AEB00022B4605
:101C70000399059800F04AF800B90AE02E4402984A
:101C800028440290641B14B90120049001E0002C48
:101C9000DFD100BF0598FFF7ABFF049809B0BDE89E
:101CA000F08F000038B5044601250AA000680090B6
:101CB00000212046FFF76DFD64230122694620467E
:101CC000FFF76AFF00B9002501212046FFF761FDFB
:101CD000284638BD0400000038B5044601250AA096
:101CE0000068009000212046FFF753FD6423012285
:101CF00069462046FFF750FF00B900250121204624
:101D0000FFF747FD284638BD060000002DE9FC5FBF
:101D100006460D4691461F46DDF830804FF0000B19
:101D20000024C8F5807A00BF7069A84200D861E03D
:101D3000B8F1FF0F00D95DE0574500D9574608EBD1
:101D400005243046FFF7C8FF00B953E000213046B4
:101D5000FFF71FFDF069B0F5007F1AD312208DF850
:101D60000000200E8DF80100200C8DF80200200AE2
:101D70008DF80300E0B28DF8040064230522694663
:101D80003046FFF709FFE0B901213046FFF701FDBA
:101D900030E002208DF80000200C8DF80100200AB0
:101DA0008DF80200E0B28DF8030064230422694636
:101DB0003046FFF7F1FE20B901213046FFF7E9FC7C
:101DC00018E04FF47A733A4649463046FFF7E4FE8E
:101DD00020B901213046FFF7DCFC0BE00121304641
:101DE000FFF7D7FC64213046FFF705FF08B14FF03D
:101DF000010B00BF00BF3046FFF754FF5846BDE857
:101E0000FC9FF8B504460E4615466068B0F5827F23
:101E10000DD1A068B0F5004F03D0A068B0F5806F79
:101E200005D12068006820F04000216808606068E3
:101E3000B0F5827F1FD1A068B0F5806F0DD033461A
:101E4000002280212046009500F06AF808B3606DFA
:101E500040F0200060650320F8BD334600220121D8
:101E60002046009500F05CF898B1606D40F02000CD
:101E700060650320F0E733460022012120460095EB
:101E800000F04EF828B1606D40F02000606503203E
:101E9000E2E70020E0E700007CB504460E46154668
:101EA0003346012202212046009500F039F828B17E
:101EB000606D40F02000606503207CBD164800681E
:101EC0001821B0FBF1F01549B0FBF1F04FF47A7135
:101ED000484301906068B0F5827F0DD133460022FF
:101EE00080212046009500F01BF898B1606D40F00D
:101EF000200060650320E0E700BF019800B908E01A
:101F00000198401E019020688068C0F3C01000282E
:101F1000F3D100BF0020D0E70C00002040420F00AA
:101F20002DE9F84F04460D4690461E46DDF82890F0
:101F3000FEF7ECFAA0EB0900371AFEF7E7FA824643
:101F40002C480068C0F3CB307843009045E0701C0B
:101F5000002842D0FEF7DAFAA0EB0A00B84200D21D
:101F6000A7BB2068406820F0E000216848606068F6
:101F7000B0F5827F0DD1A068B0F5004F03D0A06806
:101F8000B0F5806F05D12068006820F0400021681E
:101F90000860A06AB0F5005F0DD100BF206800683E
:101FA00020F40050216808602068006840F4005068
:101FB0002168086000BF012084F8510000BF0020A4
:101FC00084F8500000BF0320BDE8F88FFFE70098B9
:101FD00000B900270098401E0090206880682840C3
:101FE000A84201D1012000E000204045AFD10020EF
:101FF000EAE700000C000020704710B5FEF78CFAED
:1020000010BD000000B593B0302107A8FEF712F90B
:10201000142102A8FEF70EF900BF00200190244809
:10202000006840F08050224908600846006800F0CF
:102030008050019000BF00BF00BF002001901D48EC
:10204000006840F480401B4908600846006800F4BE
:102050008040019000BF00BF01200790000408905D
:1020600002200D9041050E9104210F91A82110919D
:10207000022111910421129107A8FEF753FC08B127
:10208000FEF72DF90F20029002200390002004900B
:102090004FF4A05005904FF480500690052102A8FF
:1020A000FEF700FB08B1FEF71AF913B000BD0000FF
:1020B00040380240007000400348006840F470005F
:1020C000014908607047000088ED00E000BF00BFD4
:1020D00002680C3252E8002F22F4907102680C3230
:1020E00042E80013002BF3D100BF00BF00BF02681D
:1020F000143252E8002F22F001010268143242E843
:102100000013002BF3D100BF016B01290ED100BFDA
:1021100000BF02680C3252E8002F22F01001026862
:102120000C3242E80013002BF3D100BF202180F8CD
:1021300042100021016370472DE9F84F04462068E2
:10214000006920F44050E168084321680861216972
:10215000A068084361690843E1690843009020686A
:10216000C06849F20C618843009908432168C8603F
:102170002068406920F44070A169084321684861E3
:1021800076492068884203D075492068884203D187
:10219000FEF760FB814602E0FEF74CFB8146E069FA
:1021A000B0F5004F6CD102206168A0FB01500346DE
:1021B0001920A9FB007001462A463846FEF702F8AE
:1021C0006421B0FBF1F04FEA001A02206168A0FB25
:1021D00001510B461920A9FB00712A463846FDF72C
:1021E000F1FF834602206168A0FB015003461920DD
:1021F000A9FB00712A463846FDF7E4FF6421B0FBD5
:10220000F1F000EBC00101EB0010ABEB80003221DC
:1022100001EBC0006421B0FBF1F000F0F8000AEB24
:10222000400A02206168A0FB015003461920A9FB67
:10223000007001462A463846FDF7C4FF8346022057
:102240006168A0FB015003461920A9FB00712A46D2
:102250003846FDF7B7FF6421B0FBF1F000EBC00199
:1022600001EB0010ABEB8000322101EBC0006421D8
:10227000B0FBF1F000F007005044216888606AE08C
:1022800004206168A0FB015003461920A9FB0070DF
:1022900001462A463846FDF795FF824604206168CC
:1022A000A0FB015003461920A9FB007001462A46F5
:1022B0003846FDF787FF6421B0FBF1F000EBC00169
:1022C00001EB0010AAEB8000322101EB0010642129
:1022D000B0FBF1F000F0F00A04206168A0FB01708F
:1022E00003461920A9FB00513A462846FDF76AFF2C
:1022F0006421B0FBF1F00AEB001A04206168A0FB36
:1023000001510B461920A9FB00712A463846FDF7FA
:1023100059FF834604206168A0FB01500346192041
:10232000A9FB007001462A463846FDF74BFF6421A1
:10233000B0FBF1F000EBC00101EB0010ABEB800053
:10234000322101EB00106421B0FBF1F000F00F002E
:10235000504421688860BDE8F88F000000100140FB
:10236000001401402DE9F84304460D4617469846EF
:10237000089E31E0701C70B3FEF7C8F8A0EB0800AF
:10238000B04200D816B90320BDE8F8832068C068C1
:1023900000F00400F8B1802D1ED0402D1CD0206824
:1023A0000068C0F3C000B0B100BF002000902068FA
:1023B0000068009020684068009000BF00BF204681
:1023C000FFF784FE0820606400BF002084F840000E
:1023D00000BF0120D8E7FFE7206800682840A84236
:1023E00001D1012000E00020B842C3D00020CBE79B
:1023F00000BFFEE70FB4054B10B503A9044A0298CD
:1024000000F034F810BC5DF814FB0000C125000892
:102410001000002002480068C0F30220704700004E
:102420000CED00E010B5002804DB0A07130E054A86
:10243000135406E00A07140E034A00F00F031B1F93
:10244000D45410BD00E400E018ED00E002E008C83C
:10245000121F08C1002AFAD170477047002001E01E
:1024600001C1121F002AFBD1704700002DE9FF4F68
:1024700089B09B460446002506E025280BD05A4625
:102480000B999047641C6D1C20780028F5D10DB085
:102490002846BDE8F08F0027B8460122474900E0F2
:1024A000074314F8013F203B02FA03F00842F7D13A
:1024B00020782E2819D114F8010F47F004072A2894
:1024C0000ED06FF02F022078A0F1300109290CD82E
:1024D00008EB880102EB410100EB0108641CF2E704
:1024E0000A98641C50F8048B0A9020780028CED0FB
:1024F000642808D0692806D075281ED05A460B9942
:1025000090476D1C58E00A994FF00A0901C90A91D9
:10251000002802DA40422D2102E0390504D52B21A2
:102520008DF82010012103E0F90704D02021F7E7FE
:102530008A4608AE0DE00021FAE70A994FF00A0931
:1025400001C90A91F7E74946FDF77FFE303106F8E9
:10255000011D0028F7D1ADEB060000F12009780736
:1025600001D44FF00108C84502DDA8EB090000E0E6
:1025700000208046002706E008A85A46C05D0B9957
:1025800090476D1C7F1C5745F6DB04E030205A460F
:102590000B9990476D1CB8F10001A8F10108F5DC1A
:1025A00005E016F8010B5A460B9990476D1CB9F1DE
:1025B0000001A9F10109F4DC641C65E709280100A8
:1025C00013B50C464FF6FF73012269460248FEF729
:1025D000F5FF00981CBD00008C000020ADF5007DCB
:1025E000FDF7A6FFFFF70EFDFFF74AF8FFF78EF89D
:1025F000FFF7AEF81023264A26492748FFF7E4F9EB
:1026000018B126A0FFF7F6FE02E02AA0FFF7F2FEBF
:10261000002002E040AA1054401CFF28FAD90021F3
:102620001D48FFF7CBF810B928A0FFF7E3FE4FF4E1
:10263000807340AA00211848FFF7FCFA10B929A0BE
:10264000FFF7D8FE4FF480736A4600211248FFF767
:10265000FDF910B929A0FFF7CDFE002405E01DF813
:1026600004102CA0FFF7C6FE641CFF2CF7D9002431
:1026700009E01DF8040040A9095D884202D028A0A5
:10268000FFF7B8FE641CFF2CF3D900BFFEE7000083
:102690000000024034000020140000207732357121
:1026A00031323820696E69742073756363657373A2
:1026B0000D0A00007732357131323820696E697445
:1026C000206572726F720D0A00000000E693A6E9A1
:1026D00099A420466C617368E5A4B1E8B4A50D0A1D
:1026E00020200000E58699E585A520466C61736889
:1026F000E5A4B1E8B4A50D0A20200000E8AFBBE5D1
:102700008F9620466C617368E5A4B1E8B4A50D0A04
:1027100020200000646174613A25642000000000FC
:10272000E695B0E68DAEE4B88DE4B880E887B45C99
:10273000720A2020000000000000000000000000DD
:102740000102030406070809000000000102030457
:102750007027000800000020140000004C2400082E
:102760008427000814000020C40400005C24000832
:102770000000000010000000010000000024F40030
:042780000000000055
:040000050800018965
:00000001FF
