:020000040800F2
:1000000020190020A10100088B360008992E000855
:1000100089360008E7030008E34F000800000000ED
:100020000000000000000000000000000146000881
:10003000B104000800000000FD3700080346000876
:10004000BB010008BB010008BB010008BB010008A0
:10005000BB010008BB010008BB010008BB01000890
:10006000BB010008BB010008BB010008BB01000880
:10007000BB010008BB010008BB010008E903000840
:10008000BB010008BB010008BB010008BB01000860
:10009000BB010008BB010008BB010008BB01000850
:1000A000BB010008BB010008BB010008BB01000840
:1000B000BB010008AD460008BB010008BB010008F9
:1000C000BB010008BB010008BB010008BB01000820
:1000D0005D420008BB010008BB010008BB0100082D
:1000E000B5040008BB010008BB010008BB01000803
:1000F000BB010008BB010008BB010008BB010008F0
:10010000BB01000831380008BB010008BB01000832
:10011000BB010008BB010008BB010008BB010008CF
:10012000BB010008BB010008BB010008F503000883
:10013000BB010008BB010008BB010008BB010008AF
:10014000BB010008BB010008BB0100088D36000898
:10015000BB01000801040008BB010008BB01000846
:10016000BB010008BB010008BB010008BB0100087F
:10017000BB010008BB010008BB0100080000000033
:10018000BB010008BB010008DFF810D000F092F8B6
:100190000048004715520008AFF3008020190020E6
:1001A0000648804706480047FEE7FEE7FEE7FEE711
:1001B000FEE7FEE7FEE7FEE7FEE7FEE79D460008F6
:1001C000890100082DE9F05F0546002092469B4614
:1001D00088460646814640241BE02846414647465D
:1001E000224600F057F853465A46C01A914110D3A0
:1001F00011461846224600F03EF82D1A67EB01081A
:100200004F4622460120002100F035F817EB000987
:100210004E41201EA4F10104DFDC484631462A4647
:100220004346BDE8F09FD2B201E000F8012B491E21
:10023000FBD270470022F6E710B513460A46044683
:100240001946FFF7F0FF204610BD30B50B460146BA
:1002500000202022012409E021FA02F59D4205D365
:1002600003FA02F5491B04FA02F52844151EA2F10F
:100270000102F1DC30BD202A04DB203A00FA02F151
:10028000002070479140C2F1200320FA03F3194384
:1002900090407047202A04DB203A21FA02F0002126
:1002A000704721FA02F3D040C2F120029140084386
:1002B00019467047064C074D06E0E06840F0010320
:1002C00094E8070098471034AC42F6D3FFF760FF7C
:1002D0008C750008AC75000830B58C1810F8012B2F
:1002E00012F00F0301D110F8013B120906D110F8EA
:1002F000012B03E010F8015B01F8015B5B1EF9D1F3
:1003000001E001F8013B521EFBD1A142E6D30020DF
:1003100030BD000010B501240821034800F0C4FBE3
:1003200000B10024204610BD000C024070470000C0
:100330000146014801F0C6BB480D002010B5044835
:1003400001F0D2FB042801D0012010BD002010BD17
:10035000480D002010B500F015F8012801D001204B
:1003600010BD074801F0DEFC040006D14FF4006127
:10037000034801F04DFA00B10124204610BD0000F1
:10038000480D002008B501208DF80000FFF7C2FFDE
:1003900010B900208DF800009DF8000008BD000095
:1003A00038B50024009313460A460146034801F07D
:1003B000B5FD00B10124204638BD0000480D0020E5
:1003C0007047000038B50024009313460A460146E2
:1003D000034801F09BFE00B10124204638BD000017
:1003E000480D00207047FEE7014800F0CDB800003E
:1003F0003C0F0020014800F0C7B80000CC0D0020E1
:10040000014800F0C1B800002C0E0020016818233C
:10041000CAB2103AB2FBF3F2054B6FF30901032A9B
:100420009B5CC36500D9091D8165084670470000C3
:10043000F052000810B5014600208B698A6A4FF01F
:10044000C07453B1B3F5005F15D072B1012A0CD05E
:10045000022A0AD0032A09D104E01AB1012A06D0DF
:10046000022A03D1C96AC90100D5012010BDC96A99
:10047000A142FAD010BD002AF7D0012AF2D0022AF8
:10048000F3D0032AF3D010BD30B50468256825F4F5
:1004900080252560046863608368402B036803D06F
:1004A00099600068C26030BD9A600068C16030BD6C
:1004B000704700002DE9F041144C20684FF40046CD
:1004C000000410D5124D297802290BD211484FF49F
:1004D00080584FF0000259B1414600F0EAFA2878FE
:1004E000401C287026603046BDE8F04100F0E8B9B5
:1004F0000421074600F0DDFA01220421384600F00D
:10050000D8FA012241463846E7E70000143C014092
:10051000040800200000024072B6FEE7002200F04E
:1005200001B8000030B50E4B054601205C7A002C66
:1005300014D1587A1C54587A03EB800045605D7AD8
:1005400003F108002A54587A421C5A72303008705D
:100550003A2048702F208870CC70002030BD0000F9
:100560001015002090F83510022903D08021416534
:1005700001207047052180F835100068016821F0DE
:1005800001010160002070472DE9F84304464FF057
:100590000009CDF8009063484FF41651A56D00682E
:1005A000B0FBF1F72E6894F85C20082101FA02F004
:1005B00030420FD02068026852070BD5026822F043
:1005C0000402026094F85C008140A960606D40F014
:1005D0000100606594F85C104FF0010808FA01F022
:1005E000304208D021684969090604D5A860606DC9
:1005F00040F00200606594F85C10042088403042AE
:1006000008D021680968890704D5A860606D40F0AA
:100610000400606594F85C1010208840304218D0C7
:1006200021680968090714D5A86020680168490392
:1006300004D50068000308D5A16C07E00168C9056E
:1006400003D4016821F008010160216C09B1204642
:10065000884794F85C1020208840304231D02168CF
:100660000968C9062DD5A86094F8350005282068CA
:10067000016806D0490347D5006800031DD4616CAA
:100680001CE021F0160101602068416921F0800121
:100690004161206C08B9A06C20B12068016821F08C
:1006A0000801016094F85C103F208840A86084F83D
:1006B000358084F83490216D1FE0E16B09B120464C
:1006C0008847606D00282BD0606DC00714D00520CE
:1006D00084F835002068016821F00101016000986C
:1006E000401C0090B84203D820680068C007F6D1CB
:1006F00084F8358084F83490E16C002910D001B082
:100700002046BDE8F04308470168C905D5D4016813
:1007100021F01001016084F8358084F83490CCE732
:10072000BDE8F883140800202DE9F041044600F0EC
:10073000C5F905465CB1022084F83500002684F82E
:1007400034602068016821F0010101600DE00120A2
:10075000BDE8F08100F0B2F9401B052805D9202042
:100760006065032084F83500F2E720680068C00760
:10077000F0D121680A6820480240D4E901031843F7
:10078000D4E903352B43184363691843A36918431D
:10079000E3691843236A18431043626A042A03D1A9
:1007A000D4E90B231A431043086020684069656A46
:1007B00020F0070128460D43012704280CD1A06A28
:1007C0000543E06A40B12046FFF734FE20B14020E7
:1007D000606584F83570BAE7206845612046FFF708
:1007E00015FE94F85C203F2191408160666584F895
:1007F00035700020ACE700003F8010F02DE9F0419B
:100800000446866D90F83400002501280DD00120A3
:1008100084F8340094F835700020012F07D084F854
:10082000340002252846BDE8F0810220FBE70227BC
:1008300084F8357060652046FFF726FE94F85C105A
:100840003F208840B0602068016841F016010160D7
:10085000206C20B12068016841F008010160206827
:10086000016841F001010160DCE7000070B5044659
:1008700000F024F90546601C02D0044800780444C6
:1008800000F01CF9401BA042FAD370BD08080020FC
:1008900010B501280ED13220FFF7E8FF01210648EC
:1008A00000F002F9012805D104480178491C0170C3
:1008B0000121417010BD0000000002400000002036
:1008C000044910B50A68024202D00860FFF7E0FF51
:1008D00010BD0000143C01402DE9F84FDFF89C9159
:1008E0000022A9F1040B03274FF00F0C09F1040AB1
:1008F000ABF1040E01250B6895402B40AB426ED145
:100900000C7904F00304012C01D0022C15D1866867
:10091000540007FA04F826EA0806D1F80C8008FA11
:1009200004F848EA0608C0F808804468AC430D792A
:10093000C5F300159540254345600C79E443A407B1
:1009400008D0C568540007FA04F6B5438E68A6407F
:100950002E43C6600C7904F00304022C11D1D40894
:1009600000EB8406356A5407E40E0CFA04F825EA15
:100970000805D1F8108008FA04F848EA0508C6F816
:1009800020800568540007FA04F6B5430E7906F096
:100990000306A6402E4306604C6814F4403F66D020
:1009A000374C256845F480452560246822F003050E
:1009B00004F480440094334C05EB0408D8F808583C
:1009C0009407260F0CFA06F4A5432F4CA04201D140
:1009D000002424E02D4CA04202D101241FE046E077
:1009E0002B4CA04201D1022419E02A4CA04201D193
:1009F000032414E0284CA04201D104240FE0274C2A
:100A0000A04201D105240AE0254CA04201D10624D0
:100A100005E0244CA04201D1072400E00824B440A2
:100A20002C43C8F80848D9F800404D464E689C430E
:100A3000F60200D51C432C60DAF8004055464E689B
:100A40009C43B60200D51C432C60DBF800405D4699
:100A50004E689C43B60300D51C432C60DEF8004072
:100A600075464E689C43F60300D51C432C60521C0F
:100A7000102AFFF43FAFBDE8F88F0000083C0140AA
:100A800044380240003001400000024000040240AF
:100A900000080240000C0240001002400014024016
:100AA00000180240001C02400069084000D00120EC
:100AB00070470AB1816170470904FBE7014880680B
:100AC000704700000808002002488168027811443D
:100AD00081607047080800200B4810B5016841F498
:100AE00000710160016841F480610160016841F4B6
:100AF00080710160032000F06FF80F2000F006F80D
:100B000000F024F8002010BD003C024070B50D4DEF
:100B100004464FF47A712878B1FBF0F00A4909686D
:100B2000B1FBF0F001F04AFF48B9102C07D20022C7
:100B30002146501E00F030F800206C6070BD01208E
:100B400070BD000008080020140800200A4808B5FD
:100B5000016841F480410160006800F48040009029
:100B60000548001F016841F080510160006800F0F5
:100B70008050009008BD000044380240002809DB86
:100B800000F01F02012191404009800000F1E020A7
:100B9000C0F8001170470000F0B40E4B1B68C3F39F
:100BA0000223C3F10704042C00D904241D1D072DC2
:100BB00001D2002300E0DB1E012606FA04F56D1EBB
:100BC0000D409D409E40761E164045EA0601F0BC51
:100BD00004F018BA0CED00E0064A00F007011068B6
:100BE0004FF6FF03184040EA012003490843106014
:100BF000704700000CED00E00000FA0570477047F8
:100C00007047704770470A0601F00F0101EBC10100
:100C100000EB810101D5143101E001F51571006887
:100C200004F046B82DE9F84F05680446284604F05C
:100C3000D4F800287DD1206804F0FBF8002878D093
:100C4000D5F80808C0F30D20C4F8D404206804F0D7
:100C5000F0F8800704D52068416901F00201416184
:100C6000206804F0E6F8C10604F29C40009034D5F8
:100C70002068816921F0100181612F6A07F00F005F
:100C800000EBC00004EB8006C7F3434006F5157681
:100C9000022802D0062811D01AE047F6F070074269
:100CA00016D0C7F30A1217462846F16804F0C5F8B3
:100CB000F0683844F0607069384408E0082228463B
:100CC000009904F0BAF87069C7F30A11084470611A
:100CD0002068816941F010018161206804F0A9F861
:100CE00000034FF0010B7AD50026206804F080F84D
:100CF0008046DFF878A46FE05FEAC87069D0F1B28F
:100D0000206804F08EF80746C00707D005EB4611AF
:100D1000C1F808BB3146204602F0BEFC380722D598
:100D200005EB46110820C1F8080B2068D0F8409068
:100D300000E018E200EB4610D0F8082BD14505D9A9
:100D4000110403D54FF40041C0F8081B204600F001
:100D5000BCFAD14507D9A079012804D12068012126
:100D6000009A03F079FFF80604D505EB4611102030
:100D7000C1F8080BB8071DD56869000605D5D5F878
:100D8000040840F48061C5F8041806EBC60004EBC3
:100D9000800090F8571200F51570012905D1002147
:100DA000C170F1B2204600F0E4F905EB46110220D3
:100DB000C1F8080BB80604D505EB46102021C0F891
:100DC000081BB80405D505EB46104FF40051C0F8D8
:100DD000081B4FEA5808761CB8F1000F8CD1206828
:100DE00004F027F840036DD5206803F0FAFF804631
:100DF000002664E05FEAC8705ED0F1B2206803F0BC
:100E0000FEFF0746C00723D006F00F010BFA01F0E2
:100E1000D5F834188143C5F8341805EB4610C0F8EE
:100E200008B9A07901280FD106EBC60004EB8000B9
:100E3000D0E907211144016236B9606A20B92068FF
:100E40000121009A03F008FFF1B22046FFF7D8FE17
:100E5000380704D505EB46110820C1F80809F80643
:100E600004D505EB46111020C1F80809780604D511
:100E700005EB46104021C0F80819B80716D53146D1
:100E8000284603F07FFF06EBC60004EB8000C17D1F
:100E90001430012905D10021C170F1B2204600F0C3
:100EA00067F905EB46110220C1F80809380603D599
:100EB0003146204602F056FC4FEA5808761CB8F13D
:100EC000000F97D1206803F0B4FF002811DAD5F89D
:100ED000040820F00101C5F8041894F8CC04012896
:100EE0002BD0204600F0EFF92068416901F0004165
:100EF0004161206803F09DFF00050BD5D5F8080877
:100F0000C00702D0204600F0E1F92068416901F4F1
:100F100000614161206803F08CFFC00467D5D5F8FB
:100F2000040820F00101C5F804181021206803F01E
:100F300029FF00214FF67F3220E0002084F8CC0406
:100F400001462046FFF75AFECEE705EB4110C0F8F8
:100F50000829D0F8003923F40013C0F80039C0F88C
:100F6000082BD0F8003B23F40013C0F8003BD0F866
:100F7000003B43F00063C0F8003B491C20798842E5
:100F8000E3D8D5F81C0840F00111C5F81C18E07B27
:100F9000002828460DD0D0F8840840F00B01C5F891
:100FA0008418D5F8440840F00B012846C5F84418C9
:100FB0000DE0D0F8140842F22B010843C5F81408DC
:100FC000D5F8100840F00B012846C5F81018D0F8E5
:100FD000000820F4FE61C5F80018A1792068009A85
:100FE00003F03AFE2068416901F4805141612068B4
:100FF00003F01FFF800415D5206803F0F3FC206880
:1010000003F0DEFEE07100F0FDF90146E2792068B0
:1010100003F060FF204600F055F92068416901F4B3
:1010200000514161206803F004FF000707D5204606
:1010300000F04AF92068416901F008014161206827
:1010400003F0F7FE000615D5A86920F08001A9611C
:1010500001260CE006EBC60004EB800090F8570276
:10106000012803D1F1B22046FFF7CDFD761C20798F
:10107000B042EFD8206803F0DCFEC0021FD5012685
:101080005F4614E005EB4610D0F8001906EBC600E9
:1010900004EB8000027E012A08D1002906DAC77518
:1010A000F0B240F080012046FFF7ADFD761C2079BC
:1010B000B042E7D82068416901F48011416120689D
:1010C00003F0B7FE800231D501205B4626E005EB38
:1010D0004011D1F8001B00EBC00204EB820292F831
:1010E0005862012E19D1002917DA94F8D46401F45A
:1010F000803106F00106B1420FD182F85732A9695A
:1011000041F08002AA616969090606D4D5F804088D
:1011100040F40070C5F8040803E0401C21798142C6
:10112000D5D82068416901F400114161206803F0BD
:1011300080FE400007D52046FFF761FD2068416929
:1011400001F080414161206803F073FE40070AD539
:1011500020684568680702D52046FFF753FD2068E0
:10116000416829434160BDE8F88F00000A30544FC0
:1011700070477047F8B5040005D094F895042668C8
:10118000002510B106E00120F8BD84F894542046F3
:1011900000F056F8032084F89504B6F1A04F00D172
:1011A000A571206803F052FD207C8DF8000094E8C2
:1011B0000F0003F025FC0226B0BB0021206803F0DD
:1011C0005BFE88BB002101270CE001EBC10004EBB2
:1011D000800047750175C1850576C5610562491CAA
:1011E000C9B2456220798842EFD8002111E001EBB5
:1011F000C10004EB800080F8555280F8541280F84A
:101200005852C0F85C52C0F86052491CC9B2C0F8CC
:10121000645220798842EAD8207C8DF8000094E856
:101220000F0003F05BFC10B184F89564ABE76574C4
:1012300084F89574206803F043FC0020F8BD00009A
:1012400010B586B0044614216846FEF7F3FF206807
:10125000B0F1A04F2FD119480021026842F00102DD
:101260000260006800F0010005904FF4C05000904B
:101270000220CDE90101032003900A200490694671
:101280000F48FFF729FB0D48001D016841F0800160
:1012900001600A481430016841F48041016000682F
:1012A000002200F48040059011464320FFF774FCB3
:1012B0004320FFF763FC06B010BD00003038024049
:1012C0000000024070477047704770477047000049
:1012D0002DE9F0470D46040065D0DFF81491D9F8E8
:1012E0000000EFB200F00700A84207D289F80070B2
:1012F000D9F8000000F00700A84254D120683D4E04
:10130000810712D5400703D5306840F4E0503060C3
:101310002078000703D5306840F4604030603068C2
:10132000A16820F0F000084330602078C0072DD07D
:10133000304960680839012812D0022813D00328E8
:1013400011D00968890700292DDA316821F00301DD
:1013500001433160FFF7B2FB804641F2883A0EE06C
:1013600009688903EFE709688901ECE7FFF7A6FB45
:10137000A0EB0801514502D90320BDE8F087306891
:10138000616800F00C00B0EB810FEFD1D9F80010CC
:10139000484601F00701A94207D90770006800F02C
:1013A0000700A84201D00120E7E72078400705D5D3
:1013B0003068E16820F4E05008433060207800078E
:1013C00006D53068216920F4604040EAC1003060F1
:1013D00000F03EF83168084AC1F30311515CC8407F
:1013E0000649086006480068FFF790FB0020C4E744
:1013F000003C024008380240F8520008140800205F
:101400000C08002001480068704700001408002004
:101410000448054900680968044AC1F38221515C07
:10142000C8407047140800200838024008530008DC
:101430000448054900680968044AC1F34231515C17
:10144000C8407047140800200838024008530008BC
:10145000154810B5006810F00C01144813D0431063
:1014600004290FD008290ED10F4C241F216801F048
:101470003F022168490207D52068C0F38810A0FB0D
:10148000030106E0184610BD2168C1F38811A1FBD5
:1014900000010023FEF796FE2168C1F30141491CBB
:1014A0004900B0FBF1F010BD083802400024F40000
:1014B0002DE9F84F040075D02078DFF838A3C00775
:1014C000AAF1040548D00AF104000168C1F38101C2
:1014D000012908D00068C0F3810002280AD1DAF897
:1014E0000000400206D52868800335D560680028D2
:1014F000E1D031E06068B0F5803F10D0B0F5A02FAA
:10150000286810D020F480302860286820F48020DB
:1015100028606068A0B1FFF7D1FA06460CE02868A1
:1015200040F48030F4E740F480202860F7E7FFF7CC
:10153000C5FA801B642871D828688003F7D50BE0B2
:10154000FFF7BCFA064604E0FFF7B8FA801B6428F0
:10155000F1D828688003F7D42078DFF89C928007C0
:101560004FF0000B3DD5A348001D016811F00C0F92
:1015700008D00068C0F3810002280AD1DAF8000020
:10158000400206D42868800715D5E068012809D1F3
:1015900011E0E068B8B10120C9F80000FFF78EFA49
:1015A000064605E022E1FFF789FA801B0228C2D82F
:1015B00028688007F7D52868216920F0F80040EAFC
:1015C000C10028600DE0C9F800B0FFF777FA0646C1
:1015D00004E0FFF773FA801B02281FD828688007F1
:1015E000F7D42078000722D5824F8448616970378C
:1015F00071B101210160FFF761FA064604E0FFF7CF
:101600005DFA801B022809D838688007F7D50EE0FC
:10161000C0F800B0FFF752FA064605E082E0FFF797
:101620004DFA801B02287DD838688007F7D42078CF
:10163000400765D56F484FF000083C300068C00097
:101640000BD46C483C30016841F080510160006867
:101650004FF0010800F080500090694F3868C005D5
:101660000FD4386840F480703860FFF727FA0646D8
:1016700004E0FFF723FA801B022853D83868C0051E
:10168000F7D55C4FA0686C3701280FD00528386863
:1016900010D020F001003860386820F00400386075
:1016A000A068B0B1FFF70AFA06460EE0386840F0CD
:1016B0000100F4E740F004003860F7E7FFF7FEF9B7
:1016C000811B41F28830814263D838688007F5D5A4
:1016D0000DE0FFF7F3F9064606E0FFF7EFF9811B8F
:1016E00041F28830814254D838688007F5D4B8F187
:1016F000000F05D03F483C30016821F08051016067
:10170000A069B8B33B49091D0968C1F381010229E9
:1017100046D00228584606D0C9F86000FFF7CEF937
:10172000044639E035E04F46C9F86000FFF7C6F9D6
:10173000064604E0FFF7C2F9801B022829D8286872
:101740008001F7D4D4E907010843A16A2D4A49086A
:1017500002EB0141626A41EA8211084394F82C10BD
:1017600040EA0161CAF8001001203866FFF7A6F9C7
:10177000044605E03CE0FFF7A1F9001B022808D869
:1017800028688001F7D533E0FFF798F9001B02289D
:1017900002D90320BDE8F88F28688001F4D427E03F
:1017A0000128F7D0DAF80000E26900F480019142E4
:1017B0001CD1226A00F03F01914217D147F6C07157
:1017C000626A0140B1EB821F10D1A26A4FF0FF3371
:1017D00000F4403103EB5202B1EB024F06D194F812
:1017E0002C1000F07060B0EB016F01D00120D1E748
:1017F0000020CFE70438024000004742800E4742F5
:10180000007000400000FFFF10B5FEF78FFD10BD17
:101810002DE9FE430446002603200D4684F83400DB
:10182000606C03285ED0B5F5805F5BD04FF4006735
:1018300000204FF08068BD421FD18146009001908A
:101840000021206801F0F1FF800113D46946204691
:1018500002F068FB07000DD10198400334D5B4F8BD
:1018600050000104206802F017F8070002D102219D
:10187000206823E0A06B384328E01DB1A06B40F046
:10188000006023E08146009001900021206801F073
:10189000CCFF8001EED46946204602F043FB0700EE
:1018A000E8D10198C0030FD5B4F8500001042068B6
:1018B00001F0F2FF0700DDD10021206802F036F8C8
:1018C0000700D7D14F46D5E74746D3E7A063A06BC3
:1018D000144F4FF0010848B12068876384F83480C2
:1018E00001260EE0A06B40F08050EFE7211DD4E907
:1018F000050C0EC9CDE90050CDF808C0206801F0F4
:101900009DFF4FF40071206801F0F8FF28B12168B5
:101910008F63A16B0143A163012684F834803046B4
:10192000BDE8FE83FF05400070470000F0B5426E41
:10193000920F0A70426EC2F383624A70426EC2F323
:1019400001628A70426E120CCA70B0F86420120AEA
:101950000A7190F864204A71826E120DCA80826EFC
:10196000C2F303420A72B0F86820C2F3C0324A726E
:10197000B0F86820C2F380328A72B0F86820C2F3EF
:101980004032CA72B0F86820C2F300320A730026EF
:101990004E73436C4FF40075012463B1012B3AD0B0
:1019A000026847499163816B41F08051816380F8FF
:1019B00034400120F0BDB0F86820C36E9205120DCE
:1019C00042EA93720A61C26EC2F3C2620A75C26EC3
:1019D000C2F302624A75C26EC2F342528A75C26E87
:1019E000C2F38242CA75C26EC2F3C2320A760B6972
:1019F0005B1C43650A7E02F00702921C934043651C
:101A00000A7A02F00F0704FA07F28265520A53437A
:101A1000C0E917350EE090F86820C36E9206920A6E
:101A200042EA13420A610A69521C93024365C0E903
:101A30001653056630F86C2FC2F3803201F8192F67
:101A40000288C2F3C6124A70027802F07F028A70DE
:101A50004268D20FCA704268C2F341720A7142688A
:101A6000C2F382624A714268C2F383528A71426849
:101A7000C2F34052CA710E724268C2F300424A7207
:101A80008288C2F3C0328A728288C2F38032CA72FC
:101A90008288C2F340320A738288C2F300324A73EA
:101AA0008288C2F381228A738288C2F30122CA73B8
:101AB0000079C0F3460008744C740020F0BD0000AB
:101AC000FF054000426C0A60826C4A60C26C8A600A
:101AD000026DCA60426D0A61826D4A61C26D8A619F
:101AE000006EC8610020704738B500250446009597
:101AF000B0F850000104206801F0FBFF28B9002174
:101B0000206801F092FE0090284610B1A16B0143BD
:101B1000A1630098C0F3432038BD0000F8B5056B01
:101B200004460068416B09041BD5290719D5D4E97F
:101B30000A56002E14D00027206801F095FE05F803
:101B4000010B010A05F8011B010C05F8021B000E30
:101B5000361F7F1C05F8010C082FEDD3C4E90A5687
:101B6000F8BD416B4FF00007C9054FF0010644D5A1
:101B7000310281632068C16B4CF23A329143C163F8
:101B80002068C16A21F00101C16228071DD515F046
:101B9000220F09D0206801F0DDFF28B1A16B0143BD
:101BA000A1632046FFF7C0FE216840F23A508863E7
:101BB00084F834602763A80703D0204600F09EFA1B
:101BC000F8BD204600F09EFAF8BD2806FCD5A80610
:101BD00009D5206801F0BEFF28B1A16B0143A163C4
:101BE0002046FFF7A1FEA807EED12068C16A21F0C8
:101BF0000801C16284F83460E3E7416B490423D5EE
:101C0000290721D5D4E90856002EDDD0002715F884
:101C1000010B009015F8011B361F40EA01200090CF
:101C200015F8021B40EA0140009015F8011C40EA3B
:101C3000016000906946206801F029FE7F1C082F92
:101C4000E5D3C4E90856F8BD416B40F23A2211428F
:101C5000F9D0416B890703D5A16B41F00201A16363
:101C6000416B090703D5A16B41F00801A163416BEA
:101C7000890603D5A16B41F02001A163416BC90620
:101C800003D5A16B41F01001A163416B890503D518
:101C9000A16B41F00801A16340F23A7181632068B1
:101CA000C16B40F23A329143C163206801F052FFA8
:101CB000A16B0843A063280706D584F83460276326
:101CC0002046FFF731FEF8BD2806FCD515F0300F91
:101CD0000CD0E16B11480865E06BFEF743FC00286F
:101CE000F1D0E06BBDE8F84002F0FAB8A8070CD0DC
:101CF000216C0B480865206CFEF734FC0028E2D00C
:101D0000206CBDE8F84002F0C9B8A76384F83460DD
:101D100027632046FFF778FDF8BD0000E13E00088C
:101D20009D3E000870B504000ED094F834000025E4
:101D300018B92577204600F04FF8032084F83400C6
:101D4000204600F00BF808B1012070BDA5632563A3
:101D5000012084F83400002070BD0000FEB500258D
:101D6000044676200095CDE9015029460B460A46E7
:101D7000206801F063FD40BB154E46F8A05F206867
:101D800001F06EFD012535600220FEF76FFD204653
:101D900002F0B0F928B184F83450A16B0143A1637B
:101DA00013E0204602F02EF90028F4D14FF4007120
:101DB000206801F0A3FD002808D02268054991633E
:101DC000A16B0143A16384F834500120FEBD0000E3
:101DD00000802542FF0540002DE9F04F87B0044602
:101DE00014216846FEF726FA4649206888427DD1CC
:101DF00045480068444940F400600860086800F401
:101E0000006005904048143800683F4940F00400E5
:101E100014390860086800F004000590086840F074
:101E200008000860086802AA00F0080005904FF456
:101E3000F850009002200190002003250C2682E833
:101E4000610069463148FEF747FD04270220CDE9CD
:101E5000007002AA002082E8610069462C48FEF763
:101E60003BFD2D4E2B484FF00068C6E9000840208E
:101E7000B0600020F06038023061C6E9097580006A
:101E800006F114014FF480494FF0200A4FF4003B53
:101E900081E8010EC5024702C6E90B573046FEF73E
:101EA00043FC08B1FEF738FBE663B4631A4E1948E9
:101EB00060364830C6E900080020B060F0604FF49A
:101EC0008060306106F11401800081E8010E042079
:101ED00070621431032081E8A1003046FEF724FC33
:101EE00008B1FEF719FB2664002200E007E0114666
:101EF0003120B463FEF750FE3120FEF73FFE07B0FD
:101F0000BDE8F08F002C0140443802400008024038
:101F1000000C024058640240CC0D00202DE9FF4F18
:101F200087B016460D460446DDF85080FEF7C6FD24
:101F300082463DB194F83400012807D0A06B40F0F0
:101F400000500DE0A06B40F0006009E00020A063AD
:101F50000A99E26D3144914204D9A06B40F00070BF
:101F6000A06388E0032184F834102168C862616CA2
:101F7000012900D076024FF0FF3100910A994FF00D
:101F800001094902019102AA902102278346CDF856
:101F9000149082E882086946206801F030FC0A98B3
:101FA000012805D927633146206801F016FD05E0B8
:101FB000C4F830903146206801F027FD30B1226826
:101FC0004D499163A16B0143A16350E0019E1FE065
:101FD000406B000413D596B10027206801F044FC43
:101FE00005F8010B010A05F8011B010C05F8021B9D
:101FF000000E361F7F1C05F8010C082FEDD3FEF7ED
:102000005DFDA0EB0A01414522D2B8F1000F1FD0BF
:102010002068416B40F22A321142D9D0416BC90588
:1020200009D50A99012906D9616C032903D001F069
:1020300091FD0028C3D12068416B090702D4416B90
:1020400089051AD52C498163A06B40F0080051E046
:10205000216829488863A06B40F00040A06384F8A1
:102060003490C4F830B003200BB0BDE8F08F84F892
:102070003490C4F830B00120F6E7416B890705D5EC
:102080001D498163A06B40F0020033E0416B89067B
:102090001CD519498163A06B40F020002AE001F0B3
:1020A000E3FB05F8010B010A05F8011B010C05F81B
:1020B000021B000E05F8010C361FFEF7FFFCA0EB1B
:1020C0000A01414510D2B8F1000F0DD02068416BD4
:1020D000890201D5002EE2D1216840F23A5088638E
:1020E00084F834900020BFE7216803488863A06B20
:1020F00040F00040A063BAE7FF05400010B5FEF7CE
:102100005FF910BD10B5FEF76DF910BD2DE9F04F68
:1021100089B09B4615460E460446FEF7CFFC079055
:102120003EB194F83400012807D0A06B40F0005075
:102130000DE0A06B40F0006009E00021A163E26DBA
:1021400005EB0B00904204D9A06B40F00070A06337
:1021500079E0032084F834002068C162606C0128B3
:1021600000D06D024FF0FF3000904FEA4B204FF04F
:1021700001090190CDE904199020CDE902018A46B8
:102180006946206801F03BFBBBF1010F06D9202016
:1021900020632946206801F0F7FC05E01020206349
:1021A0002946206801F008FD5FEA000806D0216892
:1021B00041488863A06B40EA080073E0019F26E075
:1021C000406B40041BD5D7B1002516F8010B0690D3
:1021D00016F8011B3F1F40EA0120069016F8021B6B
:1021E00040EA0140069016F8011C40EA01600690A2
:1021F00006A9206801F04BFB6D1C082DE5D3FEF706
:102200005DFC0799411A1298814220D2F8B12068EA
:10221000416B40F21A321142D2D0416BC90523D52D
:10222000BBF1010F20D9616C03291DD001F092FC94
:10223000D0B1226820499163A16B0143A16384F866
:102240003490C4F830A0012009B0BDE8F08F2168B7
:1022500019488863A06B40EA0800A06384F83490B2
:10226000C4F830A00320EFE72068416B090702D4CF
:10227000416B890505D510498163A06B40F00800CA
:1022800010E0416B890705D50B498163A06B40F0D5
:10229000020007E0416BC90606D507498163A06BC0
:1022A00040F01000A063CAE740F23A51816384F81D
:1022B00034900020C8E70000FF054000704790F808
:1022C0005100704738B5016804464A688868C043C1
:1022D000430606D5C30704D1D3435B0601D4216C62
:1022E00005E0830708D4D3431B0605D4616C01B015
:1022F0002046BDE830400847830603D5430601D594
:10230000C30551D4D3439B064ED443060AD494F854
:102310005130032B49D0636D43F004036365CB68F0
:102320008B680093830609D4636D43F001036365F2
:102330008B6800930B6823F040030B60C00506D444
:10234000606D40F008006065206880680090606DF6
:10235000002829D02068416821F0E0014160012077
:1023600084F85100900701D4D00722D0206841683A
:1023700021F003014160114DE06C40B10565E06C56
:10238000FEF7F0F818B1606D40F040006065A06C99
:10239000002809D00565A06CFEF7E4F8002803D0FA
:1023A000606D40F04000606538BDC8688868009086
:1023B00038BD2046FFF782FF38BD00003D440008CD
:1023C00070B5040009D0606A002540B125616561DF
:1023D000A56294F8510040B10CE0012070BD606826
:1023E000B0F5827FF4D0E561F2E784F850502046E2
:1023F00000F044F8022084F851002068016821F0C0
:1024000040010160A088218900F4827001F4044138
:102410000843A18901F400610843217C01F0020115
:102420000843217D01F001010843218B01F4007173
:102430000843217F01F03801084394F8201001F08F
:1024400080010843218D01F4005108432168086090
:10245000A069042101EA104094F8241001F0100151
:102460000843216848602068C16921F40061C161A6
:102470006565012084F85100002070BD2DE9F0430E
:1024800087B0064614216846FDF7D4FE3A4B316802
:1024900000253A4802240327052299421CD13749D6
:1024A00014310B6843F480530B60096801F48051C8
:1024B0000591016841F0010101600068049200F09B
:1024C00001000590E0208DE8B10069462C48FEF738
:1024D00003FA07B0BDE8F0832A4B9942F9D12749A6
:1024E00010310B6843F480430B60096801F48041AC
:1024F0000591016841F004010160016801F00401E7
:102500000591016841F0020101600068904600F009
:10251000020005900C208DE8B10169461A48FEF7CB
:10252000DBF94FF4806901ABCDF8009083E8B0018E
:1025300069461648FEF7D0F9164C1548E4E802053E
:102540004020A4E82102800244F81459A561C4E99E
:10255000075010486562FEF7E7F808B1FDF7DCFFA9
:10256000B464002211462420A663FEF715FB242044
:10257000FEF704FBADE700000030014030380240B8
:102580000000024000380040000802400004024001
:10259000706002403C0F00202DE9F84F044690F88F
:1025A000500000261D4690468A4601280ED04FF066
:1025B000010984F85090FEF781FA074694F851001B
:1025C0004146B346012804D0022696E00220BDE829
:1025D000F88FBAF1000F6ED0B8F1000F6BD0032066
:1025E00084F85100C4F854B0C4F830A0A4F8348082
:1025F000A4F83680C4F838B0A4F83CB0A4F83EB0D3
:10260000C4F844B0C4F840B0A068B0F5004F09D198
:102610002068026822F0400202602068026842F4EA
:102620008042026020680268520603D4026842F0C9
:1026300040020260E068B0F5006F606803D038B314
:10264000012925D042E008B101291BD1206B216866
:102650000088C86006E020688168890709D5216B79
:102660000988C160206B801C2063E08E401EE086DC
:1026700008E0FEF723FAC01BA84202D3681C01D071
:1026800004E01DB1E08E0028E5D122E0032632E00F
:10269000206B21680078087306E02068816889074C
:1026A0000AD5216B09780173206B401C2063E08EF2
:1026B000401EE0860AE01CE0FEF700FAC01BA842BC
:1026C00002D3681C02D0E1E7002DDFD0E08E0028A5
:1026D000E3D13A462946204601F000FF08B1202008
:1026E0006065A06818B92068C16880680090606D56
:1026F00008B1012601E084F8519084F850B03046CA
:1027000065E72DE9FF4F81B0044690F850000125A0
:1027100000270E9E9846934601280FD0AA4684F8BB
:1027200050A0FEF7CBF994F85110814662684046FC
:1027300001290DD0B2F5827F08D103E0022005B057
:10274000BDE8F08FA2680AB9042901D00227C7E0CA
:102750000299002968D0BBF1000FFBD0B8F1000F3F
:10276000F8D094F85110042902D0052184F85110B2
:1027700000216165C4F838B0A4F83E80A4F83C801C
:10278000029A2263A4F83680A4F83480216461643C
:1027900021680A68520603D40A6842F040020A60BF
:1027A000E168B1F5006F616803D0E1B3012843D05F
:1027B0007AE009B1012838D1206B21680088C8600F
:1027C000206B801C2063E08E401EE0862DE0206898
:1027D000816889070DD5E18E59B1012D09D1216B91
:1027E0000988C160206B801C2063E08E401EE0865B
:1027F000002520688168C9070BD0E18F49B1C06806
:10280000A16B0880A06B801CA063E08F401EE08756
:102810000125FEF753F9A0EB0900B04205D3701C67
:1028200003D003275AE007E056E0E08E0028CED11F
:10283000E08F0028CBD13DE0206B21680078087341
:10284000206B401C2063E08E401EE0862CE0206858
:10285000816889070DD5E18E59B1012D09D1216B10
:1028600009780173206B401C2063E08E401EE086D7
:10287000002520688168C9070BD0E18F49B1C06885
:10288000A16B0870A06B401CA063E08F401EE08726
:102890000125FEF713F9A0EB0900B04202D3701C2A
:1028A00002D0BEE7002EBCD0E08E0028CFD1E08F52
:1028B0000028CCD14A463146204601F00FFE18B11F
:1028C0000127202060650BE0A06818B92068C16866
:1028D00080680090606D08B1012701E084F851A084
:1028E000002084F85000384629E7000070B50446FF
:1028F00090F850000025012809D0012084F85000EC
:1029000094F851000026012803D002254AE0022055
:1029100070BD89B182B1032084F8510066652163DE
:10292000A286E286A66366642664A687E687A06818
:10293000B0F5004F02D00BE0012533E020680168BC
:1029400021F0400101602068016841F4804101608C
:10295000A16C16480864A16C1548C863A16C1548A1
:10296000C864A06C0665E38E2268216B0C32A06CF3
:10297000FDF744FF20B1606D40F010006065DBE7BB
:1029800020680168490603D4016841F040010160F4
:102990002068416841F0200141602068416841F0B1
:1029A0000201416084F85060284670BD6F44000801
:1029B000794400084D4400087047704710B5401E28
:1029C000B0F1807F01D3012010BD4FF0E0246061A1
:1029D0000F21601702F016FB0020A0610720206184
:1029E000002010BD7047704770B590F83C20012A58
:1029F00032D0012580F83C50022280F83D20026848
:102A00005368946823F070060B6833435360134B8C
:102A100002689A4214D0B2F1804F11D0104B9A4202
:102A20000ED0104B9A420BD00F4B9A4208D00F4B4E
:102A30009A4205D00E4B9A4202D00E4B9A4204D1D4
:102A4000496824F080031943916080F83D500021CB
:102A500080F83C10084670BD022070BD00000140A7
:102A60000004004000080040000C00400004014049
:102A7000004001400018004010B5040003D094F855
:102A80003D0010B107E0012010BD002084F83C009B
:102A9000204600F01FF8022084F83D00211D206828
:102AA00001F01AFE012084F8460084F83E0084F804
:102AB0003F0084F8400084F8410084F8420084F824
:102AC000430084F8440084F8450084F83D00002069
:102AD00010BD000008B500680B49884212D10B48B0
:102AE000016841F0020101600068002200F002006C
:102AF000009011461D20FEF74FF8BDE808401D204C
:102B0000FEF73CB808BD0000000400404038024019
:102B100070B5044690F83C000025012817D0012626
:102B200084F83C60022084F83D002068826822F02E
:102B3000770222F47F4282600868502838D00DDC8A
:102B400020284FD005DC90B3102811D14AE0022094
:102B500070BD302846D040280AD13BE060282FD0F5
:102B600070280DD0B0F5805F03D0B0F5005F12D0B3
:102B7000012584F83D60002084F83C00284670BDA3
:102B8000CB68D1E90121206801F012FE206881683C
:102B900041F0770109E0CB68D1E90121206801F01B
:102BA00007FE2068816841F480418160E1E719E017
:102BB000CA684968206801F00DFE5021206806E0CF
:102BC000CA684968206801F016FE6021206801F09B
:102BD000F9FDCEE7CA684968206801F0FBFD402195
:102BE0002068F4E7226801461046F0E770472DE9B7
:102BF000F04104460068C66805694FF00007A90760
:102C000013D5B10711D5F91E016101202077206885
:102C100080698007204602D0FFF7E8FF04E000F05B
:102C20007EF8204600F07CF82777680716D57007F5
:102C300014D521686FF00400086102202077206815
:102C4000806910F4407F204602D0FFF7CFFF04E0F8
:102C500000F065F8204600F063F82777280715D5BF
:102C6000300713D521686FF0080008610420207731
:102C70002068C0698007204602D0FFF7B7FF04E054
:102C800000F04DF8204600F04BF82777E80616D5FF
:102C9000F00614D521686FF0100008610820207735
:102CA0002068C06910F4407F204602D0FFF79EFFE5
:102CB00004E000F034F8204600F032F82777E80707
:102CC00008D0F00706D021686FF0010008612046A7
:102CD00000F027F8280608D5300606D521686FF0E1
:102CE000800008612046FFF77DFE680608D5700663
:102CF00006D521686FF040000861204600F012F808
:102D0000A8060AD5B00608D521686FF02000086132
:102D10002046BDE8F041FFF766BEBDE8F081704790
:102D200070477047704770B5040004D094F84100B4
:102D3000002510B106E0012070BD84F84050204607
:102D400000F024F8242084F841002068C16821F4B0
:102D50000051C160204601F087FD2068016921F41F
:102D6000904101612068416921F02A014161206898
:102D7000C16841F40051C1606564202084F84100BD
:102D800084F842006563002070BD000010B586B075
:102D9000044614216846FDF74DFA1449206888421C
:102DA00021D113480021026842F01002026000683D
:102DB00000F0100005900E481438026842F001023D
:102DC0000260006800F0010005904FF4C0600090C0
:102DD0000220CDE9010103200390072004906946F9
:102DE0000448FDF779FD06B010BD00000010014059
:102DF00044380240000002402DE9F843044690F8B0
:102E000041001F4615460E46202802D00220BDE88C
:102E1000F8838EB185B100206064212084F84100E0
:102E2000FDF74CFEA5848146E584A0684FF020089C
:102E3000B0F5805F02D003E00120E8E7206910B11F
:102E4000354600260EE000250CE08021204601F0EA
:102E500091FDA0B9BDB115F8010B21684860E08C67
:102E6000401EE084E08C4B464FF0000200970028A3
:102E7000EBD14FF04001204601F07CFD40B184F8D9
:102E800041800320C3E736F8020BC0F30800E4E7F3
:102E900084F841800020BAE7FEE72DE9F0410746BB
:102EA0001C4616460D462A2000F0F8F9BF1CB8B2A1
:102EB00000F0E9F9B61CB0B200F0E5F92B2000F003
:102EC000EDF9ED1CA8B200F0DEF9E41CA0B200F0B0
:102ED000DAF9BDE8F0412C2000F0E0B910B5144655
:102EE0000B460246FFF7D9FF2046BDE8104000F030
:102EF000CAB90000F8B55D1A069CADF80040141A76
:102F00006C435B1E521EA7B29BB292B2FFF7C5FF85
:102F1000134E4FF48055002229463046FDF7C9FD77
:102F2000104C2068016841F4006101603A4669462E
:102F30002046FFF7DBFC02E00BA002F053F8094843
:102F4000FFF7BDF90128F7D1012229463046FDF7E8
:102F5000B0FD2068016821F400610160F8BD000047
:102F600000040240E40E0020535049205472616E68
:102F700073666F726D204572726F722121210D0A86
:102F80000000000010B57E4C002202212046FDF713
:102F900090FD6420FDF76AFC012202212046FDF726
:102FA00088FD6420FDF762FC0122D1027548FDF71F
:102FB00080FD6420FDF75AFC112000F06FF97820A5
:102FC000FDF754FCB12000F069F9022000F07AF915
:102FD000352000F077F9362000F074F9B22000F0C7
:102FE0005DF9022000F06EF9352000F06BF9362013
:102FF00000F068F9B32000F051F9022000F062F906
:10300000352000F05FF9362000F05CF9022000F076
:1030100059F9352000F056F9362000F053F9B42064
:1030200000F03CF9032000F04DF9C02000F036F923
:10303000A22000F047F9022000F044F9842000F0BB
:1030400041F9C12000F02AF9C52000F03BF9C22067
:1030500000F024F90D2000F035F9002000F032F9DD
:10306000C32000F01BF98D2000F02CF92A2000F07D
:1030700029F9C42000F012F98D2000F023F9EE2088
:1030800000F020F9C52000F009F90A2000F01AF933
:10309000362000F003F9C82000F014F9E02000F019
:1030A000FDF8122000F00EF91C2000F00BF91020A2
:1030B00000F008F9182000F005F9332000F002F9BB
:1030C0002C2000F0FFF8252000F0FCF8282000F06C
:1030D000F9F8282000F0F6F8272000F0F3F82F2068
:1030E00000F0F0F83C2000F0EDF8002000F0EAF8E5
:1030F000032000F0E7F8032000F0E4F8102000F0CF
:10310000E1F8E12000F0CAF8122000F0DBF81C2002
:1031100000F0D8F8102000F0D5F8182000F0D2F810
:103120002D2000F0CFF8282000F0CCF8232000F06C
:10313000C9F8282000F0C6F8282000F0C3F826209F
:1031400000F0C0F82F2000F0BDF83B2000F0BAF8E6
:10315000002000F0B7F8032000F0B4F8032000F0DE
:10316000B1F8102000F0AEF83A2000F097F80520F2
:1031700000F0A8F8BDE81040292000F08FB800004A
:1031800000080240000402402DE9FF4F81B00546CF
:10319000DDF83C8081464FEA580A4FEADA0000FB2E
:1031A00008F0203A0090D0B2039001EB0800401ED6
:1031B00083B205EB0A00401E8B4682B25946484650
:1031C000FFF76BFE002637E0B8F1100F23D0B8F1FF
:1031D000200F34D11B49039801EB80100024875D38
:1031E000109800284FF0010000FA04F000EA0700F0
:1031F00016D020B159462846049AFFF76FFE6D1C81
:10320000ADB2A5EB0901514510D10BF101004D46BE
:103210001FFA80FB0EE00C49039801EB0010DDE77C
:1032200008B1049800E00E9800F02DF8641CE4B298
:10323000082CD5D3761CB6B200988642C4D305B00C
:10324000BDE8F08F14590008245300082DE9FE4F03
:103250009946DDE90D6714468A460546DDF830805B
:103260000CE0CDF800804B4651462846CDE9016779
:10327000FFF78AFF05EB560085B2641C2278002A0E
:10328000EFD1BDE8FE8F10B50446000A00F01AF831
:10329000E0B2BDE8104000F015B8000070B5084C71
:1032A0000546002201212046FDF703FC284600F0D8
:1032B00009F82046BDE8704001221146FDF7F9BB30
:1032C0000008024031B5094D4FF4805400222146D8
:1032D0002846FDF7EEFB012269460548FFF706FB8D
:1032E000012221462846FDF7E4FB38BD00040240D8
:1032F000E40E0020154808B5016841F48001016022
:10330000016801F480010091016841F4001101603D
:103310000068002200F40010009011460F20FDF715
:103320003BFC0F20FDF72AFC002211463B20FDF755
:1033300033FC3B20FDF722FC002211464520FDF71F
:103340002BFCBDE808404520FDF718BC3038024092
:1033500010B504490448FDF7E1F80249491E087018
:1033600010BD00001A080020105300082DE9F04F8E
:1033700087B014216846FCF75DFF5A4800240168B5
:1033800041F080010160016801F080010591016850
:1033900041F004010160016801F004010591016838
:1033A00041F001010160016801F00101059101682E
:1033B00041F002010160016801F00201059101681C
:1033C00041F010010160016801F0100105910168F0
:1033D00041F0080101600068434D00F008000590CD
:1033E000002203212846FDF764FBDFF8009100224C
:1033F0000E214846FDF75DFB012210214846FDF7EE
:1034000058FB012230212846FDF753FBDFF8E0A0EE
:103410004FF4C057002239465046FDF74AFBDFF80B
:10342000D4B0002239465846FDF743FB33204FF015
:1034300011080226CDE90008CDE902466946284672
:10344000FDF74AFA0125CDE9005469464846029441
:10345000FDF742FA0E20CDE90005CDE902466946A6
:103460004846FDF739FA1020CDE900050320CDE9E3
:10347000024069464846FDF72FFAFF20CDE90004D7
:10348000694658460294FDF727FA0097CDE90154A2
:10349000694650460394FDF71FFAE80300904FF485
:1034A0008810CDE9010469465046FDF715FACDE9CB
:1034B0000246CDE9007869465846FDF70DFA082026
:1034C000CDE9000469460C480294FDF705FA002294
:1034D00002212820FDF760FB2820FDF74FFB07B0F5
:1034E000BDE8F08F30380240000802400000024082
:1034F0000010024000040240000C02400848074946
:103500004FF400620160002141608160C0E9031254
:1035100041610A21816101F0C7BE0000002C014019
:10352000480D0020104810B50E4901604FF482711B
:10353000416000218160C1604FF400720161C0E907
:1035400005120822C0E90721416281620A21C16295
:10355000FEF736FF002803D0BDE81040FCF7DCBFC3
:1035600010BD0000003001408C0E00200F4810B547
:103570000D4901604FF48271416000218160C1609A
:103580004FF400720161C0E90512C161016241623C
:1035900081620A21C162FEF713FF002803D0BDE853
:1035A0001040FCF7B9BF10BD00380040E40E002009
:1035B00010B586B000241748009401940294039437
:1035C000049413490594016041F61F41C0E90114B8
:1035D00042F21071C0E903148461FFF74DFA08B19B
:1035E000FCF79AFF4FF48050009069460948FFF7B6
:1035F0008FFA08B1FCF790FF049404A905480594DC
:10360000FFF7F2F9002801D0FCF786FF06B010BDE5
:10361000000400409C0F00200C4810B50A490160CE
:103620004FF4E1314160002181600C22C160C0E9AA
:1036300004128161C161FFF776FB002803D0BDE869
:103640001040FCF769BF10BD00100140E40F0020DE
:103650000C4810B54FF0A041016004210171022215
:10366000C2710021817142728172C17201738173D2
:10367000C173FDF77FFD002803D0BDE81040FCF7C3
:103680004BBF10BD2C100020FEE7FEE70148FDF700
:10369000C9BA00002C1000202DE9F041066805464B
:1036A0000C46306C06EB4411D1F8083B95F806C087
:1036B0004FF400474FF0200E05F29C42BCF1010F81
:1036C00008D0DFF898C0604538D1180431D5C1F86A
:1036D000087B3FE0224E5FEA037C04D5B04239D933
:1036E0001804F4D436E05FEA836C02D5C1F808EB25
:1036F00030E013F0280F2DD1B04201D91804E6D4E0
:1037000004EBC40005EB8000D1F8101BD0F8743234
:10371000C1F31201591AC0F8681200F51570ACB95E
:1037200003691BB1C2681144C1600FE00121286820
:103730000AE098060AD5C1F808EB07E034B9D5F8D5
:10374000640218B90021304601F086FAE1B2284639
:10375000FDF757FA0020BDE8F08100000A31544F10
:103760000A30544F2DE9F84F0E4601EBC60100EB2D
:1037700081048146D0F80080D4E9091014348842CD
:1037800002D90120BDE8F88F081AA168814200D251
:103790000846C01C870808EB461A15E0451AA068C1
:1037A000A84200D20546E81C870899F80600009058
:1037B000ABB2F2B24046E16801F000FCE068284498
:1037C000E060606928446061DAF8180980B2B842A4
:1037D00005D3D4E90401814201D20028DED1D4E925
:1037E0000401884208D806F00F0101208840D8F86B
:1037F00034188143C8F834180020C3E770470A68BA
:1038000042624A688262D1E902231A43D1E9043153
:103810000B43C16A1A4321F0F7011143C162002032
:103820007047006800F00300704708444069704723
:103830000148FEF773B90000480D002070B50DF186
:10384000100C11439CE8700023431943294342683C
:10385000314347F6FF639A430A434260002070BD3C
:103860000321016000207047D0F8800070470A688B
:103870008260D1E901231A43D1E903310B43C168C6
:103880001A436FF30B011143C160002070470968B0
:10389000C0F880100020704710B585B00446009134
:1038A0003721019140210020CDE902100801049048
:1038B00069462046FFF7DBFF41F288323721204678
:1038C00000F092F905B010BD10B50B4A85B0044662
:1038D00011432920CDE900104020029000200390E0
:1038E000500D049069462046FFF7C1FF204600F0C6
:1038F00033FA05B010BD00000000108010B585B08F
:10390000044600911021019140210020CDE90210D0
:103910000801049069462046FFF7A9FF41F288326A
:103920001021204600F060F905B010BD10B585B03B
:10393000044600910621019140210020CDE90210AA
:103940000801049069462046FFF791FF41F2883252
:103950000621204600F048F905B010BD30B585B00D
:1039600000250446009501954FF480600295CDE94D
:10397000035069462046FFF77AFF0B484FF4FA518F
:103980000068B0FBF1F141F288304143491E02D298
:103990004FF0004504E0606B0006F7D5C520A0633A
:1039A00005B0284630BD00001408002010B585B0D1
:1039B0004FF4D57100910821044601914021002067
:1039C000CDE902100801049069462046FFF74FFF39
:1039D000204600F027FA05B010BD10B585B00446AA
:1039E00000911221019140210020CDE9021008012F
:1039F000049069462046FFF73AFF41F288321221CF
:103A0000204600F0F1F805B010BD10B585B00446B1
:103A100000911121019140210020CDE902100801FF
:103A2000049069462046FFF722FF41F288321121B7
:103A3000204600F0D9F805B010BD10B585B0044699
:103A4000072140200092CDE90110002003904FF49F
:103A50008060049069462046FFF709FF41F28832F2
:103A60000721204600F0C0F805B010BD10B585B0A4
:103A7000002102220446C020CDE90201CDE9001256
:103A80005002049069462046FFF7F1FE204600F000
:103A90003BF905B010BD10B585B004460091092171
:103AA0000191C0210020CDE902104FF48060049004
:103AB00069462046FFF7DBFE204600F025F905B0F9
:103AC00010BD10B585B00021044640203322CDE959
:103AD0000201CDE900120001049069462046FFF77B
:103AE000C6FE41F288323321204600F07DF805B051
:103AF00010BD10B585B0044600910D210191402103
:103B00000020CDE902100801049069462046FFF725
:103B1000AEFE41F288320D21204600F065F805B076
:103B200010BD30B585B0054600230320CDE9003037
:103B30004020CDE9020300010C4604906946284666
:103B4000FFF795FE22460321284600F027F905B02D
:103B500030BD000010B585B00021044640200C2285
:103B6000CDE90201CDE9001200010490694620462A
:103B7000FFF77DFE034A0C21204600F035F805B022
:103B800010BD000000E1F50510B585B004460091B8
:103B90001921019140210020CDE902100801049073
:103BA00069462046FFF763FE41F28832192120461C
:103BB00000F01AF805B010BD10B585B004460091AC
:103BC0001821019140210020CDE902100801049044
:103BD00069462046FFF74BFE41F288321821204605
:103BE00000F002F805B010BD454B10B51B684FF44E
:103BF000FA54B3FBF4F353435B1E02D24FF0004080
:103C000010BD426B12F0450FF6D01205F4D4426B92
:103C1000520703D504218163084610BD426BD207C9
:103C200002D00121816305E0C52282630269D2B21C
:103C30008A4201D0012010BD0021FFF7F6FD314975
:103C4000084201D1002010BD002802DA4FF00070B8
:103C500010BD410001D5402010BD810001D580205C
:103C600010BDC10002D54FF4807010BD010102D516
:103C70004FF4007010BD410102D54FF4806010BDBB
:103C8000C10102D54FF4006010BD010202D54FF40E
:103C9000805010BD410202D54FF4005010BD81028A
:103CA00002D54FF4804010BDC10202D54FF4004050
:103CB00010BD410302D54FF4003010BD810302D581
:103CC0004FF4802010BDC10302D54FF4002010BD79
:103CD000010402D54FF4801010BD410402D54FF409
:103CE000001010BD810402D54FF4800010BD000704
:103CF00002D54FF4000010BD4FF4803010BD00001D
:103D00001408002008E0FFFD12494FF4FA52096838
:103D1000B1FBF2F241F288314A43521E02D24FF017
:103D200000407047416B11F0450FF6D00905F4D4FF
:103D3000416B490703D50421816308467047416BF5
:103D4000C90703D00121816308467047C5218163FB
:103D500000207047140800200F494FF4FA520968F8
:103D6000B1FBF2F241F288314A43521E02D24FF0C7
:103D700000407047416B11F0450FF6D00905F4D4AF
:103D8000416B490703D50421816308467047C5216B
:103D900081630020704700001408002030B5204BDC
:103DA0004FF4FA541B68B3FBF4F441F288335C43DC
:103DB000641E02D24FF0004030BD436B13F0450F3C
:103DC000F6D01B05F4D4436B5B0703D50421816354
:103DD000084630BD436BDB0702D00121816303E05D
:103DE0000369DBB28B4201D0012030BDC521816364
:103DF0000021FFF71AFD10F4604F04D0410406D5EE
:103E00004FF4005030BD000C1080002030BD000485
:103E100002D54FF4805030BD4FF4803030BD0000EB
:103E20001408002014494FF4FA520968B1FBF2F269
:103E300041F288314A43521E02D24FF0004070478F
:103E4000416B11F0450FF6D00905F4D4416B4907D9
:103E500003D50421816308467047416BC90703D02D
:103E60000121816308467047416B490601D5402115
:103E700081630020704700001408002010B5064C34
:103E800001202070FCF75AFA18B9207820F00100C0
:103E90002070207810BD00001808002010B5846B39
:103EA00040F23A50216888632046FDF71DFE01214B
:103EB00084F8341000212163062801D0052805D19B
:103EC0002068FFF747FEA16B0843A063A06B0028A2
:103ED000204602D0FDF728FD10BDFDF795FC10BD72
:103EE00010B5846B40F23A50216888632046FDF794
:103EF000FBFD012184F8341000212163062801D044
:103F0000052805D12068FFF725FEA16B0843A063B3
:103F1000A06B0028204602D0FDF706FD10BDFDF77E
:103F200073FC10BD2DE9F04788B00E460446FCF73F
:103F3000C5FD0025074606950795A8460821206877
:103F4000FFF7DCFC00282DD1B4F8500001042068F4
:103F5000FFF7A2FC002825D1401E4FF00809CDE94B
:103F6000000930204FF0020ACDE9020A0120CDE914
:103F7000048069462068FFF742FC2068FFF7A1FD36
:103F800000280FD10DF118082068416B11F02A0F9D
:103F90000BD0416B090702D4416B890519D5C0F8D4
:103FA0003890082008B0BDE8F087416B890205D53C
:103FB000FFF75AFC48F825006D1C02E0416B8904AC
:103FC000E7D5FCF77BFDC01B401CDDD14FF0004066
:103FD000E8E7416B890703D5C0F838A00220E1E784
:103FE000416B890603D5202181630846DAE740F258
:103FF0003A518163079800BA3060069800BA706041
:104000000020CFE710B590B004460120ADF838008D
:104010002068FFF706FC002854D0606C032842D0CB
:104020002068FFF723FD00284AD100212068FFF710
:10403000FCFB606704212068FFF7F7FBA0670821FD
:104040002068FFF7F2FBE0670C212068FFF7EDFB2B
:10405000C4F88000606C032825D00EA92068FFF703
:1040600060FD00282CD1606C03281CD0BDF83800FE
:10407000206501042068FFF70EFD002820D10021F3
:104080002068FFF7D2FB606604212068FFF7CDFBB4
:10409000A06608212068FFF7C8FBE0660C212068B5
:1040A000FFF7C3FB206704212068FFF7BEFB000D6C
:1040B000E06403A92046FDF739FC30B14FF0805091
:1040C00010B010BD4FF08060FAE7B4F85000002344
:1040D00002042068FFF7B1FC0028F1D104F11000C0
:1040E00007C88DE8070094E80F00FFF7A7FB002042
:1040F000E6E700002DE9F84F002604460096374613
:1041000035460068FFF72AFC002827D12068FFF712
:104110004DFC4FF0805B4FF001094FF6FF7848B13E
:10412000A6642068FFF71AFC002817D1A06C0128AC
:1041300002D01FE0C4F8489000212068FFF7ACFBD4
:1041400058B917E000212068FFF7A6FB002805D129
:1041500051462068FFF7B8FB10B15846BDE8F88F0C
:1041600000212068FFF761FB0746C50F0098401C3F
:10417000009001E0DFF824A00099414501D2002D14
:10418000E0D0414502D34FF08070E7E7780002D5D8
:10419000C4F8449000E066640020DFE7000010C12E
:1041A00070B5064C054601202070FCF7D3F818B90D
:1041B0002846FFF763FE2070207870BD18080020A5
:1041C00010B5124888B014460078C00702D003200A
:1041D00008B010BDC1B1012905D0022908D00329BA
:1041E0000CD00420F4E76846FCF7A2F806980AE031
:1041F0006846FCF79DF80798208005E06846FCF7C4
:1042000097F80798400A20600020E1E7180800208E
:1042100070B51D46164608460124A31E2A4631469F
:10422000FCF7BEF820B9FCF789F80028FBD1002480
:10423000204670BDFFF722BE70B51D4616460846E3
:104240000124A31E2A463146FCF7BCF820B9FCF72E
:1042500075F80028FBD10024204670BD0148FEF708
:1042600031B80000E40E002010B50A46018A40680B
:1042700089B2FCF71EFC0020401C0A28FCDB10BDA4
:104280003EB504463CA00025006802902946204621
:10429000FFF7EAFF64200090042301AA02A9204648
:1042A00000F0A6F800284FF0010120461AD0FFF7D1
:1042B000DBFF9DF8050020729DF80610E1729DF865
:1042C0000710002261728C2827D015DC372824D0F3
:1042D0000BDC012821D004281FD01C281DD0202849
:1042E0001AD11AE0FFF7C0FF44E0622815D08528F4
:1042F00013D0892810D110E0C2280ED006DCA128E6
:104300000BD0AD2809D0BF2806D106E0C82804D0BC
:10431000D52802D0EF2800D022721139102921D2DD
:10432000DFE801F0080A0D0F111315171A202020DD
:104330002020201D022000E00420E06114E008207D
:10434000FBE71020F9E72020F7E74020F5E7802081
:10435000F3E74FF48070F0E74FF40070EDE74FF4AF
:104360008060EAE76272E0690001A0610003000A70
:104370000125606128463EBD9FFFFFFF2DE9F0410A
:10438000984616460F4604004FF0000523D017B399
:104390000EB3A07A01281ED020212046FBF74AFF49
:1043A000C4F81080C4E9007601212046FFF75CFFC5
:1043B00002E00120FCF75AFAFCF780FB1428F8D33E
:1043C000204600F021F830B12046FFF759FF0500E4
:1043D00001D00120A0722846BDE8F08110B500246C
:1043E00092B20068FEF7D8F800B90124204610BD4B
:1043F00038B50024049D00959BB20068FEF781F952
:1044000000B90124204638BD38B505460AA001246C
:104410000068009000212846FFF726FF6423012250
:1044200069462846FFF7DAFF00B900240121284633
:10443000FFF71AFF204638BD0400000010B5806B5E
:104440000021C187C186FDF739FF10BD10B5806B13
:1044500001684A6822F003024A60416D41F0100190
:104460004165012180F85110FDF728FF10BD10B5FE
:10447000806BFEF7A2FA10BD38B50546846BFCF7D9
:104480001DFB024628680068C00523D420684168E7
:1044900021F0200141602068416821F00201416063
:1044A0006421204600F01AF818B1606D40F0200039
:1044B0006065A068002118B92068C2688068009013
:1044C000E186012084F85100606D18B12046FDF7A7
:1044D000F5FE38BD2046FEF76FFA38BDF8B5154633
:1044E0000E460B46009204460122022100F02CF8F1
:1044F000A0B9134813490068B0FBF1F04FF47A718A
:10450000484300906068B0F5827F0DD133460022A9
:1045100080212046009500F017F870B1606D40F0E2
:10452000200060650320F8BD009830B1401E009067
:1045300020688068C0430006F6D50020F8BD000062
:104540001408002000366E012DE9F8431E469146FE
:1045500088460446089DFCF7B1FA401B351AFCF763
:10456000ADFA074625480068C0F3CB30684338E011
:10457000701C37D0FCF7A2FAC01BA84203D215B1B9
:10458000009860B32CE02068416821F0E0014160B0
:104590006068B0F5827F0BD1A068B0F5004F02D003
:1045A000B0F5806F04D12068016821F040010160FE
:1045B000A06AB0F5005F09D12068016821F40051BC
:1045C00001602068016841F400510160012084F815
:1045D0005100002084F850000320BDE8F883002536
:1045E000401E00902068816838EA010004D0002055
:1045F0004845BDD10020F0E70120F9E7140800206C
:104600007047FCF761BA000030B593B030216846BE
:10461000FBF710FE14210CA8FBF70CFE1D4800252B
:10462000016841F080510160006800F080501190F5
:104630001948016841F4804101600068022400F4D7
:104640008040119001200090000401908001CDE98C
:10465000064004200890A820CDE9090407200B900B
:104660006846FCF725FF08B172B6FEE70CA90F20DB
:1046700081E831004FF4A0500F904FF4805010901B
:1046800005210CA8FCF724FE002801D072B6FEE735
:1046900013B030BD4038024000700040024801684D
:1046A00041F470010160704788ED00E0084800683F
:1046B0000169C943C90708D1C168C943C90704D101
:1046C000891E01610349002008700148FEF78FBA76
:1046D0009C0F002003080020F0B50268294D2A4EE7
:1046E0002A4FDFF8ACC02B4B4FF0804EA84209D0C8
:1046F000704507D0B04205D0B84203D0604501D024
:10470000984203D122F070044A682243A8421BD089
:10471000704519D0B04217D0B84215D0604513D0BB
:10472000984211D01C4CA0420ED01C4CA0420BD081
:104730001B4CA04208D01B4CA04205D01A4CA042F2
:1047400002D01A4CA04203D122F44074CA6822431A
:104750004C6922F08002224302608A68C2620A68C1
:104760008262A84201D0984201D109690163012106
:1047700041610169C90703D0016921F001010161AB
:10478000F0BD0000000001400004004000080040AF
:10479000000C004000040140004001400044014082
:1047A0000048014000180040001C0040002000406C
:1047B00010B5846842EA032224F47F440A4322436A
:1047C000826010BD826822F070020A4342F0070145
:1047D0008160704710B5046A036A23F00103036225
:1047E000836923F0F00343EA021324F00A020A4328
:1047F0008361026210BD10B5036A046A24F01004DC
:104800000462846923F0A00324F4704444EA023271
:1048100043EA01118261016210BD01680C3151E867
:10482000002F22F4907241E80023002BF5D101689B
:10483000143151E8002F22F0010241E80023002B3F
:10484000F5D1016B012909D101680C3151E8002F24
:1048500022F0100241E80023002BF5D1202180F83E
:10486000421000210163704770B504460068016979
:10487000E26821F4405111430161A1682069E269B5
:1048800001436069104301432068C26849F20C6328
:104890009A430A43C26020684169A26921F44071C9
:1048A0001143416131492068884202D03049884231
:1048B00002D1FCF7BDFD01E0FCF7AAFDE26900238F
:1048C000192164253226B2F5004F626828D0A0FB7A
:1048D0000101930F9200FBF775FC0146B0FBF5F068
:1048E0006FF01802504301EB800006EB0010B0FBA4
:1048F000F5F000F0F002B1FBF5F002EB0012B1FBB5
:10490000F5F06FF01803584301EB800006EB001040
:10491000B0FBF5F000F00F0021681044886070BD16
:10492000A0FB010192185B41FBF74CFC0146B0FB78
:10493000F5F00201B1FBF5F06FF01803584301EBFD
:10494000800006EBC000B0FBF5F000F0F80002EBD1
:104950004002B1FBF5F0584301EB800006EBC000CC
:10496000B0FBF5F000F00700D6E7000000100140B2
:10497000001401402DE9F8431F4690460D460446B9
:10498000089E23E0701C21D0FCF798F8C01BB042B1
:104990001AD8CEB12068C168490717D5802D15D027
:1049A000402D13D00168C94309070FD401680025C1
:1049B000406800902046FFF730FF0820606484F8CC
:1049C00040500120BDE8F8830320FBE72068006821
:1049D00035EA000004D000204045D3D00020F1E7A4
:1049E0000120F9E7D0F800196FF30A01C0F80019A7
:1049F000D0F8041841F48071C0F804180020704702
:104A000070B50D460446C2F3072004991E460128DE
:104A10001BD0E06840F04000E060204600F032F833
:104A2000C6F307210029A16B26D021F48031A163B0
:104A3000C5F30741012907D1A16841F00601A16032
:104A4000A16841F02001A16070BDA06B20F480300E
:104A5000A063E0680A4A1040E060E06820F440107B
:104A6000E060C8B2012803D1E06840F48010E06043
:104A7000204600F007F8DBE741F48031D7E700007B
:104A8000BFFFBDFF08B500234FF07062009300998F
:104A9000491C009191420CD801690029F7DA009372
:104AA000016941F0010101610099491C00919142A5
:104AB00001D9032008BD0169C907F5D1002008BD4F
:104AC000D0F8001E21F00301C0F8001ED0F8041831
:104AD00041F00201C0F80418002070472DE9F04FA2
:104AE000002604460F4692463046354604EB8001C8
:104AF000C1F80451401C0F28F8D3C3F307405FEA04
:104B0000000B204613D0806B20F40011A163A06B32
:104B100040F40021A163C4F8005ECAF30720012815
:104B200017D0D4F80018204641F0030118E0D0F85F
:104B3000040840F00201C4F80418A06B40F400110E
:104B4000A163A06B20F40021A163A06B20F480215D
:104B5000E0E7380ED4F80018204601D041F00101FA
:104B6000C0F80018102100F00DF900B10126204610
:104B700000F0ECF800B10126C4F81058C4F814583D
:104B8000C4F81C5800204FF0006C4FF090434FF6D3
:104B90007F39FAB214E004EB4011D1F80089B8F182
:104BA000000F06DA10B1C1F8003904E0C4F800C9FA
:104BB00001E0C1F80059C1F81059C1F80899401C2A
:104BC0008242E8D8002014E004EB4011D1F8008BB9
:104BD000B8F1000F06DA10B1C1F8003B04E0C4F8E8
:104BE00000CB01E0C1F8005BC1F8105BC1F8089B85
:104BF000401C8242E8D8D4F8100820F48071C4F830
:104C00001018A5616FF080406061C7F3074018B9C4
:104C1000A06940F01000A061A0690A490843A061A2
:104C2000CAF3074018B1A06940F00800A061BBF1C9
:104C3000010F03D1A06904490843A0613046BDE8D3
:104C4000F08F000000383C8004000040816821F0B3
:104C5000010181600020704710B5036C134CA34222
:104C600003D9D0F8003B002B1EDB0023C0F8103B1B
:104C7000D0F8103B43F40023C0F8103BD0F8103BB1
:104C800043F01803C0F8103BD0F8103B43F0C0438A
:104C9000C0F8103B012907D1C0F8142BD0F8001B35
:104CA00041F08021C0F8001B002010BD0A30544F95
:104CB00038B5002200920B784D7800EB431442F295
:104CC0001073012D19D0D4F8005B002D3CDAD4F814
:104CD000005B45F00065C4F8005B0C7800EB441401
:104CE000D4F8005B45F08045C4F8005B009C641C70
:104CF00000949C4221D9012226E0D4F80059002DCD
:104D000022DAD4F8005945F00065C4F800590C784F
:104D100000EB4414D4F8005945F08045C4F800591C
:104D2000009C641C00949C42E5D80C7800EB441471
:104D3000D4F80049002CF3DB06E00C7800EB4414B7
:104D4000D4F8004B002CD1DB104638BD08B5002349
:104D50004FF0706200930099491C009191420AD86B
:104D600001690029F7DA1021009301610099491CBB
:104D70000091914201D9032008BD0169C906F5D40B
:104D8000002008BD18B500244FF070630094009A0D
:104D9000521C00929A420CD80269002AF7DA2022AB
:104DA00042EA8111009401610099491C00919942E5
:104DB00001D9032018BD01698906F5D4002018BD6A
:104DC000D0F8080810F0060004D0022803D0062806
:104DD00001D00F20704702207047406900F00100A9
:104DE0007047D0F81818D0F81C08084080B27047F7
:104DF000D0F81818D0F81C080840000C704710B5FF
:104E0000D0F81038D0F8342801F00F0400EB41102E
:104E1000E24002F00102D0F8080943EAC212104051
:104E200010BD00EB4111D1F8081BD0F81408084060
:104E30007047416980690840704730B503460846AD
:104E4000940802F00301002203F5805303E01D687B
:104E500040F8045B521CA242F9D300290BD01C6815
:104E60000022D50024FA05F3491E521C090400F85B
:104E7000013B090CF5D130BD70B50546C068002472
:104E800020F0C040E860012901D079B120E0E86855
:104E900040F00050E8600A20FBF7E8FC68690A343B
:104EA00010F0010F10D1C82CF5D30DE0E86840F0E8
:104EB0008040E8600A20FBF7D9FC68690A3410F0EA
:104EC000010F01D0C82CF5D3C82C01D0002070BD33
:104ED000012070BD022A3ED1264A274B0A449A423D
:104EE00001D20F2138E0254A254B0A449A4201D2CB
:104EF0000E2131E0234A244B0A449A4201D20D216B
:104F00002AE0224A224B0A449A4201D20C2123E091
:104F1000204A214B0A449A4201D20B211CE01F4A2D
:104F20001F4B0A449A4201D20A2115E01D4A1E4B2A
:104F30000A449A420FD31D4A1D4B0A449A4201D299
:104F4000082109E01B4A11441B4A914201D2072162
:104F500002E0062100E00921C26822F47052C2601A
:104F6000C2684FF4705303EA81210A43C2600020F3
:104F700070470000405327FF00350C00401E1BFF08
:104F800040420F0000DC0BFF804F1200808CF9FEC6
:104F900020D6130060B6E5FE60E3160000D3CEFE17
:104FA00040771B00C05BB3FEC091210000CA91FE98
:104FB00020753800E05459FEE09C410010B5029C79
:104FC0006CB9DB1C9C0800EB0230002300F580501C
:104FD00003E051F8042B02605B1CA342F9D30020CC
:104FE00010BDFEE70FB4054B10B503A9044A0298A3
:104FF00000F028F810BC5DF814FB0000FD5100081B
:10500000200800200907090E002804DB00F1E02039
:1050100080F80014704700F00F0000F1E02080F8E5
:10502000141D704702E008C8121F08C1002AFAD1F7
:1050300070477047002001E001C1121F002AFBD118
:10504000704700002DE9FF4F8BB09A460F4605468A
:10505000002606E025280BD052460D9990476D1C7E
:10506000761C28780028F5D10FB03046BDE8F08FC7
:105070000024A0460122604900E0044315F8013FE6
:10508000203B02FA03F00842F7D128782E2817D1E6
:1050900015F8010F44F004042A280ED06FF02F02F7
:1050A0002878A0F1300109290AD808EB880102EB21
:1050B000410100EB01086D1CF2E757F8048B6D1CF1
:1050C000287869283ED006DC0028CDD063280BD094
:1050D000642804D136E0732810D075284BD052468E
:1050E0000D999047761C85E017F8040B8DF80000A9
:1050F00000208DF80100E946012003E057F8049BE9
:105100004FF0FF3061074FF0000401D40AE0641C47
:1051100044450DDA8442FADB19F804100029F6D16F
:1051200006E0641C8442FCDB19F804100029F8D165
:10513000264404E019F8010B52460D999047641E6D
:10514000F8D257E001CF4FF00A0B002802DA4042B4
:105150002D2102E0210504D52B218DF824100121F9
:1051600003E0E10705D02021F7E70DF120090891C0
:105170000CE00021F9E701CF4FF00A0BF9E759469F
:10518000FBF763F801F1300209F8012D0028F6D190
:10519000ADEB090000F1200B600701D44FF00108CE
:1051A000D84502DDA8EB0B0000E00020804600247B
:1051B00006E009A85246005D0D999047641C761CD4
:1051C00008988442F5DB04E0302052460D99904760
:1051D000761CB8F10001A8F10108F5DC05E019F82A
:1051E000010B52460D999047761CBBF10001ABF1C3
:1051F000010BF4DC6D1C34E70928010013B54FF6F0
:10520000FF73012269460248FDF7F6FD00981CBDB8
:10521000E40F00200EB5FBF75FFCFFF7F5F9FEF792
:10522000A5F8FEF767F8FEF77DF9FEF79FF9FEF7A0
:10523000BFF9FEF763F9FEF78BF8FEF7EDF9FEF71D
:1052400007FA1023104A11491148FFF797F811483F
:10525000016800208847FDF795FE4FF6FF74802314
:1052600000211A4608460094FDF744FE0020102154
:105270000094CDE901104FF4784307A21E211820B5
:10528000FDF7E4FFFEE70000000002408C0E002066
:10529000C8080020105300082068656C6C6F206CF3
:1052A0006364202100000000104810B50E49016021
:1052B000002141608160C160016141610A21816119
:1052C000FCF730FD08B1012010BD084907488431C2
:1052D000FCF7F8FB4FF400610448FCF799FA00284A
:1052E000F2D0022010BD0000002C01402408002054
:1052F0000006101600061016000000000000000056
:10530000010203040607080900000000010203046B
:10531000A141000835420008114200083942000846
:10532000C141000800000000000000000000000073
:105330000000000000000008080808080808000035
:105340001818000000486C24120000000000000043
:10535000000000000000002424247F1212127F129B
:10536000121200000000081C2A2A0A0C1828282AF9
:105370002A1C080800000022251515152A58545427
:10538000542200000000000C1212120A7625291186
:10539000916E0000000606040300000000000000FB
:1053A000000000000040201010080808080808103D
:1053B00010204000000204080810101010101008FF
:1053C000080402000000000008086B1C1C6B0808A1
:1053D0000000000000000000080808087F08080816
:1053E00008000000000000000000000000000000B5
:1053F000060604030000000000000000FE0000009C
:10540000000000000000000000000000000000009C
:10541000060600000000804040202010100808040C
:10542000040202000000001824424242424242426A
:1054300024180000000000080E08080808080808E2
:10544000083E00000000003C4242422020100804B8
:10545000427E00000000003C4242201820404042B2
:10546000221C0000000000203028242422227E205C
:10547000207800000000007E0202021A264040420E
:10548000221C0000000000382402021A2642424278
:10549000241800000000007E2222101008080808CE
:1054A000080800000000003C424242241824424206
:1054B000423C000000000018244242426458404030
:1054C000241C00000000000000001818000000006C
:1054D0001818000000000000000000080000000094
:1054E000000808040000004020100804020408100E
:1054F000204000000000000000007F0000007F004E
:1055000000000000000000020408102040201008E5
:10551000040200000000003C4242464020101000FF
:10552000181800000000001C225A555555552D42F0
:10553000221C00000000000808181414243C224219
:1055400042E700000000001F2222221E22424242A7
:10555000221F00000000007C4242010101010142C3
:10556000221C00000000001F2242424242424242EE
:10557000221F00000000003F4212121E12120242BF
:10558000423F00000000003F4212121E12120202AF
:10559000020700000000003C2222010101712122CB
:1055A000221C0000000000E7424242427E4242428A
:1055B00042E700000000003E080808080808080844
:1055C000083E00000000007C101010101010101099
:1055D0001010110F0000007722120A0E0A12122278
:1055E000227700000000000702020202020202020B
:1055F000427F000000000077363636362A2A2A2AF3
:105600002A6B0000000000E346464A4A52525262AA
:10561000624700000000001C2241414141414141DC
:10562000221C00000000003F424242423E020202B1
:10563000020700000000001C2241414141414D533E
:10564000321C60000000003F4242423E1212222201
:1056500042C700000000007C424202041820404281
:10566000423E00000000007F4908080808080808BA
:10567000081C0000000000E742424242424242420F
:10568000423C0000000000E7424222242414141887
:10569000080800000000006B494949495555362269
:1056A00022220000000000E74224241818182424B5
:1056B00042E70000000000772222141408080808BE
:1056C000081C00000000007E212010100804044285
:1056D000423F000000780808080808080808080881
:1056E00008087800000002020404080808101020CE
:1056F00020204040001E101010101010101010102C
:1057000010101E00003844000000000000000000DF
:105710000000000000000000000000000000000089
:10572000000000FF0006080000000000000000006C
:1057300000000000000000000000003C42784442ED
:1057400042FC0000000000030202021A264242420C
:10575000261A000000000000000000384402020287
:10576000443800000000006040404078444242421B
:1057700064D80000000000000000003C427E0202ED
:10578000423C0000000000F08808087E0808080875
:10579000083E0000000000000000007C22221C02E5
:1057A0003C42423C000000030202023A46424242AE
:1057B00042E700000000000C0C00000E080808087A
:1057C000083E00000000003030000038202020207B
:1057D0002020221E0000000302020272120A16128A
:1057E000227700000000000E0808080808080808D2
:1057F000083E0000000000000000007F929292929C
:1058000092B70000000000000000003B4642424208
:1058100042E70000000000000000003C424242421B
:10582000423C0000000000000000001B26424242F3
:10583000221E02070000000000000078444242429D
:10584000447840E000000000000000774C040404AD
:10585000041F0000000000000000007C42023C40E9
:10586000423E0000000000000008083E080808084A
:105870000830000000000000000000634242424285
:1058800062DC000000000000000000E74224241455
:105890000808000000000000000000EB49495555D1
:1058A00022220000000000000000007624181818D2
:1058B000246E000000000000000000E742242414D1
:1058C00018080807000000000000007E22100808E9
:1058D000447E000000C02020202020102020202016
:1058E0002020C000101010101010101010101010F8
:1058F000101010100006080808080810080808080A
:10590000080806000C32C200000000000000000081
:105910000000000000000000000000000000000087
:105920000000000000000000000000000000000077
:105930000000000000000000000000000000000067
:105940000000000000000000000000000000000057
:105950000000000000000000000000000000C00186
:10596000C001C001C001C001C001C00180008000B1
:1059700080008000800080008000000000000000A7
:1059800000008001C003C00380010000000000008F
:1059900000000000000000000000E01CE01CF01E01
:1059A000700E380718030801840000000000000092
:1059B00000000000000000000000000000000000E7
:1059C00000000000000000000000000000000000D7
:1059D00000000000000000000000000000000000C7
:1059E00020102010201020102010FE7FFE7F1008B5
:1059F000100810081008100810081008FE7FFE7F1D
:105A0000080408040804080408040000000000005A
:105A10000000000000000000000000000001000184
:105A2000C007601910311831183918393801700160
:105A3000E001C0038007000F001D003900311C3158
:105A40001C310C310C11180DE007000100010001A0
:105A50000000000000000000000000000000000046
:105A60001C1036186308630C63046304630263024A
:105A70006301361D9C37802280634063406320634E
:105A80002063306310221836081C0000000000005C
:105A90000000000000000000000000000000000006
:105AA000F00098018C018C018C018C018C00CC00E1
:105AB0007800183E1C083608320863046304C304E7
:105AC000C303834306438E26781C000000000000B9
:105AD000000000000000000000001C003C003C0032
