:020000040800F2
:10000000C8210020A1010008FB2F0008B52C000822
:10001000F92F000803040008834C000800000000CA
:100020000000000000000000000000002542000861
:10003000BD040008000000006D31000827420008E0
:10004000BB010008BB010008BB010008BB010008A0
:10005000BB010008BB010008BB010008BB01000890
:10006000BB010008BB010008BB010008BB01000880
:10007000BB010008BB010008BB0100081D0400080B
:10008000BB010008BB010008BB010008BB01000860
:10009000BB010008BB010008BB010008BB01000850
:1000A000BB010008BB010008BB010008BB01000840
:1000B000BB010008D1420008BB010008BB010008D9
:1000C000BB010008BB010008BB010008BB01000820
:1000D000CD3B0008BB010008BB0100082D4500080E
:1000E000BB010008BB010008BB010008BB01000800
:1000F000BB010008BB010008BB010008BB010008F0
:10010000BB010008A1310008BB010008BB010008C9
:10011000BB010008BB010008BB010008BB010008CF
:10012000BB010008BB010008BB010008290400084E
:10013000BB010008BB010008BB010008BB010008AF
:10014000BB010008BB010008BB010008FD2F00082F
:10015000BB01000835040008BB010008BB01000812
:10016000BB010008BB010008BB010008BB0100087F
:10017000BB010008BB010008BB0100080000000033
:10018000BB010008BB010008DFF810D000F092F8B6
:1001900000480047695D0008AFF30080C8210020D7
:1001A0000648804706480047FEE7FEE7FEE7FEE711
:1001B000FEE7FEE7FEE7FEE7FEE7FEE7C1420008D6
:1001C000890100082DE9F05F0546002092469B4614
:1001D00088460646814640241BE02846414647465D
:1001E000224600F057F853465A46C01A914110D3A0
:1001F00011461846224600F03EF82D1A67EB01081A
:100200004F4622460120002100F035F817EB000987
:100210004E41201EA4F10104DFDC484631462A4647
:100220004346BDE8F09FD2B201E000F8012B491E21
:10023000FBD270470022F6E710B513460A46044683
:100240001946FFF7F0FF204610BD30B50B460146BA
:1002500000202022012409E021FA02F59D4205D365
:1002600003FA02F5491B04FA02F52844151EA2F10F
:100270000102F1DC30BD202A04DB203A00FA02F151
:10028000002070479140C2F1200320FA03F3194384
:1002900090407047202A04DB203A21FA02F0002126
:1002A000704721FA02F3D040C2F120029140084386
:1002B00019467047064C074D06E0E06840F0010320
:1002C00094E8070098471034AC42F6D3FFF760FF7C
:1002D000186C0008386C000870B58C1810F8015BB9
:1002E00015F0070301D110F8013B2A1106D110F8CF
:1002F000012B03E010F8016B01F8016B5B1EF9D1D3
:100300002B0705D40023521E0DD401F8013BFAE758
:1003100010F8013BCB1A921C03E013F8015B01F8C3
:10032000015B521EF9D5A142D8D3002070BD000058
:1003300010B501240821034800F02CFB00B1002473
:10034000204610BD000C02407047000001460148E5
:1003500001F056BB600D002010B5044801F062FBAF
:10036000042801D0012010BD002010BD600D002028
:1003700010B500F015F8012801D0012010BD074884
:1003800001F06EFC040006D14FF40061034801F057
:10039000B5F900B10124204610BD0000600D002019
:1003A00008B501208DF80000FFF7C2FF10B900204A
:1003B0008DF800009DF8000008BD000038B500244D
:1003C000009313460A460146034801F045FD00B17B
:1003D0000124204638BD0000600D00207047000059
:1003E00038B50024009313460A460146034801F03D
:1003F0002BFE00B10124204638BD0000600D002016
:100400007047FEE7002804D0012801D0022801D05F
:1004100000207047004870479C150020014800F0FC
:1004200085B80000540F0020014800F07FB800009C
:10043000E40D0020014800F079B80000440E0020CF
:1004400001681823CAB2103AB2FBF3F2054B6FF3FE
:100450000901032A9B5CC36500D9091D8165084613
:10046000704700006663000810B5014600208B69E4
:100470008A6A4FF0C07453B1B3F5005F15D072B102
:10048000012A0CD0022A0AD0032A09D104E01AB1A9
:10049000012A06D0022A03D1C96AC90100D5012068
:1004A00010BDC96AA142FAD010BD002AF7D0012AB6
:1004B000F2D0022AF3D0032AF3D010BD704772B6EF
:1004C000FEE70022AFF3008030B50E4B0546012059
:1004D0005C7A002C14D1587A1C54587A03EB8000B3
:1004E00045605D7A03F108002A54587A421C5A721A
:1004F000303008703A2048702F208870CC7000206F
:1005000030BD00009015002090F83510022903D06E
:100510008021416501207047052180F83510006871
:10052000016821F001010160002070472DE9F843C6
:1005300004464FF00009CDF8009063484FF416517F
:10054000A56D0068B0FBF1F72E6894F85C200821D7
:1005500001FA02F030420FD02068026852070BD532
:10056000026822F00402026094F85C008140A960F5
:10057000606D40F00100606594F85C104FF0010878
:1005800008FA01F0304208D021684969090604D50B
:10059000A860606D40F00200606594F85C10042073
:1005A0008840304208D021680968890704D5A860CE
:1005B000606D40F00400606594F85C101020884085
:1005C000304218D021680968090714D5A86020684E
:1005D0000168490304D50068000308D5A16C07E051
:1005E0000168C90503D4016821F008010160216C8C
:1005F00009B12046884794F85C102020884030429A
:1006000031D021680968C9062DD5A86094F8350055
:1006100005282068016806D0490347D50068000313
:100620001DD4616C1CE021F0160101602068416955
:1006300021F080014161206C08B9A06C20B12068D4
:10064000016821F00801016094F85C103F208840A7
:10065000A86084F8358084F83490216D1FE0E16B48
:1006600009B120468847606D00282BD0606DC00717
:1006700014D0052084F835002068016821F00101BC
:1006800001600098401C0090B84203D820680068C0
:10069000C007F6D184F8358084F83490E16C0029E5
:1006A00010D001B02046BDE8F04308470168C905F5
:1006B000D5D4016821F01001016084F8358084F8F8
:1006C0003490CCE7BDE8F883100800202DE9F04114
:1006D000044600F069F905465CB1022084F8350053
:1006E000002684F834602068016821F0010101606F
:1006F0000DE00120BDE8F08100F056F9401B05280F
:1007000005D920206065032084F83500F2E72068D1
:100710000068C007F0D121680A6820480240D4E987
:1007200001031843D4E903352B4318436369184385
:10073000A3691843E3691843236A18431043626AA4
:10074000042A03D1D4E90B231A431043086020681C
:100750004069656A20F0070128460D4301270428F7
:100760000CD1A06A0543E06A40B12046FFF77CFE49
:1007700020B14020606584F83570BAE72068456193
:100780002046FFF75DFE94F85C203F219140816098
:10079000666584F835700020ACE700003F8010F0FB
:1007A00070B5044600F000F90546601C02D004480C
:1007B0000078044400F0F8F8401BA042FAD370BD62
:1007C000040800202DE9F84FDFF89C910022A9F1E0
:1007D000040B03274FF00F0C09F1040AABF1040ED0
:1007E00001250B6895402B40AB426ED10C7904F08B
:1007F0000304012C01D0022C15D18668540007FA9D
:1008000004F826EA0806D1F80C8008FA04F848EA49
:100810000608C0F808804468AC430D79C5F300159C
:100820009540254345600C79E443A40708D0C5688A
:10083000540007FA04F6B5438E68A6402E43C660FE
:100840000C7904F00304022C11D1D40800EB8406C7
:10085000356A5407E40E0CFA04F825EA0805D1F8C5
:10086000108008FA04F848EA0508C6F820800568F0
:10087000540007FA04F6B5430E7906F00306A640C5
:100880002E4306604C6814F4403F66D0374C256810
:1008900045F480452560246822F0030504F4804473
:1008A0000094334C05EB0408D8F808589407260F39
:1008B0000CFA06F4A5432F4CA04201D1002424E0F9
:1008C0002D4CA04202D101241FE046E02B4CA04257
:1008D00001D1022419E02A4CA04201D1032414E0E2
:1008E000284CA04201D104240FE0274CA04201D1A2
:1008F00005240AE0254CA04201D1062405E0244C41
:10090000A04201D1072400E00824B4402C43C8F8D9
:100910000848D9F800404D464E689C43F60200D581
:100920001C432C60DAF8004055464E689C43B602E2
:1009300000D51C432C60DBF800405D464E689C43AC
:10094000B60300D51C432C60DEF8004075464E68A7
:100950009C43F60300D51C432C60521C102AFFF464
:100960003FAFBDE8F88F0000083C0140443802402A
:100970000030014000000240000402400008024034
:10098000000C024000100240001402400018024017
:10099000001C02400069084000D0012070470AB1E5
:1009A000816170470904FBE70148806870470000D7
:1009B0000408002002488168027811448160704771
:1009C000040800200B4810B5016841F40071016073
:1009D000016841F480610160016841F48071016047
:1009E000032000F06FF80F2000F006F800F024F864
:1009F000002010BD003C024070B50D4D04464FF480
:100A00007A712878B1FBF0F00A490968B1FBF0F07F
:100A100001F007FF48B9102C07D200222146501ED2
:100A200000F030F800206C6070BD012070BD000047
:100A300004080020100800200A4808B5016841F4A5
:100A400080410160006800F4804000900548001F6C
:100A5000016841F080510160006800F08050009012
:100A600008BD000044380240002809DB00F01F02E6
:100A7000012191404009800000F1E020C0F8001100
:100A800070470000F0B40E4B1B68C3F30223C3F1A0
:100A90000704042C00D904241D1D072D01D20023B6
:100AA00000E0DB1E012606FA04F56D1E0D409D4098
:100AB0009E40761E164045EA0601F0BC04F0F2B8EE
:100AC0000CED00E0064A00F0070110684FF6FF0346
:100AD000184040EA012003490843106070470000B5
:100AE0000CED00E00000FA05704770477047704752
:100AF00070470A0601F00F0101EBC10100EB810113
:100B000001D5143101E001F51571006803F07ABEDA
:100B10002DE9F84F05680446284603F008FF002831
:100B20007DD1206803F02FFF002878D0D5F8080881
:100B3000C0F30D20C4F8D404206803F024FF80071C
:100B400004D52068416901F002014161206803F089
:100B50001AFFC10604F29C40009034D520688169D8
:100B600021F0100181612F6A07F00F0000EBC00037
:100B700004EB8006C7F3434006F51576022802D041
:100B8000062811D01AE047F6F070074216D0C7F3D6
:100B90000A1217462846F16803F0F9FEF068384457
:100BA000F0607069384408E008222846009903F094
:100BB000EEFE7069C7F30A1108447061206881690C
:100BC00041F010018161206803F0DDFE00034FF069
:100BD000010B7AD50026206803F0B4FE8046DFF8CA
:100BE00078A46FE05FEAC87069D0F1B2206803F0C2
:100BF000C2FE0746C00707D005EB4611C1F808BB87
:100C00003146204602F000FA380722D505EB46119E
:100C10000820C1F8080B2068D0F8409000E018E2E6
:100C200000EB4610D0F8082BD14505D9110403D5A7
:100C30004FF40041C0F8081B204600F0BCFAD14533
:100C400007D9A079012804D120680121009A03F076
:100C5000ADFDF80604D505EB46111020C1F8080BD0
:100C6000B8071DD56869000605D5D5F8040840F415
:100C70008061C5F8041806EBC60004EB800090F80C
:100C8000571200F51570012905D10021C170F1B28C
:100C9000204600F0E4F905EB46110220C1F8080BEC
:100CA000B80604D505EB46102021C0F8081BB8048F
:100CB00005D505EB46104FF40051C0F8081B4FEA6C
:100CC0005808761CB8F1000F8CD1206803F05BFE49
:100CD00040036DD5206803F02EFE8046002664E0B8
:100CE0005FEAC8705ED0F1B2206803F032FE0746BA
:100CF000C00723D006F00F010BFA01F0D5F8341825
:100D00008143C5F8341805EB4610C0F808B9A0793E
:100D100001280FD106EBC60004EB8000D0E90721C3
:100D20001144016236B9606A20B920680121009A35
:100D300003F03CFDF1B22046FFF7D8FE380704D59A
:100D400005EB46110820C1F80809F80604D505EBA3
:100D500046111020C1F80809780604D505EB4610A5
:100D60004021C0F80819B80716D53146284603F0C7
:100D7000B3FD06EBC60004EB8000C17D14300129F1
:100D800005D10021C170F1B2204600F067F905EBF2
:100D900046110220C1F80809380603D5314620461D
:100DA00002F098F94FEA5808761CB8F1000F97D175
:100DB000206803F0E8FD002811DAD5F8040820F0D7
:100DC0000101C5F8041894F8CC0401282BD0204662
:100DD00000F0EFF92068416901F0004141612068AD
:100DE00003F0D1FD00050BD5D5F80808C00702D0E7
:100DF000204600F0E1F92068416901F40061416199
:100E0000206803F0C0FDC00467D5D5F8040820F0C1
:100E10000101C5F804181021206803F05DFD0021D0
:100E20004FF67F3220E0002084F8CC0401462046B3
:100E3000FFF75AFECEE705EB4110C0F80829D0F8BD
:100E4000003923F40013C0F80039C0F8082BD0F89B
:100E5000003B23F40013C0F8003BD0F8003B43F004
:100E60000063C0F8003B491C20798842E3D8D5F8DC
:100E70001C0840F00111C5F81C18E07B002828462A
:100E80000DD0D0F8840840F00B01C5F88418D5F8CF
:100E9000440840F00B012846C5F844180DE0D0F88E
:100EA000140842F22B010843C5F81408D5F81008BD
:100EB00040F00B012846C5F81018D0F8000820F4BF
:100EC000FE61C5F80018A1792068009A03F06EFC55
:100ED0002068416901F480514161206803F053FDAD
:100EE000800415D5206803F027FB206803F012FD6D
:100EF000E07100F0FDF90146E279206803F094FD0D
:100F0000204600F055F92068416901F40051416123
:100F1000206803F038FD000707D5204600F04AF9A5
:100F20002068416901F008014161206803F02BFD50
:100F3000000615D5A86920F08001A96101260CE002
:100F400006EBC60004EB800090F85702012803D19D
:100F5000F1B22046FFF7CDFD761C2079B042EFD8E4
:100F6000206803F010FDC0021FD501265F4614E083
:100F700005EB4610D0F8001906EBC60004EB800024
:100F8000027E012A08D1002906DAC775F0B240F0C6
:100F900080012046FFF7ADFD761C2079B042E7D8EE
:100FA0002068416901F480114161206803F0EBFC85
:100FB000800231D501205B4626E005EB4011D1F8D7
:100FC000001B00EBC00204EB820292F85862012E73
:100FD00019D1002917DA94F8D46401F4803106F0AD
:100FE0000106B1420FD182F85732A96941F080025F
:100FF000AA616969090606D4D5F8040840F40070AE
:10100000C5F8040803E0401C21798142D5D8206846
:10101000416901F400114161206803F0B4FC400013
:1010200007D52046FFF761FD2068416901F0804146
:101030004161206803F0A7FC40070AD52068456895
:10104000680702D52046FFF753FD20684168294311
:101050004160BDE8F88F00000A30544F7047704778
:10106000F8B5040005D094F895042668002510B161
:1010700006E00120F8BD84F89454204600F056F8AC
:10108000032084F89504B6F1A04F00D1A571206823
:1010900003F086FB207C8DF8000094E80F0003F03D
:1010A00059FA0226B0BB0021206803F08FFC88BBF0
:1010B000002101270CE001EBC10004EB8000477523
:1010C0000175C1850576C5610562491CC9B24562D5
:1010D00020798842EFD8002111E001EBC10004EB38
:1010E000800080F8555280F8541280F85852C0F8A9
:1010F0005C52C0F86052491CC9B2C0F864522079F1
:101100008842EAD8207C8DF8000094E80F0003F0B4
:101110008FFA10B184F89564ABE7657484F8957420
:10112000206803F077FA0020F8BD000010B586B003
:10113000044614216846FFF77DF82068B0F1A04FFF
:101140002FD119480021026842F0010202600068B4
:1011500000F0010005904FF4C05000900220CDE94E
:101160000101032003900A20049069460F48FFF70D
:1011700029FB0D48001D016841F0800101600A480B
:101180001430016841F4804101600068002200F4DD
:101190008040059011464320FFF774FC4320FFF781
:1011A00063FC06B010BD0000303802400000024071
:1011B0007047704770477047704700002DE9F0474F
:1011C0000D46040065D0DFF81491D9F80000EFB2A5
:1011D00000F00700A84207D289F80070D9F8000093
:1011E00000F00700A84254D120683D4E810712D577
:1011F000400703D5306840F4E050306020780007A5
:1012000003D5306840F4604030603068A16820F059
:10121000F000084330602078C0072DD03049606866
:101220000839012812D0022813D0032811D00968E8
:10123000890700292DDA316821F00301014331606B
:10124000FFF7B2FB804641F2883A0EE00968890355
:10125000EFE709688901ECE7FFF7A6FBA0EB0801BF
:10126000514502D90320BDE8F0873068616800F07D
:101270000C00B0EB810FEFD1D9F80010484601F017
:101280000701A94207D90770006800F00700A842CB
:1012900001D00120E7E72078400705D53068E168F4
:1012A00020F4E050084330602078000706D530680D
:1012B000216920F4604040EAC100306000F03EF84F
:1012C0003168084AC1F30311515CC84006490860FF
:1012D00006480068FFF790FB0020C4E7003C02408E
:1012E000083802406E63000810080020080800203B
:1012F00001480068704700001008002004480549B4
:1013000000680968044AC1F38221515CC8407047F3
:1013100010080020083802407E6300080448054990
:1013200000680968044AC1F34231515CC840704703
:1013300010080020083802407E630008154810B5E8
:10134000006810F00C01144813D0431004290FD08A
:1013500008290ED10F4C241F216801F03F0221689B
:10136000490207D52068C0F38810A0FB030106E0FE
:10137000184610BD2168C1F38811A1FB00010023AC
:10138000FEF720FF2168C1F30141491C4900B0FB71
:10139000F1F010BD083802400024F4002DE9F84FA8
:1013A000040075D02078DFF838A3C007AAF104053F
:1013B00048D00AF104000168C1F38101012908D075
:1013C0000068C0F3810002280AD1DAF80000400268
:1013D00006D52868800335D560680028E1D031E063
:1013E0006068B0F5803F10D0B0F5A02F286810D00D
:1013F00020F480302860286820F48020286060680D
:10140000A0B1FFF7D1FA06460CE0286840F480301E
:10141000F4E740F480202860F7E7FFF7C5FA801B67
:10142000642871D828688003F7D50BE0FFF7BCFA71
:10143000064604E0FFF7B8FA801B6428F1D8286854
:101440008003F7D42078DFF89C9280074FF0000BE0
:101450003DD5A348001D016811F00C0F08D00068AD
:10146000C0F3810002280AD1DAF80000400206D455
:101470002868800715D5E068012809D111E0E068E7
:10148000B8B10120C9F80000FFF78EFA064605E062
:1014900022E1FFF789FA801B0228C2D8286880075A
:1014A000F7D52868216920F0F80040EAC1002860DB
:1014B0000DE0C9F800B0FFF777FA064604E0FFF741
:1014C00073FA801B02281FD828688007F7D4207879
:1014D000000722D5824F84486169703771B10121BC
:1014E0000160FFF761FA064604E0FFF75DFA801B32
:1014F000022809D838688007F7D50EE0C0F800B098
:10150000FFF752FA064605E082E0FFF74DFA801B2E
:1015100002287DD838688007F7D42078400765D541
:101520006F484FF000083C300068C0000BD46C4896
:101530003C30016841F08051016000684FF00108C3
:1015400000F080500090694F3868C0050FD43868AB
:1015500040F480703860FFF727FA064604E0FFF792
:1015600023FA801B022853D83868C005F7D55C4F92
:10157000A0686C3701280FD00528386810D020F0FB
:1015800001003860386820F004003860A068B0B10D
:10159000FFF70AFA06460EE0386840F00100F4E76B
:1015A00040F004003860F7E7FFF7FEF9811B41F2D5
:1015B0008830814263D838688007F5D50DE0FFF7A1
:1015C000F3F9064606E0FFF7EFF9811B41F2883098
:1015D000814254D838688007F5D4B8F1000F05D09F
:1015E0003F483C30016821F080510160A069B8B3E8
:1015F0003B49091D0968C1F38101022946D002282F
:10160000584606D0C9F86000FFF7CEF9044639E025
:1016100035E04F46C9F86000FFF7C6F9064604E01A
:10162000FFF7C2F9801B022829D828688001F7D467
:10163000D4E907010843A16A2D4A490802EB014198
:10164000626A41EA8211084394F82C1040EA016171
:10165000CAF8001001203866FFF7A6F9044605E035
:101660003CE0FFF7A1F9001B022808D82868800198
:10167000F7D533E0FFF798F9001B022802D90320C1
:10168000BDE8F88F28688001F4D427E00128F7D05E
:10169000DAF80000E26900F4800191421CD1226A6C
:1016A00000F03F01914217D147F6C071626A0140D4
:1016B000B1EB821F10D1A26A4FF0FF3300F440312A
:1016C00003EB5202B1EB024F06D194F82C1000F05C
:1016D0007060B0EB016F01D00120D1E70020CFE7AF
:1016E0000438024000004742800E4742007000402C
:1016F0000000FFFF10B5FEF727FE10BD2DE9FE43E9
:101700000446002603200D4684F83400606C03284C
:101710005ED0B5F5805F5BD04FF4006700204FF0DE
:101720008068BD421FD18146009001900021206851
:1017300001F033FD800113D46946204602F0AAF877
:1017400007000DD10198400334D5B4F850000104CE
:10175000206801F059FD070002D10221206823E032
:10176000A06B384328E01DB1A06B40F0006023E07F
:101770008146009001900021206801F00EFD80015B
:10178000EED46946204602F085F80700E8D10198BA
:10179000C0030FD5B4F850000104206801F034FDF7
:1017A0000700DDD10021206801F078FD0700D7D1C6
:1017B0004F46D5E74746D3E7A063A06B144F4FF0E1
:1017C000010848B12068876384F8348001260EE060
:1017D000A06B40F08050EFE7211DD4E9050C0EC945
:1017E000CDE90050CDF808C0206801F0DFFC4FF4CF
:1017F0000071206801F03AFD28B121688F63A16B68
:101800000143A163012684F834803046BDE8FE839D
:10181000FF054000704750F8742F120E0A700268DE
:10182000120A4A8002784368120642EA13224A608A
:1018300002790A728268120E4A728268C3681202C2
:1018400042EA1362CA60C268C2F303520A74C268F1
:10185000C2F30B224A82007BC0F3460008750120C8
:101860004875002070470000F0B5426E920F0A7074
:10187000426EC2F383624A70426EC2F301628A70A2
:10188000426E120CCA70B0F86420120A0A7190F805
:1018900064204A71826E120DCA80826EC2F30342C6
:1018A0000A72B0F86820C2F3C0324A72B0F86820F9
:1018B000C2F380328A72B0F86820C2F34032CA7232
:1018C000B0F86820C2F300320A7300264E73436CEE
:1018D0004FF40075012463B1012B3AD002684749E7
:1018E0009163816B41F08051816380F83440012025
:1018F000F0BDB0F86820C36E9205120D42EA9372F3
:101900000A61C26EC2F3C2620A75C26EC2F302629B
:101910004A75C26EC2F342528A75C26EC2F38242E7
:10192000CA75C26EC2F3C2320A760B695B1C43658C
:101930000A7E02F00702921C934043650A7A02F085
:101940000F0704FA07F28265520A5343C0E91735BC
:101950000EE090F86820C36E9206920A42EA1342A3
:101960000A610A69521C93024365C0E91653056671
:1019700030F86C2FC2F3803201F8192F0288C2F3BD
:10198000C6124A70027802F07F028A704268D20F53
:10199000CA704268C2F341720A714268C2F382623D
:1019A0004A714268C2F383528A714268C2F340525C
:1019B000CA710E724268C2F300424A728288C2F350
:1019C000C0328A728288C2F38032CA728288C2F3BD
:1019D00040320A738288C2F300324A738288C2F3AB
:1019E00081228A738288C2F30122CA730079C0F30C
:1019F000460008744C740020F0BD0000FF05400054
:101A0000426C0A60826C4A60C26C8A60026DCA6075
:101A1000426D0A61826D4A61C26D8A61006EC86161
:101A20000020704738B5002504460095B0F85000F6
:101A30000104206801F015FD28B90021206801F09B
:101A4000ACFB0090284610B1A16B0143A163009844
:101A5000C0F3432038BD0000F8B5056B04460068AC
:101A6000416B09041BD5290719D5D4E90A56002E64
:101A700014D00027206801F0AFFB05F8010B010A24
:101A800005F8011B010C05F8021B000E361F7F1C18
:101A900005F8010C082FEDD3C4E90A56F8BD416BD7
:101AA0004FF00007C9054FF0010644D531028163AC
:101AB0002068C16B4CF23A329143C1632068C16A1D
:101AC00021F00101C16228071DD515F0220F09D0B0
:101AD000206801F0F7FC28B1A16B0143A163204607
:101AE000FFF798FE216840F23A50886384F834602A
:101AF0002763A80703D0204600F09EFAF8BD2046D1
:101B000000F09EFAF8BD2806FCD5A80609D5206885
:101B100001F0D8FC28B1A16B0143A1632046FFF777
:101B200079FEA807EED12068C16A21F00801C162E0
:101B300084F83460E3E7416B490423D5290721D5B4
:101B4000D4E90856002EDDD0002715F8010B0090CF
:101B500015F8011B361F40EA0120009015F8021B02
:101B600040EA0140009015F8011C40EA0160009035
:101B70006946206801F043FB7F1C082FE5D3C4E9C8
:101B80000856F8BD416B40F23A221142F9D0416B40
:101B9000890703D5A16B41F00201A163416B0907DD
:101BA00003D5A16B41F00801A163416B890603D500
:101BB000A16B41F02001A163416BC90603D5A16B64
:101BC00041F01001A163416B890503D5A16B41F080
:101BD0000801A16340F23A7181632068C16B40F251
:101BE0003A329143C163206801F06CFCA16B084359
:101BF000A063280706D584F8346027632046FFF7E2
:101C000009FEF8BD2806FCD515F0300F0CD0E16BAD
:101C100011480865E06BFEF777FC0028F1D0E06B17
:101C2000BDE8F84001F014BEA8070CD0216C0B48A9
:101C30000865206CFEF768FC0028E2D0206CBDE847
:101C4000F84001F0E3BDA76384F8346027632046C1
:101C5000FFF750FDF8BD0000513800080D380008AE
:101C600070B504000ED094F83400002518B925771B
:101C7000204600F04FF8032084F83400204600F09E
:101C80000BF808B1012070BDA5632563012084F81D
:101C90003400002070BD0000FEB50025044676200B
:101CA0000095CDE9015029460B460A46206801F00F
:101CB0007DFA40BB154E46F8A05F206801F088FA17
:101CC000012535600220FEF76BFD204601F0CAFEBB
:101CD00028B184F83450A16B0143A16313E020467E
:101CE00001F048FE0028F4D14FF40071206801F0A3
:101CF000BDFA002808D0226805499163A16B014311
:101D0000A16384F834500120FEBD0000008025420C
:101D1000FF0540002DE9F04F87B0044614216846C6
:101D2000FEF788FA4649206888427DD14548006818
:101D3000444940F400600860086800F400600590C1
:101D40004048143800683F4940F0040014390860E6
:101D5000086800F004000590086840F0080008607A
:101D6000086802AA00F0080005904FF4F8500090AF
:101D700002200190002003250C2682E861006946BC
:101D80003148FEF71FFD04270220CDE9007002AAAA
:101D9000002082E8610069462C48FEF713FD2D4EB5
:101DA0002B484FF00068C6E900084020B0600020D2
:101DB000F06038023061C6E90975800006F114014F
:101DC0004FF480494FF0200A4FF4003B81E8010EA8
:101DD000C5024702C6E90B573046FEF777FC08B14B
:101DE000FEF76DFBE663B4631A4E1948603648305F
:101DF000C6E900080020B060F0604FF480603061F8
:101E000006F11401800081E8010E04207062143193
:101E1000032081E8A1003046FEF758FC08B1FEF728
:101E20004EFB2664002200E007E011463120B46337
:101E3000FEF728FE3120FEF717FE07B0BDE8F08F51
:101E4000002C01404438024000080240000C0240CF
:101E500058640240E40D00202DE9FF4F87B016467C
:101E60000D460446DDF85080FEF79EFD82463DB1EA
:101E700094F83400012807D0A06B40F000500DE02A
:101E8000A06B40F0006009E00020A0630A99E26DB9
:101E90003144914204D9A06B40F00070A06388E007
:101EA000032184F834102168C862616C012900D0D4
:101EB00076024FF0FF3100910A994FF00109490273
:101EC000019102AA902102278346CDF8149082E85E
:101ED00082086946206801F04AF90A98012805D964
:101EE00027633146206801F030FA05E0C4F83090ED
:101EF0003146206801F041FA30B122684D499163C2
:101F0000A16B0143A16350E0019E1FE0406B000400
:101F100013D596B10027206801F05EF905F8010B92
:101F2000010A05F8011B010C05F8021B000E361F03
:101F30007F1C05F8010C082FEDD3FEF735FDA0EB53
:101F40000A01414522D2B8F1000F1FD02068416B31
:101F500040F22A321142D9D0416BC90509D50A99FC
:101F6000012906D9616C032903D001F0ABFA0028DE
:101F7000C3D12068416B090702D4416B89051AD58A
:101F80002C498163A06B40F0080051E0216829488A
:101F90008863A06B40F00040A06384F83490C4F8DC
:101FA00030B003200BB0BDE8F08F84F83490C4F853
:101FB00030B00120F6E7416B890705D51D498163E3
:101FC000A06B40F0020033E0416B89061CD5194933
:101FD0008163A06B40F020002AE001F0FDF805F8D5
:101FE000010B010A05F8011B010C05F8021B000E8C
:101FF00005F8010C361FFEF7D7FCA0EB0A0141459E
:1020000010D2B8F1000F0DD02068416B890201D5C4
:10201000002EE2D1216840F23A50886384F834906F
:102020000020BFE7216803488863A06B40F00040B0
:10203000A063BAE7FF05400010B5FEF7CFF910BD69
:1020400010B5FEF7DDF910BD2DE9F04F89B09B46C4
:1020500015460E460446FEF7A7FC07903EB194F8DD
:102060003400012807D0A06B40F000500DE0A06BB9
:1020700040F0006009E00021A163E26D05EB0B0078
:10208000904204D9A06B40F00070A06379E0032077
:1020900084F834002068C162606C012800D06D02B1
:1020A0004FF0FF3000904FEA4B204FF001090190B4
:1020B000CDE904199020CDE902018A4669462068DD
:1020C00001F055F8BBF1010F06D920202063294605
:1020D000206801F011FA05E01020206329462068ED
:1020E00001F022FA5FEA000806D0216841488863BF
:1020F000A06B40EA080073E0019F26E0406B4004BB
:102100001BD5D7B1002516F8010B069016F8011B58
:102110003F1F40EA0120069016F8021B40EA0140EA
:10212000069016F8011C40EA0160069006A9206896
:1021300001F065F86D1C082DE5D3FEF735FC079915
:10214000411A1298814220D2F8B12068416B40F2C6
:102150001A321142D2D0416BC90523D5BBF1010F10
:1021600020D9616C03291DD001F0ACF9D0B12268EF
:1021700020499163A16B0143A16384F83490C4F8B2
:1021800030A0012009B0BDE8F08F216819488863AC
:10219000A06B40EA0800A06384F83490C4F830A033
:1021A0000320EFE72068416B090702D4416B8905E2
:1021B00005D510498163A06B40F0080010E0416B29
:1021C000890705D50B498163A06B40F0020007E049
:1021D000416BC90606D507498163A06B40F010002A
:1021E000A063CAE740F23A51816384F8349000203A
:1021F000C8E70000FF0540007047000038B50168DF
:1022000004464A688868C043430606D5C30704D11C
:10221000D3435B0601D4216C05E0830708D4D34384
:102220001B0605D4616C01B02046BDE8304008476C
:10223000830603D5430601D5C30551D4D3439B067A
:102240004ED443060AD494F85130032B49D0636D21
:1022500043F004036365CB688B680093830609D45D
:10226000636D43F0010363658B6800930B6823F093
:1022700040030B60C00506D4606D40F00800606547
:10228000206880680090606D002829D0206841682F
:1022900021F0E0014160012084F85100900701D451
:1022A000D00722D02068416821F003014160114D20
:1022B000E06C40B10565E06CFEF726F918B1606D81
:1022C00040F040006065A06C002809D00565A06C56
:1022D000FEF71AF9002803D0606D40F040006065F9
:1022E00038BDC8688868009038BD2046FFF784FF75
:1022F00038BD0000AD3D000870B5040009D0606A2B
:10230000002540B125616561A56294F8510040B196
:102310000CE0012070BD6068B0F5827FF4D0E5610B
:10232000F2E784F85050204600F044F8022084F888
:1023300051002068016821F040010160A0882189D6
:1023400000F4827001F404410843A18901F40061A2
:102350000843217C01F002010843217D01F00101C5
:102360000843218B01F400710843217F01F03801FB
:10237000084394F8201001F080010843218D01F4F6
:102380000051084321680860A069042101EA104057
:1023900094F8241001F01001084321684860206877
:1023A000C16921F40061C1616565012084F85100B3
:1023B000002070BD2DE9F04387B006461421684621
:1023C000FDF738FF3A4B316800253A4802240327CD
:1023D000052299421CD1374914310B6843F48053CC
:1023E0000B60096801F480510591016841F0010119
:1023F00001600068049200F001000590E0208DE883
:10240000B10069462C48FEF7DDF907B0BDE8F0835E
:102410002A4B9942F9D1274910310B6843F4804384
:102420000B60096801F480410591016841F00401E5
:102430000160016801F004010591016841F00201A9
:1024400001600068904600F0020005900C208DE8C5
:10245000B10169461A48FEF7B5F94FF4806901AB3E
:10246000CDF8009083E8B00169461648FEF7AAF956
:10247000164C1548E4E802054020A4E82102800239
:1024800044F81459A561C4E9075010486562FEF785
:102490001DF908B1FEF713F8B46400221146242098
:1024A000A663FEF7EFFA2420FEF7DEFAADE70000A0
:1024B0000030014030380240000002400038004047
:1024C000000802400004024070600240540F0020E7
:1024D0002DE9F84F044690F8500000261D4690461E
:1024E0008A4601280ED04FF0010984F85090FEF77B
:1024F0005BFA074694F851004146B346012804D0E0
:10250000022696E00220BDE8F88FBAF1000F6ED0E7
:10251000B8F1000F6BD0032084F85100C4F854B018
:10252000C4F830A0A4F83480A4F83680C4F838B0D9
:10253000A4F83CB0A4F83EB0C4F844B0C4F840B02D
:10254000A068B0F5004F09D12068026822F040026F
:1025500002602068026842F48042026020680268DB
:10256000520603D4026842F040020260E068B0F50F
:10257000006F606803D038B3012925D042E008B16C
:1025800001291BD1206B21680088C86006E0206803
:102590008168890709D5216B0988C160206B801C7F
:1025A0002063E08E401EE08608E0FEF7FDF9C01BC8
:1025B000A84202D3681C01D004E01DB1E08E0028BF
:1025C000E5D122E0032632E0206B21680078087311
:1025D00006E02068816889070AD5216B09780173B4
:1025E000206B401C2063E08E401EE0860AE01CE069
:1025F000FEF7DAF9C01BA84202D3681C02D0E1E75B
:10260000002DDFD0E08E0028E3D13A46294620464F
:1026100001F0D4FB08B120206065A06818B92068DB
:10262000C16880680090606D08B1012601E084F8FF
:10263000519084F850B0304665E72DE9FF4F81B0E6
:10264000044690F85000012500270E9E98469346B8
:1026500001280FD0AA4684F850A0FEF7A5F994F8F7
:10266000511081466268404601290DD0B2F5827F43
:1026700008D103E0022005B0BDE8F08FA2680AB9D6
:10268000042901D00227C7E00299002968D0BBF1D4
:10269000000FFBD0B8F1000FF8D094F851100429C6
:1026A00002D0052184F8511000216165C4F838B0CA
:1026B000A4F83E80A4F83C80029A2263A4F83680F5
:1026C000A4F834802164616421680A68520603D446
:1026D0000A6842F040020A60E168B1F5006F616883
:1026E00003D0E1B3012843D07AE009B1012838D101
:1026F000206B21680088C860206B801C2063E08EFE
:10270000401EE0862DE02068816889070DD5E18EA6
:1027100059B1012D09D1216B0988C160206B801C42
:102720002063E08E401EE086002520688168C9078E
:102730000BD0E18F49B1C068A16B0880A06B801CF1
:10274000A063E08F401EE0870125FEF72DF9A0EB86
:102750000900B04205D3701C03D003275AE007E0FC
:1027600056E0E08E0028CED1E08F0028CBD13DE0AE
:10277000206B216800780873206B401C2063E08E7A
:10278000401EE0862CE02068816889070DD5E18E27
:1027900059B1012D09D1216B09780173206B401CBF
:1027A0002063E08E401EE086002520688168C9070E
:1027B0000BD0E18F49B1C068A16B0870A06B401CC1
:1027C000A063E08F401EE0870125FEF7EDF8A0EB47
:1027D0000900B04202D3701C02D0BEE7002EBCD06C
:1027E000E08E0028CFD1E08F0028CCD14A46314678
:1027F000204601F0E3FA18B10127202060650BE0C4
:10280000A06818B92068C16880680090606D08B140
:10281000012701E084F851A0002084F850003846D8
:1028200029E710B5401EB0F1807F01D3012010BD13
:102830004FF0E02460610F21601702F033FA0020AE
:10284000A06107202061002010BD70477047000084
:1028500070B590F83C20012A32D0012580F83C5018
:10286000022280F83D2002685368946823F07006C5
:102870000B6833435360134B02689A4214D0B2F191
:10288000804F11D0104B9A420ED0104B9A420BD071
:102890000F4B9A4208D00F4B9A4205D00E4B9A42EA
:1028A00002D00E4B9A4204D1496824F080031943A8
:1028B000916080F83D50002180F83C10084670BDC2
:1028C000022070BD000001400004004000080040EC
:1028D000000C00400004014000400140001800408E
:1028E00010B5040003D094F83D0010B107E00120BA
:1028F00010BD002084F83C00204600F01FF80220A4
:1029000084F83D00211D206801F0E8FC012084F8D6
:10291000460084F83E0084F83F0084F8400084F8C4
:10292000410084F8420084F8430084F8440084F8AD
:10293000450084F83D00002010BD000008B5006887
:102940000B49884212D10B48016841F00201016035
:102950000068002200F00200009011461D20FEF7E2
:1029600091F8BDE808401D20FEF77EB808BD0000C4
:10297000000400404038024070B5044690F83C0026
:102980000025012817D0012684F83C60022084F835
:102990003D002068826822F0770222F47F42826044
:1029A0000868502838D00DDC20284FD005DC90B3C3
:1029B000102811D14AE0022070BD302846D04028AE
:1029C0000AD13BE060282FD070280DD0B0F5805F91
:1029D00003D0B0F5005F12D0012584F83D600020DF
:1029E00084F83C00284670BDCB68D1E901212068FD
:1029F00001F0E0FC2068816841F0770109E0CB68D4
:102A0000D1E90121206801F0D5FC2068816841F4FA
:102A100080418160E1E719E0CA684968206801F0F7
:102A2000DBFC5021206806E0CA684968206801F094
:102A3000E4FC6021206801F0C7FCCEE7CA68496861
:102A4000206801F0C9FC40212068F4E722680146B3
:102A50001046F0E770472DE9F04104460068C6686B
:102A600005694FF00007A90713D5B10711D5F91E65
:102A7000016101202077206880698007204602D00C
:102A8000FFF7E8FF04E000F07EF8204600F07CF855
:102A90002777680716D5700714D521686FF00400F2
:102AA0000861022020772068806910F4407F20466A
:102AB00002D0FFF7CFFF04E000F065F8204600F0F9
:102AC00063F82777280715D5300713D521686FF0ED
:102AD00008000861042020772068C069800720462C
:102AE00002D0FFF7B7FF04E000F04DF8204600F0F9
:102AF0004BF82777E80616D5F00614D521686FF055
:102B000010000861082020772068C06910F4407F19
:102B1000204602D0FFF79EFF04E000F034F8204684
:102B200000F032F82777E80708D0F00706D02168D0
:102B30006FF001000861204600F027F8280608D54C
:102B4000300606D521686FF0800008612046FFF747
:102B50007CFE680608D5700606D521686FF0400037
:102B60000861204600F012F8A8060AD5B00608D57C
:102B700021686FF0200008612046BDE8F041FFF7B2
:102B800065BEBDE8F081704770477047704770B50B
:102B9000040004D094F84100002510B106E00120A3
:102BA00070BD84F84050204600F024F8242084F8BA
:102BB00041002068C16821F40051C160204601F045
:102BC0002FFC2068016921F490410161206841696E
:102BD00021F02A0141612068C16841F40051C160BF
:102BE0006564202084F8410084F842006563002079
:102BF00070BD000070B586B0044614216846FDF72C
:102C000019FB274E206800252649022203230724AA
:102C1000B0421CD123481430066846F01006066006
:102C2000006800F010000590086840F0010008609E
:102C30000868694600F00100059058028DE82500FB
:102C4000CDE903341848FDF7BDFD06B070BD174E41
:102C5000B042FAD113481030066846F48026066068
:102C6000006800F480200590086840F008000860C3
:102C70000868694600F0080005904FF440708DE840
:102C80002500CDE903340A48FDF79CFD00221146DA
:102C90002720FDF7F7FE2720FDF7E6FED5E7000029
:102CA000001001403038024000000240004800405F
:102CB000000C0240FEE70000154808B5016841F429
:102CC00080010160016801F480010091016841F414
:102CD000001101600068002200F40010009011460D
:102CE0000F20FDF7CFFE0F20FDF7BEFE002211469C
:102CF0003B20FDF7C7FE3B20FDF7B6FE0022114644
:102D00004520FDF7BFFEBDE808404520FDF7ACBEFD
:102D10003038024010B504490448FDF7D2FB02499F
:102D2000491E087010BD00001608002088630008C6
:102D30002DE9F04786B014216846FDF77BFA374845
:102D40000024016841F080010160016801F0800108
:102D50000591016841F004010160016801F004017E
:102D60000591016841F001010160016801F0010174
:102D70000591016841F002010160016801F0020162
:102D80000591016841F0080101600068DFF890805A
:102D900000F008000590002203214046FDF7FFFDEA
:102DA000DFF88090012210214846FDF7F8FDDFF89A
:102DB00078A04FF4C057002239465046FDF7EFFD8A
:102DC000032601250096CDE9015469464046039447
:102DD000FDF7F8FCCDE90054694648460294FDF73A
:102DE000F1FC1020CDE90005CDE9024669464846D0
:102DF000FDF7E8FC0097CDE901546946504603947D
:102E0000FDF7E0FC0820CDE900046946074802947C
:102E1000FDF7D8FC06B0BDE8F0870000303802406E
:102E2000000802400000024000040240000C024082
:102E3000084807494FF40062016000214160816049
:102E4000C0E9031241610A21816103F01FB900004A
:102E5000002C0140600D0020104810B50E490160A3
:102E60004FF48271416000218160C1604FF40072B3
:102E70000161C0E905120822C0E9072141628162AF
:102E80000A21C162FFF738FA002803D0BDE81040DC
:102E9000FDF715BB10BD000000300140A40E00205E
:102EA000104810B50E4901604FF482714160002155
:102EB0008160C1604FF400720161C0E9051208220F
:102EC000C0E90721416281620A21C162FFF714FA59
:102ED000002803D0BDE81040FDF7F1BA10BD000096
:102EE00000380040FC0E002010B586B000241748C2
:102EF000009401940294039404941349059401608E
:102F000041F61F41C0E9011442F21071C0E90314F7
:102F10008461FFF7E5FC08B1FDF7D1FA4FF480506A
:102F2000009069460948FFF727FD08B1FDF7C7FA89
:102F3000049404A905480594FFF78AFC002801D0F1
:102F4000FDF7BDFA06B010BD00040040B40F00202C
:102F50000C4810B50A4901604FF4E131416000218D
:102F600081600C22C160C0E904128161C161FFF778
:102F70000EFE002803D0BDE81040FDF7A0BA10BD3A
:102F800000100140FC0F00200C4810B50A490160F8
:102F90004FF4E1314160002181600C22C160C0E941
:102FA00004128161C161FFF7F2FD002803D0BDE882
:102FB0001040FDF784BA10BD0048004044100020C6
:102FC0000C4810B54FF0A0410160042101710222AC
:102FD000C2710021817142728172C1720173817369
:102FE000C173FEF73DF8002803D0BDE81040FDF79F
:102FF00066BA10BD8C100020FEE7FEE70148FDF721
:1030000087BD00008C1000202DE9F04106680546C0
:103010000C46306C06EB4411D1F8083B95F806C01D
:103020004FF400474FF0200E05F29C42BCF1010F17
:1030300008D0DFF898C0604538D1180431D5C1F800
:10304000087B3FE0224E5FEA037C04D5B04239D9C9
:103050001804F4D436E05FEA836C02D5C1F808EBBB
:1030600030E013F0280F2DD1B04201D91804E6D476
:1030700004EBC40005EB8000D1F8101BD0F87432CB
:10308000C1F31201591AC0F8681200F51570ACB9F5
:1030900003691BB1C2681144C1600FE001212868B7
:1030A0000AE098060AD5C1F808EB07E034B9D5F86C
:1030B000640218B90021304601F078FBE1B22846DD
:1030C000FDF715FD0020BDE8F08100000A31544FE6
:1030D0000A30544F2DE9F84F0E4601EBC60100EBC4
:1030E00081048146D0F80080D4E909101434884264
:1030F00002D90120BDE8F88F081AA168814200D2E8
:103100000846C01C870808EB461A15E0451AA06857
:10311000A84200D20546E81C870899F806000090EE
:10312000ABB2F2B24046E16801F0F2FCE06828443C
:10313000E060606928446061DAF8180980B2B8423A
:1031400005D3D4E90401814201D20028DED1D4E9BB
:103150000401884208D806F00F0101208840D8F801
:1031600034188143C8F834180020C3E770470A6850
:1031700042624A688262D1E902231A43D1E90431EA
:103180000B43C16A1A4321F0F7011143C1620020C9
:103190007047006800F003007047084440697047BA
:1031A0000148FEF759BC0000600D002070B50DF11C
:1031B000100C11439CE870002343194329434268D3
:1031C000314347F6FF639A430A434260002070BDD3
:1031D0000321016000207047D0F8800070470A6822
:1031E0008260D1E901231A43D1E903310B43C1685D
:1031F0001A436FF30B011143C16000207047096847
:10320000C0F880100020704710B585B004460091CA
:103210003721019140210020CDE9021008010490DE
:1032200069462046FFF7DBFF41F28832372120460E
:1032300000F092F905B010BD10B50B4A85B00446F8
:1032400011432920CDE90010402002900020039076
:10325000500D049069462046FFF7C1FF204600F05C
:1032600033FA05B010BD00000000108010B585B025
:10327000044600911021019140210020CDE9021067
:103280000801049069462046FFF7A9FF41F2883201
:103290001021204600F060F905B010BD10B585B0D2
:1032A000044600910621019140210020CDE9021041
:1032B0000801049069462046FFF791FF41F28832E9
:1032C0000621204600F048F905B010BD30B585B0A4
:1032D00000250446009501954FF480600295CDE9E4
:1032E000035069462046FFF77AFF0B484FF4FA5126
:1032F0000068B0FBF1F141F288304143491E02D22F
:103300004FF0004504E0606B0006F7D5C520A063D0
:1033100005B0284630BD00001008002010B585B06B
:103320004FF4D571009108210446019140210020FD
:10333000CDE902100801049069462046FFF74FFFCF
:10334000204600F027FA05B010BD10B585B0044640
:1033500000911221019140210020CDE902100801C5
:10336000049069462046FFF73AFF41F28832122165
:10337000204600F0F1F805B010BD10B585B0044648
:1033800000911121019140210020CDE90210080196
:10339000049069462046FFF722FF41F2883211214E
:1033A000204600F0D9F805B010BD10B585B0044630
:1033B000072140200092CDE90110002003904FF436
:1033C0008060049069462046FFF709FF41F2883289
:1033D0000721204600F0C0F805B010BD10B585B03B
:1033E000002102220446C020CDE90201CDE90012ED
:1033F0005002049069462046FFF7F1FE204600F097
:103400003BF905B010BD10B585B004460091092107
:103410000191C0210020CDE902104FF4806004909A
:1034200069462046FFF7DBFE204600F025F905B08F
:1034300010BD10B585B00021044640203322CDE9EF
:103440000201CDE900120001049069462046FFF711
:10345000C6FE41F288323321204600F07DF805B0E7
:1034600010BD10B585B0044600910D210191402199
:103470000020CDE902100801049069462046FFF7BC
:10348000AEFE41F288320D21204600F065F805B00D
:1034900010BD30B585B0054600230320CDE90030CE
:1034A0004020CDE9020300010C46049069462846FD
:1034B000FFF795FE22460321284600F027F905B0C4
:1034C00030BD000010B585B00021044640200C221C
:1034D000CDE90201CDE900120001049069462046C1
:1034E000FFF77DFE034A0C21204600F035F805B0B9
:1034F00010BD000000E1F50510B585B0044600914F
:103500001921019140210020CDE902100801049009
:1035100069462046FFF763FE41F2883219212046B2
:1035200000F01AF805B010BD10B585B00446009142
:103530001821019140210020CDE9021008010490DA
:1035400069462046FFF74BFE41F28832182120469B
:1035500000F002F805B010BD454B10B51B684FF4E4
:10356000FA54B3FBF4F353435B1E02D24FF0004016
:1035700010BD426B12F0450FF6D01205F4D4426B29
:10358000520703D504218163084610BD426BD20760
:1035900002D00121816305E0C52282630269D2B2B3
:1035A0008A4201D0012010BD0021FFF7F6FD31490C
:1035B000084201D1002010BD002802DA4FF000704F
:1035C00010BD410001D5402010BD810001D58020F3
:1035D00010BDC10002D54FF4807010BD010102D5AD
:1035E0004FF4007010BD410102D54FF4806010BD52
:1035F000C10102D54FF4006010BD010202D54FF4A5
:10360000805010BD410202D54FF4005010BD810220
:1036100002D54FF4804010BDC10202D54FF40040E6
:1036200010BD410302D54FF4003010BD810302D517
:103630004FF4802010BDC10302D54FF4002010BD0F
:10364000010402D54FF4801010BD410402D54FF49F
:10365000001010BD810402D54FF4800010BD00079A
:1036600002D54FF4000010BD4FF4803010BD0000B3
:103670001008002008E0FFFD12494FF4FA520968D3
:10368000B1FBF2F241F288314A43521E02D24FF0AE
:1036900000407047416B11F0450FF6D00905F4D496
:1036A000416B490703D50421816308467047416B8C
:1036B000C90703D00121816308467047C521816392
:1036C00000207047100800200F494FF4FA52096893
:1036D000B1FBF2F241F288314A43521E02D24FF05E
:1036E00000407047416B11F0450FF6D00905F4D446
:1036F000416B490703D50421816308467047C52102
:1037000081630020704700001008002030B5204B76
:103710004FF4FA541B68B3FBF4F441F288335C4372
:10372000641E02D24FF0004030BD436B13F0450FD2
:10373000F6D01B05F4D4436B5B0703D504218163EA
:10374000084630BD436BDB0702D00121816303E0F3
:103750000369DBB28B4201D0012030BDC5218163FA
:103760000021FFF71AFD10F4604F04D0410406D584
:103770004FF4005030BD000C1080002030BD00041C
:1037800002D54FF4805030BD4FF4803030BD000082
:103790001008002014494FF4FA520968B1FBF2F204
:1037A00041F288314A43521E02D24FF00040704726
:1037B000416B11F0450FF6D00905F4D4416B490770
:1037C00003D50421816308467047416BC90703D0C4
:1037D0000121816308467047416B490601D54021AC
:1037E00081630020704700001008002010B5064CCF
:1037F00001202070FCF7B0FD18B9207820F00100FE
:103800002070207810BD00001408002010B5846BD3
:1038100040F23A50216888632046FEF703F90121FF
:1038200084F8341000212163062801D0052805D131
:103830002068FFF747FEA16B0843A063A06B002838
:10384000204602D0FDF7E6FF10BDFDF753FF10BD87
:1038500010B5846B40F23A50216888632046FEF729
:10386000E1F8012184F8341000212163062801D0F9
:10387000052805D12068FFF725FEA16B0843A0634A
:10388000A06B0028204602D0FDF7C4FF10BDFDF755
:1038900031FF10BD2DE9F04788B00E460446FDF714
:1038A00083F80025074606950795A8460821206855
:1038B000FFF7DCFC00282DD1B4F85000010420688B
:1038C000FFF7A2FC002825D1401E4FF00809CDE9E2
:1038D000000930204FF0020ACDE9020A0120CDE9AB
:1038E000048069462068FFF742FC2068FFF7A1FDCD
:1038F00000280FD10DF118082068416B11F02A0F34
:103900000BD0416B090702D4416B890519D5C0F86A
:103910003890082008B0BDE8F087416B890205D5D2
:10392000FFF75AFC48F825006D1C02E0416B890442
:10393000E7D5FDF739F8C01B401CDDD14FF0004042
:10394000E8E7416B890703D5C0F838A00220E1E71A
:10395000416B890603D5202181630846DAE740F2EE
:103960003A518163079800BA3060069800BA7060D7
:103970000020CFE710B590B004460120ADF8380024
:103980002068FFF706FC002854D0606C032842D062
:103990002068FFF723FD00284AD100212068FFF7A7
:1039A000FCFB606704212068FFF7F7FBA067082194
:1039B0002068FFF7F2FBE0670C212068FFF7EDFBC2
:1039C000C4F88000606C032825D00EA92068FFF79A
:1039D00060FD00282CD1606C03281CD0BDF8380095
:1039E000206501042068FFF70EFD002820D100218A
:1039F0002068FFF7D2FB606604212068FFF7CDFB4B
:103A0000A06608212068FFF7C8FBE0660C2120684B
:103A1000FFF7C3FB206704212068FFF7BEFB000D02
:103A2000E06403A92046FDF71FFF30B14FF080503E
:103A300010B010BD4FF08060FAE7B4F850000023DA
:103A400002042068FFF7B1FC0028F1D104F1100056
:103A500007C88DE8070094E80F00FFF7A7FB0020D8
:103A6000E6E700002DE9F84F0026044600963746A9
:103A700035460068FFF72AFC002827D12068FFF7A9
:103A80004DFC4FF0805B4FF001094FF6FF7848B1D5
:103A9000A6642068FFF71AFC002817D1A06C012843
:103AA00002D01FE0C4F8489000212068FFF7ACFB6B
:103AB00058B917E000212068FFF7A6FB002805D1C0
:103AC00051462068FFF7B8FB10B15846BDE8F88FA3
:103AD00000212068FFF761FB0746C50F0098401CD6
:103AE000009001E0DFF824A00099414501D2002DAB
:103AF000E0D0414502D34FF08070E7E7780002D56F
:103B0000C4F8449000E066640020DFE7000010C1C4
:103B100070B5064C054601202070FCF729FC18B949
:103B20002846FFF763FE2070207870BD140800203F
:103B300010B5124888B014460078C00702D00320A0
:103B400008B010BDC1B1012905D0022908D0032950
:103B50000CD00420F4E76846FCF7F8FB06980AE06E
:103B60006846FCF7F3FB0798208005E06846FCF701
:103B7000EDFB0798400A20600020E1E714080020D0
:103B800070B51D46164608460124A31E2A46314636
:103B9000FCF714FC20B9FCF7DFFB0028FBD1002464
:103BA000204670BDFFF722BE70B51D46164608467A
:103BB0000124A31E2A463146FCF712FC20B9FCF76B
:103BC000CBFB0028FBD10024204670BD0148FEF746
:103BD00015BB0000FC0E002010B50A46018A4068A3
:103BE00089B2FCF7DCFE0020401C0A28FCDB10BD7B
:103BF0003EB504463CA000250068029029462046B8
:103C0000FFF7EAFF64200090042301AA02A92046DE
:103C100000F0A6F800284FF0010120461AD0FFF767
:103C2000DBFF9DF8050020729DF80610E1729DF8FB
:103C30000710002261728C2827D015DC372824D089
:103C40000BDC012821D004281FD01C281DD02028DF
:103C50001AD11AE0FFF7C0FF44E0622815D085288A
:103C600013D0892810D110E0C2280ED006DCA1287C
:103C70000BD0AD2809D0BF2806D106E0C82804D053
:103C8000D52802D0EF2800D022721139102921D274
:103C9000DFE801F0080A0D0F111315171A20202074
:103CA0002020201D022000E00420E06114E0082014
:103CB000FBE71020F9E72020F7E74020F5E7802018
:103CC000F3E74FF48070F0E74FF40070EDE74FF446
:103CD0008060EAE76272E0690001A0610003000A07
:103CE0000125606128463EBD9FFFFFFF2DE9F041A1
:103CF000984616460F4604004FF0000523D017B330
:103D00000EB3A07A01281ED020212046FCF792FA9B
:103D1000C4F81080C4E9007601212046FFF75CFF5B
:103D200002E00120FCF73CFDFCF73EFE1428F8D32E
:103D3000204600F021F830B12046FFF759FF05007A
:103D400001D00120A0722846BDE8F08110B5002402
:103D500092B20068FEF7BCFB00B90124204610BDFA
:103D600038B50024049D00959BB20068FEF765FC01
:103D700000B90124204638BD38B505460AA0012403
:103D80000068009000212846FFF726FF64230122E7
:103D900069462846FFF7DAFF00B9002401212846CA
:103DA000FFF71AFF204638BD0400000010B5806BF5
:103DB0000021C187C186FEF71FFA10BDF8B5154670
:103DC0000E460B46009204460122022100F02CF818
:103DD000A0B9134813490068B0FBF1F04FF47A71B1
:103DE000484300906068B0F5827F0DD133460022D1
:103DF00080212046009500F017F870B1606D40F00A
:103E0000200060650320F8BD009830B1401E00908E
:103E100020688068C0430006F6D50020F8BD000089
:103E20001008002000366E012DE9F8431E46914629
:103E300088460446089DFCF7B7FD401B351AFCF781
:103E4000B3FD074625480068C0F3CB30684338E02F
:103E5000701C37D0FCF7A8FDC01BA84203D215B1D7
:103E6000009860B32CE02068416821F0E0014160D7
:103E70006068B0F5827F0BD1A068B0F5004F02D02A
:103E8000B0F5806F04D12068016821F04001016025
:103E9000A06AB0F5005F09D12068016821F40051E3
:103EA00001602068016841F400510160012084F83C
:103EB0005100002084F850000320BDE8F88300255D
:103EC000401E00902068816838EA010004D000207C
:103ED0004845BDD10020F0E70120F9E71008002097
:103EE0000122D1020148FCF75ABD00000004024043
:103EF0002DE9FE4F1446DDE90DA90E46054698460C
:103F000000224FF480511848DDF830B0FCF747FD2F
:103F100008F0FF071DE015497819B1F906309842FD
:103F20000BDBC8F3072083199EB2B1F904100025FA
:103F30003044884210DA202A0AD0CDF800B0CDE90A
:103F400001A943463146284600F000F9781985B2A8
:103F5000641C2278002ADED103B00122BDE8F04FB4
:103F600011030148FCF71BBD000402402408002097
:103F70002DE9F04110F8015B044617E0207800F0CD
:103F800029F96078A41C00F0800730F0800604D086
:103F90003146204600F030F934443FB114F8010BAB
:103FA000FF2801D14FF4FA70FCF7FAFB6D1EEDB259
:103FB000E4D2BDE8F08100002DE9F84F0C46294914
:103FC0000746DDF82880B1F906001D4616468742EF
:103FD00045DAB1F904108C4241DABA19521E824214
:103FE00001DBC01B86B26019401E884201DB081B42
:103FF00085B2DFF874A04FF480590022494650463C
:10400000FCF7CDFC6019401EC3B2B819401EC2B205
:10401000E1B2F8B200F06EF84FEA18208DF8000017
:1040200001228DF8018011461048FCF7B8FC4FF0D2
:10403000FF370DE0344607E03B46022269460C4854
:10404000FEF746FA641EA4B2002CF5D16D1EADB287
:10405000002DEFD1012249465046FCF7A0FCBDE8F7
:10406000F88F0000240800200004024000080240ED
:10407000FC0E002008B5009004488188C0888BB2EF
:1040800082B200210846FFF797FF08BD24080020F0
:1040900070B5FEF74DFE144D4FF4805400222146BA
:1040A0002846FCF77CFC114E002202213046FCF72A
:1040B00076FC1420FCF774FB012202213046FCF749
:1040C0006EFC0B48FFF754FF09483B30FFF750FFE9
:1040D00007484830FFF74CFF21462846BDE87040AE
:1040E0000122FCF75CBC0000000402400008024012
:1040F00038640008F8B504461D4616460F462A20C7
:1041000000F068F80020009020460F4C61780844C9
:104110008DF8010070188DF803000421684600F046
:104120006BF82B2000F056F8A07839188DF80110A4
:1041300028448DF803000421684600F05DF82C2027
:1041400000F048F8F8BD0000240800200FB42DE965
:10415000FC5F4A1EC3F307273A44D4B2DAB2431EC7
:1041600001921A44D2B2C9B2C0B22346FFF7C2FFCD
:10417000002528E00E98203810FB075010990024E5
:1041800031F8106011984FEA102B00F0FF0A1298D6
:104190004FEA102900F0FF0811E006FA04F00004CD
:1041A00004D58DF800B08DF801A003E08DF80090E3
:1041B0008DF801800221684600F01EF8641C019809
:1041C000A042EAD86D1CAF42D4D8BDE8FC1F5DF810
:1041D00014FB000001B5002201210548FCF7DFFBBC
:1041E0004FF0FF33012269460248FEF771F908BD1E
:1041F00000080240FC0E002070B50C460546012266
:1042000011460648FCF7CBFBA2B22946BDE8704038
:104210004FF0FF330248FEF75BB900000008024090
:10422000FC0E00207047FCF7C5BB000030B593B012
:1042300030216846FBF7FEFF14210CA8FBF7FAFFBC
:104240001D480025016841F080510160006800F0C0
:10425000805011901948016841F480410160006864
:10426000022400F48040119001200090000401908D
:104270008001CDE9064004200890A820CDE909047A
:1042800007200B906846FDF789F808B172B6FEE783
:104290000CA90F2081E831004FF4A0500F904FF48B
:1042A0008050109005210CA8FCF788FF002801D051
:1042B00072B6FEE713B030BD4038024000700040D7
:1042C0000248016841F470010160704788ED00E028
:1042D0000148FEF7C0BB0000B40F0020F0B5026833
:1042E000294D2A4E2A4FDFF8ACC02B4B4FF0804EA1
:1042F000A84209D0704507D0B04205D0B84203D0DB
:10430000604501D0984203D122F070044A682243EC
:10431000A8421BD0704519D0B04217D0B84215D072
:10432000604513D0984211D01C4CA0420ED01C4CBA
:10433000A0420BD01B4CA04208D01B4CA04205D081
:104340001A4CA04202D01A4CA04203D122F440746D
:10435000CA6822434C6922F08002224302608A68C4
:10436000C2620A688262A84201D0984201D10969FA
:104370000163012141610169C90703D0016921F08D
:1043800001010161F0BD0000000001400004004097
:1043900000080040000C00400004014000400140C3
:1043A000004401400048014000180040001C00404B
:1043B0000020004010B5846842EA032224F47F44C0
:1043C0000A432243826010BD826822F070020A43D1
:1043D00042F007018160704710B5046A036A23F058
:1043E00001030362836923F0F00343EA021324F01C
:1043F0000A020A438361026210BD10B5036A046AAF
:1044000024F010040462846923F0A00324F47044AF
:1044100044EA023243EA01118261016210BD0000E8
:1044200070B5044600680169E26821F44051114307
:104430000161A1682069E269014360691043014399
:104440002068C26849F20C639A430A43C26020683C
:104450004169A26921F440711143416131492068E9
:10446000884202D03049884202D1FCF757FF01E070
:10447000FCF744FFE2690023192164253226B2F5D6
:10448000004F626828D0A0FB0101930F9200FBF758
:1044900099FE0146B0FBF5F06FF01802504301EBB6
:1044A000800006EB0010B0FBF5F000F0F002B1FB6D
:1044B000F5F002EB0012B1FBF5F06FF01803584372
:1044C00001EB800006EB0010B0FBF5F000F00F00F0
:1044D00021681044886070BDA0FB010192185B4107
:1044E000FBF770FE0146B0FBF5F00201B1FBF5F001
:1044F0006FF01803584301EB800006EBC000B0FBDF
:10450000F5F000F0F80002EB4002B1FBF5F0584383
:1045100001EB800006EBC000B0FBF5F000F00700F7
:10452000D6E700000010014000140140014800F0EF
:1045300002BB00009C150020D0F800196FF30A019F
:10454000C0F80019D0F8041841F48071C0F80418BC
:104550000020704770B50D460446C2F30720049949
:104560001E4601281BD0E06840F04000E060204675
:1045700000F032F8C6F307210029A16B26D021F400
:104580008031A163C5F30741012907D1A16841F03A
:104590000601A160A16841F02001A16070BDA06B7F
:1045A00020F48030A063E0680A4A1040E060E068D0
:1045B00020F44010E060C8B2012803D1E06840F464
:1045C0008010E060204600F007F8DBE741F480311E
:1045D000D7E70000BFFFBDFF08B500234FF07062B2
:1045E00000930099491C009191420CD8016900295F
:1045F000F7DA0093016941F0010101610099491C5A
:104600000091914201D9032008BD0169C907F5D184
:10461000002008BDD0F8001E21F00301C0F8001EE4
:10462000D0F8041841F00201C0F8041800207047C7
:104630002DE9F04F002604460F4692463046354697
:1046400004EB8001C1F80451401C0F28F8D3C3F3D8
:1046500007405FEA000B204613D0806B20F4001166
:10466000A163A06B40F40021A163C4F8005ECAF30B
:104670000720012817D0D4F80018204641F0030184
:1046800018E0D0F8040840F00201C4F80418A06B48
:1046900040F40011A163A06B20F40021A163A06B82
:1046A00020F48021E0E7380ED4F80018204601D02D
:1046B00041F00101C0F80018102100F00DF900B11F
:1046C0000126204600F0ECF800B10126C4F810588D
:1046D000C4F81458C4F81C5800204FF0006C4FF078
:1046E00090434FF67F39FAB214E004EB4011D1F851
:1046F0000089B8F1000F06DA10B1C1F8003904E002
:10470000C4F800C901E0C1F80059C1F81059C1F856
:104710000899401C8242E8D8002014E004EB4011C4
:10472000D1F8008BB8F1000F06DA10B1C1F8003BE8
:1047300004E0C4F800CB01E0C1F8005BC1F8105BF5
:10474000C1F8089B401C8242E8D8D4F8100820F435
:104750008071C4F81018A5616FF080406061C7F3E4
:10476000074018B9A06940F01000A061A0690A498B
:104770000843A061CAF3074018B1A06940F00800DF
:10478000A061BBF1010F03D1A06904490843A061F6
:104790003046BDE8F08F000000383C800400004047
:1047A000816821F0010181600020704710B5036C21
:1047B000134CA34203D9D0F8003B002B1EDB00238F
:1047C000C0F8103BD0F8103B43F40023C0F8103B76
:1047D000D0F8103B43F01803C0F8103BD0F8103B62
:1047E00043F0C043C0F8103B012907D1C0F8142B97
:1047F000D0F8001B41F08021C0F8001B002010BD44
:104800000A30544F38B5002200920B784D7800EBF7
:10481000431442F21073012D19D0D4F8005B002D1F
:104820003CDAD4F8005B45F00065C4F8005B0C7816
:1048300000EB4414D4F8005B45F08045C4F8005BFD
:10484000009C641C00949C4221D9012226E0D4F8EB
:104850000059002D22DAD4F8005945F00065C4F85B
:1048600000590C7800EB4414D4F8005945F0804509
:10487000C4F80059009C641C00949C42E5D80C7854
:1048800000EB4414D4F80049002CF3DB06E00C786C
:1048900000EB4414D4F8004B002CD1DB104638BD9B
:1048A00008B500234FF0706200930099491C0091F5
:1048B00091420AD801690029F7DA102100930161B9
:1048C0000099491C0091914201D9032008BD01695A
:1048D000C906F5D4002008BD18B500244FF0706358
:1048E0000094009A521C00929A420CD80269002A45
:1048F000F7DA202242EA8111009401610099491CF3
:104900000091994201D9032018BD01698906F5D4A7
:10491000002018BDD0F8080810F0060004D00228C6
:1049200003D0062801D00F2070470220704740694D
:1049300000F001007047D0F81818D0F81C080840A3
:1049400080B27047D0F81818D0F81C080840000C46
:10495000704710B5D0F81038D0F8342801F00F04A3
:1049600000EB4110E24002F00102D0F8080943EAEE
:10497000C212104010BD00EB4111D1F8081BD0F855
:10498000140808407047416980690840704730B595
:1049900003460846940802F00301002203F5805301
:1049A00003E01D6840F8045B521CA242F9D30029C1
:1049B0000BD01C680022D50024FA05F3491E521CB6
:1049C000090400F8013B090CF5D130BD70B505466E
:1049D000C068002420F0C040E860012901D079B10E
:1049E00020E0E86840F00050E8600A20FBF7D8FEBD
:1049F00068690A3410F0010F10D1C82CF5D30DE00E
:104A0000E86840F08040E8600A20FBF7C9FE68696A
:104A10000A3410F0010F01D0C82CF5D3C82C01D0F6
:104A2000002070BD012070BD022A3ED1264A274BCE
:104A30000A449A4201D20F2138E0254A254B0A4404
:104A40009A4201D20E2131E0234A244B0A449A4271
:104A500001D20D212AE0224A224B0A449A4201D275
:104A60000C2123E0204A214B0A449A4201D20B2117
:104A70001CE01F4A1F4B0A449A4201D20A2115E04A
:104A80001D4A1E4B0A449A420FD31D4A1D4B0A442D
:104A90009A4201D2082109E01B4A11441B4A914263
:104AA00001D2072102E0062100E00921C26822F4B8
:104AB0007052C260C2684FF4705303EA81210A4306
:104AC000C260002070470000405327FF00350C00F3
:104AD000401E1BFF40420F0000DC0BFF804F120006
:104AE000808CF9FE20D6130060B6E5FE60E3160068
:104AF00000D3CEFE40771B00C05BB3FEC091210007
:104B000000CA91FE20753800E05459FEE09C410037
:104B100010B5029C6CB9DB1C9C0800EB0230002332
:104B200000F5805003E051F8042B02605B1CA342A7
:104B3000F9D3002010BD2DE9F04104460068056856
:104B4000C6684169A9064FF0000715D54068E28A9A
:104B5000A168C0B28854E18A491C8AB2E282E18924
:104B60008A4200D3E782628B8A4202D2618B491C5F
:104B70006183616A01B18847280616D5300614D5CD
:104B8000A08A50B3012084F82800618A6068405CE4
:104B900021684860608A401C80B26082A189884296
:104BA00000D36782A08A401EA082680613D57006D3
:104BB00011D5A08AE0B1618A6068405C21684860D4
:104BC000608A401C80B26082A189884200D36782DB
:104BD000A08A401EA082BDE8F0812068C16821F053
:104BE0008001C1602068C16841F04001C160DCE71C
:104BF0002068C16821F04001C160206A00B180478F
:104C000084F82870E7E778B5002325E0012484F3D1
:104C10001088848AADF80040002484F310888489C9
:104C2000BDF80050AC421FD9CC5C068A4568AC5533
:104C3000012484F31088048A641CA4B20482858948
:104C4000AC4201D300240482848A641C8482002440
:104C500084F310885B1C9BB29342D7D30068C16871
:104C600041F08001C16078BDBDF80050AC42CDD1AB
:104C70000468E5682D06C9D4E56845F08005E5605F
:104C8000C4E7FEE70FB4054B10B503A9044A029828
:104C900000F028F810BC5DF814FB0000855B0008EC
:104CA000380800200907090E002804DB00F1E02085
:104CB00080F80014704700F00F0000F1E02080F849
:104CC000141D704702E008C8121F08C1002AFAD15B
:104CD00070477047002001E001C1121F002AFBD17C
:104CE000704700002DE9FF4F8BB09A460F460546EE
:104CF000002606E025280BD052460D9990476D1CE2
:104D0000761C28780028F5D10FB03046BDE8F08F2A
:104D10000024A0460122604900E0044315F8013F49
:104D2000203B02FA03F00842F7D128782E2817D149
:104D300015F8010F44F004042A280ED06FF02F025A
:104D40002878A0F1300109290AD808EB880102EB84
:104D5000410100EB01086D1CF2E757F8048B6D1C54
:104D6000287869283ED006DC0028CDD063280BD0F7
:104D7000642804D136E0732810D075284BD05246F1
:104D80000D999047761C85E017F8040B8DF800000C
:104D900000208DF80100E946012003E057F8049B4C
:104DA0004FF0FF3061074FF0000401D40AE0641CAB
:104DB00044450DDA8442FADB19F804100029F6D1D3
:104DC00006E0641C8442FCDB19F804100029F8D1C9
:104DD000264404E019F8010B52460D999047641ED1
:104DE000F8D257E001CF4FF00A0B002802DA404218
:104DF0002D2102E0210504D52B218DF8241001215D
:104E000003E0E10705D02021F7E70DF12009089123
:104E10000CE00021F9E701CF4FF00A0BF9E7594602
:104E2000FBF713FA01F1300209F8012D0028F6D141
:104E3000ADEB090000F1200B600701D44FF0010831
:104E4000D84502DDA8EB0B0000E0002080460024DE
:104E500006E009A85246005D0D999047641C761C37
:104E600008988442F5DB04E0302052460D999047C3
:104E7000761CB8F10001A8F10108F5DC05E019F88D
:104E8000010B52460D999047761CBBF10001ABF126
:104E9000010BF4DC6D1C34E70928010010B5044651
:104EA0000020E070401EE062204600F0CCFF08B118
:104EB000042010BD04F22E2000F050FFA0F52A417E
:104EC000553901D0032010BD94F83000E92805D0F1
:104ED000EB2814D194F83200902810D104F1660028
:104EE00000F031FF0749B1EB002F06D004F182003A
:104EF00000F029FF0449884201D1002010BD0220A2
:104F000010BD00000046415446415433F0B5002224
:104F1000144E154606EB02131C685CB10768BC42D0
:104F200009D15C688768BC4205D19B684469A3428B
:104F300004D000E00125521C022AEBD3022A01D042
:104F400069B904E04DB9022907D01220F0BD06EB83
:104F500002108089B0F5807F01D00020F0BD1020C4
:104F6000F0BD00007015002030B50021054B0C4647
:104F700003EB01121568854200D11460491C022917
:104F8000F6D330BD701500200368C26A480A5989FB
:104F9000B0FBF1F0121D02CA19B1884203D3401AC6
:104FA000F8E7002070471168084470474269891E7D
:104FB000921E8A4201D800207047826A408901FB14
:104FC0000020704770B515460E46FBF71BFA04002B
:104FD00009D0E06900B180472A4631462046BDE845
:104FE0007040FFF710BE70BD13B5012201A9FFF795
:104FF000E9FF1CBD2DE9F04105680F00804606D091
:1050000000F0C8FD022809D20120BDE8F081EE6859
:1050100016B16869B04207D8012605E0411CF4D0FA
:1050200069698142F1D83E4634466869641CA042F1
:1050300002D80224022E0AD32146404600F0AAFDDF
:1050400038B10128E1D0411CDFD0B442EDD10020BD
:10505000DBE74FF0FF3632462146284600F00CFFD2
:1050600030B957B122463946284600F005FF20B135
:1050700001280FD001242046C7E7EC60D5E90401E0
:10508000891E884201D8401E2861287940F001001D
:105090002871F0E73446EEE72DE9F0410E46243062
:1050A0000D6804460B22202100F0C7FE00200146B7
:1050B0004FF0080C2A5C401C202A13D92F2A0CD050
:1050C0005C2A0AD02E2A01D0614516D3BCF10B0F01
:1050D00020D02E2A1ED10CE0401C2B5C2F2BFBD0A5
:1050E0005C2BF9D028443060A1B12078E5281DD090
:1050F0001EE008214FF00B0CDCE7802A03D3104B95
:105100001A4412F8802C0FA300E05B1C1F7827B113
:105110009742FAD10620BDE8F081A2F16103192B74
:1051200001D8203AD2B26254491CC3E7052020704E
:10513000202A01D8042000E00020E0720020EAE7E5
:105140009C630008222A2B2C3A3B3C3D3E3F5B5D92
:105150007C7F0000401E022812D20A4901EB001198
:105160008889B0F5807F05D008B1401E80B2888163
:1051700010B103E00020FAE700200860002070472B
:1051800002207047701500202DE9F04105460021EE
:10519000066800F0DDF800281DD13046E96900F00E
:1051A00052FE002817D1296A0A789AB1CA7A02F009
:1051B0003F02AA71CA7A120711D405F124040B2206
:1051C00011F8013B14F8017BDB1B521E05D0002BAC
:1051D000F6D004E00420BDE8F081002BFBD00021D4
:1051E000284600F003F80028D7D0F4E72DE9F0476F
:1051F000054604684069894600F12008E86910B155
:10520000B8F5001F02D30420BDE8F0875FEAC8515B
:105210005AD1401CE861A969002729B16089401E64
:1052200010EA582F05D04FE02189B1EB581F1DD946
:105230004AE0284600F0AEFC064601281AD9701C48
:1052400030D06069B04239D8B9F1000F0ED028468D
:10525000A969FFF7CFFE06000AD0012E0AD0701C04
:1052600020D0204601F03CF8E0B905E0EF61CAE744
:105270000720C9E70220C7E74FF40072002104F1BC
:10528000300000F0DAFD002731462046FFF78EFEA1
:105290004FF00109E0620BE084F80390204601F032
:1052A0001FF808B10120AFE7E06A401C7F1CE062F4
:1052B0006089B842F0D8E06AC01BE06231462046FF
:1052C000AE61FFF773FEE861C8F308002044303098
:1052D000C5F814802862002096E72DE9F0410546C4
:1052E00001260021076800F033F888B90024384609
:1052F000E96900F0A8FD58B9296A0978E5290AD0BA
:1053000049B1002401212846FFF770FF0028EED0A4
:10531000042804D004E0641CB44201D0F2E7072062
:10532000040012D13846E96900F08DFD04000CD16B
:1053300020220021286A00F080FD0B2205F12401C3
:10534000286A00F071FD0120F8702046BDE8F08168
:105350002DE9F04107680D460646B1F5001F36D22B
:10536000E80634D17561B46824B93878032805D3C8
:105370007C6A1CB178894FEA402812E03889B0EB8A
:10538000551F24D9786A12E0304600F003FC044629
:10539000401C1AD0022C1AD37869A04217D9A5EB69
:1053A000080545452146EFD23846FFF7FFFDC6E91F
:1053B000064060B100EB5520F061C5F308003844A9
:1053C000303030620020BDE8F0810120FBE7022090
:1053D000F9E7000070B5094D04460020295D002959
:1053E0000AD105EB840128194968007A09688847C1
:1053F000002801D10121295570BD00009015002021
:1054000030B4054B1C1803EB8000247A4068036914
:10541000204630BC184700009015002030B4054CE1
:10542000251804EB80002D7A406884682846A4463D
:1054300030BC60479015002004490A1801EB800039
:10544000127A406841681046084700009015002015
:1054500030B4054C251804EB80002D7A4068C468F0
:105460002846A44630BC60479015002038B5044655
:1054700000F0E1F900280CD16946204600F059FF00
:10548000002806D12069FFF765FE002801D1002120
:10549000216038BD2DE9F74181B090460298009017
:1054A000684600F0D8FB040003D50B2004B0BDE82B
:1054B000F0810D4E002756F824501DB12846FFF705
:1054C00053FD2F700198002800D0077046F8240083
:1054D00002D0B8F1010F01D00020E7E7002201A9B6
:1054E00002A800F0EFF9E1E7200800202DE9F743DA
:1054F0008EB005000BD002F03F06324601A90FA87E
:1055000000F0E0F904004FF0000804D0E9E00920C1
:1055100011B0BDE8F0830198029002A80F9900F045
:10552000F7FA04000ED19DF83700000601D50624D5
:1055300008E0700801D0012100E0002102A8FFF777
:10554000E5FC044616F01C0F5DD0C4B1042C12D14A
:105550000020664902E0401C022804D201EB001240
:105560001268002AF7D1022804D002A8FFF7B5FE7E
:10557000044600E0122446F008065CB1B1E09DF854
:105580000E0010F0110F01D00724AAE0700701D51A
:105590000824A6E0300745D500F05BFB07460A98D3
:1055A00039460E3000F04CFE0A983946163000F0AD
:1055B00047FE0A992020C8720A99019800F0B0FBB2
:1055C000074600220A99019800F026FE0A98002159
:1055D0001C3000F035FE01980121C17007B3D0F8EE
:1055E0002C900022394602A800F0BBFC040078D1C0
:1055F0004946019800F027FC04000198A7F1010733
:10560000C7600BD06DE0ECBB9DF80E00C10601D564
:10561000042466E0B10701D5C007B5D1300701D534
:1056200046F040060198C06A68620A98A86270084D
:1056300001D0012100E0002102A800F031FB286127
:1056400058B30A99019800F06BFBA8600A981C30C7
:1056500000F079FBC5F82C80E86001992960019978
:1056600005F130004FF40072C988A9802E7585F8C5
:105670001580C5F8208000218146C5F8188000F00B
:10568000DCFB00E02DE0B0062DD5EE685EB3AE6128
:105690000198A968408947020DE0022421E02846CC
:1056A00000F078FA0146012800D80224481C00D1F5
:1056B0000124F61B0CB9BE42F1D8E9618CB9F005A2
:1056C00011D00198FFF772FC0028E6D000EB5622BB
:1056D0002A620198012349464078FFF79FFE10B1E6
:1056E0000124C5F80080204612E700007015002054
:1056F0002DE9FC5F8946002119609A46164604464A
:10570000694600F016FE002812D1607D00280FD1F6
:10571000207DC0070BD0A169E0684FF0010B401A53
:1057200004F130010191864200D906467FE007204E
:10573000BDE8FC9FA169C80561D100984089401E61
:1057400010EA512511D129B1E06A28B12046FFF7AE
:105750001BFC05E0A06803E02046E16900F01AFAAE
:10576000022819D3411C44D0E061E1690098FFF799
:105770001DFC88B100EB0508770A21D00098EA19D2
:1057800041898A4200D94F1B40783B4642464946F0
:10579000FFF744FE68BB02E002206075C8E7207D89
:1057A00000060BD5216AA1EB0800B84206D209EB2E
:1057B00040204FF40072019900F036FB7D022CE08E
:1057C000226A424519D0207D00060AD5009801239F
:1057D00001994078FFF73CFE58B9207D00F07F002A
:1057E000207500980123424640780199FFF716FE84
:1057F00018B184F815B001209AE7C4F82080208BF6
:10580000C0F30800C0F50075B54200D9354601194E
:105810002A464846303100F007FBA069A9442844D5
:10582000A061DAF800004119761BCAF80010002EBA
:1058300080D100207CE7F8B50446694600F079FD88
:1058400000280ED1217D4A060BD508060ED50098FA
:10585000226A0123407804F13001FFF7F9FD08B115
:105860000120F8BD207D00F07F00207500F0F1F9E7
:105870000646616A009800F0E6FA0028F1D1A56AB0
:105880002946E87A40F02000E872A268206800F01B
:10589000C3FC05F11C00E16800F0D2FC314605F1C3
:1058A000160000F0CDFC002105F1120000F0D0FC44
:1058B00000980121C17000F0CFFC217D01F0BF01F3
:1058C0002175F8BD2DE9FF41002790460E460F6077
:1058D00000F0C1F9050003D50B2004B0BDE8F0814C
:1058E000884850F825409CB13460207808F0FE06C6
:1058F00020B16078FFF7A0FDC1070BD02770E8B298
:10590000B8466070FFF766FDC10708D00320E4E7E2
:105910000C20E2E70EB1400704D40020DDE71EB101
:10592000400701D50A20D8E7002529462046FFF781
:10593000B5FA022820D16E4604EB051090F8F2115A
:1059400000F5F77019B1083000F0FDF900E0002013
:1059500046F825006D1C042DEED3002756F827507D
:1059600025B129462046FFF799FA00E003200228D6
:1059700002D37F1C042FF1D3042809D002286CD253
:1059800004F13B0000F0EAF9B0F5007F65D101E0D9
:105990000120A2E704F1460000F0E0F918B904F193
:1059A000540000F0D0F9A06194F84070A770012F66
:1059B00001D0022F51D1474394F83D006081E8B3F4
:1059C000411E084249D104F1410000F0C7F920818D
:1059D000000742D104F1430000F0C0F9060004D1F1
:1059E00004F1500000F0AFF9064604F13E0000F06B
:1059F000B5F9010031D02389C81900EB1312964282
:105A00002BD3B01A6689B0FBF6F0B8B103264FF677
:105A1000F57C604500D8022640F6F57C604500D84C
:105A20000126801C2A44A26229446061C4E907510E
:105A3000032E14D013B13944616200E00DE0022E50
:105A40001ED000F0010100EB400001EB5000A16905
:105A500000F2FF10B1EB502F14D20D203DE704F1FE
:105A60005A0000F07BF90028F7D120890028F4D1F2
:105A700004F15C0000F067F9606260698000E6E7AD
:105A80004000E4E74FF0FF302061E06080202071AB
:105A9000032E2CD104F1600000F060F9012826D11A
:105AA000691C204600F0CFF908BB84F8048004F29A
:105AB0002E2000F053F9A0F52A41553917D104F1F1
:105AC000300000F040F91049884210D104F505700B
:105AD00000F039F90D49884209D104F5067000F04B
