:020000040800F2
:10000000D0060020A10100087D2900088B270008E8
:1000100079290008A3030008F93F00080000000048
:10002000000000000000000000000000013C00088B
:10003000A70400080000000081290008033C000814
:10004000BB010008BB010008BB010008BB010008A0
:10005000BB010008BB010008BB010008BB01000890
:10006000BB010008BB010008BB010008BB01000880
:10007000BB010008BB010008BB010008BB01000870
:10008000BB010008BB010008BB010008BB01000860
:10009000BB010008BB010008BB010008BB01000850
:1000A000BB010008BB010008BB010008BB01000840
:1000B000BB010008BB010008BB010008BB01000830
:1000C000BB010008BB010008BB010008BB01000820
:1000D000BB010008BB010008BB010008BB01000810
:1000E000BB010008BB010008BB010008BB01000800
:1000F000BB010008BB010008BB010008BB010008F0
:10010000BB010008CD290008BB010008BB010008A5
:10011000BB010008BB010008BB010008BB010008CF
:10012000BB010008BB010008BB010008A9030008CF
:10013000BB010008BB010008BB010008BB010008AF
:10014000BB010008BB010008BB010008BB0100089F
:10015000BB010008B9030008BB010008BB0100088F
:10016000BB010008BB010008BB010008BB0100087F
:10017000BB010008BB010008BB0100080000000033
:10018000BB010008BB010008DFF810D000F07CF8CC
:100190000048004769430008AFF30080D006002004
:1001A0000648804706480047FEE7FEE7FEE7FEE711
:1001B000FEE7FEE7FEE7FEE7FEE7FEE7C13C0008DC
:1001C000890100082DE9F05F0546002092469B4614
:1001D00088460646814640241BE02846414647465D
:1001E000224600F041F853465A46C01A914110D3B6
:1001F00011461846224600F028F82D1A67EB010830
:100200004F4622460120002100F01FF817EB00099D
:100210004E41201EA4F10104DFDC484631462A4647
:100220004346BDE8F09FD2B201E000F8012B491E21
:10023000FBD270470022F6E710B513460A46044683
:100240001946FFF7F0FF204610BD202A04DB203AB4
:1002500000FA02F1002070479140C2F1200320FA19
:1002600003F3194390407047202A04DB203A21FA17
:1002700002F00021704721FA02F3D040C2F12002BF
:100280009140084319467047064C074D06E0E06868
:1002900040F0010394E8070098471034AC42F6D3CD
:1002A000FFF776FFB4450008D445000810B50124D7
:1002B0000821034800F0E6FB00B10024204610BDF1
:1002C000000C02407047000010B504462146024869
:1002D00001F0D2F910BD00003C00002010B5044828
:1002E00001F0DDF9042801D0012010BD0020FCE759
:1002F0003C00002010B5002400F014F8012801D0C3
:10030000012010BD064801F0EBFA044634B94FF461
:100310000061034801F038F800B101242046F0E7FD
:100320003C00002008B501200090FFF7BFFF08B98E
:10033000002000909DF8000008BD00002DE9F84362
:1003400004460D4616461F464FF0000833462A461F
:1003500021460548009701F0FFFB08B14FF0010866
:100360004046BDE8F88300003C00002070470000D4
:100370002DE9F84304460D4616461F464FF0000887
:1003800033462A4621460548009701F041FD08B151
:100390004FF001084046BDE8F88300003C00002013
:1003A000704700BFFEE7000010B5024800F0C6F835
:1003B00010BD0000C000002010B5024800F0BEF8DB
:1003C00010BD0000200100200146087810381823D5
:1003D000B0FBF3F20848805CC865032A05D90868B9
:1003E0006FF30900001D886503E008686FF30900DA
:1003F0008865886D70470000804500080146002030
:100400008A6A8B69CBB932B1012A0DD0022A03D096
:10041000032A10D10EE000BFCB6A03F08073B3F162
:10042000807F00D1012007E0CB6AB3F1C07F00D10B
:10043000012001E000E000BF34E08B69B3F5005F0C
:100440001AD132B1012A07D0022A03D0032A11D1CE
:100450000AE000BF01200EE0CB6A03F08073B3F125
:10046000807F00D1012006E0CB6AB3F1C07F00D1CC
:10047000012000E000BF15E032B1012A05D0022AB8
:1004800004D0032A0CD103E000BF00BF012008E024
:10049000CB6A03F08073B3F1807F00D1012000E0CC
:1004A00000BF00BF7047704772B600BFFEE730B5AF
:1004B00004460D4600222946204600F001F830BDD2
:1004C000F0B50346012500241148407A01281CDAC2
:1004D00000200F4E767A0E4FB8553846467A001DEA
:1004E00040F82630001F467A083082553E46707A22
:1004F000461C7E72044604F1300008703A204870B1
:100500002F2088700020C87000252846F0BD00000C
:10051000C4020020014691F83500022803D0802053
:10052000486501207047052081F83500086800689B
:1005300020F001000A6810600020F3E7F8B50446D7
:10054000002000908C4800684FF41651B0FBF1F782
:10055000A56D2E6894F85C1008208840304098B152
:100560002068006800F0040070B12068006820F086
:1005700004002168086094F85C1008208840A86096
:10058000606D40F00100606594F85C1001208840C7
:10059000304068B12068406900F0800040B194F8B4
:1005A0005C1001208840A860606D40F0020060652A
:1005B00094F85C1004208840304068B120680068DE
:1005C00000F0020040B194F85C1004208840A8605C
:1005D000606D40F00400606594F85C101020884065
:1005E000304078B32068006800F0080050B394F8F9
:1005F0005C1010208840A8602068006800F480200B
:1006000080B12068006800F4002028B9206CC8B1CF
:100610002046216C884715E0A06C98B12046A16C5B
:1006200088470FE02068006800F4807028B92068CF
:10063000006820F0080021680860206C10B1204696
:10064000216C884794F85C102020884030400028B6
:1006500065D02068006800F0100000285FD094F892
:100660005C1020208840A86094F83500052828D127
:100670002068006820F01600216808602068406942
:1006800020F0800021684861206C08B9A06C28B176
:100690002068006820F008002168086094F85C1069
:1006A0003F208840A860012084F8350000BF00206A
:1006B00084F8340000BF206D10B12046216D8847BA
:1006C000F8BD2068006800F4802080B120680068D0
:1006D00000F4002028B9606C10B12046616C884796
:1006E0001DE0E06BD8B12046E16B884717E0206839
:1006F000006800F4807068B92068006820F010007D
:1007000021680860012084F8350000BF002084F8CB
:10071000340000BFE06B10B12046E16B8847606D8C
:1007200038B3606D00F00100F0B1052084F83500A9
:100730002068006820F001002168086000BF009870
:10074000401C0090B84200D905E02068006800F025
:1007500001000028F3D100BF012084F8350000BF5C
:10076000002084F8340000BFE06C10B12046E16C3A
:10077000884700BFA4E700000C0000202DE9F041ED
:100780000446002500F08CF9074614B90120BDE8A5
:10079000F081606A00B100BF022084F8350000BF1C
:1007A000002084F8340000BF2068006820F00100B9
:1007B000216808600AE000F073F9C01B052805D91C
:1007C00020206065032084F83500E0E72068006899
:1007D00000F001000028EED120680568214805409E
:1007E000D4E901010843E1680843216908436169CC
:1007F0000843A1690843E1690843216A08430543A6
:10080000606A042803D1D4E90B010843054320683A
:1008100005602068456925F00705606A0543606A40
:1008200004280DD1A06A0543E06A48B12046FFF7CD
:10083000E5FD28B140206065012084F83500A6E779
:10084000206845612046FFF7BFFD064694F85C101E
:100850003F208840B06000206065012084F83500AA
:10086000002094E73F8010F070B5044600F018F9BE
:1008700006462546681C10B104480078054400BFB0
:1008800000F00EF9801BA842FAD370BD08000020CA
:10089000F8B502460B460025002400200021D6E0D2
:1008A000012606FA01F51E6806EA0504AC4274D179
:1008B0001E7906F00306012E04D01E7906F0030609
:1008C000022E13D190684F000326BE40B0434F0064
:1008D000DE68BE4030439060506801268E40B043D1
:1008E0001E79C6F300168E40304350601E7906F024
:1008F0000306032E09D0D0684F000326BE40B04344
:100900004F009E68BE403043D0601E7906F003065B
:10091000022E13D1CF0802F1200656F827004E0709
:10092000F70E0F26BE40B0434F07FF0E1E69BE40B4
:100930003043CF0802F1200646F8270010684F0028
:100940000326BE40B0431E7906F003064F00BE40AA
:10095000304310605E6806F44036002E76D000BF4B
:10096000002600963C4E366846F480463A4F3E607C
:100970003E46366806F48046009600BF00BF374EFC
:100980008F0856F827008E07370F0F26BE40B0435A
:10099000334EB24202D1002624E057E0314EB2423B
:1009A00001D101261EE0304EB24201D1022619E0EB
:1009B0002E4EB24201D1032614E02D4EB24201D197
:1009C00004260FE02B4EB24201D105260AE02A4E42
:1009D000B24201D1062605E0284EB24201D10726D7
:1009E00000E008268F073F0FBE4030431B4E8F08A4
:1009F00046F82700224E3068A0435E6806F4801651
:100A000006B120431E4E3060361D3068A0435E683C
:100A100006F4001606B12043194E361D3060184EFC
:100A2000361F3068A0435E6806F4003606B12043E6
:100A3000134E361F3060361F3068A0435E6806F4E0
:100A4000803606B120430E4E083E3060491C102906
:100A5000FFF426AFF8BD00004438024008380140DA
:100A6000000002400004024000080240000C024066
:100A7000001002400014024000180240001C024016
:100A8000083C0140024613690B400BB1012000E015
:100A9000002070470AB1816101E00B048361704757
:100AA000014800687047000000000020034800680B
:100AB0000349097808440149086070470000002094
:100AC0000800002010B50D48006840F400700B4984
:100AD00008600846006840F48060086008460068C6
:100AE00040F480700860032000F0A6F80F2000F0AA
:100AF00007F800F02BF8002010BD0000003C024079
:100B000070B504460E4800784FF47A71B1FBF0F0EE
:100B10000C490968B1FBF0F5284601F03DFD08B12C
:100B2000012070BD102C07D200222146501E00F07B
:100B300045F80548046001E00120F2E70020F0E7F5
:100B4000080000200C0000200400002008B500BFB1
:100B5000002000900E48006840F480400C49086076
:100B60000846006800F48040009000BF00BF00BF4E
:100B700000200090081F006840F08050091F0860A6
:100B80000846006800F08050009000BF00BF08BD1C
:100B9000443802400146084600280DDB00BF00BF74
:100BA00000F01F0301229A4043099B0003F1E02358
:100BB000C3F8002100BF00BF00BF70472DE9F05F00
:100BC00080460D461646002703F028FA07463946A8
:100BD0002A46334601F00700C0F1070ABAF1040FB4
:100BE00002D94FF0040A01E0C0F1070AD14600F132
:100BF000040ABAF1070F02D24FF0000A01E0A0F197
:100C0000030AD4464FF0010A0AFA09FAAAF1010AC6
:100C10000AEA020A0AFA0CFA4FF0010B0BFA0CFB73
:100C2000ABF1010B0BEA030B4AEA0B0421464046E9
:100C300003F0FCF9BDE8F09F00BF00F00702064B8F
:100C400019684FF6FF031940044B0B4343EA022196
:100C5000014B196000BF70470CED00E00000FA0581
:100C600070B504460D460CB9012070BD58480068A7
:100C700000F00700A84209D255490D7008460068E7
:100C800000F00700A84201D00120EEE7207800F034
:100C9000020002281DD1207800F00400042805D1AC
:100CA0004C48006840F4E0504A490860207800F061
:100CB0000800082805D14748006840F460404549CD
:100CC00008604448006820F0F000A16808434149EA
:100CD0000860207800F00100A8B36068012807D1FF
:100CE0003C4808380068C0F34040B8B90120BCE770
:100CF0006068022802D06068032807D135480838A8
:100D00000068C0F3406048B90120AEE731480838B8
:100D10000068C0F3400008B90120A6E72D4800682C
:100D200020F00300616808432A490860FFF7B8FE15
:100D3000064609E0FFF7B4FE801B41F28831884285
:100D400002D9032091E707E02248006800F00C0078
:100D50006168B0EB810FEDD11D48006800F007001D
:100D6000A84209D91A490D700846006800F007002A
:100D7000A84201D0012078E7207800F00400042880
:100D800007D11448006820F4E050E1680843114995
:100D90000860207800F00800082808D10D48006895
:100DA00020F46040216940EAC1000A49086000F06F
:100DB0003FF808490968C1F30311074A515CC8406C
:100DC0000649086006480068FFF79AFE00204CE7D5
:100DD000003C024008380240884500080C00002012
:100DE0000400002001480068704700000C0000204B
:100DF00000B5FFF7F7FF04490968C1F38221034AF0
:100E0000515CC84000BD0000083802409845000809
:100E100000B5FFF7E7FF04490968C1F34231034A0F
:100E2000515CC84000BD00000838024098450008E9
:100E30002DE9F047002400250026A146254800683A
:100E400000F00C0020B1042805D008283AD105E0B4
:100E5000DFF8849039E0DFF8849036E01D48001F09
:100E6000006800F03F041B48001F006800F4800089
:100E700078B11A481749091F0968C1F38811A0FB06
:100E800001700146224600233846FFF79BF90546CC
:100E90000EE011480F49091F0968C1F38811A0FB32
:100EA00001700146224600233846FFF78BF90546BC
:100EB0000848001F0068C0F30140401C4600B5FB15
:100EC000F6F902E0DFF8109000BF00BF4846BDE829
:100ED000F0870000083802400024F40000127A0075
:100EE000F8B504460CB90120F8BD207800F00100E7
:100EF000002874D0F948006800F00C0004280DD0D8
:100F0000F648006800F00C00082813D1F348001FD1
:100F1000006800F48000B0F5800F0BD1EF4808386E
:100F20000068C0F34040002859D06068002856D1BE
:100F30000120D9E700BF6068B0F5803F08D1E748DD
:100F40000838006840F48030E449083908601EE041
:100F50006068B0F5A02F0DD1E0480838006840F473
:100F60008020DE49083908600846006840F4803077
:100F700008600CE0D9480838006820F48030D74970
:100F8000083908600846006820F48020086000BF27
:100F9000606890B1FFF784FD054606E0FFF780FD2D
:100FA000401B642801D903209EE7CC48083800681C
:100FB000C0F340400028F1D011E0FFF771FD054675
:100FC00006E0FFF76DFD401B642801D903208BE785
:100FD000C24808380068C0F340400028F1D12078AA
:100FE00000F0020002285FD1BC48006800F00C004D
:100FF00058B1BA48006800F00C0008281CD1B74866
:10100000001F006800F48000B0B9B44808380068D8
:10101000C0F3400020B1E068012801D0012063E75F
:10102000AE480838006820F0F800216940EAC100A5
:10103000AA490839086037E0E06800B30120A849F0
:101040000860FFF72DFD054606E0FFF729FD401B70
:10105000022801D9032047E7A04808380068C0F3F8
:1010600040000028F1D09D480838006820F0F800C2
:10107000216940EAC10099490839086014E000205C
:1010800097490860FFF70CFD054606E0FFF708FDED
:10109000401B022801D9032026E790480838006841
:1010A000C0F340000028F1D1207800F008000828A3
:1010B0002CD16069A8B101208A490860FFF7F0FCD3
:1010C000054606E0FFF7ECFC401B022801D903208F
:1010D0000AE782486C300068C0F340000028F1D075
:1010E00014E000207F490860FFF7DAFC054606E0BF
:1010F000FFF7D6FC401B022801D90320F4E677480D
:101100006C300068C0F340000028F1D1207800F076
:101110000400042870D1002770483830006800F0BF
:10112000805090B900BF002000906C4838300068B3
:1011300040F080506949383108600846006800F086
:101140008050009000BF00BF01276748006800F48E
:101150008070B0B96448006840F4807062490860EB
:10116000FFF79EFC054606E0FFF79AFC401B0228AD
:1011700001D90320B8E65C48006800F480700028BC
:10118000F2D000BFA068012808D154486830006838
:1011900040F001005149683108601DE0A068052851
:1011A0000DD14E486830006840F004004B4968316A
:1011B00008600846006840F0010008600CE04748FD
:1011C0006830006820F00100444968310860084632
:1011D000006820F00400086000BFA068A8B1FFF715
:1011E0005FFC054609E0FFF75BFC401B41F28831DC
:1011F000884202D9032077E626E038486830006844
:10120000C0F340000028EED013E0FFF749FC05468C
:1012100008E0FFF745FC401B41F28831884201D9C4
:10122000032061E62D4868300068C0F340000028C4
:10123000EFD1012F07D129483830006820F08050C5
:1012400026493831086000BFA069002845D02348EE
:10125000006800F00C0008285DD0A069022845D184
:1012600000201F490866FFF71BFC054606E0FFF754
:1012700017FC401B022801D9032035E6174808381F
:101280000068C0F340600028F1D1D4E907010843A9
:10129000616A40EA81110122A06AC2EB500041EA72
:1012A00000412C20005D41EA00600C49091F0860E4
:1012B00001200B490866FFF7F3FB054606E0FFF740
:1012C000EFFB401B022801D903200DE60348083834
:1012D0000068C0F340600028F1D049E008380240BF
:1012E00000004742800E4742007000400020214924
:1012F0000866FFF7D5FB054606E0FFF7D1FB401B6C
:10130000022801D90320EFE51B480068C0F34060C4
:101310000028F2D12CE0A069012800D1E4E51648AC
:10132000001D0668A069012820D006F48001E0694C
:1013300081421BD106F03F01206A814216D147F657
:10134000C0703040616AB0EB811F0FD106F44031AC
:101350000122A06AC2EB5000B1EB004F06D106F0AB
:1013600070612C20005DB1EB006F01D00120BBE566
:101370000020B9E5000047420038024010B504469D
:10138000FEF7A0FF10BD0000F0B589B004460E4680
:101390000027032084F83400606C032820D0B6F5C1
:1013A000805F04D1A06B40F08050A0631CE0B6F5D4
:1013B000006F07D1204602F064F90546A06B284370
:1013C000A06311E03EB9204602F027F90546A06B64
:1013D0002843A06308E0A06B40F00060A06303E036
:1013E000A06B40F08050A063A06B38B11748216813
:1013F0008863012084F83400012713E060680390BB
:10140000A0680490E0680590069660690790A0695E
:10141000089006A807C88DE80700206803A90EC930
:1014200001F0DCFA4FF40071206801F04FFB054633
:1014300035B1064821688863A06B2843A063012763
:10144000012084F83400384609B0F0BDFF054000A3
:1014500070470246506F000E0870506FC0F30F20A7
:10146000488092F874000306906F43EA10204860A9
:101470007820805C0872D06F000E4872D06F030233
:101480008020805843EA1060C86080208058C0F3F4
:101490000350087480208058C0F30B2048828020BD
:1014A000805CC0F346000875012048750020704735
:1014B00010B50246506E800F0870506EC0F3836006
:1014C0004870506EC0F301608870506E000CC87098
:1014D000B2F86400000A087192F864004871906ED6
:1014E000000DC880906EC0F3034008726820805AD7
:1014F000C0F3C03048726820805AC0F380308872D0
:101500006820805AC0F34030C8726820805AC0F307
:101510000030087300204873506C002836D16820D2
:10152000805A8005030DD06E43EA90700861D06E3A
:10153000C0F3C2600875D06EC0F302604875D06E0B
:10154000C0F342508875D06EC0F38240C875D06E2B
:10155000C0F3C23008760869401C50650B7E506DA0
:1015600003F007039B1C01249C4060435065087AEC
:1015700000F00F03012098409065D2E915035B0A43
:101580005843D0654FF40073136621E0506C012876
:1015900013D16820805C8006830AD06E43EA104035
:1015A00008610869401C83025365536DD3654FF48D
:1015B00000739365936D13660AE02E481368986371
:1015C000906B40F080509063012082F8340010BD91
:1015D0006C20805AC0F3803001F8190F6C20805ABB
:1015E000C0F3C61048706C20805C00F07F008870EB
:1015F000106FC00FC870106FC0F341700871106F8A
:10160000C0F382604871106FC0F383508871106F0F
:10161000C0F34050C87100200872106FC0F3004042
:1016200048727020805AC0F3C03088727020805A8F
:10163000C0F38030C8727020805AC0F34030087305
:101640007020805AC0F3003048737020805AC0F375
:10165000812088737020805AC0F30120C8737020E5
:10166000805CC0F3460008740120487419390020DA
:10167000ADE70000FF0540000246506C0860906C2A
:101680004860D06C8860106DC860506D0861906DC6
:101690004861D06D8861106EC86100207047F8B550
:1016A0000446002000906946204601F09EFF054652
:1016B00015B1A06B2843A0630098C0F343263046C1
:1016C000F8BD000070B50446256B2068406BC0F380
:1016D000C03030B105F0080018B1204601F060FFBD
:1016E000F8E02068406BC0F30020002862D04FF47F
:1016F0008070216888632068C06B4CF23A3188435F
:101700002168C8632068C06A20F001002168C862AF
:1017100005F0080038B305F0020010B905F020000C
:1017200050B1206801F016FB06462EB1A06B304385
:10173000A0632046FFF78CFE40F23A502168886390
:10174000012084F834000020206305F0010010B966
:1017500005F0020018B1204600F050FBBAE0204628
:1017600000F051FBB6E005F080000028B8D005F08D
:10177000200050B1206801F0EDFA06462EB1A06BB2
:101780003043A0632046FFF763FE05F00100002808
:10179000A6D105F002000028A2D12068C06A20F07E
:1017A00008002168C862012084F83400204600F057
:1017B0002AFB8FE02068406BC0F3803030B105F029
:1017C000080018B1204601F090FF83E02068406BCC
:1017D00040F23A21084008B1012000E00020002832
:1017E00078D02068406BC0F3400018B1A06B40F087
:1017F0000200A0632068406BC0F3C00018B1A06B6A
:1018000040F00800A0632068406BC0F3401018B19E
:10181000A06B40F02000A0632068406BC0F3001074
:1018200018B1A06B40F01000A0632068406BC0F3BB
:10183000402018B1A06B40F00800A06340F23A705D
:10184000216888632068C06B40F23A318843216880
:10185000C863206801F07EFAA16B0843A06305F01D
:10186000080040B1012084F83400002020632046A5
:10187000FFF7EEFD2EE005F0800000B305F010004C
:1018800010B905F0200050B11348E16B0865E06B1A
:10189000FEF740FE98B1E06B01F0D0FC1AE005F0D5
:1018A000010010B905F0020050B10C48216C086528
:1018B000206CFEF72FFE10B1206C01F09BFC09E0BC
:1018C0000020A063012084F834000020206320461B
:1018D000FFF754FD70BD00003D320008F5310008EF
:1018E00010B504460CB9012010BD94F8340020B99D
:1018F00000202077204600F069F8032084F83400A7
:10190000204600F00BF808B10120EDE70020A063AD
:101910002063012084F834000020E5E770B58AB028
:1019200004460020049005900690079008907620C9
:10193000099007A807C88DE80700206804A90EC908
:1019400001F04CF8064616B101200AB070BD002027
:101950001C490860206801F05BF801201949A03992
:10196000C1F8A0000220FEF77FFF204601F0B2FD83
:1019700005463DB1012084F83400A06B2843A063E4
:101980000120E2E7204601F023FD05463DB101209C
:1019900084F83400A06B2843A0630120D5E74FF4FE
:1019A0000071206801F092F805464DB106482168A3
:1019B0008863A06B2843A063012084F83400C4E747
:1019C0000020C2E7A0802542FF05400010B586B088
:1019D0000446142101A8FEF72DFC584920688842CE
:1019E0007ED100BF002000905548006840F40060A0
:1019F000534908600846006800F40060009000BF8A
:101A000000BF00BF002000904D481438006840F02F
:101A100004004B49143908600846006800F00400CF
:101A2000009000BF00BF00BF002000900846006883
:101A300040F0080008600846006800F008000090C8
:101A400000BF00BF4FF4F850019002200290002028
:101A50000390032004900C20059001A93948FEF75B
:101A600017FF042001900220029000200390032021
:101A700004900C20059001A93348FEF709FF334874
:101A8000334908604FF00060486040213048816071
:101A90000021C1604FF480610161890041618900CA
:101AA00081612021C1610903016204214162032196
:101AB00081624FF40001C16289100163FEF75EFE8E
:101AC00008B1FEF7F1FC00BF2148E063846300BF6A
:101AD0001E4848301F4908604FF00060486000E031
:101AE00029E000211B488160C1604FF480610161E1
:101AF00089004161890081612021C161090301627E
:101B000004214162032181624FF40001C162891006
:101B10000163FEF733FE08B1FEF7C6FC00BF0D48B7
:101B20002064846300BF002211463120FFF746F88D
:101B30003120FFF72FF806B010BD0000002C014047
:101B40004438024000080240000C02405864024041
:101B5000C0000020200100202DE9FF4F89B004467D
:101B60008B469946DDF858A0FEF79AFF02900B9835
:101B700000905D46BBF1000F07D1A06B40F0006004
:101B8000A06301200DB0BDE8F08F94F83400012867
:101B90007ED10020A063009800EB0901E06D814236
:101BA00005D9A06B40F00070A0630120EAE7032094
:101BB00084F8340000202168C862606C012802D0DB
:101BC0000098400200904FF0FF3003904FEA492008
:101BD000049090200590022006900020079001209C
:101BE000089003A9206800F0CCFEB9F1010F07D9D5
:101BF000022020632068009900F0D0FF804606E0B4
:101C0000012020632068009900F0E4FF8046B8F1CD
:101C1000000F0DD0784821688863A06B40EA080067
:101C2000A063012084F83400002020630120A9E78C
:101C3000049E3AE02068406B00F40040E0B1DEB161
:101C40000020019015E0206800F0E7FE07462F70A5
:101C50006D1C761E380A28706D1C761E380C287094
:101C60006D1C761E380E28706D1C761E0198401C67
:101C7000019001980828E6D3FEF712FF0299401A56
:101C8000504502D2BAF1000F0FD15B48216800E045
:101C9000ABE08863A06B40F00040A063012084F8B3
:101CA00034000020206303206CE72068406B40F282
:101CB0002A3108400028BDD02068406B00F48070B5
:101CC000D0B1B9F1010F17D9606C032814D0206886
:101CD00001F040F88046B8F1000F0DD04648216869
:101CE0008863A06B40EA0800A063012084F83400F8
:101CF00000202063012045E72068406B00F00800C9
:101D000020B92068406B00F4007068B13A4821683F
:101D10008863A06B40F00800A063012084F83400C1
:101D20000020206301202DE72068406B00F00200B6
:101D300068B1314821688863A06B40F00200A0635D
:101D4000012084F834000020206301201AE7206875
:101D5000406B00F0200068B1274821688863A06BC1
:101D600040F02000A063012084F8340000202063AC
:101D7000012007E729E0206800F04FFE07462F709A
:101D80006D1C761E380A28706D1C761E380C287063
:101D90006D1C761E380E28706D1C761EFEF780FEB8
:101DA0000299401A504502D2BAF1000F0DD11248E3
:101DB00021688863A06B40F00040A063012084F894
:101DC0003400002020630120DCE62068406B00F432
:101DD000001008B1002ECED140F23A50216888633D
:101DE000012084F834000020CCE6A06B40F00050C5
:101DF000A0630120C6E60000FF05400010B50446C0
:101E0000FEF7B4FA10BD10B50446FEF7C9FA10BDCE
:101E10002DE9F04F89B00446894693469846FEF76F
:101E20003FFE0290DA464D46B9F1000F07D1A06B94
:101E300040F00060A063012009B0BDE8F08F94F885
:101E4000340001287ED10020A0630AEB0801E06D78
:101E5000814205D9A06B40F00070A0630120EBE740
:101E6000032084F8340000202168C862606C0128D7
:101E700001D04FEA4A2A4FF0FF3003904FEA482042
:101E80000490902005900020069007900120089073
:101E900003A9206800F075FDB8F1010F07D92020D3
:101EA00020635146206800F073FF064606E01020CC
:101EB00020635146206800F087FF064666B16248FD
:101EC00021688863A06B3043A063012084F834004C
:101ED000002020630120AFE7049F43E02068406BAF
:101EE00000F4804030B32FB3002001901FE0287829
:101EF00000906D1C7F1E2878009941EA0020009018
:101F00006D1C7F1E2878009941EA004000906D1CEE
:101F10007F1E2878009941EA006000906D1C7F1EAA
:101F20006946206800F091FD0198401C01900198DD
:101F30000828DCD3FEF7B4FD0299411A12988142B9
:101F400003D200E079E0129860B93F4821688863C5
:101F5000A06B3043A063012084F83400002020638C
:101F6000032069E72068406B40F21A3108400028DE
:101F7000B4D02068406B00F48070B8B1B8F1010FA4
:101F800014D9606C032811D0206800F0E3FE0646E7
:101F900066B12D4821688863A06B3043A06301209F
:101FA00084F8340000202063012045E72068406B5E
:101FB00000F0080020B92068406B00F4007068B1A0
:101FC000214821688863A06B40F00800A0630120CD
:101FD00084F834000020206301202DE72068406B46
:101FE00000F0020068B1184821688863A06B40F0D7
:101FF0000200A063012084F8340000202063012047
:102000001AE72068406B00F0100068B10E482168A4
:102010008863A06B40F01000A063012084F83400B6
:1020200000202063012007E740F23A5021688863CE
:10203000012084F834000020FEE6A06B40F0005040
:10204000A0630120F8E60000FF05400010B504463B
:102050000CB9012010BD606A38B96068B0F5827FA4
:1020600000D105E00021E16102E000212161616110
:102070000021A16294F8510028B9002084F8500092
:10208000204600F047F8022084F8510020680068DC
:1020900020F0400021680860A08800F48270218947
:1020A00001F404410843A18901F400610843217C43
:1020B00001F002010843217D01F001010843218B59
:1020C00001F400710843217F01F038010843202109
:1020D000095D01F080010843218D01F4005108439E
:1020E000216808600421A06901EA104094F82410D6
:1020F00001F010010843216848602068C06920F49D
:1021000000602168C86100206065012084F85100EA
:1021100000209FE710B586B00446142101A8FEF701
:1021200089F81B49206888422FD100BF0020009009
:102130001848006840F48050164908600846006856
:1021400000F48050009000BF00BF00BF002000904E
:1021500010481438006840F001000E491439086036
:102160000846006800F00100009000BF00BFE020BA
:10217000019002200290002003900320049005208B
:10218000059001A90448FEF783FB06B010BD0000CE
:102190000030014044380240000002402DE9F84F71
:1021A0000446884616461D464FF0000A00BF94F8C4
:1021B0005000012802D10220BDE8F88F012084F8E8
:1021C000500000BFFEF76CFC0746B14694F8510082
:1021D000012802D04FF0020AB7E0B8F1000F00D09A
:1021E00016B94FF0010AB0E0032084F85100002036
:1021F0006065C4F83080A686E686A063A087E08785
:1022000060642064A068B0F5004F0BD120680068BE
:1022100020F04000216808602068006840F4804099
:10222000216808602068006800F04000402805D060
:102230002068006840F0400021680860E068B0F560
:10224000006F32D1606810B1B9F1010F09D1206B74
:1022500000882168C860206B801C2063E08E401ECF
:10226000E0861EE02068806800F0020002280AD1A3
:10227000206B00882168C860206B801C2063E08E82
:10228000401EE0860DE0FEF70BFCC01BA84201D308
:10229000681C00B92DB94FF0030A012084F85100E1
:1022A00053E0E08E0028DDD131E0606810B1B9F173
:1022B000010F09D1206B007821680873206B401C46
:1022C0002063E08E401EE0861EE02068806800F0FB
:1022D000020002280AD1206B007821680873206B65
:1022E000401C2063E08E401EE0860DE0FEF7D8FB28
:1022F000C01BA84201D3681C00B92DB94FF0030AD6
:10230000012084F8510020E0E08E0028DDD13A461B
:102310002946204601F0C4FB08B120206065A06872
:1023200050B900BF002000902068C068009020686D
:102330008068009000BF00BF606D10B14FF0010ACF
:1023400002E0012084F8510000BF00BF002084F8A3
:10235000500000BF50462FE72DE9FF5F0446884636
:1023600091461D460E9E012002900020019000BF64
:1023700094F85000012803D1022004B0BDE8F09F7A
:10238000012084F8500000BFFEF78AFB074694F84E
:1023900051B060680390AA46BBF1010F0BD00398BF
:1023A000B0F5827F04D1A06810B9BBF1040F02D050
:1023B00002200190E9E0B8F1000F03D0B9F1000F5D
:1023C00000D015B901200190DFE094F851000428F5
:1023D00002D0052084F8510000206065C4F83890D0
:1023E000E587A587C4F83080E586A586206460640B
:1023F0002068006800F04000402805D02068006890
:1024000040F0400021680860E068B0F5006F4DD1F1
:10241000606810B1BAF1010F09D1206B0088216802
:10242000C860206B801C2063E08E401EE08636E092
:102430002068806800F00200022810D1E08E70B1A0
:10244000029801280BD1206B00882168C860206B9E
:10245000801C2063E08E401EE086002002902068F1
:10246000806800F0010068B1E08F58B12068C06852
:10247000A16B0880A06B801CA063E08F401EE087EA
:1024800001200290FEF70CFBC01BB04207D3701C6A
:1024900028B103200190012084F8510075E0E08EFE
:1024A0000028C5D1E08F0028C2D14DE0606810B18E
:1024B000BAF1010F09D1206B007821680873206BF5
:1024C000401C2063E08E401EE08637E02068806874
:1024D00000F00200022810D1E08E70B102980128AD
:1024E0000BD1206B007821680873206B401C20639F
:1024F000E08E401EE086002002902068806800F098
:10250000010068B1E08F58B12068C068A16B087005
:10251000A06B401CA063E08F401EE087012002906A
:10252000FEF7BEFAC01BB04201D3701C00B92EB931
:1025300003200190012084F8510026E0E08E00285D
:10254000C4D1E08F0028C1D13A463146204601F07F
:10255000A7FA20B1012001902020606515E0A06855
:1025600050B900BF002000902068C068009020682B
:102570008068009000BF00BF606D10B10120019025
:1025800002E0012084F8510000BF00BF002084F861
:10259000500000BF0198F0E670B504462546681E5D
:1025A000B0F1807F01D301200FE0681E4FF0E021E1
:1025B00048610F214FF0FF3001F038FD00204FF04F
:1025C000E021886107200861002070BD10B5044635
:1025D0000CB9012010BDA06900B100E000BF94F863
:1025E000410028B9002084F84000204600F02AF875
:1025F000242084F841002068C06820F4005021683D
:10260000C860204601F09CFB2068006920F49040DF
:10261000216808612068406920F02A00216848612B
:102620002068C06840F400502168C86000206064E1
:10263000202084F8410084F842000020606300BF3D
:10264000C8E7000010B586B00446142101A8FDF7C4
:10265000F1FD1B492068884230D100BF0020009066
:102660001848006840F010001649086008460068E5
:1026700000F01000009000BF00BF00BF00200090DD
:1026800010481438006840F001000E491439086001
:102690000846006800F00100009000BF00BF4FF442
:1026A000C06001900220029000200390032004905B
:1026B0000720059001A90448FEF7EAF806B010BD0E
:1026C0000010014044380240000002402DE9F84F5C
:1026D00004460E46174699464FF0000A94F841000A
:1026E000202850D106B117B90120BDE8F88F00208D
:1026F0006064212084F84100FEF7D2F98246A78465
:10270000E784A068B0F5805F04D1206910B9002586
:10271000B04602E035464FF000081EE05346002266
:1027200080212046CDF8009001F020FC20B120202F
:1027300084F841000320D8E745B9B8F80000C0F399
:1027400008002168486008F1020803E02878216841
:1027500048606D1CE08C401EE084E08C0028DDD1D8
:102760005346002240212046CDF8009001F0FEFBA8
:1027700020B1202084F841000320B6E7202084F80F
:1027800041000020B1E70220AFE700BFFEE70000F4
:1027900008B500BF002000900E48006840F480009B
:1027A0000C4908600846006800F48000009000BFF3
:1027B00000BF002211463B20FEF700FA3B20FEF747
:1027C000E9F9002211464520FEF7F8F94520FEF709
:1027D000E1F908BD3038024010B503490348FDF760
:1027E00066FE0349087010BD12000020A0450008D5
:1027F0001100002000B587B0142102A8FDF71AFDD2
:1028000000BF002001902F48006840F080002D4953
:1028100008600846006800F08000019000BF00BF1B
:1028200000BF002001900846006840F001000860E9
:102830000846006800F00100019000BF00BF00BF23
:10284000002001900846006840F004000860084637
:10285000006800F00400019000BF00BF00BF00202E
:1028600001900846006840F00800086008460068CB
:1028700000F00800019000BF00BF012210211248A3
:10288000FEF708F90120029000200390049002A9AD
:102890000D48FDF7FDFF102002900120039000205D
:1028A00004900320059002A90748FDF7F1FF0820D6
:1028B000029000200390049002A90448FDF7E8FF6D
:1028C00007B000BD3038024000000240000C02405A
:1028D00008480949086000204860002106488160D6
:1028E000C1604FF4006101610021416108218161F3
:1028F00070470000002C01403C00002010B50E483D
:102900000E4908604FF48270486000210B488160D6
:10291000C160016141614FF4007181610821C161B1
:1029200000210162416281620A21C162FFF78EFBD0
:1029300008B1FDF7B9FD10BD003001408001002055
:1029400010B50B480B4908604FF4E1304860002196
:1029500008488160C16001610C21416100218161F1
:10296000C161FFF733FE08B1FDF79EFD10BD000009
:1029700000100140D801002000BFFEE700BFFEE7C5
:10298000704710B50246002308685062486890629C
:10299000D1E9020420430C6920434C6920430343DE
:1029A000D06A20F0F7001843D062002010BD014625
:1029B0000869C0B270470146086800F0030070471C
:1029C000024602F1140043181868704710B5024817
:1029D000FEF778FE10BD00003C0000200FB410B5DB
:1029E00004460021DDE903021043059A1043069ACC
:1029F0001043079A1043089A10430143606847F652
:102A0000FF62904308436060002010BC5DF814FB37
:102A1000014603200860002070470146D1F880007D
:102A2000704710B50246002308689060D1E90104A0
:102A30002043CC6820430C6920430343D0686FF3E4
:102A40000B001843D060002010BD02460868C2F891
:102A500080000020704770B585B005460C46009494
:102A60003720019040200290002003904FF48060B6
:102A7000049069462846FFF7D4FF41F28832372197
:102A8000284600F0DDF90646304605B070BD00006E
:102A900070B585B005460C460B48204300902920B0
:102AA000019040200290002003904FF48060049039
:102AB00069462846FFF7B5FF284600F0C9FA0646E2
:102AC000304605B070BD00000000108070B585B0C4
:102AD00005460C46009410200190402002900020F2
:102AE00003904FF48060049069462846FFF799FFF1
:102AF00041F288321021284600F0A2F906463046FD
:102B000005B070BD70B585B005460C460094062032
:102B1000019040200290002003904FF480600490C8
:102B200069462846FFF77DFF41F288320621284694
:102B300000F086F90646304605B070BD30B585B068
:102B40000446002000900190029003904FF48060B2
:102B5000049069462046FFF764FF204600F050F9D4
:102B60000546284605B030BD30B585B004464FF463
:102B7000D570009008200190402002900020039022
:102B80004FF48060049069462046FFF74AFF2046D4
:102B900000F0E6FA0546284605B030BD70B585B0B0
:102BA00005460C460094122001904020029000201F
:102BB00003904FF48060049069462846FFF731FF88
:102BC00041F288321221284600F03AF90646304692
:102BD00005B070BD70B585B005460C460094112057
:102BE000019040200290002003904FF480600490F8
:102BF00069462846FFF715FF41F288321121284621
:102C000000F01EF90646304605B070BDF0B585B03F
:102C1000064614461D46009407200190402002906D
:102C2000002003904FF48060049069463046FFF71F
:102C3000F8FE41F288320721304600F001F90746DC
:102C4000384605B0F0BD30B585B004460020009090
:102C500002200190C0200290002003904FF4806079
:102C6000049069462046FFF7DCFE204600F0BEF9DE
:102C70000546284605B030BD70B585B005460C4602
:102C8000009409200190C0200290002003904FF48E
:102C90008060049069462846FFF7C3FE284600F08E
:102CA000A5F90646304605B070BD30B585B004467E
:102CB00000200090332001904020029000200390DB
:102CC0004FF48060049069462046FFF7AAFE41F267
:102CD00088323321204600F0B3F80546284605B077
:102CE00030BD70B585B005460C4600940D200190AE
:102CF00040200290002003904FF4806004906946C9
:102D00002846FFF78EFE41F288320D21284600F05A
:102D100097F80646304605B070BD70B585B00546DB
:102D20000C460020009003200190402002900020DB
:102D300003904FF48060049069462846FFF771FEC7
:102D400022460321284600F0AFF90646304605B07A
:102D500070BD000030B585B00446002000900C2006
:102D6000019040200290002003904FF48060049076
:102D700069462046FFF755FE044A0C21204600F024
:102D80005FF80546284605B030BD000000E1F505B6
:102D900070B585B005460C4600941920019040207E
:102DA0000290002003904FF480600490694628460A
:102DB000FFF737FE41F288321921284600F040F82B
:102DC0000646304605B070BD70B585B005460C4668
:102DD00000941820019040200290002003904FF4AE
:102DE0008060049069462846FFF71BFE41F2883256
:102DF0001821284600F024F80646304605B070BD7C
:102E000001460E480068C0084FF47A73B0FBF3F037
:102E100041F2883300FB03F200BF101EA2F1010251
:102E200002D14FF000407047486B00F0800000284E
:102E3000F3D0C52088630020F5E700000C000020D7
:102E40002DE9F04305460F46904666480068C008E5
:102E50004FF47A71B0FBF1F000FB08F900BFB9F153
:102E60000000A9F1010903D14FF00040BDE8F08353
:102E70006E6B06F045000028F1D006F400600028D3
:102E8000EDD1686B00F0040010B10420A863EDE7F9
:102E9000686B00F0010010B10120A863E6E7C520CF
:102EA000A8632846FFF783FDB84201D00120DDE783
:102EB00000212846FFF784FD04464B48204008B90E
:102EC0000020D3E704F00040B0F1004F02D14FF0F2
:102ED0000070CBE704F08040B0F1804F01D140207A
:102EE000C4E704F00050B0F1005F01D18020BDE7DD
:102EF00004F08050B0F1805F02D14FF48070B5E7EC
:102F000004F00060B0F1006F02D14FF40070ADE743
:102F100004F08060B0F1806F02D14FF48060A5E7CB
:102F200004F08070B0F1807F02D14FF400609DE723
:102F300004F40000B0F5000F02D14FF4805095E783
:102F400004F48000B0F5800F02D14FF400508DE7FB
:102F500004F40010B0F5001F02D14FF4804085E763
:102F600004F48010B0F5801F02D14FF400407DE7DB
:102F700004F48020B0F5802F02D14FF4003075E7C3
:102F800004F40030B0F5003F02D14FF480206DE72B
:102F900004F48030B0F5803F02D14FF4002065E7A3
:102FA00004F40040B0F5004F02D14FF480105DE70B
:102FB00004F48040B0F5804F02D14FF4001055E783
:102FC00004F40050B0F5005F02D14FF480004DE7EB
:102FD00004F00800082801D1000547E74FF48030CD
:102FE00044E700000C00002008E0FFFD10B501469A
:102FF00016480068C0084FF47A74B0FBF4F041F250
:10300000883400FB04F300BF181EA3F1010302D1B2
:103010004FF0004010BD4A6B02F045000028F3D08D
:1030200002F400600028EFD1486B00F0040010B1FA
:1030300004208863EEE7486B00F0010010B1012026
:103040008863E7E7C52088630020E3E70C000020E1
:1030500010B5014613480068C0084FF47A74B0FBFD
:10306000F4F041F2883400FB04F300BF181EA3F112
:10307000010302D14FF0004010BD4A6B02F0450041
:103080000028F3D002F400600028EFD1486B00F074
:10309000040010B104208863EEE7C5208863002097
:1030A000EAE700000C0000202DE9F04304460F463B
:1030B00090462A480068C0084FF47A71B0FBF1F0DE
:1030C00041F2883100FB01F900BFB9F10000A9F11C
:1030D000010903D14FF00040BDE8F083666B06F0B4
:1030E00045000028F1D006F400600028EDD1606BA7
:1030F00000F0040010B10420A063EDE7606B00F065
:10310000010010B10120A063E6E72046FFF74FFC65
:10311000B84201D00120DFE7C520A063002120468E
:10312000FFF74EFC054605F4604020B9280CA8F8CE
:1031300000000020D0E705F48040B0F5804F02D1B8
:103140004FF40050C8E705F40040B0F5004F02D13D
:103150004FF48050C0E74FF48030BDE70C000020F2
:1031600010B5014618480068C0084FF47A74B0FBE7
:10317000F4F041F2883400FB04F300BF181EA3F101
:10318000010302D14FF0004010BD4A6B02F0450030
:103190000028F3D002F400600028EFD1486B00F063
:1031A000040010B104208863EEE7486B00F00100D2
:1031B00010B101208863E7E7486B00F0400008B1D8
:1031C000402088630020DFE70C00002010B5044693
:1031D000012007490870FDF781F828B904480078F4
:1031E00020F00100024908700148007810BD00007D
:1031F0001000002070B50546AC6B40F23A502168D3
:1032000088632046FEF74BFA0646012084F8340016
:1032100000202063062E01D0052E05D12068FFF77F
:1032200099FDA16B0843A063A06B18B92046FEF777
:10323000A5F802E02046FEF70BF970BD70B5054613
:10324000AC6B40F23A50216888632046FEF727FABB
:103250000646012084F8340000202063062E01D0A9
:10326000052E05D12068FFF775FDA16B0843A0630B
:10327000A06B18B92046FEF781F802E02046FEF761
:10328000E7F870BD2DE9F04389B004460F46FDF71D
:1032900007FC81464FF000080020019002903E4656
:1032A00008212068FFF712FC05461DB1284609B029
:1032B000BDE8F0835022125B11042068FFF7CBFBBE
:1032C00005460DB12846F2E74FF0FF300390082085
:1032D00004903020059002200690002007900120E5
:1032E000089003A92068FFF74CFB2068FFF7DDFC7E
:1032F00005460DB12846DAE71CE02068406B00F473
:10330000001040B12068FFF788FB01A941F82800B0
:1033100008F1010805E02068406B00F4005000B996
:103320000EE0FDF7BDFBA0EB0900401C10B94FF00B
:103330000040BCE72068406B00F02A000028DCD089
:1033400000BF2068406B00F0080020B92068406B87
:1033500000F4007018B1082021688863A7E720688E
:10336000406B00F0020018B10220216888639EE7DC
:103370002068406B00F0200018B12020216888638D
:1033800095E740F23A502168886302980006029956
:1033900001F47F4140EA0120029901F47F0140EAF3
:1033A0001120029940EA11603060361D0198000634
:1033B000019901F47F4140EA0120019901F47F0164
:1033C00040EA1120019940EA1160306000206EE768
:1033D00030B58FB00446012003902068FFF7EBFA68
:1033E00018B94FF080600FB030BD606C03281BD05F
:1033F0002068FFF728FC05460DB12846F3E70021B9
:103400002068FFF7DDFA606704212068FFF7D8FA2B
:10341000A06708212068FFF7D3FAE0670C21206835
:10342000FFF7CEFA80210851606C032807D003A96A
:103430002068FFF772FC05460DB12846D3E7606CA3
:10344000032820D0BDF80C1021655022125B110416
:103450002068FFF711FC05460DB12846C3E700219F
:103460002068FFF7ADFA606604212068FFF7A8FA2C
:10347000A06608212068FFF7A3FAE0660C21206807
:10348000FFF79EFA206704212068FFF799FA010DE3
:10349000E16404A92046FEF70BF810B14FF080500C
:1034A000A1E75020005B01040A4600232068FFF7D3
:1034B000ADFB05460DB1284695E7D4E90412A06995
:1034C000CDE90012029094E80F00FFF787FA002080
:1034D00089E70000F8B50446002000900026002788
:1034E0002068FFF72BFB05460DB12846F8BD206884
:1034F000FFF73AFB054645B10021A1642068FFF7BC
:103500001DFB05461DB12846F0E70121A164A06C12
:10351000012808D100212068FFF79DFA054615B162
:103520004FF08050E2E71DE000212068FFF793FA9A
:1035300005460DB12846D9E718492068FFF7A8FAD3
:10354000054615B14FF08050D0E700212068FFF705
:1035500037FA0646012080EAD67080F0010700980D
:10356000401C00904FF6FF710098884201D2002F56
:10357000DAD04FF6FF710098884202D34FF0807086
:10358000B4E706F08040B0F1804F02D101206064C2
:1035900001E0002060640020A8E70000000010C1E6
:1035A0002DE9F0410546AC6AEF6AE7B14FF000083B
:1035B00014E02868FFF731FA06462670641C7F1E67
:1035C000300A2070641C7F1E300C2070641C7F1E2B
:1035D000300E2070641C7F1E08F10108B8F1080F3E
:1035E000E7D3AC62EF62BDE8F08170B504460D46EA
:1035F00015B94FF0006070BD5022125B11042068B5
:10360000FFF76FFB06460EB13046F4E70021206855
:10361000FFF7D6F928600020EDE77CB504460020CE
:103620000090019000212068FFF7CAF900F00070B7
:10363000B0F1007F02D14FF400607CBD69462046A6
:10364000FFF720FE05460DB12846F6E7019800F485
:10365000803098B15022125B11042068FFF7FBF90B
:1036600005460DB12846E8E700212068FFF74AFA31
:1036700005460DB12846E0E70020DEE74FF0806008
:10368000DBE77CB504460020009001900021206813
:10369000FFF796F900F00070B0F1007F02D14FF40F
:1036A00000607CBD69462046FFF7ECFD05460DB184
:1036B0002846F6E7019800F4802098B15022125B6A
:1036C00011042068FFF7C7F905460DB12846E8E761
:1036D00002212068FFF716FA05460DB12846E0E7FB
:1036E0000020DEE74FF08060DBE7F8B505462C6A86
:1036F0006E6A1EB300271DE020780090641C761EC1
:103700002078009941EA00200090641C761E207801
:10371000009941EA00400090641C761E20780099D0
:1037200041EA00600090641C761E69462868FFF735
:103730008CF97F1C082FDFD32C626E62F8BD00006D
:1037400010B50446012006490870FCF7D3FD20B9E6
:103750002046FFF73BFD024908700148007810BD84
:1037600010000020F0B589B007460D46144601262A
:103770001648007800F0010010B1032009B0F0BD38
:1037800035B1012D06D0022D0BD0032D18D10FE03D
:10379000002617E001A8FCF797FD07982060002697
:1037A00010E001A8FCF790FD08982080002609E0B1
:1037B00001A8FCF789FD0898400A2060002601E076
:1037C000042600BF00BF3046D8E7000010000020EC
:1037D0002DE9F04180460C4615461E460127BB1ECA
:1037E000324629462046FCF7A9FD28B900BFFCF760
:1037F00075FD0028FBD100273846BDE8F08110B5E3
:1038000004462046FFF7E2FC10BD2DE9F04180465A
:103810000C4615461E460127BB1E32462946204649
:10382000FCF7A6FD28B900BFFCF758FD0028FBD126
:1038300000273846BDE8F08170B504460D46228A5F
:1038400091B22A466068FDF725F9002000E0401C8F
:103850000A28FCDB70BD10B504462046FDF704F8CD
:1038600010BD00003EB504464EA000680290002541
:1038700000BF00212046FFF7DFFF6420042301AAD8
:1038800002A90090204600F0D9F820B90121204675
:10389000FFF7D2FF83E001212046FFF7CDFF9DF81F
:1038A000050020729DF80600E0729DF80700607226
:1038B000207A8C282DD012DC372826D008DC01286D
:1038C0001ED0042828D01C2827D0202827D118E073
:1038D000622820D0852821D0892820D11AE0C2284A
:1038E00010D006DCA12813D0AD2810D0BF2816D1E7
:1038F0000CE0C82808D0D52805D0EF280FD111E05A
:1039000010E00FE00EE00DE00CE00BE00AE009E053
:1039100008E007E006E005E004E003E002E0002044
:10392000207200BF00BF607A113810282AD2DFE869
:1039300000F0080B0E1114171A1D21292929292915
:1039400029250220E06120E00420E0611DE008203C
:10395000E0611AE01020E06117E02020E06114E04F
:103960004020E06111E08020E0610EE04FF48070C3
:10397000E0610AE04FF40070E06106E04FF480601F
:10398000E06102E00020607200BF00BFE06900015A
:10399000A061A0690003000A6061012500BF00BFAB
:1039A00028463EBD9FFFFFFF2DE9F04104460D462E
:1039B00016461F464FF0000800BF24B11DB116B1D6
:1039C000A07A012800D121E020212046FCF732FC1A
:1039D00025606660276101212046FFF72DFF02E088
:1039E0000120FFF738FFFDF75BF81428F8D32046D5
:1039F00000F03CF800B909E02046FFF733FF8046AD
:103A0000B8F1000F01D00120A07200BF00BF4046F6
:103A1000BDE8F0812DE9F04104460E4615461F46EB
:103A20004FF00008AAB23B4631462068FEF7B6FBCD
:103A300008B94FF001084046BDE8F0812DE9F84390
:103A400004460E4617461D46DDF820804FF000095B
:103A5000ABB2CDF800803A4631462068FEF77CFCD8
:103A600008B94FF001094846BDE8F88338B5044667
:103A700001250AA00068009000212046FFF7DCFE27
:103A80006423012269462046FFF7C4FF00B90025E0
:103A900001212046FFF7D0FE284638BD0400000073
:103AA0007CB504460E4615463346012202212046C7
:103AB000009500F039F828B1606D40F02000606595
:103AC00003207CBD164800681821B0FBF1F01549B1
:103AD000B0FBF1F04FF47A71484301906068B0F5A3
:103AE000827F0DD13346002280212046009500F0D0
:103AF0001BF898B1606D40F0200060650320E0E79E
:103B000000BF019800B908E00198401E01902068AC
:103B10008068C0F3C0100028F3D100BF0020D0E7B8
:103B20000C00002040420F002DE9F84F04460D46DE
:103B300090461E46DDF82890FCF7B2FFA0EB090086
:103B4000371AFCF7ADFF82462C480068C0F3CB3033
:103B50007843009045E0701C002842D0FCF7A0FF9D
:103B6000A0EB0A00B84200D2A7BB2068406820F052
:103B7000E000216848606068B0F5827F0DD1A068E0
:103B8000B0F5004F03D0A068B0F5806F05D1206874
:103B9000006820F0400021680860A06AB0F5005F6E
:103BA0000DD100BF2068006820F400502168086033
:103BB0002068006840F400502168086000BF0120C0
:103BC00084F8510000BF002084F8500000BF03209B
:103BD000BDE8F88FFFE7009800B900270098401E65
:103BE0000090206880682840A84201D1012000E0B0
:103BF00000204045AFD10020EAE700000C00002083
:103C0000704710B5FCF752FF10BD000000B593B02F
:103C1000302107A8FCF70EFB142102A8FCF70AFBD1
:103C200000BF002001902448006840F080502249E5
:103C300008600846006800F08050019000BF00BF97
:103C400000BF002001901D48006840F480401B49DF
:103C500008600846006800F48040019000BF00BF83
:103C6000012007900004089002200D9041050E915C
:103C700004210F91A8211091022111910721129185
:103C800007A8FDF72DF908B1FCF70EFC0F200290F4
:103C900002200390002004904FF4A05005904FF4B0
:103CA00080500690052102A8FCF7DAFF08B1FCF766
:103CB000FBFB13B000BD0000403802400070004024
:103CC0000348006840F47000014908607047000034
:103CD00088ED00E000BF00BF02680C3252E8002F00
:103CE00022F4907102680C3242E80013002BF3D1E9
:103CF00000BF00BF00BF0268143252E8002F22F05C
:103D000001010268143242E80013002BF3D100BF16
:103D1000016B01290ED100BF00BF02680C3252E8CE
:103D2000002F22F0100102680C3242E80013002B31
:103D3000F3D100BF202180F84210002101637047B9
:103D40002DE9F84F04462068006920F44050E168EE
:103D50000843216808612169A06808436169084334
:103D6000E169084300902068C06849F20C6188430B
:103D7000009908432168C8602068406920F44070B9
:103D8000A16908432168486176492068884203D0C8
:103D900075492068884203D1FDF73AF8814602E070
:103DA000FDF726F88146E069B0F5004F6CD102209E
:103DB0006168A0FB015003461920A9FB0070014671
:103DC0002A463846FCF7FEF96421B0FBF1F04FEAD1
:103DD000001A02206168A0FB01510B461920A9FBC3
:103DE00000712A463846FCF7EDF9834602206168E7
:103DF000A0FB015003461920A9FB00712A46384652
:103E0000FCF7E0F96421B0FBF1F000EBC00101EB3D
:103E10000010ABEB8000322101EBC0006421B0FB4D
:103E2000F1F000F0F8000AEB400A02206168A0FB04
:103E3000015003461920A9FB007001462A46384666
:103E4000FCF7C0F9834602206168A0FB01500346DD
:103E50001920A9FB00712A463846FCF7B3F9642102
:103E6000B0FBF1F000EBC00101EB0010ABEB800008
:103E7000322101EBC0006421B0FBF1F000F007003B
:103E80005044216888606AE004206168A0FB01500A
:103E900003461920A9FB007001462A463846FCF764
:103EA00091F9824604206168A0FB01500346192065
:103EB000A9FB007001462A463846FCF783F96421C5
:103EC000B0FBF1F000EBC00101EB0010AAEB8000A9
:103ED000322101EB00106421B0FBF1F000F0F00A98
:103EE00004206168A0FB017003461920A9FB005162
:103EF0003A462846FCF766F96421B0FBF1F00AEB7C
:103F0000001A04206168A0FB01510B461920A9FB8F
:103F100000712A463846FCF755F98346042061684B
:103F2000A0FB015003461920A9FB007001462A4658
:103F30003846FCF747F96421B0FBF1F000EBC00113
:103F400001EB0010ABEB8000322101EB001064218B
:103F5000B0FBF1F000F00F00504421688860BDE82C
:103F6000F88F000000100140001401402DE9F843D3
:103F700004460D4617469846089E31E0701C70B303
:103F8000FCF78EFDA0EB0800B04200D816B9032064
:103F9000BDE8F8832068C06800F00400F8B1802D07
:103FA0001ED0402D1CD020680068C0F3C000B0B106
:103FB00000BF0020009020680068009020684068E2
:103FC000009000BF00BF2046FFF784FE0820606419
:103FD00000BF002084F8400000BF0120D8E7FFE7C1
:103FE000206800682840A84201D1012000E000209C
:103FF000B842C3D00020CBE700BFFEE70FB4054BAB
:1040000010B503A9044A029800F034F810BC5DF81A
:1040100014FB000035430008180000200248006827
:10402000C0F30220704700000CED00E010B500283E
:1040300004DB0A07130E054A135406E00A07140EA0
:10404000034A00F00F031B1FD45410BD00E400E02E
:1040500018ED00E002E008C8121F08C1002AFAD1DA
:1040600070477047002001E001C1121F002AFBD1F8
:10407000704700002DE9FF4F8DB09B460F46044668
:10408000002606E025280BD05A460F999047641C5D
:10409000761C20780028F5D111B03046BDE8F08FAD
:1040A0000025A8460122984900E0054314F8013F85
:1040B000203B02FA03F00842F7D120782E2817D1CE
:1040C00014F8010F45F004052A280ED06FF02F02D6
:1040D0002078A0F1300109290AD808EB880102EB09
:1040E000410100EB0108641CF2E757F8048B641CE3
:1040F00020786C280DD004DC4C2812D06A2811D10D
:1041000004E074280DD07A280CD10AE045F400159B
:1041100007E0617845F48015814202D1641C05F501
:104120008015641C2078692844D008DC0028B3D0AE
:10413000582867D063280FD0642808D13AE0702847
:1041400065D0732812D075285AD078285AD05A468C
:104150000F999047761CD5E017F8040B8DF80000F6
:1041600000208DF80100E946012003E057F8049B88
:104170004FF0FF3069074FF0000501D40AE06D1CD5
:1041800045450DDA8542FADB19F805100029F6D10C
:1041900006E06D1C8542FCDB19F805100029F8D1FA
:1041A0002E4404E019F8010B5A460F9990476D1EF2
:1041B000F8D2A7E00A200021CDE90801C5F302509A
:1041C00002280CD001CFC117021E71F100020CDAD7
:1041D0000023D0EB030063EB01012D2208E0FF1D5B
:1041E00027F00707F7E80201EEE72A0504D52B229E
:1041F0008DF8282001223CE0EA073AD02022F7E798
:104200000A2000E010200021CDE9080107E010207D
:10421000002145F00405CDE908014FF00808C5F379
:104220000250022810D001CF00214FF0000A2A07C7
:1042300020D52278702A0DD0DDE908C38CF0100C4F
:104240005CEA030C0CD015E0FF1D27F00707F7E828
:104250000201EAE740228DF828204FF0010A0CE025
:1042600050EA010306D030238DF828308DF829203C
:10427000022292462278582A04D024A20DF1200965
:104280000B9209E026A2F9E7DDE90823FBF79AFF84
:104290000B9B9B5C09F8013D50EA0102F4D1ADEBA8
:1042A000090020300890680701D44FF001080899F0
:1042B000884503DD0898A8EB000000E00020804658
:1042C000002506E00AA85A46405D0F9990476D1CEC
:1042D000761C5545F6DB04E030205A460F9990478E
:1042E000761CB8F10001A8F10108F5DC05E019F829
:1042F000010B5A460F999047761C0899481E089062
:104300000029F4DC641CC4E6092801003031323392
:104310003435363738396162636465660000000001
:1043200030313233343536373839414243444546EB
:104330000000000013B50C464FF6FF7301226946DA
:104340000248FEF7C3F900981CBD0000D801002008
:1043500070B5044621460348FDF78EF90546284608
:1043600070BD000020020020FCF7ACFBFFF74EFC04
:10437000FEF740FAFEF70CFAFEF7C0FAFEF7A8FACD
:10438000FEF7DEFAFEF728FA1023094A09490A481F
:10439000FFF70AFB00F01CF802E008A0FFF72EFE72
:1043A00000F016F80028F8D100F03CF800BFFEE756
:1043B00000000240800100201C000020636865634B
:1043C0006B205344206572726F720D0A000000006A
:1043D00010B51148114908600020486000210F48BD
:1043E0008160C1600161416101218161FDF778FA5D
:1043F00004460CB1012010BD09490848FDF73CF9FD
:104400004FF400610548FCF7BFFF04460CB10220E1
:10441000F1E70020EFE70000002C0140200200201F
:10442000A402002000B587B001A92348FDF711F8C8
:104430002248FFF78DFF2148006810B1012813D1F1
:104440000EE01E48406818B91DA0FFF7D7FD06E032
:104450001A484068012802D11EA0FFF7CFFD04E0F2
:1044600021A0FFF7CBFD00E000BF00BF9DF80410C6
:1044700022A0FFF7C3FD1148C16827A0FFF7BEFDCA
:104480000E48816928A0FFF7B9FD0C48C1692BA02F
:10449000FFF7B4FD0848C26D006EA2FB00200303C5
:1044A00043EA12512AA0FFF7A9FD044841692EA052
:1044B000FFF7A4FD07B000BD20020020A4020020E9
:1044C0004361726420547970653A534453432056D3
:1044D000310D0A004361726420547970653A534487
:1044E00053432056320D0A004361726420547970A0
:1044F000653A534448430D0A00000000436172646A
:10450000204D616E75666163747572657249443AD7
:1045100025640D0A0000000043617264205243418B
:104520003A25640D0A0000004C6F67426C6F636BA4
:104530004E62723A2564200D0A0000004C6F6742FB
:104540006C6F636B53697A653A2564200D0A00002D
:10455000436172642043617061636974793A2564D0
:10456000204D420D0A0000004361726420426C6FCE
:10457000636B53697A653A25640D0A0D0A000000E1
:1045800000061016000610160000000000000000D3
:1045900001020304060708090000000001020304E9
:1045A00041370008FF370008D13700080B380008F2
:1045B00065370008D4450008000000201C000000FA
:1045C00054400008F04500081C000020B40600001C
:1045D000644000080000000010000000010000001E
:1045E0000024F400010000000000000000000000B2
:040000050800018965
:00000001FF
