:020000040800F2
:1000000060130020A1010008F72300085722000810
:10001000F5230008E3030008C135000800000000D4
:100020000000000000000000000000003D33000858
:10003000A104000800000000F92300083F33000875
:10004000BB010008BB010008BB010008BB010008A0
:10005000BB010008BB010008BB010008BB01000890
:10006000BB010008BB010008BB010008BB01000880
:10007000BB010008BB010008BB010008BB01000870
:10008000BB010008BB010008BB010008BB01000860
:10009000BB010008BB010008BB010008BB01000850
:1000A000BB010008BB010008BB010008BB01000840
:1000B000BB010008BB010008BB010008BB01000830
:1000C000BB010008BB010008BB010008BB01000820
:1000D000BB010008BB010008BB010008BB01000810
:1000E000BB010008BB010008BB010008BB01000800
:1000F000BB010008BB010008BB010008BB010008F0
:10010000BB01000835240008BB010008BB01000842
:10011000BB010008BB010008BB010008BB010008CF
:10012000BB010008BB010008BB010008E503000893
:10013000BB010008BB010008BB010008BB010008AF
:10014000BB010008BB010008BB010008BB0100089F
:10015000BB010008F1030008BB010008BB01000857
:10016000BB010008BB010008BB010008BB0100087F
:10017000BB010008BB010008BB0100080000000033
:10018000BB010008BB010008DFF810D000F092F8B6
:10019000004800477D470008AFF30080601300204F
:1001A0000648804706480047FEE7FEE7FEE7FEE711
:1001B000FEE7FEE7FEE7FEE7FEE7FEE7D9330008CD
:1001C000890100082DE9F05F0546002092469B4614
:1001D00088460646814640241BE02846414647465D
:1001E000224600F057F853465A46C01A914110D3A0
:1001F00011461846224600F03EF82D1A67EB01081A
:100200004F4622460120002100F035F817EB000987
:100210004E41201EA4F10104DFDC484631462A4647
:100220004346BDE8F09FD2B201E000F8012B491E21
:10023000FBD270470022F6E710B513460A46044683
:100240001946FFF7F0FF204610BD30B50B460146BA
:1002500000202022012409E021FA02F59D4205D365
:1002600003FA02F5491B04FA02F52844151EA2F10F
:100270000102F1DC30BD202A04DB203A00FA02F151
:10028000002070479140C2F1200320FA03F3194384
:1002900090407047202A04DB203A21FA02F0002126
:1002A000704721FA02F3D040C2F120029140084386
:1002B00019467047064C074D06E0E06840F0010320
:1002C00094E8070098471034AC42F6D3FFF760FF7C
:1002D000384E0008584E000830B58C1810F8012B25
:1002E00012F00F0301D110F8013B120906D110F8EA
:1002F000012B03E010F8015B01F8015B5B1EF9D1F3
:1003000001E001F8013B521EFBD1A142E6D30020DF
:1003100030BD000010B501240821034800F044FB63
:1003200000B10024204610BD000C024070470000C0
:100330000146014801F022B84C0D002010B50448D8
:1003400001F02EF8042801D0012010BD002010BDBE
:100350004C0D002010B500F015F8012801D0012047
:1003600010BD074801F016F9044634B94FF4006196
:10037000034800F0ADFE00B10124204610BD00008E
:100380004C0D002008B501200090FFF7C3FF08B90D
:10039000002000909DF8000008BD000038B5002442
:1003A000009313460A460146034801F011FA00B1D2
:1003B0000124204638BD00004C0D0020704700008D
:1003C00038B50024009313460A460146034801F05D
:1003D0001BFB00B10124204638BD00004C0D00205D
:1003E0007047FEE7014800F093B80000D00D0020F0
:1003F000014800F08DB80000300E00200168CAB23C
:10040000103A1823B2FBF3F2064B9B5CC3656FF303
:100410000901032A02D9091D816500E08165806D0B
:1004200070470000664D000810B5014600208A6A3A
:100430008B694FF0C074002B0ED0B3F5005F1AD05B
:1004400062B3012A2AD0022A28D0032A03D1C96A1A
:10045000C90100D5012010BD1AB1012A06D0022A17
:10046000F9D1C96AC901F6D5012010BDC96AA142F6
:10047000FBD1012010BD52B1012A0AD0022A06D0B8
:10048000032AF7D1C96AA142F4D1012010BD01208D
:1004900010BDC96AC901FBD5012010BD012010BDE6
:1004A000704772B6FEE70022AFF3008030B5044615
:1004B00001200D4B5D7A002D14D1587A1D54587AC5
:1004C00003EB800044605C7A03F108002254587A00
:1004D000421C5A72303008703A2048702F208870C1
:1004E000CD70002030BD0000500F002090F8351076
:1004F000022903D08021416501207047052180F841
:1005000035100068016821F001010160002070478A
:100510002DE9F84304464FF00009CDF800906F48EC
:100520004FF416510068B0FBF1F7A56D2E6894F8F2
:100530005C00082202FA00F1314210D02068016804
:1005400049070CD5016821F00401016094F85C00B2
:1005500002FA00F1A960606D40F00100606594F856
:100560005C104FF0010808FA01F0304208D0216811
:100570004969090604D5A860606D40F00200606515
:1005800094F85C1004208840304208D02168096843
:10059000890704D5A860606D40F00400606594F898
:1005A0005C1010208840304220D02168096809077B
:1005B0001CD5A8602068016849030CD500680003B9
:1005C00004D4216C91B1204688470FE0A16C69B139
:1005D000204688470AE00168C90503D4016821F074
:1005E00008010160216C09B12046884794F85C102D
:1005F0002020884030424CD021680968C90648D57F
:10060000A86094F8350005280BD0206801684903DC
:1006100030D50068000328D4616C51B32046884768
:1006200037E02068016821F0160101602068416907
:1006300021F080014161206C08B9A06C20B12068D4
:10064000016821F00801016094F85C103F208840A7
:10065000A86084F8358084F83490216D00293BD05F
:1006600001B02046BDE8F0430847E16B09B12046E0
:1006700088470EE00168C90507D4016821F0100120
:10068000016084F8358084F83490E16B09B120462C
:100690008847606D00281FD0606DC00714D005200A
:1006A00084F835002068016821F00101016000989C
:1006B000401C0090B84203D820680068C007F6D1FB
:1006C00084F8358084F83490E16C002904D001B0BE
:1006D0002046BDE8F0430847BDE8F8831008002035
:1006E0002DE9F041044600F06DF905465CB10220A9
:1006F00084F83500002684F834602068016821F011
:10070000010101600DE00120BDE8F08100F05AF91F
:10071000401B052805D920206065032084F835009A
:10072000F2E720680068C007F0D121680A68204815
:100730000240D4E901031843D4E903352B4318439D
:1007400063691843A3691843E3691843236A18438C
:100750001043626A042A03D1D4E90B231A431043DD
:1007600008602068406920F00700656A2946054353
:10077000012704290DD1A06A0543E06A48B120464B
:10078000FFF752FE28B14020606584F835700120E3
:10079000BAE7206845612046FFF730FE94F85C20F8
:1007A0003F2191408160666584F835700020ABE799
:1007B0003F8010F070B5044600F004F90546601C57
:1007C00002D004480078044400F0FCF8401BA0422A
:1007D000FAD370BD040800202DE9F84F0022DFF89D
:1007E0009C914FF0010803274FF00F0C09F1040A08
:1007F000A9F1040B08FA02F50B682B40AB426ED14D
:100800000C7904F00304012C01D0022C15D1866868
:10081000540007FA04FE26EA0E06D1F80CE00EFAA0
:1008200004FE4EEA060EC0F808E04468AC430D79B9
:10083000C5F300159540254345600C79E443A407B2
:1008400008D0C568540007FA04F6B5438E68A64080
:100850002E43C6600C7904F00304022C11D1D40895
:1008600000EB8406356A5407E40E0CFA04FE25EA10
:100870000E05D1F810E00EFA04FE4EEA050EC6F899
:1008800020E00568540007FA04F6B5430E7906F037
:100890000306A6402E4306604C6814F4403F67D020
:1008A000374C256845F480452560246804F480446D
:1008B0000094344C22F003052E19D6F808589407FA
:1008C0004FEA147E0CFA0EF4A5432F4CA04201D13E
:1008D000002424E02D4CA04202D101241FE047E077
:1008E0002B4CA04201D1022419E02A4CA04201D194
:1008F000032414E0284CA04201D104240FE0274C2B
:10090000A04201D105240AE0254CA04201D10624D1
:1009100005E0244CA04201D1072400E0082404FA99
:100920000EF42C43C6F80848D9F800409C434D68A3
:10093000ED0200D51C43C9F80040DAF800409C43A2
:100940004D68AD0200D51C43CAF80040DBF80040FA
:100950009C434D68AD0300D51C43CBF80040074DC8
:10096000083D2C689C434E68F60300D51C432C6060
:10097000521C102AFFF43EAFBDE8F88F083C01403E
:1009800044380240003001400000024000040240B0
:1009900000080240000C0240001002400014024017
:1009A00000180240001C02400069084201D00120EA
:1009B000704700207047002A01D081617047090408
:1009C000816170470148806870470000040800207A
:1009D0000248816802781144816070470408002051
:1009E00010B50B48016841F400710160016841F4E1
:1009F00080610160016841F480710160032000F0B2
:100A000071F80F2000F006F800F026F8002010BD65
:100A1000003C024070B504460D4D4FF47A712878C1
:100A2000B1FBF0F00B490968B1FBF0F001F03FFBBE
:100A300008B1012070BD102C07D200222146501EA3
:100A400000F030F86C60002070BD012070BD000027
:100A5000040800201008002008B50A48016841F485
:100A600080410160006800F4804000900548001F4C
:100A7000016841F080510160006800F080500090F2
:100A800008BD000044380240002809DB00F01F02C6
:100A9000012191404009800000F1E020C0F80011E0
:100AA00070470000F0B40D460D4B1B68C3F30223E2
:100AB000C3F10704042C00D90424191D072901D20D
:100AC000002300E0DB1E012606FA04F1491E29403E
:100AD00099409E40761E16403143F0BC02F082BD24
:100AE0000CED00E000F00701054A10684FF6FF0327
:100AF000184040EA01200349084310607047000095
:100B00000CED00E00000FA052DE9F04704460D4623
:100B1000002C13D0DFF82891D9F80000EFB200F0D4
:100B20000700A8420CD289F80070D9F8000000F044
:100B30000700A84204D00120BDE8F0870120FBE7B0
:100B40002068404E810712D5400703D5306840F435
:100B5000E05030602078000703D5306840F46040F2
:100B600030603068A16820F0F000084330602078E1
:100B7000C00731D0334960680839012808D00228FD
:100B80000BD0032809D0096889070BD40120D3E7CB
:100B90000968890306D40120CEE70968890101D4D8
:100BA0000120C9E7316821F0030101433160FFF7FB
:100BB00009FF804641F2883A07E0FFF703FFA0EB08
:100BC0000800504501D90320B6E73068616800F09D
:100BD0000C00B0EB810FF0D1D9F8000000F0070055
:100BE000A84209D989F80070D9F8000000F0070080
:100BF000A84201D001209FE72078400705D5306842
:100C0000E16820F4E050084330602078000706D502
:100C10003068216920F4604040EAC100306000F093
:100C20003FF83168084AC1F30311515CC8400749D5
:100C3000086007480068FFF7EDFE00207CE7000031
:100C4000003C0240083802406E4D000810080020A9
:100C500008080020014800687047000010080020C4
:100C600000B5FFF7F7FF04490968044AC1F3822180
:100C7000515CC84000BD0000083802407E4D0008AD
:100C800000B5FFF7E7FF04490968044AC1F34231A0
:100C9000515CC84000BD0000083802407E4D00088D
:100CA00010B51748006810F00C01164816D0431014
:100CB000042912D0082911D1114C241F216801F0F8
:100CC0003F02216849020AD52068C0F38810A0FBC2
:100CD00003010023FFF776FA09E0184610BD2168EA
:100CE0000023C1F38811A1FB0001FFF76BFA216813
:100CF000C1F30141491C4900B0FBF1F010BD0000F7
:100D0000083802400024F4002DE9F84F0446002C76
:100D100013D02078DFF8A083C007A8F1040556D0CF
:100D200008F104000168C1F3810101290CD00068B9
:100D3000C0F38100022803D00DE00120BDE8F88F48
:100D4000D8F80000400206D5286880033FD56068C7
:100D500070BB0120F2E76068B0F5803F10D0B0F5BD
:100D6000A02F12D0286820F480302860286820F452
:100D7000802028606068E0B1FFF724FE064614E09A
:100D8000286840F480302860F4E7286840F4802028
:100D90002860286840F480302860EBE7FFF712FEF7
:100DA000801B642801D90320C8E728688003F5D593
:100DB0000DE0FFF707FE064606E0FFF703FE801B87
:100DC000642801D90320B9E728688003F5D4207886
:100DD000BA4F80074FF0000948D5B748001D016899
:100DE00011F00C0F08D00068C0F38100022813D165
:100DF000D8F8000040020FD42868800704D5E068C6
:100E0000012801D0012099E72868216920F0F80025
:100E100040EAC100286029E0E068B8B101203860EC
:100E2000FFF7D0FD064606E0FFF7CCFD801B022849
:100E300001D9032082E728688007F5D52868216951
:100E400020F0F80040EAC10028600FE0C7F80090E9
:100E5000FFF7B8FD064606E0FFF7B4FD801B022849
:100E600001D903206AE728688007F5D420780007B5
:100E700029D5DFF844A2924861690AF1700A89B164
:100E800001210160FFF79EFD064606E0FFF79AFD8F
:100E9000801B022801D9032050E7DAF80000800700
:100EA000F4D510E0C0F80090FFF78CFD064606E090
:100EB000FFF788FD801B022801D903203EE7DAF8FE
:100EC00000008007F4D42078400778D54FF0000A5E
:100ED00079483C300068C0000BD477483C3001684A
:100EE00041F080510160006800F0805000904FF0A8
:100EF000010ADFF8D0B1DBF80000C00514D4DBF83C
:100F0000000040F48070CBF80000FFF75BFD064660
:100F100006E0FFF757FD801B022801D903200DE7EB
:100F2000DBF80000C005F4D5634EA0686C360128DC
:100F30000FD0052812D0306820F0010030603068F2
:100F400020F004003060A068F8B1FFF73BFD834655
:100F500017E0306840F001003060F4E7306840F09E
:100F600004003060306840F001003060EBE7FFF7CC
:100F700029FDA0EB0B0141F28830814201D9032009
:100F8000DCE630688007F2D510E0FFF71BFD8346F2
:100F900009E0FFF717FDA0EB0B0141F28830814219
:100FA00001D90320CAE630688007F2D4BAF1010FF4
:100FB00005D141483C30016821F080510160A069B1
:100FC000C0B33D49091D09684FF0FF36C1F38101E7
:100FD000022946D0022805D0C7F86090FFF7F2FC3E
:100FE00004463AE0C7F86090FFF7ECFC814607E062
:100FF000FFF7E8FCA0EB0900022801D903209DE6D9
:1010000028688001F4D4D4E907010843616AA26A20
:10101000890106EB520241EA0241084394F82C1080
:1010200040EA0160C8F8000001203866FFF7CAFCFA
:10103000044607E03DE0FFF7C5FC001B022801D98C
:1010400003207BE628688001F5D532E0FFF7BAFC83
:10105000001B022801D9032070E628688001F5D41E
:1010600027E0012823D0D8F80000E26900F48001CD
:1010700091421AD1226A00F03F01914215D147F600
:10108000C071626A0140B1EB821F0ED1A26A00F406
:10109000403106EB5202B1EB024F06D194F82C100E
:1010A00000F07060B0EB016F03D0012046E6012034
:1010B00044E6002042E600000438024000004742B7
:1010C000800E47420070004010B5FFF72FF910BDA9
:1010D0002DE9F0418AB004460D460026032084F82D
:1010E0003400606C03281ED0B5F5805F08D0B5F5DC
:1010F000006F0AD085B1A06B40F00060A06316E0DD
:10110000A06B40F08050A06311E0204601F0D9FEB2
:10111000A16B0143A1630AE0204601F0A9FEA16B87
:101120000143A16303E0A06B40F08050A063A06B7B
:10113000174F4FF0010828B12068876384F8348086
:10114000012613E060680490A0680590E0680690AE
:10115000079560690890A069099007A807C88DE8FD
:10116000070004A920680EC901F06AF94FF4007164
:10117000206801F0C9F928B121688F63A16B014390
:10118000A163012684F834800AB03046BDE8F081BE
:10119000FF054000704750F8742F120E0A70026865
:1011A000120A4A8002784368120642EA13224A6011
:1011B00002790A728268120E4A728268C368120249
:1011C00042EA1362CA60C268C2F303520A74C26878
:1011D000C2F30B224A82007BC0F34600087501204F
:1011E0004875002070470000F0B550F8642F920F4A
:1011F0000A700268C2F383624A700268C2F3016235
:101200008A700268120CCA700288120A0A71027887
:101210004A714268120DCA804268C2F303420A72E0
:101220008288C2F3C0324A728288C2F380328A72E4
:101230008288C2F34032CA728288C2F300320A73D3
:1012400000264E7350F8203C643801244FF400759A
:10125000002B0CD0012B3AD0026847499163816B77
:1012600041F08051816380F834400120F0BDB0F836
:101270006820C36E9205120D42EA93720A61C26E33
:10128000C2F3C2620A75C26EC2F302624A75C26ECE
:10129000C2F342528A75C26EC2F38242CA75C26EEE
:1012A000C2F3C2320A760B695B1C43650A7E02F008
:1012B0000702921C934043650A7A02F00F0704FA72
:1012C00007F28265520A5343C36505660EE090F843
:1012D0006820C36E9206920A42EA13420A610A69C2
:1012E000521C93024365C3658565056630F86C2F13
:1012F000C2F3803201F8192F0288C2F3C6124A7075
:10130000027802F07F028A704268D20FCA70426887
:10131000C2F341720A714268C2F382624A71426842
:10132000C2F383528A714268C2F34052CA710E728C
:101330004268C2F300424A728288C2F3C0328A72A3
:101340008288C2F38032CA728288C2F340320A7342
:101350008288C2F300324A738288C2F381228A7380
:101360008288C2F30122CA730079C0F34600087470
:101370004C740020F0BD0000FF054000426C0A6084
:10138000826C4A60C26C8A60026DCA60426D0A61FA
:10139000826D4A61C26D8A61006EC861002070472B
:1013A00038B50446002000906946204601F049FD0A
:1013B00010B1A16B0143A1630098C0F3432038BD75
:1013C0002DE9F0410446256B2068416B090406D5E0
:1013D000290704D52046BDE8F04101F017BD416B57
:1013E0004FF00008C9054FF0010752D5390281635B
:1013F0002068C16B4CF23A329143C1632068C16AE4
:1014000021F00101C162280724D505F0020605F08C
:101410002000304309D0206801F094F928B1A16B75
:101420000143A1632046FFF7B5FE216840F23A5020
:10143000886384F83470C4F8308005F001003043CC
:1014400004D0204600F0D8FABDE8F081204600F034
:10145000D7FAF9E72806F7D5A80609D5206801F0DC
:1014600071F928B1A16B0143A1632046FFF792FEF9
:1014700005F0010005F002010843E5D12068C16ACA
:1014800021F00801C16284F83470204600F0B8FAF7
:10149000DAE7416B490406D5290704D52046BDE8A3
:1014A000F04101F037BD416B40F23A221142CBD0FE
:1014B000416B890703D5A16B41F00201A163416B28
:1014C000090703D5A16B41F00801A163416B8906AF
:1014D00003D5A16B41F02001A163416BC90603D57F
:1014E000A16B41F01001A163416B890503D5A16B8C
:1014F00041F00801A16340F23A7181632068C16B39
:1015000040F23A329143C163206801F01BF9A16BAC
:101510000843A063280707D584F83470C4F83080E6
:101520002046FFF737FE8FE728068DD505F010001F
:1015300005F0200108430CD0E16B14480865E06B0E
:10154000FEF7D4FF002884D0E06BBDE8F04101F045
:10155000DFBA05F0010005F0020108430CD0216C50
:101560000B480865206CFEF7C1FF002890D0206C66
:10157000BDE8F04101F0AABAC4F8388084F83470AC
:10158000C4F830802046FFF79FFD5DE7112B00086F
:10159000CD2A000870B50446002C04D094F834001D
:1015A000002510B105E0012070BD2577204600F030
:1015B0005FF8032084F83400204600F00BF808B1EF
:1015C000012070BDA5632563012084F8340000204C
:1015D00070BD000070B58AB0044600252946049508
:1015E0000591069107910891762009900091CDE927
:1015F00001100B460A46206800F022FF10B10120BE
:101600000AB070BD184E3560206800F02EFF01252D
:1016100035600220FFF7CEF8204601F0A1FB30B183
:1016200084F83450A16B0143A1630120E8E7204610
:1016300001F020FB30B184F83450A16B0143A16369
:101640000120DDE74FF40071206800F05DFF48B134
:10165000226806499163A16B0143A16384F8345069
:101660000120CDE70020CBE7A0802542FF05400008
:101670002DE9F04F87B00546142102A8FEF7DAFDE8
:101680004D49286888427DD14C4800684B4940F458
:10169000006008600846006800F400600190474858
:1016A00014380068454940F00400143908600846C1
:1016B000006800F0040001900846006840F008004F
:1016C00008600846006800F0080001904FF4F850E8
:1016D00002900220039000200490032605960C241B
:1016E000069402A93648FFF777F8042702970220EC
:1016F0000390002004900596069402A93148FFF754
:101700006BF8324C30482060780660604020A06062
:101710000020E060380220614FF48058C4F8148043
:101720000001A0612020E0614FF40039C4F820904E
:101730006762A6624FF4000AC4F82CA04FF4001BA5
:10174000C4F830B02046FEF7CBFF08B1FEF7A9FE83
:10175000EC63A5631C481D4C4830603420604FF09A
:10176000006060600020A060E0604FF48060206155
:10177000C4F814800001A0612020E061C4F820902A
:10178000676200E014E0A662C4F82CA0C4F830B090
:101790002046FEF7A5FF08B1FEF783FE2C64A56383
:1017A000002211463120FFF77DF93120FFF76CF957
:1017B00007B0BDE8F08F0000002C01404438024023
:1017C00000080240000C024058640240D00D002086
:1017D0002DE9FF4F87B004460D461646DDF85080D0
:1017E000FFF7F0F882465DB194F8340001280DD07F
:1017F000A06B40F00050A06301200BB0BDE8F08F5B
:10180000A06B40F00060A0630120F6E74FF0000BF2
:10181000C4F838B00A98E16D3044884205D9A06B0D
:1018200040F00070A0630120E7E7032084F8340053
:101830002068C0F82CB0606C012800D076024FF010
:10184000FF3001900A9840020290902003900227F6
:101850000497CDF814B04FF00109CDF8189001A904
:10186000206800F0CAFD0A98012805D9276331468F
:10187000206800F0A7FE05E0C4F8309031462068EB
:1018800000F0B9FE58B122685A499163A16B014337
:10189000A16384F83490C4F830B00120ADE7029E13
:1018A0001CE0406B000410D57EB10027206800F0DA
:1018B000E0FD2870010A6970010CA970000EE87043
:1018C0002D1D361F7F1C082FF0D3FFF77BF8A0EBF0
:1018D0000A00404521D2B8F1000F1ED02068416BAC
:1018E00040F22A321142DCD02168496BC90521D56A
:1018F0000A9901291ED9616C03291BD000F022FF2F
:10190000C0B122683B499163A16B0143A16384F894
:101910003490C4F830B001206FE7216835488863FF
:10192000A06B40F00040A06384F83490C4F830B05D
:10193000032062E72068416B090702D4416B8905E7
:101940000BD52C498163A06B40F00800A06384F89C
:101950003490C4F830B001204FE7416B89070BD5B4
:1019600024498163A06B40F00200A06384F83490A6
:10197000C4F830B0012040E7416B89061FD51D49EE
:101980008163A06B40F02000A06384F83490C4F819
:1019900030B0012031E700F06CFD2870010A697059
:1019A000010CA970000EE8702D1D361FFFF70AF814
:1019B000A0EB0A00404510D2B8F1000F0DD020680E
:1019C000416B890201D5002EE5D1216840F23A50E1
:1019D000886384F8349000200FE721680548886305
:1019E000A06B40F00040A06384F83490C4F830B09D
:1019F000012002E7FF05400010B5FEF7DFFC10BD37
:101A000010B5FEF7EDFC10BD2DE9F04F89B004468E
:101A10000E4615469B46FEF7D5FF02905EB194F840
:101A2000340001280DD0A06B40F00050A0630120CD
:101A300009B0BDE8F08FA06B40F00060A06301200A
:101A4000F6E74FF0000AC4F838A0E16D05EB0B0093
:101A5000884205D9A06B40F00070A0630120E7E741
:101A6000032084F834002068C0F82CA0606C0128A2
:101A700000D06D024FF0FF3003904FEA4B200490EE
:101A800090200590CDF818A0CDF81CA04FF00109CA
:101A9000CDF8209003A9206800F0AFFCBBF1010F46
:101AA00007D9202020632946206800F065FE804683
:101AB00006E0102020632946206800F076FE80466C
:101AC000B8F1000F0CD021684B488863A06B40EA46
:101AD0000800A06384F83490C4F830A00120A7E780
:101AE000049F24E0406B400418D5BFB10025307836
:101AF0000190717840EA01200190B17840EA0140FC
:101B00000190F178361D40EA016001903F1F01A964
:101B1000206800F0C1FC6D1C082DE8D3FEF752FFD1
:101B20000299411A1298814220D21298F0B120688D
:101B3000416B40F21A321142D4D02168496BC90579
:101B400021D5BBF1010F1ED9616C03291BD000F018
:101B5000F9FDC0B1226828499163A16B0143A163DB
:101B600084F83490C4F830A0012061E7216822484D
:101B70008863A06B40EA0800A06384F83490C4F83E
:101B800030A0032054E72068416B090702D4416B61
:101B900089050BD518498163A06B40F00800A0634C
:101BA00084F83490C4F830A0012041E7416B8907E4
:101BB0000BD511498163A06B40F00200A06384F84B
:101BC0003490C4F830A0012032E7416BC9060BD530
:101BD00009498163A06B40F01000A06384F8349041
:101BE000C4F830A0012023E740F23A51816384F821
:101BF000349000201CE70000FF05400070B504464B
:101C0000002C09D0606A002540B125616561A5629C
:101C100094F8510040B10CE0012070BD6068B0F54F
:101C2000827FF4D0E561F2E784F85050204600F05E
:101C300045F8022084F851002068016821F0400135
:101C40000160A088218900F4827001F404410843F6
:101C5000A18901F400610843217C01F002010843DD
:101C6000217D01F001010843218B01F4007108433B
:101C7000217F01F03801084394F8201001F0800121
:101C80000843218D01F40051084321680860A069D0
:101C9000042101EA104094F8241001F010010843D7
:101CA000216848602068C16921F40061C1616565EF
:101CB000012084F85100002070BD000010B586B0EE
:101CC0000446142101A8FEF7B5FA1349206888429A
:101CD00020D100211148026842F48052026000685D
:101CE00000F4805000900D481438026842F0010260
:101CF0000260006800F001000090E02001900220E6
:101D000002900391032004900520059001A9044846
:101D1000FEF762FD06B010BD0030014044380240BD
:101D2000000002402DE9F84F04468B4692461D46BE
:101D3000002694F8500001280DD04FF0010884F8D7
:101D40005080FEF73FFE074694F85100B146012847
:101D500004D00226ACE00220BDE8F88FBBF1000FF2
:101D60001CD05FEA0A0019D0032084F85100C4F89F
:101D70005490C4F830B0A4F834A0A4F836A0C4F845
:101D80003890A4F83C90A4F83E90C4F84490C4F86D
:101D90004090A068B0F5004F02D00BE0012687E02C
:101DA0002068016821F0400101602068016841F469
:101DB0008041016020680168490603D4016841F050
:101DC00040010160E068B0F5006F05D0606888B33D
:101DD000BAF1010F2FD04FE0606810B1BAF1010FD6
:101DE00020D1206B21680088C860206B801C206394
:101DF000E08E401EE08615E020688168890709D5DD
:101E0000216B0988C160206B801C2063E08E401E1E
:101E1000E08607E0FEF7D6FDC01BA84201D3681C90
:101E200004D11DB1E08E0028E6D128E0032684F815
:101E300051803DE0FFE7206B216800780873206B3C
:101E4000401C2063E08E401EE08615E0206881681B
:101E5000890709D5216B09780173206B401C206329
:101E6000E08E401EE08607E0FEF7ACFDC01BA842F6
:101E700001D3681C0ED16DB1E08E0028E6D13A4640
:101E80002946204601F0BEF908B120206065A0680F
:101E900020B107E0032684F8518009E02068C1687A
:101EA00080680090606D08B1012601E084F85180DF
:101EB00084F8509030464FE72DE9FF4F81B004463B
:101EC0000E9E8B4698460125002794F85000012865
:101ED0000ED0AA4684F850A0FEF774FD814694F80F
:101EE0005100616801280DD0B1F5827F08D103E06F
:101EF000022005B0BDE8F08FA16809B9042801D01F
:101F00000227CFE0BBF1000F2DD0039858B35FEA52
:101F1000080028D094F85100042802D0052084F845
:101F20005100002060650399A163A4F83E80A4F8E5
:101F30003C80C4F830B0A4F83680A4F83480206423
:101F4000606420680168490603D4016841F04001DB
:101F50000160E068B0F5006F07D06068F0B3B8F1D9
:101F6000010F49D07EE001279CE0606810B1B8F114
:101F7000010F3AD1206B21680088C860206B801C5B
:101F80002063E08E401EE0862FE02068816889078C
:101F90000DD5E18E59B1012D09D1216B0988C160A0
:101FA000206B801C2063E08E401EE08600252068A8
:101FB0008168C9070BD0E18F49B1C068A16B088067
:101FC000A06B801CA063E08F401EE0870125FEF718
:101FD000F9FCA0EB0900B04207D300E00CE0701C54
:101FE00003D0032784F851A05CE0E08E0028CCD118
:101FF000E08F0028C9D13BE0206B2168007808738E
:10200000206B401C2063E08E401EE0862AE02068A2
:10201000816889070DD5E18E59B1012D09D1216B58
:1020200009780173206B401C2063E08E401EE0861F
:10203000002520688168C9070BD0E18F49B1C068CD
:10204000A16B0870A06B401CA063E08F401EE0876E
:102050000125FEF7B7FCA0EB0900B04201D3701CCC
:1020600010D17EB1E08E0028D1D1E08F0028CED1F2
:102070004A463146204601F0C5F838B101272020F4
:1020800060650FE0032784F851A00BE0A06818B941
:102090002068C16880680090606D08B1012701E088
:1020A00084F851A0002084F85000384621E710B58C
:1020B000401EB0F1807F01D3012010BD4FF0E0241D
:1020C00060610F21601701F08DFA0020A0610720E8
:1020D0002061002010BD70B50446002C04D094F897
:1020E0004100002510B106E0012070BD84F8405089
:1020F000204600F023F8242084F841002068C168BD
:1021000021F40051C160204601F096F92068016970
:1021100021F4904101612068416921F02A01416167
:102120002068C16841F40051C1606564202084F8D2
:10213000410084F842006563002070BD10B586B090
:102140000446142101A8FEF775F814492068884256
:1021500021D100211248026842F01002026000689A
:1021600000F0100000900E481438026842F001029E
:102170000260006800F0010000904FF4C060019020
:10218000022002900391032004900720059001A9EA
:102190000448FEF721FB06B010BD0000001001400E
:1021A00044380240000002402DE9F84304460E4640
:1021B00015461F4694F84100202802D00220BDE8B1
:1021C000F8837EB175B100206064212084F841005D
:1021D000FEF7F8FB8146A584E584A068B0F5805F32
:1021E00002D003E00120EAE7206920B1354600264D
:1021F0004FF0200815E00025FAE74B460022802129
:102200002046009701F0A2F918B184F8418003201C
:10221000D5E7ADB1216815F8010B4860E08C401E90
:10222000E084E08C0028E8D14B4600224021204683
:10223000009701F08BF950B184F841800320BEE78C
:1022400036F8020B2168C0F308004860E6E784F81E
:1022500041800020B3E7FEE708B50D48016841F46E
:1022600080010160006800F48000009000221146A7
:102270003B20FEF717FC3B20FEF706FC0022114630
:102280004520FEF70FFCBDE808404520FEF7FCBBEB
:102290003038024010B504490448FEF704F90249F9
:1022A000491E087010BD000016080020884D000867
:1022B00070B586B0142101A8FDF7BCFF00242148A9
:1022C000016841F080010160016801F08001009126
:1022D000016841F001010160016801F00101009114
:1022E000016841F004010160016801F004010091FE
:1022F000016841F008010160006800F008000090EA
:10230000114E012210213046FEF755FB01250195A3
:102310000294039401A93046FEF75EFA1021019160
:10232000029503940320049001A93046FEF754FA65
:10233000082001900294039401A90448FEF74CFA86
:1023400006B070BD3038024000000240000C024070
:10235000074806490160002141608160C160016158
:1023600041610A21816102F08BBB0000002C014019
:102370004C0D002010B510480E4901604FF48271D9
:10238000416000218160C160016141614FF40072D0
:1023900082610822C2610162416281620A21C162D6
:1023A000FFF72CFC002803D0BDE81040FEF779B8F9
:1023B00010BD000000300140900E002010B50C4808
:1023C0000A4901604FF4E131416000218160C16040
:1023D00001610C2242618161C161FFF77CFE00282E
:1023E00003D0BDE81040FEF75CB810BD00100140FE
:1023F000E80E0020FEE7FEE770470A6842624A687E
:102400008262D1E902231A43D1E904310B431A4312
:10241000C16A21F0F7011143C162002070470069D1
:10242000C0B27047006800F003007047084440697C
:10243000704700000148FEF7C3BF00004C0D0020AC
:102440000FB4DDE901121143DDE903231A431143FF
:10245000059A1143069A1143426847F6FF639A436F
:102460000A434260002004B070470321016000204D
:102470007047D0F8800070470A688260D1E9012374
:102480001A43D1E903310B431A43C1686FF30B01BF
:102490001143C160002070470968C0F88010002017
:1024A000704710B585B00446009137210191402155
:1024B0000291002103914FF4806104916946204606
:1024C000FFF7DAFF41F288323721204600F09EF90B
:1024D00005B010BD10B585B004460A4A11430091FD
:1024E000292101914021029100210391510D049174
:1024F00069462046FFF7C0FF204600F043FA05B0CA
:1025000010BD00000000108010B585B00446009199
:102510001021019140210291002103914FF480612B
:10252000049169462046FFF7A7FF41F28832102147
:10253000204600F06BF905B010BD10B585B004461B
:1025400000910621019140210291002103914FF455
:102550008061049169462046FFF78EFF41F2883280
:102560000621204600F052F905B010BD10B586B026
:102570000446002101910291039104914FF480617E
:10258000059101A92046FFF777FF204600F026F9C4
:1025900006B010BD10B585B004464FF4D57100915A
:1025A0000821019140210291002103914FF48061A3
:1025B000049169462046FFF75FFF204600F04AFA83
:1025C00005B010BD10B585B00446009112210191EF
:1025D00040210291002103914FF4806104916946EA
:1025E0002046FFF749FF41F288321221204600F0D1
:1025F0000DF905B010BD10B585B00446009111214C
:10260000019140210291002103914FF480610491D6
:1026100069462046FFF730FF41F2883211212046FB
:1026200000F0F4F805B010BD10B585B00446009276
:102630000721019140210291002103914FF4806014
:10264000049069462046FFF717FF41F288320721C0
:10265000204600F0DBF805B010BD10B585B004468B
:102660000021009102220192C022029203914FF4B4
:102670008061049169462046FFF7FEFE204600F087
:1026800057F905B010BD10B585B004460091092179
:102690000191C0210291002103914FF480610491C6
:1026A00069462046FFF7E8FE204600F041F905B0F4
:1026B00010BD10B585B0044600210091332201926F
:1026C0004022029203911101049169462046FFF7CE
:1026D000D3FE41F288323321204600F097F805B04E
:1026E00010BD10B585B0044600910D210191402127
:1026F0000291002103914FF48061049169462046C4
:10270000FFF7BAFE41F288320D21204600F07EF834
:1027100005B010BD70B585B006460D460023009388
:1027200003240194402402940393230104936946F3
:102730003046FFF7A1FE2A460321304600F044F957
:1027400005B070BD10B585B00446002100910C2283
:1027500001924022029203911101049169462046A0
:10276000FFF78AFE034A0C21204600F04FF805B01F
:1027700010BD000000E1F50510B585B004460091DC
:102780001921019140210291002103914FF48061B0
:10279000049169462046FFF76FFE41F28832192105
:1027A000204600F033F805B010BD10B585B00446E2
:1027B00000911821019140210291002103914FF4D1
:1027C0008061049169462046FFF756FE41F2883247
:1027D0001821204600F01AF805B010BD0A494FF440
:1027E000FA520968B1FBF2F141F288325143491EB5
:1027F0004A1C06D0426B1206F9D5C5218163002020
:1028000070474FF0004070471008002010B5034695
:1028100045484FF4FA540068B0FBF4F45443641E86
:10282000601C0BD0586B10F0450FF8D00005F6D4A3
:10283000586B400705D50420986310BD4FF0004049
:1028400010BD586BC00702D00120986310BDC52091
:1028500098631846FFF7E3FD884201D0012010BDC0
:1028600000211846FFF7E2FD3049084201D100205F
:1028700010BD002802DA4FF0007010BD410001D5F4
:10288000402010BD810001D5802010BDC10002D5BF
:102890004FF4807010BD010102D54FF4007010BDDF
:1028A000410102D54FF4806010BDC10102D54FF443
:1028B000006010BD010202D54FF4805010BD4102EE
:1028C00002D54FF4005010BD810202D54FF4804074
:1028D00010BDC10202D54FF4004010BD410302D526
:1028E0004FF4003010BD810302D54FF4802010BD9D
:1028F000C10302D54FF4002010BD010402D54FF4EE
:10290000801010BD410402D54FF4001010BD8104A9
:1029100002D54FF4800010BD000702D54FF400002F
:1029200010BD4FF4803010BD1008002008E0FFFDFE
:1029300013494FF4FA520968B1FBF2F241F28831BF
:102940004A43521E511C0CD0416B11F0450FF8D078
:102950000905F6D4416B490706D50421816304209B
:1029600070474FF000407047416BC90703D0012109
:10297000816301207047C5218163002070470000FA
:10298000100800200F494FF4FA520968B1FBF2F227
:1029900041F288314A43521E511C0CD0416B11F058
:1029A000450FF8D00905F6D4416B490706D5042137
:1029B0008163042070474FF000407047C521816358
:1029C000002070471008002030B5034620484FF41F
:1029D000FA540068B0FBF4F441F288304443641EBA
:1029E000601C0BD0586B10F0450FF8D00005F6D4E2
:1029F000586B400705D50420986330BD4FF0004068
:102A000030BD586BC00702D00120986330BD184616
:102A1000FFF705FD884201D0012030BDC520986335
:102A200000211846FFF702FD10F4604F04D0410466
:102A300006D54FF4005030BD000C1080002030BD92
:102A4000000402D54FF4805030BD4FF4803030BDCB
:102A50001008002014494FF4FA520968B1FBF2F251
:102A600041F288314A43521E511C0CD0416B11F087
:102A7000450FF8D00905F6D4416B490706D5042166
:102A80008163042070474FF000407047416BC907D5
:102A900003D00121816301207047416B490601D5B4
:102AA00040218163002070471008002010B5064CBB
:102AB00001202070FDF742FC18B9207820F00100B9
:102AC0002070207810BD00001408002010B5846B21
:102AD00040F23A50216888632046FEF761FC0121EC
:102AE00084F8341000212163062801D0052805D17F
:102AF0002068FFF727FEA16B0843A063A06B18B105
:102B00002046FEF747FB10BD2046FEF7DDFA10BD5C
:102B100010B5846B40F23A50216888632046FEF776
:102B20003FFC012184F8341000212163062801D0E4
:102B3000052805D12068FFF705FEA16B0843A063B7
:102B4000A06B18B12046FEF725FB10BD2046FEF70E
:102B5000BBFA10BD2DE9F04788B004460E46FDF7DC
:102B600031FF07460025AA46CDF800A0CDF804A005
:102B700008212068FFF7C8FC002842D1B4F85000B3
:102B800001042068FFF78DFC00283AD1401E029016
:102B90004FF00808CDF80C80302004904FF0020967
:102BA000CDF81490CDF818A00120079002A9206854
:102BB000FFF723FC2068FFF77CFD002821D1EA46BF
:102BC00010E0416B890205D5FFF753FC4AF8250058
:102BD0006D1C02E0416B890409D5FDF7F3FEC01BB3
:102BE000401C11D02068416B11F02A0FE9D02168F8
:102BF000496B090702D4416B890508D5C0F83880B4
:102C0000082008B0BDE8F0874FF00040F9E7416BBD
:102C1000890703D5C0F838900220F2E7416B890696
:102C200003D5202181632020EBE740F23A518163F4
:102C300001980199000601F47F4140EA01200199C1
:102C400001F47F0140EA1120019940EA11603060EF
:102C500000980099000601F47F4140EA01200099A4
:102C600001F47F0140EA1120009940EA1160706090
:102C70000020C6E710B590B00446012004902068FB
:102C8000FFF7D0FB002854D0606C032819D02068CF
:102C9000FFF7E3FC00284AD100212068FFF7C6FBBC
:102CA000606704212068FFF7C1FBA0670821206846
:102CB000FFF7BCFBE0670C212068FFF7B7FBC4F807
:102CC0008000606C032805D004A92068FFF722FD6E
:102CD00000282CD1606C03281CD0BDF810002065A2
:102CE00001042068FFF7CFFC002820D100212068D4
:102CF000FFF79CFB606604212068FFF797FBA06646
:102D000008212068FFF792FBE0660C212068FFF79E
:102D10008DFB206704212068FFF788FB000DE0642D
:102D200005A92046FEF760FA30B14FF0805010B090
:102D300010BD4FF08060FAE7B4F8500000230204A1
:102D40002068FFF771FC0028F1D1D4E90512206951
:102D50008DE807000FCCFFF773FB0020E7E70000CA
:102D60002DE9F84F0446002700970026002520682B
:102D7000FFF7FCFB002819D12068FFF70BFC4FF090
:102D8000010930B1A7642068FFF7F0FB00280DD1DE
:102D900001E0C4F84890A06C4FF0805A012807D198
:102DA00000212068FFF77DFB10B15046BDE8F88F89
:102DB0004FF6FF7815E000212068FFF772FB00282E
:102DC000F4D111492068FFF785FB08B15046EDE7C3
:102DD00000212068FFF72AFB0646F50F0098401CEB
:102DE00000900098404501D2002DE4D00098404565
:102DF00002D34FF08070D9E7700002D5C4F8449038
:102E000000E067640020D1E7000010C12DE9F04127
:102E10000746BC6AFD6A002D11D000263868FFF70E
:102E200028FB2070010A6170010CA170000EE07097
:102E3000241D2D1F761C082EF0D3BC62FD62BDE858
:102E4000F08170B504460D46002D0ED0B4F8500048
:102E500001042068FFF745FC002805D10021206807
:102E6000FFF7E4FA2860002070BD4FF0006070BDED
:102E70001CB5044600200090019000212068FFF757
:102E8000D5FA800102D54FF400601CBD694620468A
:102E9000FFF760FE0028F8D10198C0030ED5B4F802
:102EA000500001042068FFF7FCFA0028EDD1002152
:102EB0002068FFF742FB0028E7D11CBD4FF080607F
:102EC0001CBD1CB504460020009001900021206824
:102ED000FFF7ACFA800102D54FF400601CBD6946D3
:102EE0002046FFF737FE0028F8D1019840030ED5A1
:102EF000B4F8500001042068FFF7D3FA0028EDD1A0
:102F000002212068FFF719FB0028E7D11CBD4FF014
:102F100080601CBDF8B507463C6A7D6A002D19D05B
:102F2000002620780090617840EA01200090A17886
:102F300040EA01400090E178241D40EA01600090E1
:102F40002D1F69463868FFF7A7FA761C082EE8D3CC
:102F50003C627D62F8BD000070B50546054C01205D
:102F60002070FDF7F7F918B92846FFF79FFD20708C
:102F7000207870BD1408002010B588B0144614489D
:102F80000078C00702D0032008B010BD39B1012974
:102F900007D002290CD0032911D00420F4E7002027
:102FA000F2E76846FDF7C4F9069820600020EBE7D9
:102FB0006846FDF7BDF9079820800020E4E76846E1
:102FC000FDF7B6F90798400A20600020DCE7000012
:102FD00014080020084610B511461A460124A31E05
:102FE000FDF7DCF920B9FDF7A9F90028FBD1002491
:102FF000204610BDFFF75ABD084610B511461A46C7
:103000000124A31EFDF7DCF920B9FDF797F900288C
:10301000FBD10024204610BD10B50A46018A406845
:1030200089B2FDF7C8FC0020401C0A28FCDB10BD5B
:10303000FDF7C0BB3EB5044641A0006802900025E4
:1030400000212046FFF7E8FF64200090042301AA36
:1030500002A9204600F0B0F8E0B101212046FFF7B8
:10306000DBFF9DF8050020729DF80610E1729DF8C7
:103070000710617200228C2829D017DC372826D04F
:103080000DDC012823D0042821D01C281FD02028A3
:103090001CD11CE001212046FFF7BEFF4DE0622855
:1030A00015D0852813D0892810D110E0C2280ED061
:1030B00006DCA1280BD0AD2809D0BF2806D106E038
:1030C000C82804D0D52802D0EF2800D022721139A8
:1030D00010292AD2DFE801F0080B0E1114171A1D6F
:1030E00021292929292929250220E0611EE004201F
:1030F000E0611BE00820E06118E01020E06115E0CD
:103100002020E06112E04020E0610FE08020E061DB
:103110000CE04FF48070E06108E04FF40070E06173
:1031200004E04FF48060E06100E06272E069000159
:10313000A0610003000A6061012528463EBD000031
:103140009FFFFFFF2DE9F04104460E4617469846C3
:103150000025002C23D016B30FB3A07A01281ED06F
:1031600020212046FDF766F826606760C4F81080CD
:1031700001212046FFF750FF02E00120FFF758FF32
:10318000FDF720FC1428F8D3204600F021F830B1D8
:103190002046FFF74FFF05460DB10120A0722846DB
:1031A000BDE8F08110B5002492B20068FEF7BAFDC8
:1031B00000B90124204610BD38B5049D00240095B7
:1031C0009BB20068FEF778FE00B90124204638BDA6
:1031D00038B5054601240AA0006800900021284661
:1031E000FFF71AFF6423012269462846FFF7DAFF3A
:1031F00000B9002401212846FFF70EFF204638BD04
:10320000040000007CB504460E46154633460122F4
:1032100002212046009500F033F828B1606D40F09F
:103220002000606503207CBD134814490068B0FB92
:10323000F1F04FF47A71484301906068B0F5827FF5
:103240000DD13346002280212046009500F018F869
:1032500078B1606D40F02000606503207CBD01986E
:1032600038B10198401E019020688068C043000674
:10327000F5D500207CBD00001008002000366E014E
:103280002DE9F84304460F4691461E46089DFDF77A
:1032900099FB401B351AFDF795FB804626480068D0
:1032A000C0F3CB30684300903AE0701C38D0FDF793
:1032B00089FBA0EB0800A84203D215B1009858B3CF
:1032C0002BE02068416821F0E00141606068B0F5C2
:1032D000827F0BD1A068B0F5004F02D0B0F5806FAF
:1032E00004D12068016821F040010160A06AB0F5B6
:1032F000005F09D12068016821F400510160206855
:10330000016841F4005101600120503460700020D8
:1033100020700320BDE8F88300250098401E00902F
:103320002068806837EA000004D000204845BCD1FE
:103330000020EFE70120F9E7100800207047FDF7B3
:1033400047BB000030B593B0302107A8FCF772FFEF
:10335000142102A8FCF76EFF00251D48016841F00A
:1033600080510160006800F08050019019480168A8
:1033700041F480410160006800F480400190012028
:1033800007900004089002240D9480010E90042000
:103390000F90A820109011940720129007A8FDF715
:1033A000B3FC08B1FDF77DF80F200290039404955B
:1033B0004FF4A05005904FF480500690052102A8CC
:1033C000FDF7A2FB002801D0FDF76BF813B030BD6C
:1033D00040380240007000400248016841F470012A
:1033E0000160704788ED00E001680C3151E8002F62
:1033F00022F4907241E80023002BF5D101681431CA
:1034000051E8002F22F0010241E80023002BF5D102
:10341000016B012909D101680C3151E8002F22F01C
:10342000100241E80023002BF5D1202180F8421042
:1034300000210163704700002DE9F0410446206837
:103440000169E26821F4405111430161A1682069DA
:10345000E26901436069104301432068C26849F290
:103460000C639A430A43C26020684169A26921F44F
:1034700040711143416133492068884202D032498A
:10348000884202D1FDF7FCFB01E0FDF7E9FBE169B1
:103490000023192764253226B1F5004F28D0616832
:1034A0008B0F8A00A0FB0701FCF78CFE0146B0FBE6
:1034B000F5F07A42504301EB800006EB0010B0FBC0
:1034C000F5F000F0F002B1FBF5F002EB0012B1FBF9
:1034D000F5F07B42584301EB800006EB0010B0FB97
:1034E000F5F0216800F00F0010448860BDE8F0811D
:1034F00061684A18A0FB07015B41FCF763FE0146C7
:10350000B0FBF5F00201B1FBF5F06FF01803584382
:1035100001EB800006EBC000B0FBF5F000F0F80016
:1035200002EB4002B1FBF5F0584301EB800006EBE3
:10353000C000B0FBF5F0216800F00700104488607F
:10354000D4E7000000100140001401402DE9F843C9
:1035500004460D4617469846089E25E0701C23D069
:10356000FDF730FAA0EB0800B0421BD8D6B12068B6
:10357000C168490718D5802D16D0402D14D0016898
:10358000C943090710D400252168096840680090E4
:103590002046FFF729FF0820606484F8405001208E
:1035A000BDE8F8830320FBE72068006835EA0000E7
:1035B00004D00020B842D1D00020F1E70120F9E783
:1035C000FEE700000FB4054B10B503A9044A0298AA
:1035D00000F028F810BC5DF814FB00007D450008E1
:1035E000240800200907090E002804DB00F1E02070
:1035F00080F80014704700F00F0000F1E02080F820
:10360000141D704702E008C8121F08C1002AFAD131
:1036100070477047002001E001C1121F002AFBD152
:10362000704700002DE9FF4F8BB09A460F460546C4
:10363000002606E025280BD052460D9990476D1CB8
:10364000761C28780028F5D10FB03046BDE8F08F01
:103650000024A0460122604900E0044315F8013F20
:10366000203B02FA03F00842F7D128782E2817D120
:1036700015F8010F44F004042A280ED06FF02F0231
:103680002878A0F1300109290AD808EB880102EB5B
:10369000410100EB01086D1CF2E757F8048B6D1C2B
:1036A000287869283ED006DC0028CDD063280BD0CE
:1036B000642804D136E0732810D075284BD05246C8
:1036C0000D999047761C85E017F8040B8DF80000E3
:1036D00000208DF80100E946012003E057F8049B23
:1036E0004FF0FF3061074FF0000401D40AE0641C82
:1036F00044450DDA8442FADB19F804100029F6D1AA
:1037000006E0641C8442FCDB19F804100029F8D19F
:10371000264404E019F8010B52460D999047641EA7
:10372000F8D257E001CF4FF00A0B002802DA4042EE
:103730002D2102E0210504D52B218DF82410012133
:1037400003E0E10705D02021F7E70DF120090891FA
:103750000CE00021F9E701CF4FF00A0BF9E75946D9
:10376000FCF773FD01F1300209F8012D0028F6D1B4
:10377000ADEB090000F1200B600701D44FF0010808
:10378000D84502DDA8EB0B0000E0002080460024B5
:1037900006E009A85246005D0D999047641C761C0E
:1037A00008988442F5DB04E0302052460D9990479A
:1037B000761CB8F10001A8F10108F5DC05E019F864
:1037C000010B52460D999047761CBBF10001ABF1FD
:1037D000010BF4DC6D1C34E70928010010B5044628
:1037E0000020E070401EE062204601F01CF808B1A5
:1037F000042010BD04F22E2000F0BAFFA0F52A41EB
:10380000553901D0032010BD94F83000E92805D0C7
:10381000EB2816D194F83200902812D104F16600FA
:1038200000F09BFF0849B1EB002F01D1002010BD33
:1038300004F1820000F091FF0449884201D1002088
:1038400010BD022010BD00000046415446415433D3
:1038500000E0401C02780AB18A42FAD10078704731
:10386000F0B500221546154E11E006EB02131C6858
:103870005CB10768BC4209D15C688768BC4205D16D
:103880009B684469A34204D000E00125521C022A2F
:10389000EBD3022A01D079B906E01DB9022901D083
:1038A0001220F0BD0020F0BD06EB02108089B0F5BB
:1038B000807F01D00020F0BD1020F0BD300F00202F
:1038C00030B50021054B002403EB01121568854239
:1038D00000D11460491C0229F6D330BD300F0020FE
:1038E0000368C26A121D480A5989B0FBF1F002CA86
:1038F00021B1884204D21168084470470020704703
:10390000401A121DF3E7891E4269921E8A4201D8AD
:1039100000207047826A408901FB002070472DE932
:10392000F04180460F46D8F80050002F08D03946A5
:10393000404600F02FFE022809D20120BDE8F081A8
:10394000EE6816B16869B04207D8012605E0411C4F
:10395000F4D069698142F1D83E463446641C6869F6
:10396000A04204D80224022E01D20020E6E721461C
:10397000404600F00FFE38B10128DFD0411CDDD0F9
:10398000B442EBD10020D9E74FF0FF363246214652
:10399000284600F062FF28B927B12246394628465A
:1039A00000F05BFF20B101280FD001242046C5E7BD
:1039B000EC60D5E90401891E884201D8401E2861C7
:1039C000287940F001002871F0E73446EEE7000066
:1039D0002DE9F0478A46DAF8009000F124080B221E
:1039E0002021404600F019FF00252E4608272846D2
:1039F0006D1C19F80040202C15D92F2C0DD05C2CF3
:103A00000BD02E2C01D0BE421AD30B2F01D02E2C5E
:103A100013D00620BDE8F0876D1C19F805002F288B
:103A2000FAD05C28F8D009EB0500CAF80000FEB116
:103A300098F80000E5281DD01FE008260B27D6E7E0
:103A4000802C03D31148204410F8804C10A021464C
:103A5000FFF7FEFE08B10620DCE7A4F1610019289B
:103A600001D8203CE4B23046761C08F80040BEE79E
:103A70000620CFE7052088F80000202C01D804207C
:103A800000E0002088F80B000020C3E79C4D0008F0
:103A9000222A2B2C3A3B3C3D3E3F5B5D7C7F000065
:103AA000401E022810D2094901EB00118889B0F5A7
:103AB000807F00D1002008B1401E80B2888108B903
:103AC000002008600020704702207047300F00205F
:103AD0002DE9F04105460E462F680021284600F0EA
:103AE000E9F888B900243846E96900F09CFE58B925
:103AF000296A0A78E52A0CD05AB100240121284607
:103B000000F035F80028EED0042800D10720BDE8E9
:103B1000F081641CB442F7D0F0E770B50446266823
:103B20000021204600F0C6F800281DD13046E1698A
:103B300000F079FE0546B5B9206A0178A9B1C17ACD
:103B400001F03F01A171C17A090705D40B2204F1EC
:103B5000240100F04DFE30B10021204600F007F8AE
:103B60000546002DE2D0284670BD0425FBE72DE96F
:103B7000F04705460F462C68D5F8148008F1200858
:103B8000E869002802D0B8F5001F02D30420BDE880
:103B9000F0875FEAC85166D1401CE861A9694FF01F
:103BA000000929B16089401E10EA582F08D05AE058
:103BB0002089B0EB581F56D8C5F81C900420E6E7C2
:103BC000284600F0E7FC0646012E01D80220DEE779
:103BD000701C14D06069B0423FD897B12846A969DB
:103BE000FFF79DFE064630000FD0012E0FD0701C4F
:103BF0000FD0204601F072F868B10120C7E701201C
:103C0000C5E7C5F81C900420C1E70720BFE70220E4
:103C1000BDE70120BBE74FF40072002104F1300042
:103C200000F0FBFD002731462046FFF76CFEE06206
:103C30004FF001090BE084F80390204601F04EF8A4
:103C400008B10120A3E77F1CE06A401CE0626089A4
:103C5000B842F0D8E06AC01BE062AE61314620464F
:103C6000FFF751FEE861C5F81480C8F3080020444E
:103C70003030286200208AE770B5044626680121AA
:103C80002046FFF725FF054695B93046E16900F06B
:103C9000CAFD054665B920220021206A00F0BDFD5D
:103CA0000B2204F12401206A00F0AEFD0120F07027
:103CB000284670BD2DE9F04106460D463768B5F53A
:103CC000001F01D2E80602D00220BDE8F081756134
:103CD000B4681CB93878032800D37C6A1CB1788991
:103CE0004FEA40281AE03889B0EB551F01D802206E
:103CF000EBE7786AF06118E02146304600F04AFCB4
:103D00000446601C06D0022C02D37869A04203D876
:103D10000220DAE70120D8E7A5EB08054545EBD2FC
:103D200021463846FFF7EFFDF061B461F06948B114
:103D300000EB5520F061C5F30800384430303062A4
:103D40000020C2E70220C0E770B504460020084DFD
:103D5000295D00290AD105EB840128194968007AF8
:103D600009688847002801D10121295570BD00004C
:103D7000500F002030B4054B1C1803EB8000247A50
:103D800040680369204630BC18470000500F0020EF
:103D900030B4054C251804EB80002D7A4068846807
:103DA0002846A44630BC6047500F002004490A183A
:103DB00001EB8000127A4068416810460847000015
:103DC000500F002030B4054C251804EB80002D7AEC
:103DD0004068C4682846A44630BC6047500F0020A5
:103DE0000020084900E0401C022804D201EB001228
:103DF0001268002AF7D1022801D001207047002064
:103E000070470000300F002038B50446204600F00F
:103E1000F3F900280CD16946204600F089FF0028FC
:103E200006D12069FFF73CFE002801D10021216066
:103E300038BD00002DE9F74181B016460298009088
:103E4000684600F00BFC0446002C03DA0B2004B09B
:103E5000BDE8F0810E4F57F824504FF0000825B10F
:103E60002846FFF72DFD85F800800198002801D035
:103E700080F8008047F8240001D0012E01D00020F6
:103E8000E5E7002201A902A800F0FEF9DFE7000043
:103E9000200800202DE9F7438EB00546002D0BD0F9
:103EA00002F03F06324601A90FA800F0EDF90446E2
:103EB0004FF0000824B1DFE0092011B0BDE8F08325
:103EC0000198029002A80F9900F01CFB0446200004
:103ED0000ED19DF83700000601D5062408E07008D1
:103EE00001D0012100E0002102A8FFF7B9FC04463F
:103EF00016F01C0F51D06CB1042C08D1FFF770FFE5
:103F000020B102A8FFF7B8FE044600E0122446F0F4
:103F1000080609E09DF80E0010F0110F01D00724EB
:103F200002E0700700D50824B4BB300741D500F08B
:103F300093FB07460A9839460E3000F07FFE0A9838
:103F40003946163000F07AFE0A992020C8720A9984
:103F5000019800F0EFFB074600220A99019800F053
:103F600059FE0A9800211C3000F068FE01980121DA
:103F7000C1708FB1D0F82C900022394602A800F011
:103F8000E9FC0446200014D14946019800F04BFC9E
:103F9000044601987F1EC7600BE054B99DF80E00DF
:103FA000C10601D5042404E0B10702D5C00700D042
:103FB00007249CB9300701D546F040060198C06A35
:103FC00068620A98A862700801D0012100E000210F
:103FD00002A800F06BFB286100B90224ECBB0A992F
:103FE000019800F0A7FBA8600A981C3000F0B5FB10
:103FF000E860C5F82C80019828600198C088A880E6
:104000002E7585F81580C5F82080C5F8188005F153
:1040100030004FF400720021814600F0FEFBB00634
:104020002AD5EE68CEB1AE61019840894702A968F1
:104030000AE0284600F0AEFA0146012900D8022421
:10404000481C00D10124F61B0CB9BE42F1D8E9612D
:104050001CB9F00510D0019800E00DE0FFF753FC0B
:1040600078B100EB56222A62019801234946407834
:10407000FFF78EFE00B101240CB1C5F80080204688
:104080001BE70224F8E72DE9FC5F04460F461646BD
:1040900098460020C8F800006946204600F048FE17
:1040A000002812D1607D00280FD1207DC0070BD0E1
:1040B000A169E068401A864200D9064604F1300042
:1040C0004FF00109019092E00720BDE8FC9FA16933
:1040D000C80574D100984089401E00EA512ABAF1FF
:1040E000000F14D129B1E06A28B12046FFF7F8FB90
:1040F00005E0A06803E02046E16900F04BFA0228E1
:1041000002D202206075E0E7411C1CD0E061E16949
:104110000098FFF7F8FBD0B100EB0A0B750A55B316
:1041200000980AEB050241898A4201D9A1EB0A05F0
:1041300040782B465A463946FFF72AFE50B184F89C
:1041400015900120C1E784F815900120BDE70220F9
:104150006075BAE7207D00060BD5206AA0EB0B0046
:10416000A84206D207EB40204FF40072019900F0FC
:104170004BFB6D0231E0226A5A451ED0207D0006BD
:104180000ED50098012301994078FFF71BFE18B166
:1041900084F81590012098E7207D00F07F002075BD
:1041A000009801235A4640780199FFF7F1FD20B1AC
:1041B00084F81590012088E701E0C4F820B0208B36
:1041C000C0F30800C0F50075B54200D935460119A5
:1041D00030312A46384600F017FB2F44A0692844A6
:1041E000A061D8F800002844C8F80000761B002E13
:1041F0007FF46DAF002068E7F8B5044669462046B5
:1042000000F096FD00280ED1217D4A060BD5080648
:104210000ED50098226A0123407804F13001FFF79F
:10422000D1FD08B10120F8BD207D00F07F00207590
:1042300000F012FA0646616A009800F0F4FA0028CD
:10424000F1D1A56AE87A40F02000E8722946A26818
:10425000206800F0DFFC05F11C00E16800F0EEFCD6
:10426000314605F1160000F0E9FC002105F11200CD
:1042700000F0ECFC00980121C17000F0EBFC217D06
:1042800001F0BF012175F8BD2DE9FF410E469046B2
:104290000027376000F0E2F90546280003D50B201F
:1042A00004B0BDE8F081944850F8254094B13460E2
:1042B00008F0FE06207820B16078FFF777FDC1078F
:1042C0000AD02770E8B26070FFF73EFDC1070AD040
:1042D0000320E5E70C20E3E71EB1400701D50A20E3
:1042E000DEE70020DCE71EB1400701D50A20D7E752
:1042F000002529462046FFF771FA02281FD1E8461B
:1043000004EB051000F5F770017919B1083000F0E1
:1043100024FA00E0002048F825006D1C042DEFD39E
:10432000002658F8265025B129462046FFF756FAB0
:1043300000E00320022802D3761C042EF1D30428C7
:1043400003D0022803D30D20AAE70120A8E704F137
:104350003B0000F00DFAB0F5007F01D00D209FE783
:1043600004F1460000F004FA18B904F1540000F01A
:10437000F4F9A06194F8408084F80280B8F1010F4C
:1043800004D0B8F1020F01D00D2089E708FB00F836
:1043900094F83D00608110B1411E084201D00D200B
:1043A0007EE704F1410000F0E3F92081000701D02D
:1043B0000D2075E704F1430000F0DAF906463000FD
:1043C00004D104F1500000F0C8F9064604F13E00A3
:1043D00000F0CEF9014641B1238901EB080000EB62
:1043E0001312964203D20D205AE70D2058E7B01A57
:1043F0006689B0FBF6F030B303264FF6F57C6045D6
:1044000000D8022640F6F57C604500D80126801CC5
:104410006061E561294421622A44A262032E14D01E
:1044200033B341446162022E24D000F0010100EB5D
:10443000400001EB5000A16900F2FF10B1EB502FDA
:104440001AD20D202CE70D202AE704F15A0000F0C3
:104450008FF908B10D2023E7208908B10D201FE74F
:1044600004F15C0000F079F9606260698000E2E7C5
:104470000D2015E74000DEE74FF0FF302061E060DF
:1044800080202071032E2BD104F1600000F070F920
:10449000012825D1691C204600F0C5F900BB277111
:1044A00004F22E2000F064F9A0F52A41553917D105
:1044B00004F1300000F051F91049884210D104F5A0
:1044C000057000F04AF90E49884209D104F50670DA
:1044D00000F043F9206104F5077000F03EF9E06058
:1044E00026700549091F0888401C0880E080204686
:1044F000FFF7E6F90020D3E6200800205252614180
:104500007272416173B50446256801E0491C01914E
:10451000019908782F28F9D05C28F7D00021A160F4
:1045200001980078202806D2802084F82F002046A9
:10453000FFF7C0FB7CBD01A92046FFF749FA002820
:10454000F8D12046FFF7E9FA94F82F1028B1042893
:10455000F0D14907EED405207CBD4907FCD4A079F1
:10456000C00601D405207CBDA08AC0F30800411913
:104570003031284600F0DEF8A060DCE713B54FF6D6
:10458000FF73012269460248FDF70EFE00981CBD2C
:10459000E80E00202DE9F0470D460468022D02D3F5
:1045A0006069A84201D8012609E04FF0FF36207863
:1045B000012807D002282CD003283AD00126304603
:1045C000BDE8F08705EB5507206A00EB5721204630
:1045D00000F029F90028F2D1C7F30800204407F1C0
:1045E000010890F83090206A00EB5821204600F036
:1045F0001AF90028E3D1C8F30800204490F83000ED
:1046000049EA0020E90701D00609D8E7C0F30B0604
:10461000D5E7206A00EB1521204600F004F90028B8
:10462000CDD1E8B204EB4000303000F0A1F80646EE
:10463000C5E7206A00EBD511204600F0F4F8002809
:10464000BDD140F2FF1000EA85002044303000F078
:1046500084F820F07046B2E70020704710B5044699
:104660004FF0FF302368002B0BD0194600E0491CA7
:104670000A78212A01D33A2AF9D10A783A2A01D0B4
:10468000002010BD13F8012B303A0A2AF9D28B42D0
:10469000F7D1002AF5D11046491C216010BD000059
:1046A00001460148FCF76ABE28080020F0B5024622
:1046B00000201F4D146805EB00131E68A64207D1A9
:1046C0005E689768BE4203D19B685669B34202D0C8
:1046D000401C0228EFD3022814D1002000E0401C27
:1046E000022804D205EB00131B68002BF7D1022827
:1046F0000FD005EB00131C6094685C6052699A60EF
:1047000000229A8139B105EB001292891AB100207A
:10471000F0BD0020F0BD11B14FF4807103E005EB56
:1047200000118989491C05EB00129181401CF0BDE4
:10473000300F002070B506460D4605F11A0000F056
:1047400017F804463078032805D105F1140000F06D
:104750000FF844EA0044204670BDC178827842EAEE
:104760000121427842EA0121007840EA01207047A5
:104770004178007840EA012070470000FCF730F9EA
:10478000FEF7E0FDFDF794FDFDF766FDFDF7F2FD98
:10479000FDF7DEFDFDF712FEFDF77CFD10230B4A51
:1047A0000B490C48FEF7CEFC0B48016800208847F7
:1047B00002E00AA0FEF706FF00F062F90028F8D137
:1047C00000F082F900F002F9FEE70000000002406C
:1047D000900E0020CC080020884D000863686563B7
:1047E0006B205344206572726F720D0A0000000046
:1047F00010B510F8013B11F8014B1B1B521E01D0E4
:10480000002BF6D0184610BD002A05D011F8013B48
:1048100000F8013B521EF9D17047C9B200F8011BE4
:10482000521EFBD1704770B504460E460025E06A63
:10483000B04210D0204600F051FA05465DB96078CC
:104840000123324604F13001FFF7A2FA10B14FF014
:10485000FF360125E662284670BD2DE9F047044683
:104860000D4617460226022D71D36069A8426ED903
:1048700020784FF0010A012804D002283AD00328FA
:1048800065D14AE005EB5508206A00EB5821204627
:10489000FFF7C9FF0646300059D1C8F3080020448D
:1048A00008F101093030E90704D00178FAB262F367
:1048B0001F1100E03946017084F803A0206A00EB64
:1048C00059212046FFF7AFFF064630003FD1C9F31C
:1048D000080020443030E90702D0C7F3071105E093
:1048E0000178C7F3032201F0F0011143017084F84D
:1048F00003A02CE0206A00EB15212046FFF793FF70
:104900000646300023D1E8B204EB4000B9B23030A3
:1049100000F09CF984F803A019E0206A00EBD5119F
:104920002046FFF780FF0646300010D140F2FF100E
:1049300000EA8500204430300546FFF70EFF67F39C
:104940001B000146284600F079F984F803A03046A0
:10495000BDE8F0872DE9F0410E46074611463C6858
:10496000022E02D36069B04202D80220BDE8F08175
:1049700031B14FF0FF322046FFF76FFF0028F5D12D
:1049800031463846FFF706FE0546280018D0012DAF
:1049900018D0681C18D0002231462046FFF75DFF72
:1049A0000028E3D1D4E90410821E914205D2491CAB
:1049B0002161217941F0010121712E46B042DFD8F9
:1049C0000020D3E70220D1E70120CFE700B585B072
:1049D000012212A11248FFF72DFA014611B111A0D0
:1049E000FEF7F0FD012215A11748FFF753FA17490A
:1049F000887018B1014616A0FEF7E4FD04AB102242
:104A000069461148FFF73FFB694617A0FEF7DAFD3C
:104A10000D48FFF7F9F905B000BD0000303A00007D
:104A2000EC0800206661746673206D6F756E7420EB
:104A30006572726F723A2025640A0000303A2F7452
:104A40006573742E747874001C0B00200000002025
:104A50006661746673206F70656E206572726F7226
:104A60003A2025640A000000E8AFBBE58F96E58890
:104A7000B0E79A84E695B0E68DAE3A2025730A0039
:104A800010B510480E490160002141608160C1608D
:104A9000016141610A218161FCF77CFD08B10120BF
:104AA00010BD084907488431FCF768FC4FF40061E9
:104AB0000448FCF70DFB08B1022010BD002010BD1A
:104AC000002C01402808002010B586B069461F4818
:104AD000FCF761FB1E48FFF7E3FD1D4C206810B199
:104AE000012810D10CE0606810B1012804D00AE060
:104AF00018A0FEF767FD06E01BA0FEF763FD02E0CD
:104B00001EA0FEF75FFD9DF8001021A0FEF75AFDE4
:104B100026A0E168FEF756FD28A0A169FEF752FD28
:104B20002BA0E169FEF74EFD0848D0E91710A1FB64
:104B30000010090D41EA00312AA0FEF743FD2FA025
:104B40006169FEF73FFD06B010BD00002808002097
:104B5000AC0800204361726420547970653A534474
:104B600053432056310D0A0043617264205479701A
:104B7000653A534453432056320D0A004361726430
:104B800020547970653A534448430D0A00000000F0
:104B900043617264204D616E756661637475726500
:104BA0007249443A25640D0A0000000043617264B2
:104BB000205243413A25640D0A0000004C6F6742C1
:104BC0006C6F636B4E62723A2564200D0A00000020
:104BD0004C6F67426C6F636B53697A653A2564204A
:104BE0000D0A00004361726420436170616369745F
:104BF000793A2564204D420D0A0000004361726439
:104C000020426C6F636B53697A653A25640D0A0D17
:104C10000A00000070B506460C461546A9B204F11C
:104C20001A0000F013F83078032806D1290C04F19B
:104C30001400BDE8704000F009B870BD0170090AA9
:104C40004170090A8170090AC17070470170090A30
:104C50004170704770B50446204600F03FF80546A5
:104C6000B5BB207803282CD12079012829D1420214
:104C700004F1300000210646FFF7CFFD4AF655212A
:104C800004F22E20FFF7E2FF12493046FFF7D6FF6D
:104C9000114904F50570FFF7D1FF04F5067021698D
:104CA000FFF7CCFF04F50770E168FFF7C7FFE26983
:104CB000521CE262607801233146FFF783F800203E
:104CC0002071002260781146FFF754F800B10125E9
:104CD000284670BD52526141727241612DE9F04126
:104CE00004460027E07800281FD0E66A04F130016E
:104CF0006078012332468846FFF764F808B101273F
:104D000013E00020E070206AA169301A88420CD2BA
:104D1000A57808E0A0690644607801233246414640
:104D2000FFF750F86D1E022DF4D23846BDE8F08131
:104D300070B504460E460925002C0DD0206858B1E8
:104D4000017849B1A188C288914205D14078FFF726
:104D50002DF8C00700D100251DB100203060284685
:104D600070BD2068FAE70006101600061016000055
:104D7000000000000000010203040607080900000B
:104D80000000010203040000592F0008F52F00085D
:104D9000D52F0008F92F0008792F00084355454109
:104DA0004141414345454549494941414592924F19
:104DB0004F4F5555594F554F9C4F9E9F41494F5509
:104DC000A5A5A6A7A8A9AAABACADAEAFB0B1B2B32A
:104DD000B4414141B8B9BABBBCBDBEBFC0C1C2C37A
:104DE000C4C54141C8C9CACBCCCDCECFD1D1454530
:104DF0004549494949D9DADBDCDD49DF4FE14F4F0D
:104E00004F4FE6E8E85555555959EEEFF0F1F2F3FA
:104E1000F4F5F6F7F8F9FAFBFCFDFEFF01000400DB
:104E20001000400000010002000001000200040028
:104E30000800100020000000584E0008000000206C
:104E400028080000D8020008884E00082808002022
:104E5000380B000014360008410013FF54686973D2
:104E60002077726974652064617461206F6B01FF43
:104E700001FF01FF01FF01FF01FF01FE420192104E
:084E8000051424F400010000F8
:040000050800018965
:00000001FF
